{
	"contracts/RecordManager.sol": {
		"RecordManager": {
			"abi": [
				{
					"inputs": [
						{
							"internalType": "address",
							"name": "_accessControl",
							"type": "address"
						},
						{
							"internalType": "address",
							"name": "_auditLog",
							"type": "address"
						}
					],
					"stateMutability": "nonpayable",
					"type": "constructor"
				},
				{
					"inputs": [],
					"name": "accessControl",
					"outputs": [
						{
							"internalType": "contract IAccessControl",
							"name": "",
							"type": "address"
						}
					],
					"stateMutability": "view",
					"type": "function"
				},
				{
					"inputs": [],
					"name": "auditLog",
					"outputs": [
						{
							"internalType": "contract IAuditLogRM",
							"name": "",
							"type": "address"
						}
					],
					"stateMutability": "view",
					"type": "function"
				}
			],
			"devdoc": {
				"kind": "dev",
				"methods": {},
				"version": 1
			},
			"evm": {
				"assembly": "    /* \"contracts/RecordManager.sol\":304:1502  contract RecordManager {... */\n  mstore(0x40, 0x80)\n    /* \"contracts/RecordManager.sol\":938:1267  constructor(address _accessControl, address _auditLog) {... */\n  callvalue\n  dup1\n  iszero\n  tag_1\n  jumpi\n  revert(0x00, 0x00)\ntag_1:\n  pop\n  mload(0x40)\n  sub(codesize, bytecodeSize)\n  dup1\n  bytecodeSize\n  dup4\n  codecopy\n  dup2\n  dup2\n  add\n  0x40\n  mstore\n  dup2\n  add\n  swap1\n  tag_2\n  swap2\n  swap1\n  tag_3\n  jump\t// in\ntag_2:\n    /* \"contracts/RecordManager.sol\":1038:1039  0 */\n  0x00\n    /* \"contracts/RecordManager.sol\":1012:1040  _accessControl != address(0) */\n  0xffffffffffffffffffffffffffffffffffffffff\n  and\n    /* \"contracts/RecordManager.sol\":1012:1026  _accessControl */\n  dup3\n    /* \"contracts/RecordManager.sol\":1012:1040  _accessControl != address(0) */\n  0xffffffffffffffffffffffffffffffffffffffff\n  and\n  sub\n    /* \"contracts/RecordManager.sol\":1004:1078  require(_accessControl != address(0), \"RecordManager: zero accessControl\") */\n  tag_6\n  jumpi\n  mload(0x40)\n  0x08c379a000000000000000000000000000000000000000000000000000000000\n  dup2\n  mstore\n  0x04\n  add\n  tag_7\n  swap1\n  tag_8\n  jump\t// in\ntag_7:\n  mload(0x40)\n  dup1\n  swap2\n  sub\n  swap1\n  revert\ntag_6:\n    /* \"contracts/RecordManager.sol\":1118:1119  0 */\n  0x00\n    /* \"contracts/RecordManager.sol\":1097:1120  _auditLog != address(0) */\n  0xffffffffffffffffffffffffffffffffffffffff\n  and\n    /* \"contracts/RecordManager.sol\":1097:1106  _auditLog */\n  dup2\n    /* \"contracts/RecordManager.sol\":1097:1120  _auditLog != address(0) */\n  0xffffffffffffffffffffffffffffffffffffffff\n  and\n  sub\n    /* \"contracts/RecordManager.sol\":1089:1153  require(_auditLog != address(0), \"RecordManager: zero auditLog\") */\n  tag_9\n  jumpi\n  mload(0x40)\n  0x08c379a000000000000000000000000000000000000000000000000000000000\n  dup2\n  mstore\n  0x04\n  add\n  tag_10\n  swap1\n  tag_11\n  jump\t// in\ntag_10:\n  mload(0x40)\n  dup1\n  swap2\n  sub\n  swap1\n  revert\ntag_9:\n    /* \"contracts/RecordManager.sol\":1195:1209  _accessControl */\n  dup2\n    /* \"contracts/RecordManager.sol\":1164:1177  accessControl */\n  0x00\n  0x00\n    /* \"contracts/RecordManager.sol\":1164:1210  accessControl = IAccessControl(_accessControl) */\n  0x0100\n  exp\n  dup2\n  sload\n  dup2\n  0xffffffffffffffffffffffffffffffffffffffff\n  mul\n  not\n  and\n  swap1\n  dup4\n  0xffffffffffffffffffffffffffffffffffffffff\n  and\n  mul\n  or\n  swap1\n  sstore\n  pop\n    /* \"contracts/RecordManager.sol\":1249:1258  _auditLog */\n  dup1\n    /* \"contracts/RecordManager.sol\":1221:1229  auditLog */\n  0x01\n  0x00\n    /* \"contracts/RecordManager.sol\":1221:1259  auditLog      = IAuditLogRM(_auditLog) */\n  0x0100\n  exp\n  dup2\n  sload\n  dup2\n  0xffffffffffffffffffffffffffffffffffffffff\n  mul\n  not\n  and\n  swap1\n  dup4\n  0xffffffffffffffffffffffffffffffffffffffff\n  and\n  mul\n  or\n  swap1\n  sstore\n  pop\n    /* \"contracts/RecordManager.sol\":938:1267  constructor(address _accessControl, address _auditLog) {... */\n  pop\n  pop\n    /* \"contracts/RecordManager.sol\":304:1502  contract RecordManager {... */\n  jump(tag_12)\n    /* \"#utility.yul\":88:205   */\ntag_14:\n    /* \"#utility.yul\":197:198   */\n  0x00\n    /* \"#utility.yul\":194:195   */\n  0x00\n    /* \"#utility.yul\":187:199   */\n  revert\n    /* \"#utility.yul\":334:460   */\ntag_16:\n    /* \"#utility.yul\":371:378   */\n  0x00\n    /* \"#utility.yul\":411:453   */\n  0xffffffffffffffffffffffffffffffffffffffff\n    /* \"#utility.yul\":404:409   */\n  dup3\n    /* \"#utility.yul\":400:454   */\n  and\n    /* \"#utility.yul\":389:454   */\n  swap1\n  pop\n    /* \"#utility.yul\":334:460   */\n  swap2\n  swap1\n  pop\n  jump\t// out\n    /* \"#utility.yul\":466:562   */\ntag_17:\n    /* \"#utility.yul\":503:510   */\n  0x00\n    /* \"#utility.yul\":532:556   */\n  tag_31\n    /* \"#utility.yul\":550:555   */\n  dup3\n    /* \"#utility.yul\":532:556   */\n  tag_16\n  jump\t// in\ntag_31:\n    /* \"#utility.yul\":521:556   */\n  swap1\n  pop\n    /* \"#utility.yul\":466:562   */\n  swap2\n  swap1\n  pop\n  jump\t// out\n    /* \"#utility.yul\":568:690   */\ntag_18:\n    /* \"#utility.yul\":641:665   */\n  tag_33\n    /* \"#utility.yul\":659:664   */\n  dup2\n    /* \"#utility.yul\":641:665   */\n  tag_17\n  jump\t// in\ntag_33:\n    /* \"#utility.yul\":634:639   */\n  dup2\n    /* \"#utility.yul\":631:666   */\n  eq\n    /* \"#utility.yul\":621:684   */\n  tag_34\n  jumpi\n    /* \"#utility.yul\":680:681   */\n  0x00\n    /* \"#utility.yul\":677:678   */\n  0x00\n    /* \"#utility.yul\":670:682   */\n  revert\n    /* \"#utility.yul\":621:684   */\ntag_34:\n    /* \"#utility.yul\":568:690   */\n  pop\n  jump\t// out\n    /* \"#utility.yul\":696:839   */\ntag_19:\n    /* \"#utility.yul\":753:758   */\n  0x00\n    /* \"#utility.yul\":784:790   */\n  dup2\n    /* \"#utility.yul\":778:791   */\n  mload\n    /* \"#utility.yul\":769:791   */\n  swap1\n  pop\n    /* \"#utility.yul\":800:833   */\n  tag_36\n    /* \"#utility.yul\":827:832   */\n  dup2\n    /* \"#utility.yul\":800:833   */\n  tag_18\n  jump\t// in\ntag_36:\n    /* \"#utility.yul\":696:839   */\n  swap3\n  swap2\n  pop\n  pop\n  jump\t// out\n    /* \"#utility.yul\":845:1352   */\ntag_3:\n    /* \"#utility.yul\":924:930   */\n  0x00\n    /* \"#utility.yul\":932:938   */\n  0x00\n    /* \"#utility.yul\":981:983   */\n  0x40\n    /* \"#utility.yul\":969:978   */\n  dup4\n    /* \"#utility.yul\":960:967   */\n  dup6\n    /* \"#utility.yul\":956:979   */\n  sub\n    /* \"#utility.yul\":952:984   */\n  slt\n    /* \"#utility.yul\":949:1068   */\n  iszero\n  tag_38\n  jumpi\n    /* \"#utility.yul\":987:1066   */\n  tag_39\n  tag_14\n  jump\t// in\ntag_39:\n    /* \"#utility.yul\":949:1068   */\ntag_38:\n    /* \"#utility.yul\":1107:1108   */\n  0x00\n    /* \"#utility.yul\":1132:1196   */\n  tag_40\n    /* \"#utility.yul\":1188:1195   */\n  dup6\n    /* \"#utility.yul\":1179:1185   */\n  dup3\n    /* \"#utility.yul\":1168:1177   */\n  dup7\n    /* \"#utility.yul\":1164:1186   */\n  add\n    /* \"#utility.yul\":1132:1196   */\n  tag_19\n  jump\t// in\ntag_40:\n    /* \"#utility.yul\":1122:1196   */\n  swap3\n  pop\n    /* \"#utility.yul\":1078:1206   */\n  pop\n    /* \"#utility.yul\":1245:1247   */\n  0x20\n    /* \"#utility.yul\":1271:1335   */\n  tag_41\n    /* \"#utility.yul\":1327:1334   */\n  dup6\n    /* \"#utility.yul\":1318:1324   */\n  dup3\n    /* \"#utility.yul\":1307:1316   */\n  dup7\n    /* \"#utility.yul\":1303:1325   */\n  add\n    /* \"#utility.yul\":1271:1335   */\n  tag_19\n  jump\t// in\ntag_41:\n    /* \"#utility.yul\":1261:1335   */\n  swap2\n  pop\n    /* \"#utility.yul\":1216:1345   */\n  pop\n    /* \"#utility.yul\":845:1352   */\n  swap3\n  pop\n  swap3\n  swap1\n  pop\n  jump\t// out\n    /* \"#utility.yul\":1358:1527   */\ntag_20:\n    /* \"#utility.yul\":1442:1453   */\n  0x00\n    /* \"#utility.yul\":1476:1482   */\n  dup3\n    /* \"#utility.yul\":1471:1474   */\n  dup3\n    /* \"#utility.yul\":1464:1483   */\n  mstore\n    /* \"#utility.yul\":1516:1520   */\n  0x20\n    /* \"#utility.yul\":1511:1514   */\n  dup3\n    /* \"#utility.yul\":1507:1521   */\n  add\n    /* \"#utility.yul\":1492:1521   */\n  swap1\n  pop\n    /* \"#utility.yul\":1358:1527   */\n  swap3\n  swap2\n  pop\n  pop\n  jump\t// out\n    /* \"#utility.yul\":1533:1753   */\ntag_21:\n    /* \"#utility.yul\":1673:1707   */\n  0x5265636f72644d616e616765723a207a65726f20616363657373436f6e74726f\n    /* \"#utility.yul\":1669:1670   */\n  0x00\n    /* \"#utility.yul\":1661:1667   */\n  dup3\n    /* \"#utility.yul\":1657:1671   */\n  add\n    /* \"#utility.yul\":1650:1708   */\n  mstore\n    /* \"#utility.yul\":1742:1745   */\n  0x6c00000000000000000000000000000000000000000000000000000000000000\n    /* \"#utility.yul\":1737:1739   */\n  0x20\n    /* \"#utility.yul\":1729:1735   */\n  dup3\n    /* \"#utility.yul\":1725:1740   */\n  add\n    /* \"#utility.yul\":1718:1746   */\n  mstore\n    /* \"#utility.yul\":1533:1753   */\n  pop\n  jump\t// out\n    /* \"#utility.yul\":1759:2125   */\ntag_22:\n    /* \"#utility.yul\":1901:1904   */\n  0x00\n    /* \"#utility.yul\":1922:1989   */\n  tag_45\n    /* \"#utility.yul\":1986:1988   */\n  0x21\n    /* \"#utility.yul\":1981:1984   */\n  dup4\n    /* \"#utility.yul\":1922:1989   */\n  tag_20\n  jump\t// in\ntag_45:\n    /* \"#utility.yul\":1915:1989   */\n  swap2\n  pop\n    /* \"#utility.yul\":1998:2091   */\n  tag_46\n    /* \"#utility.yul\":2087:2090   */\n  dup3\n    /* \"#utility.yul\":1998:2091   */\n  tag_21\n  jump\t// in\ntag_46:\n    /* \"#utility.yul\":2116:2118   */\n  0x40\n    /* \"#utility.yul\":2111:2114   */\n  dup3\n    /* \"#utility.yul\":2107:2119   */\n  add\n    /* \"#utility.yul\":2100:2119   */\n  swap1\n  pop\n    /* \"#utility.yul\":1759:2125   */\n  swap2\n  swap1\n  pop\n  jump\t// out\n    /* \"#utility.yul\":2131:2550   */\ntag_8:\n    /* \"#utility.yul\":2297:2301   */\n  0x00\n    /* \"#utility.yul\":2335:2337   */\n  0x20\n    /* \"#utility.yul\":2324:2333   */\n  dup3\n    /* \"#utility.yul\":2320:2338   */\n  add\n    /* \"#utility.yul\":2312:2338   */\n  swap1\n  pop\n    /* \"#utility.yul\":2384:2393   */\n  dup2\n    /* \"#utility.yul\":2378:2382   */\n  dup2\n    /* \"#utility.yul\":2374:2394   */\n  sub\n    /* \"#utility.yul\":2370:2371   */\n  0x00\n    /* \"#utility.yul\":2359:2368   */\n  dup4\n    /* \"#utility.yul\":2355:2372   */\n  add\n    /* \"#utility.yul\":2348:2395   */\n  mstore\n    /* \"#utility.yul\":2412:2543   */\n  tag_48\n    /* \"#utility.yul\":2538:2542   */\n  dup2\n    /* \"#utility.yul\":2412:2543   */\n  tag_22\n  jump\t// in\ntag_48:\n    /* \"#utility.yul\":2404:2543   */\n  swap1\n  pop\n    /* \"#utility.yul\":2131:2550   */\n  swap2\n  swap1\n  pop\n  jump\t// out\n    /* \"#utility.yul\":2556:2734   */\ntag_23:\n    /* \"#utility.yul\":2696:2726   */\n  0x5265636f72644d616e616765723a207a65726f2061756469744c6f6700000000\n    /* \"#utility.yul\":2692:2693   */\n  0x00\n    /* \"#utility.yul\":2684:2690   */\n  dup3\n    /* \"#utility.yul\":2680:2694   */\n  add\n    /* \"#utility.yul\":2673:2727   */\n  mstore\n    /* \"#utility.yul\":2556:2734   */\n  pop\n  jump\t// out\n    /* \"#utility.yul\":2740:3106   */\ntag_24:\n    /* \"#utility.yul\":2882:2885   */\n  0x00\n    /* \"#utility.yul\":2903:2970   */\n  tag_51\n    /* \"#utility.yul\":2967:2969   */\n  0x1c\n    /* \"#utility.yul\":2962:2965   */\n  dup4\n    /* \"#utility.yul\":2903:2970   */\n  tag_20\n  jump\t// in\ntag_51:\n    /* \"#utility.yul\":2896:2970   */\n  swap2\n  pop\n    /* \"#utility.yul\":2979:3072   */\n  tag_52\n    /* \"#utility.yul\":3068:3071   */\n  dup3\n    /* \"#utility.yul\":2979:3072   */\n  tag_23\n  jump\t// in\ntag_52:\n    /* \"#utility.yul\":3097:3099   */\n  0x20\n    /* \"#utility.yul\":3092:3095   */\n  dup3\n    /* \"#utility.yul\":3088:3100   */\n  add\n    /* \"#utility.yul\":3081:3100   */\n  swap1\n  pop\n    /* \"#utility.yul\":2740:3106   */\n  swap2\n  swap1\n  pop\n  jump\t// out\n    /* \"#utility.yul\":3112:3531   */\ntag_11:\n    /* \"#utility.yul\":3278:3282   */\n  0x00\n    /* \"#utility.yul\":3316:3318   */\n  0x20\n    /* \"#utility.yul\":3305:3314   */\n  dup3\n    /* \"#utility.yul\":3301:3319   */\n  add\n    /* \"#utility.yul\":3293:3319   */\n  swap1\n  pop\n    /* \"#utility.yul\":3365:3374   */\n  dup2\n    /* \"#utility.yul\":3359:3363   */\n  dup2\n    /* \"#utility.yul\":3355:3375   */\n  sub\n    /* \"#utility.yul\":3351:3352   */\n  0x00\n    /* \"#utility.yul\":3340:3349   */\n  dup4\n    /* \"#utility.yul\":3336:3353   */\n  add\n    /* \"#utility.yul\":3329:3376   */\n  mstore\n    /* \"#utility.yul\":3393:3524   */\n  tag_54\n    /* \"#utility.yul\":3519:3523   */\n  dup2\n    /* \"#utility.yul\":3393:3524   */\n  tag_24\n  jump\t// in\ntag_54:\n    /* \"#utility.yul\":3385:3524   */\n  swap1\n  pop\n    /* \"#utility.yul\":3112:3531   */\n  swap2\n  swap1\n  pop\n  jump\t// out\n    /* \"contracts/RecordManager.sol\":304:1502  contract RecordManager {... */\ntag_12:\n  dataSize(sub_0)\n  dup1\n  dataOffset(sub_0)\n  0x00\n  codecopy\n  0x00\n  return\nstop\n\nsub_0: assembly {\n        /* \"contracts/RecordManager.sol\":304:1502  contract RecordManager {... */\n      mstore(0x40, 0x80)\n      callvalue\n      dup1\n      iszero\n      tag_1\n      jumpi\n      revert(0x00, 0x00)\n    tag_1:\n      pop\n      jumpi(tag_2, lt(calldatasize, 0x04))\n      shr(0xe0, calldataload(0x00))\n      dup1\n      0x13007d55\n      eq\n      tag_3\n      jumpi\n      dup1\n      0x5a2d6ebd\n      eq\n      tag_4\n      jumpi\n    tag_2:\n      revert(0x00, 0x00)\n        /* \"contracts/RecordManager.sol\":334:369  IAccessControl public accessControl */\n    tag_3:\n      tag_5\n      tag_6\n      jump\t// in\n    tag_5:\n      mload(0x40)\n      tag_7\n      swap2\n      swap1\n      tag_8\n      jump\t// in\n    tag_7:\n      mload(0x40)\n      dup1\n      swap2\n      sub\n      swap1\n      return\n        /* \"contracts/RecordManager.sol\":376:406  IAuditLogRM    public auditLog */\n    tag_4:\n      tag_9\n      tag_10\n      jump\t// in\n    tag_9:\n      mload(0x40)\n      tag_11\n      swap2\n      swap1\n      tag_12\n      jump\t// in\n    tag_11:\n      mload(0x40)\n      dup1\n      swap2\n      sub\n      swap1\n      return\n        /* \"contracts/RecordManager.sol\":334:369  IAccessControl public accessControl */\n    tag_6:\n      0x00\n      0x00\n      swap1\n      sload\n      swap1\n      0x0100\n      exp\n      swap1\n      div\n      0xffffffffffffffffffffffffffffffffffffffff\n      and\n      dup2\n      jump\t// out\n        /* \"contracts/RecordManager.sol\":376:406  IAuditLogRM    public auditLog */\n    tag_10:\n      0x01\n      0x00\n      swap1\n      sload\n      swap1\n      0x0100\n      exp\n      swap1\n      div\n      0xffffffffffffffffffffffffffffffffffffffff\n      and\n      dup2\n      jump\t// out\n        /* \"#utility.yul\":7:133   */\n    tag_13:\n        /* \"#utility.yul\":44:51   */\n      0x00\n        /* \"#utility.yul\":84:126   */\n      0xffffffffffffffffffffffffffffffffffffffff\n        /* \"#utility.yul\":77:82   */\n      dup3\n        /* \"#utility.yul\":73:127   */\n      and\n        /* \"#utility.yul\":62:127   */\n      swap1\n      pop\n        /* \"#utility.yul\":7:133   */\n      swap2\n      swap1\n      pop\n      jump\t// out\n        /* \"#utility.yul\":139:199   */\n    tag_14:\n        /* \"#utility.yul\":167:170   */\n      0x00\n        /* \"#utility.yul\":188:193   */\n      dup2\n        /* \"#utility.yul\":181:193   */\n      swap1\n      pop\n        /* \"#utility.yul\":139:199   */\n      swap2\n      swap1\n      pop\n      jump\t// out\n        /* \"#utility.yul\":205:347   */\n    tag_15:\n        /* \"#utility.yul\":255:264   */\n      0x00\n        /* \"#utility.yul\":288:341   */\n      tag_25\n        /* \"#utility.yul\":306:340   */\n      tag_26\n        /* \"#utility.yul\":315:339   */\n      tag_27\n        /* \"#utility.yul\":333:338   */\n      dup5\n        /* \"#utility.yul\":315:339   */\n      tag_13\n      jump\t// in\n    tag_27:\n        /* \"#utility.yul\":306:340   */\n      tag_14\n      jump\t// in\n    tag_26:\n        /* \"#utility.yul\":288:341   */\n      tag_13\n      jump\t// in\n    tag_25:\n        /* \"#utility.yul\":275:341   */\n      swap1\n      pop\n        /* \"#utility.yul\":205:347   */\n      swap2\n      swap1\n      pop\n      jump\t// out\n        /* \"#utility.yul\":353:479   */\n    tag_16:\n        /* \"#utility.yul\":403:412   */\n      0x00\n        /* \"#utility.yul\":436:473   */\n      tag_29\n        /* \"#utility.yul\":467:472   */\n      dup3\n        /* \"#utility.yul\":436:473   */\n      tag_15\n      jump\t// in\n    tag_29:\n        /* \"#utility.yul\":423:473   */\n      swap1\n      pop\n        /* \"#utility.yul\":353:479   */\n      swap2\n      swap1\n      pop\n      jump\t// out\n        /* \"#utility.yul\":485:632   */\n    tag_17:\n        /* \"#utility.yul\":556:565   */\n      0x00\n        /* \"#utility.yul\":589:626   */\n      tag_31\n        /* \"#utility.yul\":620:625   */\n      dup3\n        /* \"#utility.yul\":589:626   */\n      tag_16\n      jump\t// in\n    tag_31:\n        /* \"#utility.yul\":576:626   */\n      swap1\n      pop\n        /* \"#utility.yul\":485:632   */\n      swap2\n      swap1\n      pop\n      jump\t// out\n        /* \"#utility.yul\":638:811   */\n    tag_18:\n        /* \"#utility.yul\":746:804   */\n      tag_33\n        /* \"#utility.yul\":798:803   */\n      dup2\n        /* \"#utility.yul\":746:804   */\n      tag_17\n      jump\t// in\n    tag_33:\n        /* \"#utility.yul\":741:744   */\n      dup3\n        /* \"#utility.yul\":734:805   */\n      mstore\n        /* \"#utility.yul\":638:811   */\n      pop\n      pop\n      jump\t// out\n        /* \"#utility.yul\":817:1081   */\n    tag_8:\n        /* \"#utility.yul\":931:935   */\n      0x00\n        /* \"#utility.yul\":969:971   */\n      0x20\n        /* \"#utility.yul\":958:967   */\n      dup3\n        /* \"#utility.yul\":954:972   */\n      add\n        /* \"#utility.yul\":946:972   */\n      swap1\n      pop\n        /* \"#utility.yul\":982:1074   */\n      tag_35\n        /* \"#utility.yul\":1071:1072   */\n      0x00\n        /* \"#utility.yul\":1060:1069   */\n      dup4\n        /* \"#utility.yul\":1056:1073   */\n      add\n        /* \"#utility.yul\":1047:1053   */\n      dup5\n        /* \"#utility.yul\":982:1074   */\n      tag_18\n      jump\t// in\n    tag_35:\n        /* \"#utility.yul\":817:1081   */\n      swap3\n      swap2\n      pop\n      pop\n      jump\t// out\n        /* \"#utility.yul\":1087:1231   */\n    tag_19:\n        /* \"#utility.yul\":1155:1164   */\n      0x00\n        /* \"#utility.yul\":1188:1225   */\n      tag_37\n        /* \"#utility.yul\":1219:1224   */\n      dup3\n        /* \"#utility.yul\":1188:1225   */\n      tag_16\n      jump\t// in\n    tag_37:\n        /* \"#utility.yul\":1175:1225   */\n      swap1\n      pop\n        /* \"#utility.yul\":1087:1231   */\n      swap2\n      swap1\n      pop\n      jump\t// out\n        /* \"#utility.yul\":1237:1404   */\n    tag_20:\n        /* \"#utility.yul\":1342:1397   */\n      tag_39\n        /* \"#utility.yul\":1391:1396   */\n      dup2\n        /* \"#utility.yul\":1342:1397   */\n      tag_19\n      jump\t// in\n    tag_39:\n        /* \"#utility.yul\":1337:1340   */\n      dup3\n        /* \"#utility.yul\":1330:1398   */\n      mstore\n        /* \"#utility.yul\":1237:1404   */\n      pop\n      pop\n      jump\t// out\n        /* \"#utility.yul\":1410:1668   */\n    tag_12:\n        /* \"#utility.yul\":1521:1525   */\n      0x00\n        /* \"#utility.yul\":1559:1561   */\n      0x20\n        /* \"#utility.yul\":1548:1557   */\n      dup3\n        /* \"#utility.yul\":1544:1562   */\n      add\n        /* \"#utility.yul\":1536:1562   */\n      swap1\n      pop\n        /* \"#utility.yul\":1572:1661   */\n      tag_41\n        /* \"#utility.yul\":1658:1659   */\n      0x00\n        /* \"#utility.yul\":1647:1656   */\n      dup4\n        /* \"#utility.yul\":1643:1660   */\n      add\n        /* \"#utility.yul\":1634:1640   */\n      dup5\n        /* \"#utility.yul\":1572:1661   */\n      tag_20\n      jump\t// in\n    tag_41:\n        /* \"#utility.yul\":1410:1668   */\n      swap3\n      swap2\n      pop\n      pop\n      jump\t// out\n\n    auxdata: 0xa26469706673582212207f8c68da8959fd184e1335ba526c4b86ec9feb683a3e5b44db5b25926a8b81bf64736f6c634300081e0033\n}\n",
				"bytecode": {
					"linkReferences": {},
					"object": "608060405234801561000f575f5ffd5b50604051610501380380610501833981810160405281019061003191906101f1565b5f73ffffffffffffffffffffffffffffffffffffffff168273ffffffffffffffffffffffffffffffffffffffff160361009f576040517f08c379a0000000000000000000000000000000000000000000000000000000008152600401610096906102af565b60405180910390fd5b5f73ffffffffffffffffffffffffffffffffffffffff168173ffffffffffffffffffffffffffffffffffffffff160361010d576040517f08c379a000000000000000000000000000000000000000000000000000000000815260040161010490610317565b60405180910390fd5b815f5f6101000a81548173ffffffffffffffffffffffffffffffffffffffff021916908373ffffffffffffffffffffffffffffffffffffffff1602179055508060015f6101000a81548173ffffffffffffffffffffffffffffffffffffffff021916908373ffffffffffffffffffffffffffffffffffffffff1602179055505050610335565b5f5ffd5b5f73ffffffffffffffffffffffffffffffffffffffff82169050919050565b5f6101c082610197565b9050919050565b6101d0816101b6565b81146101da575f5ffd5b50565b5f815190506101eb816101c7565b92915050565b5f5f6040838503121561020757610206610193565b5b5f610214858286016101dd565b9250506020610225858286016101dd565b9150509250929050565b5f82825260208201905092915050565b7f5265636f72644d616e616765723a207a65726f20616363657373436f6e74726f5f8201527f6c00000000000000000000000000000000000000000000000000000000000000602082015250565b5f61029960218361022f565b91506102a48261023f565b604082019050919050565b5f6020820190508181035f8301526102c68161028d565b9050919050565b7f5265636f72644d616e616765723a207a65726f2061756469744c6f67000000005f82015250565b5f610301601c8361022f565b915061030c826102cd565b602082019050919050565b5f6020820190508181035f83015261032e816102f5565b9050919050565b6101bf806103425f395ff3fe608060405234801561000f575f5ffd5b5060043610610034575f3560e01c806313007d55146100385780635a2d6ebd14610056575b5f5ffd5b610040610074565b60405161004d9190610137565b60405180910390f35b61005e610098565b60405161006b9190610170565b60405180910390f35b5f5f9054906101000a900473ffffffffffffffffffffffffffffffffffffffff1681565b60015f9054906101000a900473ffffffffffffffffffffffffffffffffffffffff1681565b5f73ffffffffffffffffffffffffffffffffffffffff82169050919050565b5f819050919050565b5f6100ff6100fa6100f5846100bd565b6100dc565b6100bd565b9050919050565b5f610110826100e5565b9050919050565b5f61012182610106565b9050919050565b61013181610117565b82525050565b5f60208201905061014a5f830184610128565b92915050565b5f61015a82610106565b9050919050565b61016a81610150565b82525050565b5f6020820190506101835f830184610161565b9291505056fea26469706673582212207f8c68da8959fd184e1335ba526c4b86ec9feb683a3e5b44db5b25926a8b81bf64736f6c634300081e0033",
					"opcodes": "PUSH1 0x80 PUSH1 0x40 MSTORE CALLVALUE DUP1 ISZERO PUSH2 0xF JUMPI PUSH0 PUSH0 REVERT JUMPDEST POP PUSH1 0x40 MLOAD PUSH2 0x501 CODESIZE SUB DUP1 PUSH2 0x501 DUP4 CODECOPY DUP2 DUP2 ADD PUSH1 0x40 MSTORE DUP2 ADD SWAP1 PUSH2 0x31 SWAP2 SWAP1 PUSH2 0x1F1 JUMP JUMPDEST PUSH0 PUSH20 0xFFFFFFFFFFFFFFFFFFFFFFFFFFFFFFFFFFFFFFFF AND DUP3 PUSH20 0xFFFFFFFFFFFFFFFFFFFFFFFFFFFFFFFFFFFFFFFF AND SUB PUSH2 0x9F JUMPI PUSH1 0x40 MLOAD PUSH32 0x8C379A000000000000000000000000000000000000000000000000000000000 DUP2 MSTORE PUSH1 0x4 ADD PUSH2 0x96 SWAP1 PUSH2 0x2AF JUMP JUMPDEST PUSH1 0x40 MLOAD DUP1 SWAP2 SUB SWAP1 REVERT JUMPDEST PUSH0 PUSH20 0xFFFFFFFFFFFFFFFFFFFFFFFFFFFFFFFFFFFFFFFF AND DUP2 PUSH20 0xFFFFFFFFFFFFFFFFFFFFFFFFFFFFFFFFFFFFFFFF AND SUB PUSH2 0x10D JUMPI PUSH1 0x40 MLOAD PUSH32 0x8C379A000000000000000000000000000000000000000000000000000000000 DUP2 MSTORE PUSH1 0x4 ADD PUSH2 0x104 SWAP1 PUSH2 0x317 JUMP JUMPDEST PUSH1 0x40 MLOAD DUP1 SWAP2 SUB SWAP1 REVERT JUMPDEST DUP2 PUSH0 PUSH0 PUSH2 0x100 EXP DUP2 SLOAD DUP2 PUSH20 0xFFFFFFFFFFFFFFFFFFFFFFFFFFFFFFFFFFFFFFFF MUL NOT AND SWAP1 DUP4 PUSH20 0xFFFFFFFFFFFFFFFFFFFFFFFFFFFFFFFFFFFFFFFF AND MUL OR SWAP1 SSTORE POP DUP1 PUSH1 0x1 PUSH0 PUSH2 0x100 EXP DUP2 SLOAD DUP2 PUSH20 0xFFFFFFFFFFFFFFFFFFFFFFFFFFFFFFFFFFFFFFFF MUL NOT AND SWAP1 DUP4 PUSH20 0xFFFFFFFFFFFFFFFFFFFFFFFFFFFFFFFFFFFFFFFF AND MUL OR SWAP1 SSTORE POP POP POP PUSH2 0x335 JUMP JUMPDEST PUSH0 PUSH0 REVERT JUMPDEST PUSH0 PUSH20 0xFFFFFFFFFFFFFFFFFFFFFFFFFFFFFFFFFFFFFFFF DUP3 AND SWAP1 POP SWAP2 SWAP1 POP JUMP JUMPDEST PUSH0 PUSH2 0x1C0 DUP3 PUSH2 0x197 JUMP JUMPDEST SWAP1 POP SWAP2 SWAP1 POP JUMP JUMPDEST PUSH2 0x1D0 DUP2 PUSH2 0x1B6 JUMP JUMPDEST DUP2 EQ PUSH2 0x1DA JUMPI PUSH0 PUSH0 REVERT JUMPDEST POP JUMP JUMPDEST PUSH0 DUP2 MLOAD SWAP1 POP PUSH2 0x1EB DUP2 PUSH2 0x1C7 JUMP JUMPDEST SWAP3 SWAP2 POP POP JUMP JUMPDEST PUSH0 PUSH0 PUSH1 0x40 DUP4 DUP6 SUB SLT ISZERO PUSH2 0x207 JUMPI PUSH2 0x206 PUSH2 0x193 JUMP JUMPDEST JUMPDEST PUSH0 PUSH2 0x214 DUP6 DUP3 DUP7 ADD PUSH2 0x1DD JUMP JUMPDEST SWAP3 POP POP PUSH1 0x20 PUSH2 0x225 DUP6 DUP3 DUP7 ADD PUSH2 0x1DD JUMP JUMPDEST SWAP2 POP POP SWAP3 POP SWAP3 SWAP1 POP JUMP JUMPDEST PUSH0 DUP3 DUP3 MSTORE PUSH1 0x20 DUP3 ADD SWAP1 POP SWAP3 SWAP2 POP POP JUMP JUMPDEST PUSH32 0x5265636F72644D616E616765723A207A65726F20616363657373436F6E74726F PUSH0 DUP3 ADD MSTORE PUSH32 0x6C00000000000000000000000000000000000000000000000000000000000000 PUSH1 0x20 DUP3 ADD MSTORE POP JUMP JUMPDEST PUSH0 PUSH2 0x299 PUSH1 0x21 DUP4 PUSH2 0x22F JUMP JUMPDEST SWAP2 POP PUSH2 0x2A4 DUP3 PUSH2 0x23F JUMP JUMPDEST PUSH1 0x40 DUP3 ADD SWAP1 POP SWAP2 SWAP1 POP JUMP JUMPDEST PUSH0 PUSH1 0x20 DUP3 ADD SWAP1 POP DUP2 DUP2 SUB PUSH0 DUP4 ADD MSTORE PUSH2 0x2C6 DUP2 PUSH2 0x28D JUMP JUMPDEST SWAP1 POP SWAP2 SWAP1 POP JUMP JUMPDEST PUSH32 0x5265636F72644D616E616765723A207A65726F2061756469744C6F6700000000 PUSH0 DUP3 ADD MSTORE POP JUMP JUMPDEST PUSH0 PUSH2 0x301 PUSH1 0x1C DUP4 PUSH2 0x22F JUMP JUMPDEST SWAP2 POP PUSH2 0x30C DUP3 PUSH2 0x2CD JUMP JUMPDEST PUSH1 0x20 DUP3 ADD SWAP1 POP SWAP2 SWAP1 POP JUMP JUMPDEST PUSH0 PUSH1 0x20 DUP3 ADD SWAP1 POP DUP2 DUP2 SUB PUSH0 DUP4 ADD MSTORE PUSH2 0x32E DUP2 PUSH2 0x2F5 JUMP JUMPDEST SWAP1 POP SWAP2 SWAP1 POP JUMP JUMPDEST PUSH2 0x1BF DUP1 PUSH2 0x342 PUSH0 CODECOPY PUSH0 RETURN INVALID PUSH1 0x80 PUSH1 0x40 MSTORE CALLVALUE DUP1 ISZERO PUSH2 0xF JUMPI PUSH0 PUSH0 REVERT JUMPDEST POP PUSH1 0x4 CALLDATASIZE LT PUSH2 0x34 JUMPI PUSH0 CALLDATALOAD PUSH1 0xE0 SHR DUP1 PUSH4 0x13007D55 EQ PUSH2 0x38 JUMPI DUP1 PUSH4 0x5A2D6EBD EQ PUSH2 0x56 JUMPI JUMPDEST PUSH0 PUSH0 REVERT JUMPDEST PUSH2 0x40 PUSH2 0x74 JUMP JUMPDEST PUSH1 0x40 MLOAD PUSH2 0x4D SWAP2 SWAP1 PUSH2 0x137 JUMP JUMPDEST PUSH1 0x40 MLOAD DUP1 SWAP2 SUB SWAP1 RETURN JUMPDEST PUSH2 0x5E PUSH2 0x98 JUMP JUMPDEST PUSH1 0x40 MLOAD PUSH2 0x6B SWAP2 SWAP1 PUSH2 0x170 JUMP JUMPDEST PUSH1 0x40 MLOAD DUP1 SWAP2 SUB SWAP1 RETURN JUMPDEST PUSH0 PUSH0 SWAP1 SLOAD SWAP1 PUSH2 0x100 EXP SWAP1 DIV PUSH20 0xFFFFFFFFFFFFFFFFFFFFFFFFFFFFFFFFFFFFFFFF AND DUP2 JUMP JUMPDEST PUSH1 0x1 PUSH0 SWAP1 SLOAD SWAP1 PUSH2 0x100 EXP SWAP1 DIV PUSH20 0xFFFFFFFFFFFFFFFFFFFFFFFFFFFFFFFFFFFFFFFF AND DUP2 JUMP JUMPDEST PUSH0 PUSH20 0xFFFFFFFFFFFFFFFFFFFFFFFFFFFFFFFFFFFFFFFF DUP3 AND SWAP1 POP SWAP2 SWAP1 POP JUMP JUMPDEST PUSH0 DUP2 SWAP1 POP SWAP2 SWAP1 POP JUMP JUMPDEST PUSH0 PUSH2 0xFF PUSH2 0xFA PUSH2 0xF5 DUP5 PUSH2 0xBD JUMP JUMPDEST PUSH2 0xDC JUMP JUMPDEST PUSH2 0xBD JUMP JUMPDEST SWAP1 POP SWAP2 SWAP1 POP JUMP JUMPDEST PUSH0 PUSH2 0x110 DUP3 PUSH2 0xE5 JUMP JUMPDEST SWAP1 POP SWAP2 SWAP1 POP JUMP JUMPDEST PUSH0 PUSH2 0x121 DUP3 PUSH2 0x106 JUMP JUMPDEST SWAP1 POP SWAP2 SWAP1 POP JUMP JUMPDEST PUSH2 0x131 DUP2 PUSH2 0x117 JUMP JUMPDEST DUP3 MSTORE POP POP JUMP JUMPDEST PUSH0 PUSH1 0x20 DUP3 ADD SWAP1 POP PUSH2 0x14A PUSH0 DUP4 ADD DUP5 PUSH2 0x128 JUMP JUMPDEST SWAP3 SWAP2 POP POP JUMP JUMPDEST PUSH0 PUSH2 0x15A DUP3 PUSH2 0x106 JUMP JUMPDEST SWAP1 POP SWAP2 SWAP1 POP JUMP JUMPDEST PUSH2 0x16A DUP2 PUSH2 0x150 JUMP JUMPDEST DUP3 MSTORE POP POP JUMP JUMPDEST PUSH0 PUSH1 0x20 DUP3 ADD SWAP1 POP PUSH2 0x183 PUSH0 DUP4 ADD DUP5 PUSH2 0x161 JUMP JUMPDEST SWAP3 SWAP2 POP POP JUMP INVALID LOG2 PUSH5 0x6970667358 0x22 SLT KECCAK256 PUSH32 0x8C68DA8959FD184E1335BA526C4B86EC9FEB683A3E5B44DB5B25926A8B81BF64 PUSH20 0x6F6C634300081E00330000000000000000000000 "
				},
				"gasEstimates": {
					"creation": {
						"codeDepositCost": "89400",
						"executionCost": "infinite",
						"totalCost": "infinite"
					},
					"external": {
						"accessControl()": "infinite",
						"auditLog()": "infinite"
					}
				},
				"methodIdentifiers": {
					"accessControl()": "13007d55",
					"auditLog()": "5a2d6ebd"
				}
			},
			"storageLayout": {
				"storage": [
					{
						"astId": 24,
						"contract": "contracts/RecordManager.sol:RecordManager",
						"label": "accessControl",
						"offset": 0,
						"slot": "0",
						"type": "t_contract(IAccessControl)11"
					},
					{
						"astId": 27,
						"contract": "contracts/RecordManager.sol:RecordManager",
						"label": "auditLog",
						"offset": 0,
						"slot": "1",
						"type": "t_contract(IAuditLogRM)21"
					},
					{
						"astId": 40,
						"contract": "contracts/RecordManager.sol:RecordManager",
						"label": "records",
						"offset": 0,
						"slot": "2",
						"type": "t_array(t_struct(Record)36_storage)dyn_storage"
					},
					{
						"astId": 45,
						"contract": "contracts/RecordManager.sol:RecordManager",
						"label": "patientRecords",
						"offset": 0,
						"slot": "3",
						"type": "t_mapping(t_address,t_array(t_uint256)dyn_storage)"
					}
				],
				"types": {
					"t_address": {
						"encoding": "inplace",
						"label": "address",
						"numberOfBytes": "20"
					},
					"t_array(t_struct(Record)36_storage)dyn_storage": {
						"base": "t_struct(Record)36_storage",
						"encoding": "dynamic_array",
						"label": "struct RecordManager.Record[]",
						"numberOfBytes": "32"
					},
					"t_array(t_uint256)dyn_storage": {
						"base": "t_uint256",
						"encoding": "dynamic_array",
						"label": "uint256[]",
						"numberOfBytes": "32"
					},
					"t_contract(IAccessControl)11": {
						"encoding": "inplace",
						"label": "contract IAccessControl",
						"numberOfBytes": "20"
					},
					"t_contract(IAuditLogRM)21": {
						"encoding": "inplace",
						"label": "contract IAuditLogRM",
						"numberOfBytes": "20"
					},
					"t_mapping(t_address,t_array(t_uint256)dyn_storage)": {
						"encoding": "mapping",
						"key": "t_address",
						"label": "mapping(address => uint256[])",
						"numberOfBytes": "32",
						"value": "t_array(t_uint256)dyn_storage"
					},
					"t_string_storage": {
						"encoding": "bytes",
						"label": "string",
						"numberOfBytes": "32"
					},
					"t_struct(Record)36_storage": {
						"encoding": "inplace",
						"label": "struct RecordManager.Record",
						"members": [
							{
								"astId": 29,
								"contract": "contracts/RecordManager.sol:RecordManager",
								"label": "provider",
								"offset": 0,
								"slot": "0",
								"type": "t_address"
							},
							{
								"astId": 31,
								"contract": "contracts/RecordManager.sol:RecordManager",
								"label": "patient",
								"offset": 0,
								"slot": "1",
								"type": "t_address"
							},
							{
								"astId": 33,
								"contract": "contracts/RecordManager.sol:RecordManager",
								"label": "cid",
								"offset": 0,
								"slot": "2",
								"type": "t_string_storage"
							},
							{
								"astId": 35,
								"contract": "contracts/RecordManager.sol:RecordManager",
								"label": "previousVersion",
								"offset": 0,
								"slot": "3",
								"type": "t_uint256"
							}
						],
						"numberOfBytes": "128"
					},
					"t_uint256": {
						"encoding": "inplace",
						"label": "uint256",
						"numberOfBytes": "32"
					}
				}
			},
			"userdoc": {
				"kind": "user",
				"methods": {},
				"version": 1
			}
		}
	}
}