{
	"contracts/PatientRegistry.sol": {
		"PatientRegistry": {
			"abi": [
				{
					"anonymous": false,
					"inputs": [
						{
							"indexed": true,
							"internalType": "address",
							"name": "patient",
							"type": "address"
						},
						{
							"indexed": false,
							"internalType": "uint256",
							"name": "timestamp",
							"type": "uint256"
						}
					],
					"name": "PatientRegistered",
					"type": "event"
				},
				{
					"inputs": [
						{
							"internalType": "address",
							"name": "addr",
							"type": "address"
						}
					],
					"name": "getPatient",
					"outputs": [
						{
							"components": [
								{
									"internalType": "address",
									"name": "wallet",
									"type": "address"
								},
								{
									"internalType": "string",
									"name": "publicKey",
									"type": "string"
								},
								{
									"internalType": "bool",
									"name": "exists",
									"type": "bool"
								}
							],
							"internalType": "struct PatientRegistry.Patient",
							"name": "",
							"type": "tuple"
						}
					],
					"stateMutability": "view",
					"type": "function"
				},
				{
					"inputs": [
						{
							"internalType": "address",
							"name": "addr",
							"type": "address"
						}
					],
					"name": "isPatient",
					"outputs": [
						{
							"internalType": "bool",
							"name": "",
							"type": "bool"
						}
					],
					"stateMutability": "view",
					"type": "function"
				},
				{
					"inputs": [],
					"name": "patientCount",
					"outputs": [
						{
							"internalType": "uint256",
							"name": "",
							"type": "uint256"
						}
					],
					"stateMutability": "view",
					"type": "function"
				},
				{
					"inputs": [
						{
							"internalType": "string",
							"name": "publicKey",
							"type": "string"
						}
					],
					"name": "registerPatient",
					"outputs": [],
					"stateMutability": "nonpayable",
					"type": "function"
				}
			],
			"devdoc": {
				"kind": "dev",
				"methods": {},
				"version": 1
			},
			"evm": {
				"assembly": "    /* \"contracts/PatientRegistry.sol\":61:1318  contract PatientRegistry {... */\n  mstore(0x40, 0x80)\n  callvalue\n  dup1\n  iszero\n  tag_1\n  jumpi\n  revert(0x00, 0x00)\ntag_1:\n  pop\n  dataSize(sub_0)\n  dup1\n  dataOffset(sub_0)\n  0x00\n  codecopy\n  0x00\n  return\nstop\n\nsub_0: assembly {\n        /* \"contracts/PatientRegistry.sol\":61:1318  contract PatientRegistry {... */\n      mstore(0x40, 0x80)\n      callvalue\n      dup1\n      iszero\n      tag_1\n      jumpi\n      revert(0x00, 0x00)\n    tag_1:\n      pop\n      jumpi(tag_2, lt(calldatasize, 0x04))\n      shr(0xe0, calldataload(0x00))\n      dup1\n      0x869c9eaf\n      eq\n      tag_3\n      jumpi\n      dup1\n      0x8f9c79ed\n      eq\n      tag_4\n      jumpi\n      dup1\n      0xa0303c41\n      eq\n      tag_5\n      jumpi\n      dup1\n      0xb5368e20\n      eq\n      tag_6\n      jumpi\n    tag_2:\n      revert(0x00, 0x00)\n        /* \"contracts/PatientRegistry.sol\":481:891  function registerPatient(string calldata publicKey) external {... */\n    tag_3:\n      tag_7\n      0x04\n      dup1\n      calldatasize\n      sub\n      dup2\n      add\n      swap1\n      tag_8\n      swap2\n      swap1\n      tag_9\n      jump\t// in\n    tag_8:\n      tag_10\n      jump\t// in\n    tag_7:\n      stop\n        /* \"contracts/PatientRegistry.sol\":899:1008  function isPatient(address addr) external view returns (bool) {... */\n    tag_4:\n      tag_11\n      0x04\n      dup1\n      calldatasize\n      sub\n      dup2\n      add\n      swap1\n      tag_12\n      swap2\n      swap1\n      tag_13\n      jump\t// in\n    tag_12:\n      tag_14\n      jump\t// in\n    tag_11:\n      mload(0x40)\n      tag_15\n      swap2\n      swap1\n      tag_16\n      jump\t// in\n    tag_15:\n      mload(0x40)\n      dup1\n      swap2\n      sub\n      swap1\n      return\n        /* \"contracts/PatientRegistry.sol\":1213:1313  function patientCount() external view returns (uint256) {... */\n    tag_5:\n      tag_17\n      tag_18\n      jump\t// in\n    tag_17:\n      mload(0x40)\n      tag_19\n      swap2\n      swap1\n      tag_20\n      jump\t// in\n    tag_19:\n      mload(0x40)\n      dup1\n      swap2\n      sub\n      swap1\n      return\n        /* \"contracts/PatientRegistry.sol\":1016:1205  function getPatient(address addr) external view returns (Patient memory) {... */\n    tag_6:\n      tag_21\n      0x04\n      dup1\n      calldatasize\n      sub\n      dup2\n      add\n      swap1\n      tag_22\n      swap2\n      swap1\n      tag_13\n      jump\t// in\n    tag_22:\n      tag_23\n      jump\t// in\n    tag_21:\n      mload(0x40)\n      tag_24\n      swap2\n      swap1\n      tag_25\n      jump\t// in\n    tag_24:\n      mload(0x40)\n      dup1\n      swap2\n      sub\n      swap1\n      return\n        /* \"contracts/PatientRegistry.sol\":481:891  function registerPatient(string calldata publicKey) external {... */\n    tag_10:\n        /* \"contracts/PatientRegistry.sol\":562:570  patients */\n      0x00\n        /* \"contracts/PatientRegistry.sol\":562:582  patients[msg.sender] */\n      0x00\n        /* \"contracts/PatientRegistry.sol\":571:581  msg.sender */\n      caller\n        /* \"contracts/PatientRegistry.sol\":562:582  patients[msg.sender] */\n      0xffffffffffffffffffffffffffffffffffffffff\n      and\n      0xffffffffffffffffffffffffffffffffffffffff\n      and\n      dup2\n      mstore\n      0x20\n      add\n      swap1\n      dup2\n      mstore\n      0x20\n      add\n      0x00\n      keccak256\n        /* \"contracts/PatientRegistry.sol\":562:589  patients[msg.sender].exists */\n      0x02\n      add\n      0x00\n      swap1\n      sload\n      swap1\n      0x0100\n      exp\n      swap1\n      div\n      0xff\n      and\n        /* \"contracts/PatientRegistry.sol\":561:589  !patients[msg.sender].exists */\n      iszero\n        /* \"contracts/PatientRegistry.sol\":553:629  require(!patients[msg.sender].exists, \"PatientRegistry: already registered\") */\n      tag_27\n      jumpi\n      mload(0x40)\n      0x08c379a000000000000000000000000000000000000000000000000000000000\n      dup2\n      mstore\n      0x04\n      add\n      tag_28\n      swap1\n      tag_29\n      jump\t// in\n    tag_28:\n      mload(0x40)\n      dup1\n      swap2\n      sub\n      swap1\n      revert\n    tag_27:\n        /* \"contracts/PatientRegistry.sol\":665:780  Patient({... */\n      mload(0x40)\n      dup1\n      0x60\n      add\n      0x40\n      mstore\n      dup1\n        /* \"contracts/PatientRegistry.sol\":696:706  msg.sender */\n      caller\n        /* \"contracts/PatientRegistry.sol\":665:780  Patient({... */\n      0xffffffffffffffffffffffffffffffffffffffff\n      and\n      dup2\n      mstore\n      0x20\n      add\n        /* \"contracts/PatientRegistry.sol\":732:741  publicKey */\n      dup4\n      dup4\n        /* \"contracts/PatientRegistry.sol\":665:780  Patient({... */\n      dup1\n      dup1\n      0x1f\n      add\n      0x20\n      dup1\n      swap2\n      div\n      mul\n      0x20\n      add\n      mload(0x40)\n      swap1\n      dup2\n      add\n      0x40\n      mstore\n      dup1\n      swap4\n      swap3\n      swap2\n      swap1\n      dup2\n      dup2\n      mstore\n      0x20\n      add\n      dup4\n      dup4\n      dup1\n      dup3\n      dup5\n      calldatacopy\n      0x00\n      dup2\n      dup5\n      add\n      mstore\n      not(0x1f)\n      0x1f\n      dup3\n      add\n      and\n      swap1\n      pop\n      dup1\n      dup4\n      add\n      swap3\n      pop\n      pop\n      pop\n      pop\n      pop\n      pop\n      pop\n      dup2\n      mstore\n      0x20\n      add\n        /* \"contracts/PatientRegistry.sol\":764:768  true */\n      0x01\n        /* \"contracts/PatientRegistry.sol\":665:780  Patient({... */\n      iszero\n      iszero\n      dup2\n      mstore\n      pop\n        /* \"contracts/PatientRegistry.sol\":642:650  patients */\n      0x00\n        /* \"contracts/PatientRegistry.sol\":642:662  patients[msg.sender] */\n      0x00\n        /* \"contracts/PatientRegistry.sol\":651:661  msg.sender */\n      caller\n        /* \"contracts/PatientRegistry.sol\":642:662  patients[msg.sender] */\n      0xffffffffffffffffffffffffffffffffffffffff\n      and\n      0xffffffffffffffffffffffffffffffffffffffff\n      and\n      dup2\n      mstore\n      0x20\n      add\n      swap1\n      dup2\n      mstore\n      0x20\n      add\n      0x00\n      keccak256\n        /* \"contracts/PatientRegistry.sol\":642:780  patients[msg.sender] = Patient({... */\n      0x00\n      dup3\n      add\n      mload\n      dup2\n      0x00\n      add\n      exp(0x0100, 0x00)\n      dup2\n      sload\n      dup2\n      0xffffffffffffffffffffffffffffffffffffffff\n      mul\n      not\n      and\n      swap1\n      dup4\n      0xffffffffffffffffffffffffffffffffffffffff\n      and\n      mul\n      or\n      swap1\n      sstore\n      pop\n      0x20\n      dup3\n      add\n      mload\n      dup2\n      0x01\n      add\n      swap1\n      dup2\n      tag_30\n      swap2\n      swap1\n      tag_31\n      jump\t// in\n    tag_30:\n      pop\n      0x40\n      dup3\n      add\n      mload\n      dup2\n      0x02\n      add\n      exp(0x0100, 0x00)\n      dup2\n      sload\n      dup2\n      0xff\n      mul\n      not\n      and\n      swap1\n      dup4\n      iszero\n      iszero\n      mul\n      or\n      swap1\n      sstore\n      pop\n      swap1\n      pop\n      pop\n        /* \"contracts/PatientRegistry.sol\":793:804  patientList */\n      0x01\n        /* \"contracts/PatientRegistry.sol\":810:820  msg.sender */\n      caller\n        /* \"contracts/PatientRegistry.sol\":793:821  patientList.push(msg.sender) */\n      swap1\n      dup1\n      0x01\n      dup2\n      sload\n      add\n      dup1\n      dup3\n      sstore\n      dup1\n      swap2\n      pop\n      pop\n      0x01\n      swap1\n      sub\n      swap1\n      0x00\n      mstore\n      keccak256(0x00, 0x20)\n      add\n      0x00\n      swap1\n      swap2\n      swap1\n      swap2\n      swap1\n      swap2\n      0x0100\n      exp\n      dup2\n      sload\n      dup2\n      0xffffffffffffffffffffffffffffffffffffffff\n      mul\n      not\n      and\n      swap1\n      dup4\n      0xffffffffffffffffffffffffffffffffffffffff\n      and\n      mul\n      or\n      swap1\n      sstore\n      pop\n        /* \"contracts/PatientRegistry.sol\":855:865  msg.sender */\n      caller\n        /* \"contracts/PatientRegistry.sol\":837:883  PatientRegistered(msg.sender, block.timestamp) */\n      0xffffffffffffffffffffffffffffffffffffffff\n      and\n      0x1a1d2aec173b297857456d20be2671ece280e73079451a2a16142e4f58751e5c\n        /* \"contracts/PatientRegistry.sol\":867:882  block.timestamp */\n      timestamp\n        /* \"contracts/PatientRegistry.sol\":837:883  PatientRegistered(msg.sender, block.timestamp) */\n      mload(0x40)\n      tag_33\n      swap2\n      swap1\n      tag_20\n      jump\t// in\n    tag_33:\n      mload(0x40)\n      dup1\n      swap2\n      sub\n      swap1\n      log2\n        /* \"contracts/PatientRegistry.sol\":481:891  function registerPatient(string calldata publicKey) external {... */\n      pop\n      pop\n      jump\t// out\n        /* \"contracts/PatientRegistry.sol\":899:1008  function isPatient(address addr) external view returns (bool) {... */\n    tag_14:\n        /* \"contracts/PatientRegistry.sol\":955:959  bool */\n      0x00\n        /* \"contracts/PatientRegistry.sol\":979:987  patients */\n      0x00\n        /* \"contracts/PatientRegistry.sol\":979:993  patients[addr] */\n      0x00\n        /* \"contracts/PatientRegistry.sol\":988:992  addr */\n      dup4\n        /* \"contracts/PatientRegistry.sol\":979:993  patients[addr] */\n      0xffffffffffffffffffffffffffffffffffffffff\n      and\n      0xffffffffffffffffffffffffffffffffffffffff\n      and\n      dup2\n      mstore\n      0x20\n      add\n      swap1\n      dup2\n      mstore\n      0x20\n      add\n      0x00\n      keccak256\n        /* \"contracts/PatientRegistry.sol\":979:1000  patients[addr].exists */\n      0x02\n      add\n      0x00\n      swap1\n      sload\n      swap1\n      0x0100\n      exp\n      swap1\n      div\n      0xff\n      and\n        /* \"contracts/PatientRegistry.sol\":972:1000  return patients[addr].exists */\n      swap1\n      pop\n        /* \"contracts/PatientRegistry.sol\":899:1008  function isPatient(address addr) external view returns (bool) {... */\n      swap2\n      swap1\n      pop\n      jump\t// out\n        /* \"contracts/PatientRegistry.sol\":1213:1313  function patientCount() external view returns (uint256) {... */\n    tag_18:\n        /* \"contracts/PatientRegistry.sol\":1260:1267  uint256 */\n      0x00\n        /* \"contracts/PatientRegistry.sol\":1287:1298  patientList */\n      0x01\n        /* \"contracts/PatientRegistry.sol\":1287:1305  patientList.length */\n      dup1\n      sload\n      swap1\n      pop\n        /* \"contracts/PatientRegistry.sol\":1280:1305  return patientList.length */\n      swap1\n      pop\n        /* \"contracts/PatientRegistry.sol\":1213:1313  function patientCount() external view returns (uint256) {... */\n      swap1\n      jump\t// out\n        /* \"contracts/PatientRegistry.sol\":1016:1205  function getPatient(address addr) external view returns (Patient memory) {... */\n    tag_23:\n        /* \"contracts/PatientRegistry.sol\":1073:1087  Patient memory */\n      tag_36\n      tag_37\n      jump\t// in\n    tag_36:\n        /* \"contracts/PatientRegistry.sol\":1108:1116  patients */\n      0x00\n        /* \"contracts/PatientRegistry.sol\":1108:1122  patients[addr] */\n      0x00\n        /* \"contracts/PatientRegistry.sol\":1117:1121  addr */\n      dup4\n        /* \"contracts/PatientRegistry.sol\":1108:1122  patients[addr] */\n      0xffffffffffffffffffffffffffffffffffffffff\n      and\n      0xffffffffffffffffffffffffffffffffffffffff\n      and\n      dup2\n      mstore\n      0x20\n      add\n      swap1\n      dup2\n      mstore\n      0x20\n      add\n      0x00\n      keccak256\n        /* \"contracts/PatientRegistry.sol\":1108:1129  patients[addr].exists */\n      0x02\n      add\n      0x00\n      swap1\n      sload\n      swap1\n      0x0100\n      exp\n      swap1\n      div\n      0xff\n      and\n        /* \"contracts/PatientRegistry.sol\":1100:1165  require(patients[addr].exists, \"PatientRegistry: not registered\") */\n      tag_39\n      jumpi\n      mload(0x40)\n      0x08c379a000000000000000000000000000000000000000000000000000000000\n      dup2\n      mstore\n      0x04\n      add\n      tag_40\n      swap1\n      tag_41\n      jump\t// in\n    tag_40:\n      mload(0x40)\n      dup1\n      swap2\n      sub\n      swap1\n      revert\n    tag_39:\n        /* \"contracts/PatientRegistry.sol\":1183:1191  patients */\n      0x00\n        /* \"contracts/PatientRegistry.sol\":1183:1197  patients[addr] */\n      0x00\n        /* \"contracts/PatientRegistry.sol\":1192:1196  addr */\n      dup4\n        /* \"contracts/PatientRegistry.sol\":1183:1197  patients[addr] */\n      0xffffffffffffffffffffffffffffffffffffffff\n      and\n      0xffffffffffffffffffffffffffffffffffffffff\n      and\n      dup2\n      mstore\n      0x20\n      add\n      swap1\n      dup2\n      mstore\n      0x20\n      add\n      0x00\n      keccak256\n        /* \"contracts/PatientRegistry.sol\":1176:1197  return patients[addr] */\n      mload(0x40)\n      dup1\n      0x60\n      add\n      0x40\n      mstore\n      swap1\n      dup2\n      0x00\n      dup3\n      add\n      0x00\n      swap1\n      sload\n      swap1\n      0x0100\n      exp\n      swap1\n      div\n      0xffffffffffffffffffffffffffffffffffffffff\n      and\n      0xffffffffffffffffffffffffffffffffffffffff\n      and\n      0xffffffffffffffffffffffffffffffffffffffff\n      and\n      dup2\n      mstore\n      0x20\n      add\n      0x01\n      dup3\n      add\n      dup1\n      sload\n      tag_42\n      swap1\n      tag_43\n      jump\t// in\n    tag_42:\n      dup1\n      0x1f\n      add\n      0x20\n      dup1\n      swap2\n      div\n      mul\n      0x20\n      add\n      mload(0x40)\n      swap1\n      dup2\n      add\n      0x40\n      mstore\n      dup1\n      swap3\n      swap2\n      swap1\n      dup2\n      dup2\n      mstore\n      0x20\n      add\n      dup3\n      dup1\n      sload\n      tag_44\n      swap1\n      tag_43\n      jump\t// in\n    tag_44:\n      dup1\n      iszero\n      tag_45\n      jumpi\n      dup1\n      0x1f\n      lt\n      tag_46\n      jumpi\n      0x0100\n      dup1\n      dup4\n      sload\n      div\n      mul\n      dup4\n      mstore\n      swap2\n      0x20\n      add\n      swap2\n      jump(tag_45)\n    tag_46:\n      dup3\n      add\n      swap2\n      swap1\n      0x00\n      mstore\n      keccak256(0x00, 0x20)\n      swap1\n    tag_47:\n      dup2\n      sload\n      dup2\n      mstore\n      swap1\n      0x01\n      add\n      swap1\n      0x20\n      add\n      dup1\n      dup4\n      gt\n      tag_47\n      jumpi\n      dup3\n      swap1\n      sub\n      0x1f\n      and\n      dup3\n      add\n      swap2\n    tag_45:\n      pop\n      pop\n      pop\n      pop\n      pop\n      dup2\n      mstore\n      0x20\n      add\n      0x02\n      dup3\n      add\n      0x00\n      swap1\n      sload\n      swap1\n      0x0100\n      exp\n      swap1\n      div\n      0xff\n      and\n      iszero\n      iszero\n      iszero\n      iszero\n      dup2\n      mstore\n      pop\n      pop\n      swap1\n      pop\n        /* \"contracts/PatientRegistry.sol\":1016:1205  function getPatient(address addr) external view returns (Patient memory) {... */\n      swap2\n      swap1\n      pop\n      jump\t// out\n    tag_37:\n      mload(0x40)\n      dup1\n      0x60\n      add\n      0x40\n      mstore\n      dup1\n      and(0xffffffffffffffffffffffffffffffffffffffff, 0x00)\n      dup2\n      mstore\n      0x20\n      add\n      0x60\n      dup2\n      mstore\n      0x20\n      add\n      iszero(iszero(0x00))\n      dup2\n      mstore\n      pop\n      swap1\n      jump\t// out\n        /* \"#utility.yul\":88:205   */\n    tag_49:\n        /* \"#utility.yul\":197:198   */\n      0x00\n        /* \"#utility.yul\":194:195   */\n      0x00\n        /* \"#utility.yul\":187:199   */\n      revert\n        /* \"#utility.yul\":211:328   */\n    tag_50:\n        /* \"#utility.yul\":320:321   */\n      0x00\n        /* \"#utility.yul\":317:318   */\n      0x00\n        /* \"#utility.yul\":310:322   */\n      revert\n        /* \"#utility.yul\":334:451   */\n    tag_51:\n        /* \"#utility.yul\":443:444   */\n      0x00\n        /* \"#utility.yul\":440:441   */\n      0x00\n        /* \"#utility.yul\":433:445   */\n      revert\n        /* \"#utility.yul\":457:574   */\n    tag_52:\n        /* \"#utility.yul\":566:567   */\n      0x00\n        /* \"#utility.yul\":563:564   */\n      0x00\n        /* \"#utility.yul\":556:568   */\n      revert\n        /* \"#utility.yul\":580:697   */\n    tag_53:\n        /* \"#utility.yul\":689:690   */\n      0x00\n        /* \"#utility.yul\":686:687   */\n      0x00\n        /* \"#utility.yul\":679:691   */\n      revert\n        /* \"#utility.yul\":717:1270   */\n    tag_54:\n        /* \"#utility.yul\":775:783   */\n      0x00\n        /* \"#utility.yul\":785:791   */\n      0x00\n        /* \"#utility.yul\":835:838   */\n      dup4\n        /* \"#utility.yul\":828:832   */\n      0x1f\n        /* \"#utility.yul\":820:826   */\n      dup5\n        /* \"#utility.yul\":816:833   */\n      add\n        /* \"#utility.yul\":812:839   */\n      slt\n        /* \"#utility.yul\":802:924   */\n      tag_101\n      jumpi\n        /* \"#utility.yul\":843:922   */\n      tag_102\n      tag_51\n      jump\t// in\n    tag_102:\n        /* \"#utility.yul\":802:924   */\n    tag_101:\n        /* \"#utility.yul\":956:962   */\n      dup3\n        /* \"#utility.yul\":943:963   */\n      calldataload\n        /* \"#utility.yul\":933:963   */\n      swap1\n      pop\n        /* \"#utility.yul\":986:1004   */\n      0xffffffffffffffff\n        /* \"#utility.yul\":978:984   */\n      dup2\n        /* \"#utility.yul\":975:1005   */\n      gt\n        /* \"#utility.yul\":972:1089   */\n      iszero\n      tag_103\n      jumpi\n        /* \"#utility.yul\":1008:1087   */\n      tag_104\n      tag_52\n      jump\t// in\n    tag_104:\n        /* \"#utility.yul\":972:1089   */\n    tag_103:\n        /* \"#utility.yul\":1122:1126   */\n      0x20\n        /* \"#utility.yul\":1114:1120   */\n      dup4\n        /* \"#utility.yul\":1110:1127   */\n      add\n        /* \"#utility.yul\":1098:1127   */\n      swap2\n      pop\n        /* \"#utility.yul\":1176:1179   */\n      dup4\n        /* \"#utility.yul\":1168:1172   */\n      0x01\n        /* \"#utility.yul\":1160:1166   */\n      dup3\n        /* \"#utility.yul\":1156:1173   */\n      mul\n        /* \"#utility.yul\":1146:1154   */\n      dup4\n        /* \"#utility.yul\":1142:1174   */\n      add\n        /* \"#utility.yul\":1139:1180   */\n      gt\n        /* \"#utility.yul\":1136:1264   */\n      iszero\n      tag_105\n      jumpi\n        /* \"#utility.yul\":1183:1262   */\n      tag_106\n      tag_53\n      jump\t// in\n    tag_106:\n        /* \"#utility.yul\":1136:1264   */\n    tag_105:\n        /* \"#utility.yul\":717:1270   */\n      swap3\n      pop\n      swap3\n      swap1\n      pop\n      jump\t// out\n        /* \"#utility.yul\":1276:1805   */\n    tag_9:\n        /* \"#utility.yul\":1347:1353   */\n      0x00\n        /* \"#utility.yul\":1355:1361   */\n      0x00\n        /* \"#utility.yul\":1404:1406   */\n      0x20\n        /* \"#utility.yul\":1392:1401   */\n      dup4\n        /* \"#utility.yul\":1383:1390   */\n      dup6\n        /* \"#utility.yul\":1379:1402   */\n      sub\n        /* \"#utility.yul\":1375:1407   */\n      slt\n        /* \"#utility.yul\":1372:1491   */\n      iszero\n      tag_108\n      jumpi\n        /* \"#utility.yul\":1410:1489   */\n      tag_109\n      tag_49\n      jump\t// in\n    tag_109:\n        /* \"#utility.yul\":1372:1491   */\n    tag_108:\n        /* \"#utility.yul\":1558:1559   */\n      0x00\n        /* \"#utility.yul\":1547:1556   */\n      dup4\n        /* \"#utility.yul\":1543:1560   */\n      add\n        /* \"#utility.yul\":1530:1561   */\n      calldataload\n        /* \"#utility.yul\":1588:1606   */\n      0xffffffffffffffff\n        /* \"#utility.yul\":1580:1586   */\n      dup2\n        /* \"#utility.yul\":1577:1607   */\n      gt\n        /* \"#utility.yul\":1574:1691   */\n      iszero\n      tag_110\n      jumpi\n        /* \"#utility.yul\":1610:1689   */\n      tag_111\n      tag_50\n      jump\t// in\n    tag_111:\n        /* \"#utility.yul\":1574:1691   */\n    tag_110:\n        /* \"#utility.yul\":1723:1788   */\n      tag_112\n        /* \"#utility.yul\":1780:1787   */\n      dup6\n        /* \"#utility.yul\":1771:1777   */\n      dup3\n        /* \"#utility.yul\":1760:1769   */\n      dup7\n        /* \"#utility.yul\":1756:1778   */\n      add\n        /* \"#utility.yul\":1723:1788   */\n      tag_54\n      jump\t// in\n    tag_112:\n        /* \"#utility.yul\":1705:1788   */\n      swap3\n      pop\n      swap3\n      pop\n        /* \"#utility.yul\":1501:1798   */\n      pop\n        /* \"#utility.yul\":1276:1805   */\n      swap3\n      pop\n      swap3\n      swap1\n      pop\n      jump\t// out\n        /* \"#utility.yul\":1811:1937   */\n    tag_55:\n        /* \"#utility.yul\":1848:1855   */\n      0x00\n        /* \"#utility.yul\":1888:1930   */\n      0xffffffffffffffffffffffffffffffffffffffff\n        /* \"#utility.yul\":1881:1886   */\n      dup3\n        /* \"#utility.yul\":1877:1931   */\n      and\n        /* \"#utility.yul\":1866:1931   */\n      swap1\n      pop\n        /* \"#utility.yul\":1811:1937   */\n      swap2\n      swap1\n      pop\n      jump\t// out\n        /* \"#utility.yul\":1943:2039   */\n    tag_56:\n        /* \"#utility.yul\":1980:1987   */\n      0x00\n        /* \"#utility.yul\":2009:2033   */\n      tag_115\n        /* \"#utility.yul\":2027:2032   */\n      dup3\n        /* \"#utility.yul\":2009:2033   */\n      tag_55\n      jump\t// in\n    tag_115:\n        /* \"#utility.yul\":1998:2033   */\n      swap1\n      pop\n        /* \"#utility.yul\":1943:2039   */\n      swap2\n      swap1\n      pop\n      jump\t// out\n        /* \"#utility.yul\":2045:2167   */\n    tag_57:\n        /* \"#utility.yul\":2118:2142   */\n      tag_117\n        /* \"#utility.yul\":2136:2141   */\n      dup2\n        /* \"#utility.yul\":2118:2142   */\n      tag_56\n      jump\t// in\n    tag_117:\n        /* \"#utility.yul\":2111:2116   */\n      dup2\n        /* \"#utility.yul\":2108:2143   */\n      eq\n        /* \"#utility.yul\":2098:2161   */\n      tag_118\n      jumpi\n        /* \"#utility.yul\":2157:2158   */\n      0x00\n        /* \"#utility.yul\":2154:2155   */\n      0x00\n        /* \"#utility.yul\":2147:2159   */\n      revert\n        /* \"#utility.yul\":2098:2161   */\n    tag_118:\n        /* \"#utility.yul\":2045:2167   */\n      pop\n      jump\t// out\n        /* \"#utility.yul\":2173:2312   */\n    tag_58:\n        /* \"#utility.yul\":2219:2224   */\n      0x00\n        /* \"#utility.yul\":2257:2263   */\n      dup2\n        /* \"#utility.yul\":2244:2264   */\n      calldataload\n        /* \"#utility.yul\":2235:2264   */\n      swap1\n      pop\n        /* \"#utility.yul\":2273:2306   */\n      tag_120\n        /* \"#utility.yul\":2300:2305   */\n      dup2\n        /* \"#utility.yul\":2273:2306   */\n      tag_57\n      jump\t// in\n    tag_120:\n        /* \"#utility.yul\":2173:2312   */\n      swap3\n      swap2\n      pop\n      pop\n      jump\t// out\n        /* \"#utility.yul\":2318:2647   */\n    tag_13:\n        /* \"#utility.yul\":2377:2383   */\n      0x00\n        /* \"#utility.yul\":2426:2428   */\n      0x20\n        /* \"#utility.yul\":2414:2423   */\n      dup3\n        /* \"#utility.yul\":2405:2412   */\n      dup5\n        /* \"#utility.yul\":2401:2424   */\n      sub\n        /* \"#utility.yul\":2397:2429   */\n      slt\n        /* \"#utility.yul\":2394:2513   */\n      iszero\n      tag_122\n      jumpi\n        /* \"#utility.yul\":2432:2511   */\n      tag_123\n      tag_49\n      jump\t// in\n    tag_123:\n        /* \"#utility.yul\":2394:2513   */\n    tag_122:\n        /* \"#utility.yul\":2552:2553   */\n      0x00\n        /* \"#utility.yul\":2577:2630   */\n      tag_124\n        /* \"#utility.yul\":2622:2629   */\n      dup5\n        /* \"#utility.yul\":2613:2619   */\n      dup3\n        /* \"#utility.yul\":2602:2611   */\n      dup6\n        /* \"#utility.yul\":2598:2620   */\n      add\n        /* \"#utility.yul\":2577:2630   */\n      tag_58\n      jump\t// in\n    tag_124:\n        /* \"#utility.yul\":2567:2630   */\n      swap2\n      pop\n        /* \"#utility.yul\":2523:2640   */\n      pop\n        /* \"#utility.yul\":2318:2647   */\n      swap3\n      swap2\n      pop\n      pop\n      jump\t// out\n        /* \"#utility.yul\":2653:2743   */\n    tag_59:\n        /* \"#utility.yul\":2687:2694   */\n      0x00\n        /* \"#utility.yul\":2730:2735   */\n      dup2\n        /* \"#utility.yul\":2723:2736   */\n      iszero\n        /* \"#utility.yul\":2716:2737   */\n      iszero\n        /* \"#utility.yul\":2705:2737   */\n      swap1\n      pop\n        /* \"#utility.yul\":2653:2743   */\n      swap2\n      swap1\n      pop\n      jump\t// out\n        /* \"#utility.yul\":2749:2858   */\n    tag_60:\n        /* \"#utility.yul\":2830:2851   */\n      tag_127\n        /* \"#utility.yul\":2845:2850   */\n      dup2\n        /* \"#utility.yul\":2830:2851   */\n      tag_59\n      jump\t// in\n    tag_127:\n        /* \"#utility.yul\":2825:2828   */\n      dup3\n        /* \"#utility.yul\":2818:2852   */\n      mstore\n        /* \"#utility.yul\":2749:2858   */\n      pop\n      pop\n      jump\t// out\n        /* \"#utility.yul\":2864:3074   */\n    tag_16:\n        /* \"#utility.yul\":2951:2955   */\n      0x00\n        /* \"#utility.yul\":2989:2991   */\n      0x20\n        /* \"#utility.yul\":2978:2987   */\n      dup3\n        /* \"#utility.yul\":2974:2992   */\n      add\n        /* \"#utility.yul\":2966:2992   */\n      swap1\n      pop\n        /* \"#utility.yul\":3002:3067   */\n      tag_129\n        /* \"#utility.yul\":3064:3065   */\n      0x00\n        /* \"#utility.yul\":3053:3062   */\n      dup4\n        /* \"#utility.yul\":3049:3066   */\n      add\n        /* \"#utility.yul\":3040:3046   */\n      dup5\n        /* \"#utility.yul\":3002:3067   */\n      tag_60\n      jump\t// in\n    tag_129:\n        /* \"#utility.yul\":2864:3074   */\n      swap3\n      swap2\n      pop\n      pop\n      jump\t// out\n        /* \"#utility.yul\":3080:3157   */\n    tag_61:\n        /* \"#utility.yul\":3117:3124   */\n      0x00\n        /* \"#utility.yul\":3146:3151   */\n      dup2\n        /* \"#utility.yul\":3135:3151   */\n      swap1\n      pop\n        /* \"#utility.yul\":3080:3157   */\n      swap2\n      swap1\n      pop\n      jump\t// out\n        /* \"#utility.yul\":3163:3281   */\n    tag_62:\n        /* \"#utility.yul\":3250:3274   */\n      tag_132\n        /* \"#utility.yul\":3268:3273   */\n      dup2\n        /* \"#utility.yul\":3250:3274   */\n      tag_61\n      jump\t// in\n    tag_132:\n        /* \"#utility.yul\":3245:3248   */\n      dup3\n        /* \"#utility.yul\":3238:3275   */\n      mstore\n        /* \"#utility.yul\":3163:3281   */\n      pop\n      pop\n      jump\t// out\n        /* \"#utility.yul\":3287:3509   */\n    tag_20:\n        /* \"#utility.yul\":3380:3384   */\n      0x00\n        /* \"#utility.yul\":3418:3420   */\n      0x20\n        /* \"#utility.yul\":3407:3416   */\n      dup3\n        /* \"#utility.yul\":3403:3421   */\n      add\n        /* \"#utility.yul\":3395:3421   */\n      swap1\n      pop\n        /* \"#utility.yul\":3431:3502   */\n      tag_134\n        /* \"#utility.yul\":3499:3500   */\n      0x00\n        /* \"#utility.yul\":3488:3497   */\n      dup4\n        /* \"#utility.yul\":3484:3501   */\n      add\n        /* \"#utility.yul\":3475:3481   */\n      dup5\n        /* \"#utility.yul\":3431:3502   */\n      tag_62\n      jump\t// in\n    tag_134:\n        /* \"#utility.yul\":3287:3509   */\n      swap3\n      swap2\n      pop\n      pop\n      jump\t// out\n        /* \"#utility.yul\":3515:3623   */\n    tag_63:\n        /* \"#utility.yul\":3592:3616   */\n      tag_136\n        /* \"#utility.yul\":3610:3615   */\n      dup2\n        /* \"#utility.yul\":3592:3616   */\n      tag_56\n      jump\t// in\n    tag_136:\n        /* \"#utility.yul\":3587:3590   */\n      dup3\n        /* \"#utility.yul\":3580:3617   */\n      mstore\n        /* \"#utility.yul\":3515:3623   */\n      pop\n      pop\n      jump\t// out\n        /* \"#utility.yul\":3629:3728   */\n    tag_64:\n        /* \"#utility.yul\":3681:3687   */\n      0x00\n        /* \"#utility.yul\":3715:3720   */\n      dup2\n        /* \"#utility.yul\":3709:3721   */\n      mload\n        /* \"#utility.yul\":3699:3721   */\n      swap1\n      pop\n        /* \"#utility.yul\":3629:3728   */\n      swap2\n      swap1\n      pop\n      jump\t// out\n        /* \"#utility.yul\":3734:3893   */\n    tag_65:\n        /* \"#utility.yul\":3808:3819   */\n      0x00\n        /* \"#utility.yul\":3842:3848   */\n      dup3\n        /* \"#utility.yul\":3837:3840   */\n      dup3\n        /* \"#utility.yul\":3830:3849   */\n      mstore\n        /* \"#utility.yul\":3882:3886   */\n      0x20\n        /* \"#utility.yul\":3877:3880   */\n      dup3\n        /* \"#utility.yul\":3873:3887   */\n      add\n        /* \"#utility.yul\":3858:3887   */\n      swap1\n      pop\n        /* \"#utility.yul\":3734:3893   */\n      swap3\n      swap2\n      pop\n      pop\n      jump\t// out\n        /* \"#utility.yul\":3899:4038   */\n    tag_66:\n        /* \"#utility.yul\":3988:3994   */\n      dup3\n        /* \"#utility.yul\":3983:3986   */\n      dup2\n        /* \"#utility.yul\":3978:3981   */\n      dup4\n        /* \"#utility.yul\":3972:3995   */\n      mcopy\n        /* \"#utility.yul\":4029:4030   */\n      0x00\n        /* \"#utility.yul\":4020:4026   */\n      dup4\n        /* \"#utility.yul\":4015:4018   */\n      dup4\n        /* \"#utility.yul\":4011:4027   */\n      add\n        /* \"#utility.yul\":4004:4031   */\n      mstore\n        /* \"#utility.yul\":3899:4038   */\n      pop\n      pop\n      pop\n      jump\t// out\n        /* \"#utility.yul\":4044:4146   */\n    tag_67:\n        /* \"#utility.yul\":4085:4091   */\n      0x00\n        /* \"#utility.yul\":4136:4138   */\n      0x1f\n        /* \"#utility.yul\":4132:4139   */\n      not\n        /* \"#utility.yul\":4127:4129   */\n      0x1f\n        /* \"#utility.yul\":4120:4125   */\n      dup4\n        /* \"#utility.yul\":4116:4130   */\n      add\n        /* \"#utility.yul\":4112:4140   */\n      and\n        /* \"#utility.yul\":4102:4140   */\n      swap1\n      pop\n        /* \"#utility.yul\":4044:4146   */\n      swap2\n      swap1\n      pop\n      jump\t// out\n        /* \"#utility.yul\":4152:4509   */\n    tag_68:\n        /* \"#utility.yul\":4230:4233   */\n      0x00\n        /* \"#utility.yul\":4258:4297   */\n      tag_142\n        /* \"#utility.yul\":4291:4296   */\n      dup3\n        /* \"#utility.yul\":4258:4297   */\n      tag_64\n      jump\t// in\n    tag_142:\n        /* \"#utility.yul\":4313:4374   */\n      tag_143\n        /* \"#utility.yul\":4367:4373   */\n      dup2\n        /* \"#utility.yul\":4362:4365   */\n      dup6\n        /* \"#utility.yul\":4313:4374   */\n      tag_65\n      jump\t// in\n    tag_143:\n        /* \"#utility.yul\":4306:4374   */\n      swap4\n      pop\n        /* \"#utility.yul\":4383:4448   */\n      tag_144\n        /* \"#utility.yul\":4441:4447   */\n      dup2\n        /* \"#utility.yul\":4436:4439   */\n      dup6\n        /* \"#utility.yul\":4429:4433   */\n      0x20\n        /* \"#utility.yul\":4422:4427   */\n      dup7\n        /* \"#utility.yul\":4418:4434   */\n      add\n        /* \"#utility.yul\":4383:4448   */\n      tag_66\n      jump\t// in\n    tag_144:\n        /* \"#utility.yul\":4473:4502   */\n      tag_145\n        /* \"#utility.yul\":4495:4501   */\n      dup2\n        /* \"#utility.yul\":4473:4502   */\n      tag_67\n      jump\t// in\n    tag_145:\n        /* \"#utility.yul\":4468:4471   */\n      dup5\n        /* \"#utility.yul\":4464:4503   */\n      add\n        /* \"#utility.yul\":4457:4503   */\n      swap2\n      pop\n        /* \"#utility.yul\":4234:4509   */\n      pop\n        /* \"#utility.yul\":4152:4509   */\n      swap3\n      swap2\n      pop\n      pop\n      jump\t// out\n        /* \"#utility.yul\":4515:4614   */\n    tag_69:\n        /* \"#utility.yul\":4586:4607   */\n      tag_147\n        /* \"#utility.yul\":4601:4606   */\n      dup2\n        /* \"#utility.yul\":4586:4607   */\n      tag_59\n      jump\t// in\n    tag_147:\n        /* \"#utility.yul\":4581:4584   */\n      dup3\n        /* \"#utility.yul\":4574:4608   */\n      mstore\n        /* \"#utility.yul\":4515:4614   */\n      pop\n      pop\n      jump\t// out\n        /* \"#utility.yul\":4692:5469   */\n    tag_70:\n        /* \"#utility.yul\":4805:4808   */\n      0x00\n        /* \"#utility.yul\":4841:4845   */\n      0x60\n        /* \"#utility.yul\":4836:4839   */\n      dup4\n        /* \"#utility.yul\":4832:4846   */\n      add\n        /* \"#utility.yul\":4930:4934   */\n      0x00\n        /* \"#utility.yul\":4923:4928   */\n      dup4\n        /* \"#utility.yul\":4919:4935   */\n      add\n        /* \"#utility.yul\":4913:4936   */\n      mload\n        /* \"#utility.yul\":4949:5012   */\n      tag_149\n        /* \"#utility.yul\":5006:5010   */\n      0x00\n        /* \"#utility.yul\":5001:5004   */\n      dup7\n        /* \"#utility.yul\":4997:5011   */\n      add\n        /* \"#utility.yul\":4983:4995   */\n      dup3\n        /* \"#utility.yul\":4949:5012   */\n      tag_63\n      jump\t// in\n    tag_149:\n        /* \"#utility.yul\":4856:5022   */\n      pop\n        /* \"#utility.yul\":5109:5113   */\n      0x20\n        /* \"#utility.yul\":5102:5107   */\n      dup4\n        /* \"#utility.yul\":5098:5114   */\n      add\n        /* \"#utility.yul\":5092:5115   */\n      mload\n        /* \"#utility.yul\":5162:5165   */\n      dup5\n        /* \"#utility.yul\":5156:5160   */\n      dup3\n        /* \"#utility.yul\":5152:5166   */\n      sub\n        /* \"#utility.yul\":5145:5149   */\n      0x20\n        /* \"#utility.yul\":5140:5143   */\n      dup7\n        /* \"#utility.yul\":5136:5150   */\n      add\n        /* \"#utility.yul\":5129:5167   */\n      mstore\n        /* \"#utility.yul\":5188:5261   */\n      tag_150\n        /* \"#utility.yul\":5256:5260   */\n      dup3\n        /* \"#utility.yul\":5242:5254   */\n      dup3\n        /* \"#utility.yul\":5188:5261   */\n      tag_68\n      jump\t// in\n    tag_150:\n        /* \"#utility.yul\":5180:5261   */\n      swap2\n      pop\n        /* \"#utility.yul\":5032:5272   */\n      pop\n        /* \"#utility.yul\":5356:5360   */\n      0x40\n        /* \"#utility.yul\":5349:5354   */\n      dup4\n        /* \"#utility.yul\":5345:5361   */\n      add\n        /* \"#utility.yul\":5339:5362   */\n      mload\n        /* \"#utility.yul\":5375:5432   */\n      tag_151\n        /* \"#utility.yul\":5426:5430   */\n      0x40\n        /* \"#utility.yul\":5421:5424   */\n      dup7\n        /* \"#utility.yul\":5417:5431   */\n      add\n        /* \"#utility.yul\":5403:5415   */\n      dup3\n        /* \"#utility.yul\":5375:5432   */\n      tag_69\n      jump\t// in\n    tag_151:\n        /* \"#utility.yul\":5282:5442   */\n      pop\n        /* \"#utility.yul\":5459:5463   */\n      dup1\n        /* \"#utility.yul\":5452:5463   */\n      swap2\n      pop\n        /* \"#utility.yul\":4810:5469   */\n      pop\n        /* \"#utility.yul\":4692:5469   */\n      swap3\n      swap2\n      pop\n      pop\n      jump\t// out\n        /* \"#utility.yul\":5475:5836   */\n    tag_25:\n        /* \"#utility.yul\":5612:5616   */\n      0x00\n        /* \"#utility.yul\":5650:5652   */\n      0x20\n        /* \"#utility.yul\":5639:5648   */\n      dup3\n        /* \"#utility.yul\":5635:5653   */\n      add\n        /* \"#utility.yul\":5627:5653   */\n      swap1\n      pop\n        /* \"#utility.yul\":5699:5708   */\n      dup2\n        /* \"#utility.yul\":5693:5697   */\n      dup2\n        /* \"#utility.yul\":5689:5709   */\n      sub\n        /* \"#utility.yul\":5685:5686   */\n      0x00\n        /* \"#utility.yul\":5674:5683   */\n      dup4\n        /* \"#utility.yul\":5670:5687   */\n      add\n        /* \"#utility.yul\":5663:5710   */\n      mstore\n        /* \"#utility.yul\":5727:5829   */\n      tag_153\n        /* \"#utility.yul\":5824:5828   */\n      dup2\n        /* \"#utility.yul\":5815:5821   */\n      dup5\n        /* \"#utility.yul\":5727:5829   */\n      tag_70\n      jump\t// in\n    tag_153:\n        /* \"#utility.yul\":5719:5829   */\n      swap1\n      pop\n        /* \"#utility.yul\":5475:5836   */\n      swap3\n      swap2\n      pop\n      pop\n      jump\t// out\n        /* \"#utility.yul\":5842:6011   */\n    tag_71:\n        /* \"#utility.yul\":5926:5937   */\n      0x00\n        /* \"#utility.yul\":5960:5966   */\n      dup3\n        /* \"#utility.yul\":5955:5958   */\n      dup3\n        /* \"#utility.yul\":5948:5967   */\n      mstore\n        /* \"#utility.yul\":6000:6004   */\n      0x20\n        /* \"#utility.yul\":5995:5998   */\n      dup3\n        /* \"#utility.yul\":5991:6005   */\n      add\n        /* \"#utility.yul\":5976:6005   */\n      swap1\n      pop\n        /* \"#utility.yul\":5842:6011   */\n      swap3\n      swap2\n      pop\n      pop\n      jump\t// out\n        /* \"#utility.yul\":6017:6239   */\n    tag_72:\n        /* \"#utility.yul\":6157:6191   */\n      0x50617469656e7452656769737472793a20616c72656164792072656769737465\n        /* \"#utility.yul\":6153:6154   */\n      0x00\n        /* \"#utility.yul\":6145:6151   */\n      dup3\n        /* \"#utility.yul\":6141:6155   */\n      add\n        /* \"#utility.yul\":6134:6192   */\n      mstore\n        /* \"#utility.yul\":6226:6231   */\n      0x7265640000000000000000000000000000000000000000000000000000000000\n        /* \"#utility.yul\":6221:6223   */\n      0x20\n        /* \"#utility.yul\":6213:6219   */\n      dup3\n        /* \"#utility.yul\":6209:6224   */\n      add\n        /* \"#utility.yul\":6202:6232   */\n      mstore\n        /* \"#utility.yul\":6017:6239   */\n      pop\n      jump\t// out\n        /* \"#utility.yul\":6245:6611   */\n    tag_73:\n        /* \"#utility.yul\":6387:6390   */\n      0x00\n        /* \"#utility.yul\":6408:6475   */\n      tag_157\n        /* \"#utility.yul\":6472:6474   */\n      0x23\n        /* \"#utility.yul\":6467:6470   */\n      dup4\n        /* \"#utility.yul\":6408:6475   */\n      tag_71\n      jump\t// in\n    tag_157:\n        /* \"#utility.yul\":6401:6475   */\n      swap2\n      pop\n        /* \"#utility.yul\":6484:6577   */\n      tag_158\n        /* \"#utility.yul\":6573:6576   */\n      dup3\n        /* \"#utility.yul\":6484:6577   */\n      tag_72\n      jump\t// in\n    tag_158:\n        /* \"#utility.yul\":6602:6604   */\n      0x40\n        /* \"#utility.yul\":6597:6600   */\n      dup3\n        /* \"#utility.yul\":6593:6605   */\n      add\n        /* \"#utility.yul\":6586:6605   */\n      swap1\n      pop\n        /* \"#utility.yul\":6245:6611   */\n      swap2\n      swap1\n      pop\n      jump\t// out\n        /* \"#utility.yul\":6617:7036   */\n    tag_29:\n        /* \"#utility.yul\":6783:6787   */\n      0x00\n        /* \"#utility.yul\":6821:6823   */\n      0x20\n        /* \"#utility.yul\":6810:6819   */\n      dup3\n        /* \"#utility.yul\":6806:6824   */\n      add\n        /* \"#utility.yul\":6798:6824   */\n      swap1\n      pop\n        /* \"#utility.yul\":6870:6879   */\n      dup2\n        /* \"#utility.yul\":6864:6868   */\n      dup2\n        /* \"#utility.yul\":6860:6880   */\n      sub\n        /* \"#utility.yul\":6856:6857   */\n      0x00\n        /* \"#utility.yul\":6845:6854   */\n      dup4\n        /* \"#utility.yul\":6841:6858   */\n      add\n        /* \"#utility.yul\":6834:6881   */\n      mstore\n        /* \"#utility.yul\":6898:7029   */\n      tag_160\n        /* \"#utility.yul\":7024:7028   */\n      dup2\n        /* \"#utility.yul\":6898:7029   */\n      tag_73\n      jump\t// in\n    tag_160:\n        /* \"#utility.yul\":6890:7029   */\n      swap1\n      pop\n        /* \"#utility.yul\":6617:7036   */\n      swap2\n      swap1\n      pop\n      jump\t// out\n        /* \"#utility.yul\":7042:7222   */\n    tag_74:\n        /* \"#utility.yul\":7090:7167   */\n      0x4e487b7100000000000000000000000000000000000000000000000000000000\n        /* \"#utility.yul\":7087:7088   */\n      0x00\n        /* \"#utility.yul\":7080:7168   */\n      mstore\n        /* \"#utility.yul\":7187:7191   */\n      0x41\n        /* \"#utility.yul\":7184:7185   */\n      0x04\n        /* \"#utility.yul\":7177:7192   */\n      mstore\n        /* \"#utility.yul\":7211:7215   */\n      0x24\n        /* \"#utility.yul\":7208:7209   */\n      0x00\n        /* \"#utility.yul\":7201:7216   */\n      revert\n        /* \"#utility.yul\":7228:7408   */\n    tag_75:\n        /* \"#utility.yul\":7276:7353   */\n      0x4e487b7100000000000000000000000000000000000000000000000000000000\n        /* \"#utility.yul\":7273:7274   */\n      0x00\n        /* \"#utility.yul\":7266:7354   */\n      mstore\n        /* \"#utility.yul\":7373:7377   */\n      0x22\n        /* \"#utility.yul\":7370:7371   */\n      0x04\n        /* \"#utility.yul\":7363:7378   */\n      mstore\n        /* \"#utility.yul\":7397:7401   */\n      0x24\n        /* \"#utility.yul\":7394:7395   */\n      0x00\n        /* \"#utility.yul\":7387:7402   */\n      revert\n        /* \"#utility.yul\":7414:7734   */\n    tag_43:\n        /* \"#utility.yul\":7458:7464   */\n      0x00\n        /* \"#utility.yul\":7495:7496   */\n      0x02\n        /* \"#utility.yul\":7489:7493   */\n      dup3\n        /* \"#utility.yul\":7485:7497   */\n      div\n        /* \"#utility.yul\":7475:7497   */\n      swap1\n      pop\n        /* \"#utility.yul\":7542:7543   */\n      0x01\n        /* \"#utility.yul\":7536:7540   */\n      dup3\n        /* \"#utility.yul\":7532:7544   */\n      and\n        /* \"#utility.yul\":7563:7581   */\n      dup1\n        /* \"#utility.yul\":7553:7634   */\n      tag_164\n      jumpi\n        /* \"#utility.yul\":7619:7623   */\n      0x7f\n        /* \"#utility.yul\":7611:7617   */\n      dup3\n        /* \"#utility.yul\":7607:7624   */\n      and\n        /* \"#utility.yul\":7597:7624   */\n      swap2\n      pop\n        /* \"#utility.yul\":7553:7634   */\n    tag_164:\n        /* \"#utility.yul\":7681:7683   */\n      0x20\n        /* \"#utility.yul\":7673:7679   */\n      dup3\n        /* \"#utility.yul\":7670:7684   */\n      lt\n        /* \"#utility.yul\":7650:7668   */\n      dup2\n        /* \"#utility.yul\":7647:7685   */\n      sub\n        /* \"#utility.yul\":7644:7728   */\n      tag_165\n      jumpi\n        /* \"#utility.yul\":7700:7718   */\n      tag_166\n      tag_75\n      jump\t// in\n    tag_166:\n        /* \"#utility.yul\":7644:7728   */\n    tag_165:\n        /* \"#utility.yul\":7465:7734   */\n      pop\n        /* \"#utility.yul\":7414:7734   */\n      swap2\n      swap1\n      pop\n      jump\t// out\n        /* \"#utility.yul\":7740:7881   */\n    tag_76:\n        /* \"#utility.yul\":7789:7793   */\n      0x00\n        /* \"#utility.yul\":7812:7815   */\n      dup2\n        /* \"#utility.yul\":7804:7815   */\n      swap1\n      pop\n        /* \"#utility.yul\":7835:7838   */\n      dup2\n        /* \"#utility.yul\":7832:7833   */\n      0x00\n        /* \"#utility.yul\":7825:7839   */\n      mstore\n        /* \"#utility.yul\":7869:7873   */\n      0x20\n        /* \"#utility.yul\":7866:7867   */\n      0x00\n        /* \"#utility.yul\":7856:7874   */\n      keccak256\n        /* \"#utility.yul\":7848:7874   */\n      swap1\n      pop\n        /* \"#utility.yul\":7740:7881   */\n      swap2\n      swap1\n      pop\n      jump\t// out\n        /* \"#utility.yul\":7887:7980   */\n    tag_77:\n        /* \"#utility.yul\":7924:7930   */\n      0x00\n        /* \"#utility.yul\":7971:7973   */\n      0x20\n        /* \"#utility.yul\":7966:7968   */\n      0x1f\n        /* \"#utility.yul\":7959:7964   */\n      dup4\n        /* \"#utility.yul\":7955:7969   */\n      add\n        /* \"#utility.yul\":7951:7974   */\n      div\n        /* \"#utility.yul\":7941:7974   */\n      swap1\n      pop\n        /* \"#utility.yul\":7887:7980   */\n      swap2\n      swap1\n      pop\n      jump\t// out\n        /* \"#utility.yul\":7986:8093   */\n    tag_78:\n        /* \"#utility.yul\":8030:8038   */\n      0x00\n        /* \"#utility.yul\":8080:8085   */\n      dup3\n        /* \"#utility.yul\":8074:8078   */\n      dup3\n        /* \"#utility.yul\":8070:8086   */\n      shl\n        /* \"#utility.yul\":8049:8086   */\n      swap1\n      pop\n        /* \"#utility.yul\":7986:8093   */\n      swap3\n      swap2\n      pop\n      pop\n      jump\t// out\n        /* \"#utility.yul\":8099:8492   */\n    tag_79:\n        /* \"#utility.yul\":8168:8174   */\n      0x00\n        /* \"#utility.yul\":8218:8219   */\n      0x08\n        /* \"#utility.yul\":8206:8216   */\n      dup4\n        /* \"#utility.yul\":8202:8220   */\n      mul\n        /* \"#utility.yul\":8241:8338   */\n      tag_171\n        /* \"#utility.yul\":8271:8337   */\n      0xffffffffffffffffffffffffffffffffffffffffffffffffffffffffffffffff\n        /* \"#utility.yul\":8260:8269   */\n      dup3\n        /* \"#utility.yul\":8241:8338   */\n      tag_78\n      jump\t// in\n    tag_171:\n        /* \"#utility.yul\":8359:8398   */\n      tag_172\n        /* \"#utility.yul\":8389:8397   */\n      dup7\n        /* \"#utility.yul\":8378:8387   */\n      dup4\n        /* \"#utility.yul\":8359:8398   */\n      tag_78\n      jump\t// in\n    tag_172:\n        /* \"#utility.yul\":8347:8398   */\n      swap6\n      pop\n        /* \"#utility.yul\":8431:8435   */\n      dup1\n        /* \"#utility.yul\":8427:8436   */\n      not\n        /* \"#utility.yul\":8420:8425   */\n      dup5\n        /* \"#utility.yul\":8416:8437   */\n      and\n        /* \"#utility.yul\":8407:8437   */\n      swap4\n      pop\n        /* \"#utility.yul\":8480:8484   */\n      dup1\n        /* \"#utility.yul\":8470:8478   */\n      dup7\n        /* \"#utility.yul\":8466:8485   */\n      and\n        /* \"#utility.yul\":8459:8464   */\n      dup5\n        /* \"#utility.yul\":8456:8486   */\n      or\n        /* \"#utility.yul\":8446:8486   */\n      swap3\n      pop\n        /* \"#utility.yul\":8175:8492   */\n      pop\n      pop\n        /* \"#utility.yul\":8099:8492   */\n      swap4\n      swap3\n      pop\n      pop\n      pop\n      jump\t// out\n        /* \"#utility.yul\":8498:8558   */\n    tag_80:\n        /* \"#utility.yul\":8526:8529   */\n      0x00\n        /* \"#utility.yul\":8547:8552   */\n      dup2\n        /* \"#utility.yul\":8540:8552   */\n      swap1\n      pop\n        /* \"#utility.yul\":8498:8558   */\n      swap2\n      swap1\n      pop\n      jump\t// out\n        /* \"#utility.yul\":8564:8706   */\n    tag_81:\n        /* \"#utility.yul\":8614:8623   */\n      0x00\n        /* \"#utility.yul\":8647:8700   */\n      tag_175\n        /* \"#utility.yul\":8665:8699   */\n      tag_176\n        /* \"#utility.yul\":8674:8698   */\n      tag_177\n        /* \"#utility.yul\":8692:8697   */\n      dup5\n        /* \"#utility.yul\":8674:8698   */\n      tag_61\n      jump\t// in\n    tag_177:\n        /* \"#utility.yul\":8665:8699   */\n      tag_80\n      jump\t// in\n    tag_176:\n        /* \"#utility.yul\":8647:8700   */\n      tag_61\n      jump\t// in\n    tag_175:\n        /* \"#utility.yul\":8634:8700   */\n      swap1\n      pop\n        /* \"#utility.yul\":8564:8706   */\n      swap2\n      swap1\n      pop\n      jump\t// out\n        /* \"#utility.yul\":8712:8787   */\n    tag_82:\n        /* \"#utility.yul\":8755:8758   */\n      0x00\n        /* \"#utility.yul\":8776:8781   */\n      dup2\n        /* \"#utility.yul\":8769:8781   */\n      swap1\n      pop\n        /* \"#utility.yul\":8712:8787   */\n      swap2\n      swap1\n      pop\n      jump\t// out\n        /* \"#utility.yul\":8793:9062   */\n    tag_83:\n        /* \"#utility.yul\":8903:8942   */\n      tag_180\n        /* \"#utility.yul\":8934:8941   */\n      dup4\n        /* \"#utility.yul\":8903:8942   */\n      tag_81\n      jump\t// in\n    tag_180:\n        /* \"#utility.yul\":8964:9055   */\n      tag_181\n        /* \"#utility.yul\":9013:9054   */\n      tag_182\n        /* \"#utility.yul\":9037:9053   */\n      dup3\n        /* \"#utility.yul\":9013:9054   */\n      tag_82\n      jump\t// in\n    tag_182:\n        /* \"#utility.yul\":9005:9011   */\n      dup5\n        /* \"#utility.yul\":8998:9002   */\n      dup5\n        /* \"#utility.yul\":8992:9003   */\n      sload\n        /* \"#utility.yul\":8964:9055   */\n      tag_79\n      jump\t// in\n    tag_181:\n        /* \"#utility.yul\":8958:8962   */\n      dup3\n        /* \"#utility.yul\":8951:9056   */\n      sstore\n        /* \"#utility.yul\":8869:9062   */\n      pop\n        /* \"#utility.yul\":8793:9062   */\n      pop\n      pop\n      pop\n      jump\t// out\n        /* \"#utility.yul\":9068:9141   */\n    tag_84:\n        /* \"#utility.yul\":9113:9116   */\n      0x00\n        /* \"#utility.yul\":9134:9135   */\n      0x00\n        /* \"#utility.yul\":9127:9135   */\n      swap1\n      pop\n        /* \"#utility.yul\":9068:9141   */\n      swap1\n      jump\t// out\n        /* \"#utility.yul\":9147:9336   */\n    tag_85:\n        /* \"#utility.yul\":9224:9256   */\n      tag_185\n      tag_84\n      jump\t// in\n    tag_185:\n        /* \"#utility.yul\":9265:9330   */\n      tag_186\n        /* \"#utility.yul\":9323:9329   */\n      dup2\n        /* \"#utility.yul\":9315:9321   */\n      dup5\n        /* \"#utility.yul\":9309:9313   */\n      dup5\n        /* \"#utility.yul\":9265:9330   */\n      tag_83\n      jump\t// in\n    tag_186:\n        /* \"#utility.yul\":9200:9336   */\n      pop\n        /* \"#utility.yul\":9147:9336   */\n      pop\n      pop\n      jump\t// out\n        /* \"#utility.yul\":9342:9528   */\n    tag_86:\n        /* \"#utility.yul\":9402:9522   */\n    tag_188:\n        /* \"#utility.yul\":9419:9422   */\n      dup2\n        /* \"#utility.yul\":9412:9417   */\n      dup2\n        /* \"#utility.yul\":9409:9423   */\n      lt\n        /* \"#utility.yul\":9402:9522   */\n      iszero\n      tag_190\n      jumpi\n        /* \"#utility.yul\":9473:9512   */\n      tag_191\n        /* \"#utility.yul\":9510:9511   */\n      0x00\n        /* \"#utility.yul\":9503:9508   */\n      dup3\n        /* \"#utility.yul\":9473:9512   */\n      tag_85\n      jump\t// in\n    tag_191:\n        /* \"#utility.yul\":9446:9447   */\n      0x01\n        /* \"#utility.yul\":9439:9444   */\n      dup2\n        /* \"#utility.yul\":9435:9448   */\n      add\n        /* \"#utility.yul\":9426:9448   */\n      swap1\n      pop\n        /* \"#utility.yul\":9402:9522   */\n      jump(tag_188)\n    tag_190:\n        /* \"#utility.yul\":9342:9528   */\n      pop\n      pop\n      jump\t// out\n        /* \"#utility.yul\":9534:10077   */\n    tag_87:\n        /* \"#utility.yul\":9635:9637   */\n      0x1f\n        /* \"#utility.yul\":9630:9633   */\n      dup3\n        /* \"#utility.yul\":9627:9638   */\n      gt\n        /* \"#utility.yul\":9624:10070   */\n      iszero\n      tag_193\n      jumpi\n        /* \"#utility.yul\":9669:9707   */\n      tag_194\n        /* \"#utility.yul\":9701:9706   */\n      dup2\n        /* \"#utility.yul\":9669:9707   */\n      tag_76\n      jump\t// in\n    tag_194:\n        /* \"#utility.yul\":9753:9782   */\n      tag_195\n        /* \"#utility.yul\":9771:9781   */\n      dup5\n        /* \"#utility.yul\":9753:9782   */\n      tag_77\n      jump\t// in\n    tag_195:\n        /* \"#utility.yul\":9743:9751   */\n      dup2\n        /* \"#utility.yul\":9739:9783   */\n      add\n        /* \"#utility.yul\":9936:9938   */\n      0x20\n        /* \"#utility.yul\":9924:9934   */\n      dup6\n        /* \"#utility.yul\":9921:9939   */\n      lt\n        /* \"#utility.yul\":9918:9967   */\n      iszero\n      tag_196\n      jumpi\n        /* \"#utility.yul\":9957:9965   */\n      dup2\n        /* \"#utility.yul\":9942:9965   */\n      swap1\n      pop\n        /* \"#utility.yul\":9918:9967   */\n    tag_196:\n        /* \"#utility.yul\":9980:10060   */\n      tag_197\n        /* \"#utility.yul\":10036:10058   */\n      tag_198\n        /* \"#utility.yul\":10054:10057   */\n      dup6\n        /* \"#utility.yul\":10036:10058   */\n      tag_77\n      jump\t// in\n    tag_198:\n        /* \"#utility.yul\":10026:10034   */\n      dup4\n        /* \"#utility.yul\":10022:10059   */\n      add\n        /* \"#utility.yul\":10009:10020   */\n      dup3\n        /* \"#utility.yul\":9980:10060   */\n      tag_86\n      jump\t// in\n    tag_197:\n        /* \"#utility.yul\":9639:10070   */\n      pop\n      pop\n        /* \"#utility.yul\":9624:10070   */\n    tag_193:\n        /* \"#utility.yul\":9534:10077   */\n      pop\n      pop\n      pop\n      jump\t// out\n        /* \"#utility.yul\":10083:10200   */\n    tag_88:\n        /* \"#utility.yul\":10137:10145   */\n      0x00\n        /* \"#utility.yul\":10187:10192   */\n      dup3\n        /* \"#utility.yul\":10181:10185   */\n      dup3\n        /* \"#utility.yul\":10177:10193   */\n      shr\n        /* \"#utility.yul\":10156:10193   */\n      swap1\n      pop\n        /* \"#utility.yul\":10083:10200   */\n      swap3\n      swap2\n      pop\n      pop\n      jump\t// out\n        /* \"#utility.yul\":10206:10375   */\n    tag_89:\n        /* \"#utility.yul\":10250:10256   */\n      0x00\n        /* \"#utility.yul\":10283:10334   */\n      tag_201\n        /* \"#utility.yul\":10331:10332   */\n      0x00\n        /* \"#utility.yul\":10327:10333   */\n      not\n        /* \"#utility.yul\":10319:10324   */\n      dup5\n        /* \"#utility.yul\":10316:10317   */\n      0x08\n        /* \"#utility.yul\":10312:10325   */\n      mul\n        /* \"#utility.yul\":10283:10334   */\n      tag_88\n      jump\t// in\n    tag_201:\n        /* \"#utility.yul\":10279:10335   */\n      not\n        /* \"#utility.yul\":10364:10368   */\n      dup1\n        /* \"#utility.yul\":10358:10362   */\n      dup4\n        /* \"#utility.yul\":10354:10369   */\n      and\n        /* \"#utility.yul\":10344:10369   */\n      swap2\n      pop\n        /* \"#utility.yul\":10257:10375   */\n      pop\n        /* \"#utility.yul\":10206:10375   */\n      swap3\n      swap2\n      pop\n      pop\n      jump\t// out\n        /* \"#utility.yul\":10380:10675   */\n    tag_90:\n        /* \"#utility.yul\":10456:10460   */\n      0x00\n        /* \"#utility.yul\":10602:10631   */\n      tag_203\n        /* \"#utility.yul\":10627:10630   */\n      dup4\n        /* \"#utility.yul\":10621:10625   */\n      dup4\n        /* \"#utility.yul\":10602:10631   */\n      tag_89\n      jump\t// in\n    tag_203:\n        /* \"#utility.yul\":10594:10631   */\n      swap2\n      pop\n        /* \"#utility.yul\":10664:10667   */\n      dup3\n        /* \"#utility.yul\":10661:10662   */\n      0x02\n        /* \"#utility.yul\":10657:10668   */\n      mul\n        /* \"#utility.yul\":10651:10655   */\n      dup3\n        /* \"#utility.yul\":10648:10669   */\n      or\n        /* \"#utility.yul\":10640:10669   */\n      swap1\n      pop\n        /* \"#utility.yul\":10380:10675   */\n      swap3\n      swap2\n      pop\n      pop\n      jump\t// out\n        /* \"#utility.yul\":10680:12075   */\n    tag_31:\n        /* \"#utility.yul\":10797:10834   */\n      tag_205\n        /* \"#utility.yul\":10830:10833   */\n      dup3\n        /* \"#utility.yul\":10797:10834   */\n      tag_64\n      jump\t// in\n    tag_205:\n        /* \"#utility.yul\":10899:10917   */\n      0xffffffffffffffff\n        /* \"#utility.yul\":10891:10897   */\n      dup2\n        /* \"#utility.yul\":10888:10918   */\n      gt\n        /* \"#utility.yul\":10885:10941   */\n      iszero\n      tag_206\n      jumpi\n        /* \"#utility.yul\":10921:10939   */\n      tag_207\n      tag_74\n      jump\t// in\n    tag_207:\n        /* \"#utility.yul\":10885:10941   */\n    tag_206:\n        /* \"#utility.yul\":10965:11003   */\n      tag_208\n        /* \"#utility.yul\":10997:11001   */\n      dup3\n        /* \"#utility.yul\":10991:11002   */\n      sload\n        /* \"#utility.yul\":10965:11003   */\n      tag_43\n      jump\t// in\n    tag_208:\n        /* \"#utility.yul\":11050:11117   */\n      tag_209\n        /* \"#utility.yul\":11110:11116   */\n      dup3\n        /* \"#utility.yul\":11102:11108   */\n      dup3\n        /* \"#utility.yul\":11096:11100   */\n      dup6\n        /* \"#utility.yul\":11050:11117   */\n      tag_87\n      jump\t// in\n    tag_209:\n        /* \"#utility.yul\":11144:11145   */\n      0x00\n        /* \"#utility.yul\":11168:11172   */\n      0x20\n        /* \"#utility.yul\":11155:11172   */\n      swap1\n      pop\n        /* \"#utility.yul\":11200:11202   */\n      0x1f\n        /* \"#utility.yul\":11192:11198   */\n      dup4\n        /* \"#utility.yul\":11189:11203   */\n      gt\n        /* \"#utility.yul\":11217:11218   */\n      0x01\n        /* \"#utility.yul\":11212:11830   */\n      dup2\n      eq\n      tag_211\n      jumpi\n        /* \"#utility.yul\":11874:11875   */\n      0x00\n        /* \"#utility.yul\":11891:11897   */\n      dup5\n        /* \"#utility.yul\":11888:11965   */\n      iszero\n      tag_212\n      jumpi\n        /* \"#utility.yul\":11940:11949   */\n      dup3\n        /* \"#utility.yul\":11935:11938   */\n      dup8\n        /* \"#utility.yul\":11931:11950   */\n      add\n        /* \"#utility.yul\":11925:11951   */\n      mload\n        /* \"#utility.yul\":11916:11951   */\n      swap1\n      pop\n        /* \"#utility.yul\":11888:11965   */\n    tag_212:\n        /* \"#utility.yul\":11991:12058   */\n      tag_213\n        /* \"#utility.yul\":12051:12057   */\n      dup6\n        /* \"#utility.yul\":12044:12049   */\n      dup3\n        /* \"#utility.yul\":11991:12058   */\n      tag_90\n      jump\t// in\n    tag_213:\n        /* \"#utility.yul\":11985:11989   */\n      dup7\n        /* \"#utility.yul\":11978:12059   */\n      sstore\n        /* \"#utility.yul\":11847:12069   */\n      pop\n        /* \"#utility.yul\":11182:12069   */\n      jump(tag_210)\n        /* \"#utility.yul\":11212:11830   */\n    tag_211:\n        /* \"#utility.yul\":11264:11268   */\n      0x1f\n        /* \"#utility.yul\":11260:11269   */\n      not\n        /* \"#utility.yul\":11252:11258   */\n      dup5\n        /* \"#utility.yul\":11248:11270   */\n      and\n        /* \"#utility.yul\":11298:11335   */\n      tag_214\n        /* \"#utility.yul\":11330:11334   */\n      dup7\n        /* \"#utility.yul\":11298:11335   */\n      tag_76\n      jump\t// in\n    tag_214:\n        /* \"#utility.yul\":11357:11358   */\n      0x00\n        /* \"#utility.yul\":11371:11579   */\n    tag_215:\n        /* \"#utility.yul\":11385:11392   */\n      dup3\n        /* \"#utility.yul\":11382:11383   */\n      dup2\n        /* \"#utility.yul\":11379:11393   */\n      lt\n        /* \"#utility.yul\":11371:11579   */\n      iszero\n      tag_217\n      jumpi\n        /* \"#utility.yul\":11464:11473   */\n      dup5\n        /* \"#utility.yul\":11459:11462   */\n      dup10\n        /* \"#utility.yul\":11455:11474   */\n      add\n        /* \"#utility.yul\":11449:11475   */\n      mload\n        /* \"#utility.yul\":11441:11447   */\n      dup3\n        /* \"#utility.yul\":11434:11476   */\n      sstore\n        /* \"#utility.yul\":11515:11516   */\n      0x01\n        /* \"#utility.yul\":11507:11513   */\n      dup3\n        /* \"#utility.yul\":11503:11517   */\n      add\n        /* \"#utility.yul\":11493:11517   */\n      swap2\n      pop\n        /* \"#utility.yul\":11562:11564   */\n      0x20\n        /* \"#utility.yul\":11551:11560   */\n      dup6\n        /* \"#utility.yul\":11547:11565   */\n      add\n        /* \"#utility.yul\":11534:11565   */\n      swap5\n      pop\n        /* \"#utility.yul\":11408:11412   */\n      0x20\n        /* \"#utility.yul\":11405:11406   */\n      dup2\n        /* \"#utility.yul\":11401:11413   */\n      add\n        /* \"#utility.yul\":11396:11413   */\n      swap1\n      pop\n        /* \"#utility.yul\":11371:11579   */\n      jump(tag_215)\n    tag_217:\n        /* \"#utility.yul\":11607:11613   */\n      dup7\n        /* \"#utility.yul\":11598:11605   */\n      dup4\n        /* \"#utility.yul\":11595:11614   */\n      lt\n        /* \"#utility.yul\":11592:11771   */\n      iszero\n      tag_218\n      jumpi\n        /* \"#utility.yul\":11665:11674   */\n      dup5\n        /* \"#utility.yul\":11660:11663   */\n      dup10\n        /* \"#utility.yul\":11656:11675   */\n      add\n        /* \"#utility.yul\":11650:11676   */\n      mload\n        /* \"#utility.yul\":11708:11756   */\n      tag_219\n        /* \"#utility.yul\":11750:11754   */\n      0x1f\n        /* \"#utility.yul\":11742:11748   */\n      dup10\n        /* \"#utility.yul\":11738:11755   */\n      and\n        /* \"#utility.yul\":11727:11736   */\n      dup3\n        /* \"#utility.yul\":11708:11756   */\n      tag_89\n      jump\t// in\n    tag_219:\n        /* \"#utility.yul\":11700:11706   */\n      dup4\n        /* \"#utility.yul\":11693:11757   */\n      sstore\n        /* \"#utility.yul\":11615:11771   */\n      pop\n        /* \"#utility.yul\":11592:11771   */\n    tag_218:\n        /* \"#utility.yul\":11817:11818   */\n      0x01\n        /* \"#utility.yul\":11813:11814   */\n      0x02\n        /* \"#utility.yul\":11805:11811   */\n      dup9\n        /* \"#utility.yul\":11801:11815   */\n      mul\n        /* \"#utility.yul\":11797:11819   */\n      add\n        /* \"#utility.yul\":11791:11795   */\n      dup9\n        /* \"#utility.yul\":11784:11820   */\n      sstore\n        /* \"#utility.yul\":11219:11830   */\n      pop\n      pop\n      pop\n        /* \"#utility.yul\":11182:12069   */\n    tag_210:\n      pop\n        /* \"#utility.yul\":10772:12075   */\n      pop\n      pop\n      pop\n        /* \"#utility.yul\":10680:12075   */\n      pop\n      pop\n      jump\t// out\n        /* \"#utility.yul\":12081:12262   */\n    tag_91:\n        /* \"#utility.yul\":12221:12254   */\n      0x50617469656e7452656769737472793a206e6f74207265676973746572656400\n        /* \"#utility.yul\":12217:12218   */\n      0x00\n        /* \"#utility.yul\":12209:12215   */\n      dup3\n        /* \"#utility.yul\":12205:12219   */\n      add\n        /* \"#utility.yul\":12198:12255   */\n      mstore\n        /* \"#utility.yul\":12081:12262   */\n      pop\n      jump\t// out\n        /* \"#utility.yul\":12268:12634   */\n    tag_92:\n        /* \"#utility.yul\":12410:12413   */\n      0x00\n        /* \"#utility.yul\":12431:12498   */\n      tag_222\n        /* \"#utility.yul\":12495:12497   */\n      0x1f\n        /* \"#utility.yul\":12490:12493   */\n      dup4\n        /* \"#utility.yul\":12431:12498   */\n      tag_71\n      jump\t// in\n    tag_222:\n        /* \"#utility.yul\":12424:12498   */\n      swap2\n      pop\n        /* \"#utility.yul\":12507:12600   */\n      tag_223\n        /* \"#utility.yul\":12596:12599   */\n      dup3\n        /* \"#utility.yul\":12507:12600   */\n      tag_91\n      jump\t// in\n    tag_223:\n        /* \"#utility.yul\":12625:12627   */\n      0x20\n        /* \"#utility.yul\":12620:12623   */\n      dup3\n        /* \"#utility.yul\":12616:12628   */\n      add\n        /* \"#utility.yul\":12609:12628   */\n      swap1\n      pop\n        /* \"#utility.yul\":12268:12634   */\n      swap2\n      swap1\n      pop\n      jump\t// out\n        /* \"#utility.yul\":12640:13059   */\n    tag_41:\n        /* \"#utility.yul\":12806:12810   */\n      0x00\n        /* \"#utility.yul\":12844:12846   */\n      0x20\n        /* \"#utility.yul\":12833:12842   */\n      dup3\n        /* \"#utility.yul\":12829:12847   */\n      add\n        /* \"#utility.yul\":12821:12847   */\n      swap1\n      pop\n        /* \"#utility.yul\":12893:12902   */\n      dup2\n        /* \"#utility.yul\":12887:12891   */\n      dup2\n        /* \"#utility.yul\":12883:12903   */\n      sub\n        /* \"#utility.yul\":12879:12880   */\n      0x00\n        /* \"#utility.yul\":12868:12877   */\n      dup4\n        /* \"#utility.yul\":12864:12881   */\n      add\n        /* \"#utility.yul\":12857:12904   */\n      mstore\n        /* \"#utility.yul\":12921:13052   */\n      tag_225\n        /* \"#utility.yul\":13047:13051   */\n      dup2\n        /* \"#utility.yul\":12921:13052   */\n      tag_92\n      jump\t// in\n    tag_225:\n        /* \"#utility.yul\":12913:13052   */\n      swap1\n      pop\n        /* \"#utility.yul\":12640:13059   */\n      swap2\n      swap1\n      pop\n      jump\t// out\n\n    auxdata: 0xa264697066735822122042dd1be899e83e011a76289d3b8d1ebcbc87badd0a813816dbde59ea812cc77964736f6c634300081e0033\n}\n",
				"bytecode": {
					"linkReferences": {},
					"object": "6080604052348015600e575f5ffd5b50610c988061001c5f395ff3fe608060405234801561000f575f5ffd5b506004361061004a575f3560e01c8063869c9eaf1461004e5780638f9c79ed1461006a578063a0303c411461009a578063b5368e20146100b8575b5f5ffd5b61006860048036038101906100639190610634565b6100e8565b005b610084600480360381019061007f91906106d9565b610355565b604051610091919061071e565b60405180910390f35b6100a26103a9565b6040516100af919061074f565b60405180910390f35b6100d260048036038101906100cd91906106d9565b6103b5565b6040516100df9190610843565b60405180910390f35b5f5f3373ffffffffffffffffffffffffffffffffffffffff1673ffffffffffffffffffffffffffffffffffffffff1681526020019081526020015f206002015f9054906101000a900460ff1615610174576040517f08c379a000000000000000000000000000000000000000000000000000000000815260040161016b906108e3565b60405180910390fd5b60405180606001604052803373ffffffffffffffffffffffffffffffffffffffff16815260200183838080601f0160208091040260200160405190810160405280939291908181526020018383808284375f81840152601f19601f820116905080830192505050505050508152602001600115158152505f5f3373ffffffffffffffffffffffffffffffffffffffff1673ffffffffffffffffffffffffffffffffffffffff1681526020019081526020015f205f820151815f015f6101000a81548173ffffffffffffffffffffffffffffffffffffffff021916908373ffffffffffffffffffffffffffffffffffffffff16021790555060208201518160010190816102809190610b2b565b506040820151816002015f6101000a81548160ff021916908315150217905550905050600133908060018154018082558091505060019003905f5260205f20015f9091909190916101000a81548173ffffffffffffffffffffffffffffffffffffffff021916908373ffffffffffffffffffffffffffffffffffffffff1602179055503373ffffffffffffffffffffffffffffffffffffffff167f1a1d2aec173b297857456d20be2671ece280e73079451a2a16142e4f58751e5c42604051610349919061074f565b60405180910390a25050565b5f5f5f8373ffffffffffffffffffffffffffffffffffffffff1673ffffffffffffffffffffffffffffffffffffffff1681526020019081526020015f206002015f9054906101000a900460ff169050919050565b5f600180549050905090565b6103bd610594565b5f5f8373ffffffffffffffffffffffffffffffffffffffff1673ffffffffffffffffffffffffffffffffffffffff1681526020019081526020015f206002015f9054906101000a900460ff16610448576040517f08c379a000000000000000000000000000000000000000000000000000000000815260040161043f90610c44565b60405180910390fd5b5f5f8373ffffffffffffffffffffffffffffffffffffffff1673ffffffffffffffffffffffffffffffffffffffff1681526020019081526020015f206040518060600160405290815f82015f9054906101000a900473ffffffffffffffffffffffffffffffffffffffff1673ffffffffffffffffffffffffffffffffffffffff1673ffffffffffffffffffffffffffffffffffffffff1681526020016001820180546104f39061095b565b80601f016020809104026020016040519081016040528092919081815260200182805461051f9061095b565b801561056a5780601f106105415761010080835404028352916020019161056a565b820191905f5260205f20905b81548152906001019060200180831161054d57829003601f168201915b50505050508152602001600282015f9054906101000a900460ff1615151515815250509050919050565b60405180606001604052805f73ffffffffffffffffffffffffffffffffffffffff168152602001606081526020015f151581525090565b5f5ffd5b5f5ffd5b5f5ffd5b5f5ffd5b5f5ffd5b5f5f83601f8401126105f4576105f36105d3565b5b8235905067ffffffffffffffff811115610611576106106105d7565b5b60208301915083600182028301111561062d5761062c6105db565b5b9250929050565b5f5f6020838503121561064a576106496105cb565b5b5f83013567ffffffffffffffff811115610667576106666105cf565b5b610673858286016105df565b92509250509250929050565b5f73ffffffffffffffffffffffffffffffffffffffff82169050919050565b5f6106a88261067f565b9050919050565b6106b88161069e565b81146106c2575f5ffd5b50565b5f813590506106d3816106af565b92915050565b5f602082840312156106ee576106ed6105cb565b5b5f6106fb848285016106c5565b91505092915050565b5f8115159050919050565b61071881610704565b82525050565b5f6020820190506107315f83018461070f565b92915050565b5f819050919050565b61074981610737565b82525050565b5f6020820190506107625f830184610740565b92915050565b6107718161069e565b82525050565b5f81519050919050565b5f82825260208201905092915050565b8281835e5f83830152505050565b5f601f19601f8301169050919050565b5f6107b982610777565b6107c38185610781565b93506107d3818560208601610791565b6107dc8161079f565b840191505092915050565b6107f081610704565b82525050565b5f606083015f83015161080b5f860182610768565b506020830151848203602086015261082382826107af565b915050604083015161083860408601826107e7565b508091505092915050565b5f6020820190508181035f83015261085b81846107f6565b905092915050565b5f82825260208201905092915050565b7f50617469656e7452656769737472793a20616c726561647920726567697374655f8201527f7265640000000000000000000000000000000000000000000000000000000000602082015250565b5f6108cd602383610863565b91506108d882610873565b604082019050919050565b5f6020820190508181035f8301526108fa816108c1565b9050919050565b7f4e487b71000000000000000000000000000000000000000000000000000000005f52604160045260245ffd5b7f4e487b71000000000000000000000000000000000000000000000000000000005f52602260045260245ffd5b5f600282049050600182168061097257607f821691505b6020821081036109855761098461092e565b5b50919050565b5f819050815f5260205f209050919050565b5f6020601f8301049050919050565b5f82821b905092915050565b5f600883026109e77fffffffffffffffffffffffffffffffffffffffffffffffffffffffffffffffff826109ac565b6109f186836109ac565b95508019841693508086168417925050509392505050565b5f819050919050565b5f610a2c610a27610a2284610737565b610a09565b610737565b9050919050565b5f819050919050565b610a4583610a12565b610a59610a5182610a33565b8484546109b8565b825550505050565b5f5f905090565b610a70610a61565b610a7b818484610a3c565b505050565b5b81811015610a9e57610a935f82610a68565b600181019050610a81565b5050565b601f821115610ae357610ab48161098b565b610abd8461099d565b81016020851015610acc578190505b610ae0610ad88561099d565b830182610a80565b50505b505050565b5f82821c905092915050565b5f610b035f1984600802610ae8565b1980831691505092915050565b5f610b1b8383610af4565b9150826002028217905092915050565b610b3482610777565b67ffffffffffffffff811115610b4d57610b4c610901565b5b610b57825461095b565b610b62828285610aa2565b5f60209050601f831160018114610b93575f8415610b81578287015190505b610b8b8582610b10565b865550610bf2565b601f198416610ba18661098b565b5f5b82811015610bc857848901518255600182019150602085019450602081019050610ba3565b86831015610be55784890151610be1601f891682610af4565b8355505b6001600288020188555050505b505050505050565b7f50617469656e7452656769737472793a206e6f742072656769737465726564005f82015250565b5f610c2e601f83610863565b9150610c3982610bfa565b602082019050919050565b5f6020820190508181035f830152610c5b81610c22565b905091905056fea264697066735822122042dd1be899e83e011a76289d3b8d1ebcbc87badd0a813816dbde59ea812cc77964736f6c634300081e0033",
					"opcodes": "PUSH1 0x80 PUSH1 0x40 MSTORE CALLVALUE DUP1 ISZERO PUSH1 0xE JUMPI PUSH0 PUSH0 REVERT JUMPDEST POP PUSH2 0xC98 DUP1 PUSH2 0x1C PUSH0 CODECOPY PUSH0 RETURN INVALID PUSH1 0x80 PUSH1 0x40 MSTORE CALLVALUE DUP1 ISZERO PUSH2 0xF JUMPI PUSH0 PUSH0 REVERT JUMPDEST POP PUSH1 0x4 CALLDATASIZE LT PUSH2 0x4A JUMPI PUSH0 CALLDATALOAD PUSH1 0xE0 SHR DUP1 PUSH4 0x869C9EAF EQ PUSH2 0x4E JUMPI DUP1 PUSH4 0x8F9C79ED EQ PUSH2 0x6A JUMPI DUP1 PUSH4 0xA0303C41 EQ PUSH2 0x9A JUMPI DUP1 PUSH4 0xB5368E20 EQ PUSH2 0xB8 JUMPI JUMPDEST PUSH0 PUSH0 REVERT JUMPDEST PUSH2 0x68 PUSH1 0x4 DUP1 CALLDATASIZE SUB DUP2 ADD SWAP1 PUSH2 0x63 SWAP2 SWAP1 PUSH2 0x634 JUMP JUMPDEST PUSH2 0xE8 JUMP JUMPDEST STOP JUMPDEST PUSH2 0x84 PUSH1 0x4 DUP1 CALLDATASIZE SUB DUP2 ADD SWAP1 PUSH2 0x7F SWAP2 SWAP1 PUSH2 0x6D9 JUMP JUMPDEST PUSH2 0x355 JUMP JUMPDEST PUSH1 0x40 MLOAD PUSH2 0x91 SWAP2 SWAP1 PUSH2 0x71E JUMP JUMPDEST PUSH1 0x40 MLOAD DUP1 SWAP2 SUB SWAP1 RETURN JUMPDEST PUSH2 0xA2 PUSH2 0x3A9 JUMP JUMPDEST PUSH1 0x40 MLOAD PUSH2 0xAF SWAP2 SWAP1 PUSH2 0x74F JUMP JUMPDEST PUSH1 0x40 MLOAD DUP1 SWAP2 SUB SWAP1 RETURN JUMPDEST PUSH2 0xD2 PUSH1 0x4 DUP1 CALLDATASIZE SUB DUP2 ADD SWAP1 PUSH2 0xCD SWAP2 SWAP1 PUSH2 0x6D9 JUMP JUMPDEST PUSH2 0x3B5 JUMP JUMPDEST PUSH1 0x40 MLOAD PUSH2 0xDF SWAP2 SWAP1 PUSH2 0x843 JUMP JUMPDEST PUSH1 0x40 MLOAD DUP1 SWAP2 SUB SWAP1 RETURN JUMPDEST PUSH0 PUSH0 CALLER PUSH20 0xFFFFFFFFFFFFFFFFFFFFFFFFFFFFFFFFFFFFFFFF AND PUSH20 0xFFFFFFFFFFFFFFFFFFFFFFFFFFFFFFFFFFFFFFFF AND DUP2 MSTORE PUSH1 0x20 ADD SWAP1 DUP2 MSTORE PUSH1 0x20 ADD PUSH0 KECCAK256 PUSH1 0x2 ADD PUSH0 SWAP1 SLOAD SWAP1 PUSH2 0x100 EXP SWAP1 DIV PUSH1 0xFF AND ISZERO PUSH2 0x174 JUMPI PUSH1 0x40 MLOAD PUSH32 0x8C379A000000000000000000000000000000000000000000000000000000000 DUP2 MSTORE PUSH1 0x4 ADD PUSH2 0x16B SWAP1 PUSH2 0x8E3 JUMP JUMPDEST PUSH1 0x40 MLOAD DUP1 SWAP2 SUB SWAP1 REVERT JUMPDEST PUSH1 0x40 MLOAD DUP1 PUSH1 0x60 ADD PUSH1 0x40 MSTORE DUP1 CALLER PUSH20 0xFFFFFFFFFFFFFFFFFFFFFFFFFFFFFFFFFFFFFFFF AND DUP2 MSTORE PUSH1 0x20 ADD DUP4 DUP4 DUP1 DUP1 PUSH1 0x1F ADD PUSH1 0x20 DUP1 SWAP2 DIV MUL PUSH1 0x20 ADD PUSH1 0x40 MLOAD SWAP1 DUP2 ADD PUSH1 0x40 MSTORE DUP1 SWAP4 SWAP3 SWAP2 SWAP1 DUP2 DUP2 MSTORE PUSH1 0x20 ADD DUP4 DUP4 DUP1 DUP3 DUP5 CALLDATACOPY PUSH0 DUP2 DUP5 ADD MSTORE PUSH1 0x1F NOT PUSH1 0x1F DUP3 ADD AND SWAP1 POP DUP1 DUP4 ADD SWAP3 POP POP POP POP POP POP POP DUP2 MSTORE PUSH1 0x20 ADD PUSH1 0x1 ISZERO ISZERO DUP2 MSTORE POP PUSH0 PUSH0 CALLER PUSH20 0xFFFFFFFFFFFFFFFFFFFFFFFFFFFFFFFFFFFFFFFF AND PUSH20 0xFFFFFFFFFFFFFFFFFFFFFFFFFFFFFFFFFFFFFFFF AND DUP2 MSTORE PUSH1 0x20 ADD SWAP1 DUP2 MSTORE PUSH1 0x20 ADD PUSH0 KECCAK256 PUSH0 DUP3 ADD MLOAD DUP2 PUSH0 ADD PUSH0 PUSH2 0x100 EXP DUP2 SLOAD DUP2 PUSH20 0xFFFFFFFFFFFFFFFFFFFFFFFFFFFFFFFFFFFFFFFF MUL NOT AND SWAP1 DUP4 PUSH20 0xFFFFFFFFFFFFFFFFFFFFFFFFFFFFFFFFFFFFFFFF AND MUL OR SWAP1 SSTORE POP PUSH1 0x20 DUP3 ADD MLOAD DUP2 PUSH1 0x1 ADD SWAP1 DUP2 PUSH2 0x280 SWAP2 SWAP1 PUSH2 0xB2B JUMP JUMPDEST POP PUSH1 0x40 DUP3 ADD MLOAD DUP2 PUSH1 0x2 ADD PUSH0 PUSH2 0x100 EXP DUP2 SLOAD DUP2 PUSH1 0xFF MUL NOT AND SWAP1 DUP4 ISZERO ISZERO MUL OR SWAP1 SSTORE POP SWAP1 POP POP PUSH1 0x1 CALLER SWAP1 DUP1 PUSH1 0x1 DUP2 SLOAD ADD DUP1 DUP3 SSTORE DUP1 SWAP2 POP POP PUSH1 0x1 SWAP1 SUB SWAP1 PUSH0 MSTORE PUSH1 0x20 PUSH0 KECCAK256 ADD PUSH0 SWAP1 SWAP2 SWAP1 SWAP2 SWAP1 SWAP2 PUSH2 0x100 EXP DUP2 SLOAD DUP2 PUSH20 0xFFFFFFFFFFFFFFFFFFFFFFFFFFFFFFFFFFFFFFFF MUL NOT AND SWAP1 DUP4 PUSH20 0xFFFFFFFFFFFFFFFFFFFFFFFFFFFFFFFFFFFFFFFF AND MUL OR SWAP1 SSTORE POP CALLER PUSH20 0xFFFFFFFFFFFFFFFFFFFFFFFFFFFFFFFFFFFFFFFF AND PUSH32 0x1A1D2AEC173B297857456D20BE2671ECE280E73079451A2A16142E4F58751E5C TIMESTAMP PUSH1 0x40 MLOAD PUSH2 0x349 SWAP2 SWAP1 PUSH2 0x74F JUMP JUMPDEST PUSH1 0x40 MLOAD DUP1 SWAP2 SUB SWAP1 LOG2 POP POP JUMP JUMPDEST PUSH0 PUSH0 PUSH0 DUP4 PUSH20 0xFFFFFFFFFFFFFFFFFFFFFFFFFFFFFFFFFFFFFFFF AND PUSH20 0xFFFFFFFFFFFFFFFFFFFFFFFFFFFFFFFFFFFFFFFF AND DUP2 MSTORE PUSH1 0x20 ADD SWAP1 DUP2 MSTORE PUSH1 0x20 ADD PUSH0 KECCAK256 PUSH1 0x2 ADD PUSH0 SWAP1 SLOAD SWAP1 PUSH2 0x100 EXP SWAP1 DIV PUSH1 0xFF AND SWAP1 POP SWAP2 SWAP1 POP JUMP JUMPDEST PUSH0 PUSH1 0x1 DUP1 SLOAD SWAP1 POP SWAP1 POP SWAP1 JUMP JUMPDEST PUSH2 0x3BD PUSH2 0x594 JUMP JUMPDEST PUSH0 PUSH0 DUP4 PUSH20 0xFFFFFFFFFFFFFFFFFFFFFFFFFFFFFFFFFFFFFFFF AND PUSH20 0xFFFFFFFFFFFFFFFFFFFFFFFFFFFFFFFFFFFFFFFF AND DUP2 MSTORE PUSH1 0x20 ADD SWAP1 DUP2 MSTORE PUSH1 0x20 ADD PUSH0 KECCAK256 PUSH1 0x2 ADD PUSH0 SWAP1 SLOAD SWAP1 PUSH2 0x100 EXP SWAP1 DIV PUSH1 0xFF AND PUSH2 0x448 JUMPI PUSH1 0x40 MLOAD PUSH32 0x8C379A000000000000000000000000000000000000000000000000000000000 DUP2 MSTORE PUSH1 0x4 ADD PUSH2 0x43F SWAP1 PUSH2 0xC44 JUMP JUMPDEST PUSH1 0x40 MLOAD DUP1 SWAP2 SUB SWAP1 REVERT JUMPDEST PUSH0 PUSH0 DUP4 PUSH20 0xFFFFFFFFFFFFFFFFFFFFFFFFFFFFFFFFFFFFFFFF AND PUSH20 0xFFFFFFFFFFFFFFFFFFFFFFFFFFFFFFFFFFFFFFFF AND DUP2 MSTORE PUSH1 0x20 ADD SWAP1 DUP2 MSTORE PUSH1 0x20 ADD PUSH0 KECCAK256 PUSH1 0x40 MLOAD DUP1 PUSH1 0x60 ADD PUSH1 0x40 MSTORE SWAP1 DUP2 PUSH0 DUP3 ADD PUSH0 SWAP1 SLOAD SWAP1 PUSH2 0x100 EXP SWAP1 DIV PUSH20 0xFFFFFFFFFFFFFFFFFFFFFFFFFFFFFFFFFFFFFFFF AND PUSH20 0xFFFFFFFFFFFFFFFFFFFFFFFFFFFFFFFFFFFFFFFF AND PUSH20 0xFFFFFFFFFFFFFFFFFFFFFFFFFFFFFFFFFFFFFFFF AND DUP2 MSTORE PUSH1 0x20 ADD PUSH1 0x1 DUP3 ADD DUP1 SLOAD PUSH2 0x4F3 SWAP1 PUSH2 0x95B JUMP JUMPDEST DUP1 PUSH1 0x1F ADD PUSH1 0x20 DUP1 SWAP2 DIV MUL PUSH1 0x20 ADD PUSH1 0x40 MLOAD SWAP1 DUP2 ADD PUSH1 0x40 MSTORE DUP1 SWAP3 SWAP2 SWAP1 DUP2 DUP2 MSTORE PUSH1 0x20 ADD DUP3 DUP1 SLOAD PUSH2 0x51F SWAP1 PUSH2 0x95B JUMP JUMPDEST DUP1 ISZERO PUSH2 0x56A JUMPI DUP1 PUSH1 0x1F LT PUSH2 0x541 JUMPI PUSH2 0x100 DUP1 DUP4 SLOAD DIV MUL DUP4 MSTORE SWAP2 PUSH1 0x20 ADD SWAP2 PUSH2 0x56A JUMP JUMPDEST DUP3 ADD SWAP2 SWAP1 PUSH0 MSTORE PUSH1 0x20 PUSH0 KECCAK256 SWAP1 JUMPDEST DUP2 SLOAD DUP2 MSTORE SWAP1 PUSH1 0x1 ADD SWAP1 PUSH1 0x20 ADD DUP1 DUP4 GT PUSH2 0x54D JUMPI DUP3 SWAP1 SUB PUSH1 0x1F AND DUP3 ADD SWAP2 JUMPDEST POP POP POP POP POP DUP2 MSTORE PUSH1 0x20 ADD PUSH1 0x2 DUP3 ADD PUSH0 SWAP1 SLOAD SWAP1 PUSH2 0x100 EXP SWAP1 DIV PUSH1 0xFF AND ISZERO ISZERO ISZERO ISZERO DUP2 MSTORE POP POP SWAP1 POP SWAP2 SWAP1 POP JUMP JUMPDEST PUSH1 0x40 MLOAD DUP1 PUSH1 0x60 ADD PUSH1 0x40 MSTORE DUP1 PUSH0 PUSH20 0xFFFFFFFFFFFFFFFFFFFFFFFFFFFFFFFFFFFFFFFF AND DUP2 MSTORE PUSH1 0x20 ADD PUSH1 0x60 DUP2 MSTORE PUSH1 0x20 ADD PUSH0 ISZERO ISZERO DUP2 MSTORE POP SWAP1 JUMP JUMPDEST PUSH0 PUSH0 REVERT JUMPDEST PUSH0 PUSH0 REVERT JUMPDEST PUSH0 PUSH0 REVERT JUMPDEST PUSH0 PUSH0 REVERT JUMPDEST PUSH0 PUSH0 REVERT JUMPDEST PUSH0 PUSH0 DUP4 PUSH1 0x1F DUP5 ADD SLT PUSH2 0x5F4 JUMPI PUSH2 0x5F3 PUSH2 0x5D3 JUMP JUMPDEST JUMPDEST DUP3 CALLDATALOAD SWAP1 POP PUSH8 0xFFFFFFFFFFFFFFFF DUP2 GT ISZERO PUSH2 0x611 JUMPI PUSH2 0x610 PUSH2 0x5D7 JUMP JUMPDEST JUMPDEST PUSH1 0x20 DUP4 ADD SWAP2 POP DUP4 PUSH1 0x1 DUP3 MUL DUP4 ADD GT ISZERO PUSH2 0x62D JUMPI PUSH2 0x62C PUSH2 0x5DB JUMP JUMPDEST JUMPDEST SWAP3 POP SWAP3 SWAP1 POP JUMP JUMPDEST PUSH0 PUSH0 PUSH1 0x20 DUP4 DUP6 SUB SLT ISZERO PUSH2 0x64A JUMPI PUSH2 0x649 PUSH2 0x5CB JUMP JUMPDEST JUMPDEST PUSH0 DUP4 ADD CALLDATALOAD PUSH8 0xFFFFFFFFFFFFFFFF DUP2 GT ISZERO PUSH2 0x667 JUMPI PUSH2 0x666 PUSH2 0x5CF JUMP JUMPDEST JUMPDEST PUSH2 0x673 DUP6 DUP3 DUP7 ADD PUSH2 0x5DF JUMP JUMPDEST SWAP3 POP SWAP3 POP POP SWAP3 POP SWAP3 SWAP1 POP JUMP JUMPDEST PUSH0 PUSH20 0xFFFFFFFFFFFFFFFFFFFFFFFFFFFFFFFFFFFFFFFF DUP3 AND SWAP1 POP SWAP2 SWAP1 POP JUMP JUMPDEST PUSH0 PUSH2 0x6A8 DUP3 PUSH2 0x67F JUMP JUMPDEST SWAP1 POP SWAP2 SWAP1 POP JUMP JUMPDEST PUSH2 0x6B8 DUP2 PUSH2 0x69E JUMP JUMPDEST DUP2 EQ PUSH2 0x6C2 JUMPI PUSH0 PUSH0 REVERT JUMPDEST POP JUMP JUMPDEST PUSH0 DUP2 CALLDATALOAD SWAP1 POP PUSH2 0x6D3 DUP2 PUSH2 0x6AF JUMP JUMPDEST SWAP3 SWAP2 POP POP JUMP JUMPDEST PUSH0 PUSH1 0x20 DUP3 DUP5 SUB SLT ISZERO PUSH2 0x6EE JUMPI PUSH2 0x6ED PUSH2 0x5CB JUMP JUMPDEST JUMPDEST PUSH0 PUSH2 0x6FB DUP5 DUP3 DUP6 ADD PUSH2 0x6C5 JUMP JUMPDEST SWAP2 POP POP SWAP3 SWAP2 POP POP JUMP JUMPDEST PUSH0 DUP2 ISZERO ISZERO SWAP1 POP SWAP2 SWAP1 POP JUMP JUMPDEST PUSH2 0x718 DUP2 PUSH2 0x704 JUMP JUMPDEST DUP3 MSTORE POP POP JUMP JUMPDEST PUSH0 PUSH1 0x20 DUP3 ADD SWAP1 POP PUSH2 0x731 PUSH0 DUP4 ADD DUP5 PUSH2 0x70F JUMP JUMPDEST SWAP3 SWAP2 POP POP JUMP JUMPDEST PUSH0 DUP2 SWAP1 POP SWAP2 SWAP1 POP JUMP JUMPDEST PUSH2 0x749 DUP2 PUSH2 0x737 JUMP JUMPDEST DUP3 MSTORE POP POP JUMP JUMPDEST PUSH0 PUSH1 0x20 DUP3 ADD SWAP1 POP PUSH2 0x762 PUSH0 DUP4 ADD DUP5 PUSH2 0x740 JUMP JUMPDEST SWAP3 SWAP2 POP POP JUMP JUMPDEST PUSH2 0x771 DUP2 PUSH2 0x69E JUMP JUMPDEST DUP3 MSTORE POP POP JUMP JUMPDEST PUSH0 DUP2 MLOAD SWAP1 POP SWAP2 SWAP1 POP JUMP JUMPDEST PUSH0 DUP3 DUP3 MSTORE PUSH1 0x20 DUP3 ADD SWAP1 POP SWAP3 SWAP2 POP POP JUMP JUMPDEST DUP3 DUP2 DUP4 MCOPY PUSH0 DUP4 DUP4 ADD MSTORE POP POP POP JUMP JUMPDEST PUSH0 PUSH1 0x1F NOT PUSH1 0x1F DUP4 ADD AND SWAP1 POP SWAP2 SWAP1 POP JUMP JUMPDEST PUSH0 PUSH2 0x7B9 DUP3 PUSH2 0x777 JUMP JUMPDEST PUSH2 0x7C3 DUP2 DUP6 PUSH2 0x781 JUMP JUMPDEST SWAP4 POP PUSH2 0x7D3 DUP2 DUP6 PUSH1 0x20 DUP7 ADD PUSH2 0x791 JUMP JUMPDEST PUSH2 0x7DC DUP2 PUSH2 0x79F JUMP JUMPDEST DUP5 ADD SWAP2 POP POP SWAP3 SWAP2 POP POP JUMP JUMPDEST PUSH2 0x7F0 DUP2 PUSH2 0x704 JUMP JUMPDEST DUP3 MSTORE POP POP JUMP JUMPDEST PUSH0 PUSH1 0x60 DUP4 ADD PUSH0 DUP4 ADD MLOAD PUSH2 0x80B PUSH0 DUP7 ADD DUP3 PUSH2 0x768 JUMP JUMPDEST POP PUSH1 0x20 DUP4 ADD MLOAD DUP5 DUP3 SUB PUSH1 0x20 DUP7 ADD MSTORE PUSH2 0x823 DUP3 DUP3 PUSH2 0x7AF JUMP JUMPDEST SWAP2 POP POP PUSH1 0x40 DUP4 ADD MLOAD PUSH2 0x838 PUSH1 0x40 DUP7 ADD DUP3 PUSH2 0x7E7 JUMP JUMPDEST POP DUP1 SWAP2 POP POP SWAP3 SWAP2 POP POP JUMP JUMPDEST PUSH0 PUSH1 0x20 DUP3 ADD SWAP1 POP DUP2 DUP2 SUB PUSH0 DUP4 ADD MSTORE PUSH2 0x85B DUP2 DUP5 PUSH2 0x7F6 JUMP JUMPDEST SWAP1 POP SWAP3 SWAP2 POP POP JUMP JUMPDEST PUSH0 DUP3 DUP3 MSTORE PUSH1 0x20 DUP3 ADD SWAP1 POP SWAP3 SWAP2 POP POP JUMP JUMPDEST PUSH32 0x50617469656E7452656769737472793A20616C72656164792072656769737465 PUSH0 DUP3 ADD MSTORE PUSH32 0x7265640000000000000000000000000000000000000000000000000000000000 PUSH1 0x20 DUP3 ADD MSTORE POP JUMP JUMPDEST PUSH0 PUSH2 0x8CD PUSH1 0x23 DUP4 PUSH2 0x863 JUMP JUMPDEST SWAP2 POP PUSH2 0x8D8 DUP3 PUSH2 0x873 JUMP JUMPDEST PUSH1 0x40 DUP3 ADD SWAP1 POP SWAP2 SWAP1 POP JUMP JUMPDEST PUSH0 PUSH1 0x20 DUP3 ADD SWAP1 POP DUP2 DUP2 SUB PUSH0 DUP4 ADD MSTORE PUSH2 0x8FA DUP2 PUSH2 0x8C1 JUMP JUMPDEST SWAP1 POP SWAP2 SWAP1 POP JUMP JUMPDEST PUSH32 0x4E487B7100000000000000000000000000000000000000000000000000000000 PUSH0 MSTORE PUSH1 0x41 PUSH1 0x4 MSTORE PUSH1 0x24 PUSH0 REVERT JUMPDEST PUSH32 0x4E487B7100000000000000000000000000000000000000000000000000000000 PUSH0 MSTORE PUSH1 0x22 PUSH1 0x4 MSTORE PUSH1 0x24 PUSH0 REVERT JUMPDEST PUSH0 PUSH1 0x2 DUP3 DIV SWAP1 POP PUSH1 0x1 DUP3 AND DUP1 PUSH2 0x972 JUMPI PUSH1 0x7F DUP3 AND SWAP2 POP JUMPDEST PUSH1 0x20 DUP3 LT DUP2 SUB PUSH2 0x985 JUMPI PUSH2 0x984 PUSH2 0x92E JUMP JUMPDEST JUMPDEST POP SWAP2 SWAP1 POP JUMP JUMPDEST PUSH0 DUP2 SWAP1 POP DUP2 PUSH0 MSTORE PUSH1 0x20 PUSH0 KECCAK256 SWAP1 POP SWAP2 SWAP1 POP JUMP JUMPDEST PUSH0 PUSH1 0x20 PUSH1 0x1F DUP4 ADD DIV SWAP1 POP SWAP2 SWAP1 POP JUMP JUMPDEST PUSH0 DUP3 DUP3 SHL SWAP1 POP SWAP3 SWAP2 POP POP JUMP JUMPDEST PUSH0 PUSH1 0x8 DUP4 MUL PUSH2 0x9E7 PUSH32 0xFFFFFFFFFFFFFFFFFFFFFFFFFFFFFFFFFFFFFFFFFFFFFFFFFFFFFFFFFFFFFFFF DUP3 PUSH2 0x9AC JUMP JUMPDEST PUSH2 0x9F1 DUP7 DUP4 PUSH2 0x9AC JUMP JUMPDEST SWAP6 POP DUP1 NOT DUP5 AND SWAP4 POP DUP1 DUP7 AND DUP5 OR SWAP3 POP POP POP SWAP4 SWAP3 POP POP POP JUMP JUMPDEST PUSH0 DUP2 SWAP1 POP SWAP2 SWAP1 POP JUMP JUMPDEST PUSH0 PUSH2 0xA2C PUSH2 0xA27 PUSH2 0xA22 DUP5 PUSH2 0x737 JUMP JUMPDEST PUSH2 0xA09 JUMP JUMPDEST PUSH2 0x737 JUMP JUMPDEST SWAP1 POP SWAP2 SWAP1 POP JUMP JUMPDEST PUSH0 DUP2 SWAP1 POP SWAP2 SWAP1 POP JUMP JUMPDEST PUSH2 0xA45 DUP4 PUSH2 0xA12 JUMP JUMPDEST PUSH2 0xA59 PUSH2 0xA51 DUP3 PUSH2 0xA33 JUMP JUMPDEST DUP5 DUP5 SLOAD PUSH2 0x9B8 JUMP JUMPDEST DUP3 SSTORE POP POP POP POP JUMP JUMPDEST PUSH0 PUSH0 SWAP1 POP SWAP1 JUMP JUMPDEST PUSH2 0xA70 PUSH2 0xA61 JUMP JUMPDEST PUSH2 0xA7B DUP2 DUP5 DUP5 PUSH2 0xA3C JUMP JUMPDEST POP POP POP JUMP JUMPDEST JUMPDEST DUP2 DUP2 LT ISZERO PUSH2 0xA9E JUMPI PUSH2 0xA93 PUSH0 DUP3 PUSH2 0xA68 JUMP JUMPDEST PUSH1 0x1 DUP2 ADD SWAP1 POP PUSH2 0xA81 JUMP JUMPDEST POP POP JUMP JUMPDEST PUSH1 0x1F DUP3 GT ISZERO PUSH2 0xAE3 JUMPI PUSH2 0xAB4 DUP2 PUSH2 0x98B JUMP JUMPDEST PUSH2 0xABD DUP5 PUSH2 0x99D JUMP JUMPDEST DUP2 ADD PUSH1 0x20 DUP6 LT ISZERO PUSH2 0xACC JUMPI DUP2 SWAP1 POP JUMPDEST PUSH2 0xAE0 PUSH2 0xAD8 DUP6 PUSH2 0x99D JUMP JUMPDEST DUP4 ADD DUP3 PUSH2 0xA80 JUMP JUMPDEST POP POP JUMPDEST POP POP POP JUMP JUMPDEST PUSH0 DUP3 DUP3 SHR SWAP1 POP SWAP3 SWAP2 POP POP JUMP JUMPDEST PUSH0 PUSH2 0xB03 PUSH0 NOT DUP5 PUSH1 0x8 MUL PUSH2 0xAE8 JUMP JUMPDEST NOT DUP1 DUP4 AND SWAP2 POP POP SWAP3 SWAP2 POP POP JUMP JUMPDEST PUSH0 PUSH2 0xB1B DUP4 DUP4 PUSH2 0xAF4 JUMP JUMPDEST SWAP2 POP DUP3 PUSH1 0x2 MUL DUP3 OR SWAP1 POP SWAP3 SWAP2 POP POP JUMP JUMPDEST PUSH2 0xB34 DUP3 PUSH2 0x777 JUMP JUMPDEST PUSH8 0xFFFFFFFFFFFFFFFF DUP2 GT ISZERO PUSH2 0xB4D JUMPI PUSH2 0xB4C PUSH2 0x901 JUMP JUMPDEST JUMPDEST PUSH2 0xB57 DUP3 SLOAD PUSH2 0x95B JUMP JUMPDEST PUSH2 0xB62 DUP3 DUP3 DUP6 PUSH2 0xAA2 JUMP JUMPDEST PUSH0 PUSH1 0x20 SWAP1 POP PUSH1 0x1F DUP4 GT PUSH1 0x1 DUP2 EQ PUSH2 0xB93 JUMPI PUSH0 DUP5 ISZERO PUSH2 0xB81 JUMPI DUP3 DUP8 ADD MLOAD SWAP1 POP JUMPDEST PUSH2 0xB8B DUP6 DUP3 PUSH2 0xB10 JUMP JUMPDEST DUP7 SSTORE POP PUSH2 0xBF2 JUMP JUMPDEST PUSH1 0x1F NOT DUP5 AND PUSH2 0xBA1 DUP7 PUSH2 0x98B JUMP JUMPDEST PUSH0 JUMPDEST DUP3 DUP2 LT ISZERO PUSH2 0xBC8 JUMPI DUP5 DUP10 ADD MLOAD DUP3 SSTORE PUSH1 0x1 DUP3 ADD SWAP2 POP PUSH1 0x20 DUP6 ADD SWAP5 POP PUSH1 0x20 DUP2 ADD SWAP1 POP PUSH2 0xBA3 JUMP JUMPDEST DUP7 DUP4 LT ISZERO PUSH2 0xBE5 JUMPI DUP5 DUP10 ADD MLOAD PUSH2 0xBE1 PUSH1 0x1F DUP10 AND DUP3 PUSH2 0xAF4 JUMP JUMPDEST DUP4 SSTORE POP JUMPDEST PUSH1 0x1 PUSH1 0x2 DUP9 MUL ADD DUP9 SSTORE POP POP POP JUMPDEST POP POP POP POP POP POP JUMP JUMPDEST PUSH32 0x50617469656E7452656769737472793A206E6F74207265676973746572656400 PUSH0 DUP3 ADD MSTORE POP JUMP JUMPDEST PUSH0 PUSH2 0xC2E PUSH1 0x1F DUP4 PUSH2 0x863 JUMP JUMPDEST SWAP2 POP PUSH2 0xC39 DUP3 PUSH2 0xBFA JUMP JUMPDEST PUSH1 0x20 DUP3 ADD SWAP1 POP SWAP2 SWAP1 POP JUMP JUMPDEST PUSH0 PUSH1 0x20 DUP3 ADD SWAP1 POP DUP2 DUP2 SUB PUSH0 DUP4 ADD MSTORE PUSH2 0xC5B DUP2 PUSH2 0xC22 JUMP JUMPDEST SWAP1 POP SWAP2 SWAP1 POP JUMP INVALID LOG2 PUSH5 0x6970667358 0x22 SLT KECCAK256 TIMESTAMP 0xDD SHL 0xE8 SWAP10 0xE8 RETURNDATACOPY ADD BYTE PUSH23 0x289D3B8D1EBCBC87BADD0A813816DBDE59EA812CC77964 PUSH20 0x6F6C634300081E00330000000000000000000000 "
				},
				"gasEstimates": {
					"creation": {
						"codeDepositCost": "644800",
						"executionCost": "674",
						"totalCost": "645474"
					},
					"external": {
						"getPatient(address)": "infinite",
						"isPatient(address)": "2875",
						"patientCount()": "2462",
						"registerPatient(string)": "infinite"
					}
				},
				"methodIdentifiers": {
					"getPatient(address)": "b5368e20",
					"isPatient(address)": "8f9c79ed",
					"patientCount()": "a0303c41",
					"registerPatient(string)": "869c9eaf"
				}
			},
			"storageLayout": {
				"storage": [
					{
						"astId": 13,
						"contract": "contracts/PatientRegistry.sol:PatientRegistry",
						"label": "patients",
						"offset": 0,
						"slot": "0",
						"type": "t_mapping(t_address,t_struct(Patient)8_storage)"
					},
					{
						"astId": 16,
						"contract": "contracts/PatientRegistry.sol:PatientRegistry",
						"label": "patientList",
						"offset": 0,
						"slot": "1",
						"type": "t_array(t_address)dyn_storage"
					}
				],
				"types": {
					"t_address": {
						"encoding": "inplace",
						"label": "address",
						"numberOfBytes": "20"
					},
					"t_array(t_address)dyn_storage": {
						"base": "t_address",
						"encoding": "dynamic_array",
						"label": "address[]",
						"numberOfBytes": "32"
					},
					"t_bool": {
						"encoding": "inplace",
						"label": "bool",
						"numberOfBytes": "1"
					},
					"t_mapping(t_address,t_struct(Patient)8_storage)": {
						"encoding": "mapping",
						"key": "t_address",
						"label": "mapping(address => struct PatientRegistry.Patient)",
						"numberOfBytes": "32",
						"value": "t_struct(Patient)8_storage"
					},
					"t_string_storage": {
						"encoding": "bytes",
						"label": "string",
						"numberOfBytes": "32"
					},
					"t_struct(Patient)8_storage": {
						"encoding": "inplace",
						"label": "struct PatientRegistry.Patient",
						"members": [
							{
								"astId": 3,
								"contract": "contracts/PatientRegistry.sol:PatientRegistry",
								"label": "wallet",
								"offset": 0,
								"slot": "0",
								"type": "t_address"
							},
							{
								"astId": 5,
								"contract": "contracts/PatientRegistry.sol:PatientRegistry",
								"label": "publicKey",
								"offset": 0,
								"slot": "1",
								"type": "t_string_storage"
							},
							{
								"astId": 7,
								"contract": "contracts/PatientRegistry.sol:PatientRegistry",
								"label": "exists",
								"offset": 0,
								"slot": "2",
								"type": "t_bool"
							}
						],
						"numberOfBytes": "96"
					}
				}
			},
			"userdoc": {
				"kind": "user",
				"methods": {},
				"version": 1
			}
		}
	}
}