{
	"contracts/AuditLog.sol": {
		"AuditLog": {
			"abi": [
				{
					"inputs": [],
					"stateMutability": "nonpayable",
					"type": "constructor"
				},
				{
					"anonymous": false,
					"inputs": [
						{
							"indexed": true,
							"internalType": "address",
							"name": "caller",
							"type": "address"
						}
					],
					"name": "AuthorisedCallerAdded",
					"type": "event"
				},
				{
					"anonymous": false,
					"inputs": [
						{
							"indexed": true,
							"internalType": "address",
							"name": "caller",
							"type": "address"
						}
					],
					"name": "AuthorisedCallerRemoved",
					"type": "event"
				},
				{
					"anonymous": false,
					"inputs": [
						{
							"indexed": true,
							"internalType": "uint256",
							"name": "id",
							"type": "uint256"
						},
						{
							"indexed": true,
							"internalType": "address",
							"name": "actor",
							"type": "address"
						},
						{
							"indexed": true,
							"internalType": "address",
							"name": "subject",
							"type": "address"
						},
						{
							"indexed": false,
							"internalType": "address",
							"name": "counterparty",
							"type": "address"
						},
						{
							"indexed": false,
							"internalType": "string",
							"name": "action",
							"type": "string"
						},
						{
							"indexed": false,
							"internalType": "uint256",
							"name": "timestamp",
							"type": "uint256"
						}
					],
					"name": "Logged",
					"type": "event"
				},
				{
					"anonymous": false,
					"inputs": [
						{
							"indexed": true,
							"internalType": "address",
							"name": "from",
							"type": "address"
						},
						{
							"indexed": true,
							"internalType": "address",
							"name": "to",
							"type": "address"
						}
					],
					"name": "OwnershipTransferred",
					"type": "event"
				},
				{
					"inputs": [
						{
							"internalType": "address",
							"name": "caller",
							"type": "address"
						}
					],
					"name": "authorise",
					"outputs": [],
					"stateMutability": "nonpayable",
					"type": "function"
				},
				{
					"inputs": [
						{
							"internalType": "address",
							"name": "",
							"type": "address"
						}
					],
					"name": "authorisedCallers",
					"outputs": [
						{
							"internalType": "bool",
							"name": "",
							"type": "bool"
						}
					],
					"stateMutability": "view",
					"type": "function"
				},
				{
					"inputs": [
						{
							"internalType": "address",
							"name": "caller",
							"type": "address"
						}
					],
					"name": "deauthorise",
					"outputs": [],
					"stateMutability": "nonpayable",
					"type": "function"
				},
				{
					"inputs": [],
					"name": "getLogCount",
					"outputs": [
						{
							"internalType": "uint256",
							"name": "",
							"type": "uint256"
						}
					],
					"stateMutability": "view",
					"type": "function"
				},
				{
					"inputs": [
						{
							"internalType": "address",
							"name": "subject",
							"type": "address"
						}
					],
					"name": "getLogsForSubject",
					"outputs": [
						{
							"components": [
								{
									"internalType": "address",
									"name": "actor",
									"type": "address"
								},
								{
									"internalType": "address",
									"name": "subject",
									"type": "address"
								},
								{
									"internalType": "address",
									"name": "counterparty",
									"type": "address"
								},
								{
									"internalType": "string",
									"name": "action",
									"type": "string"
								},
								{
									"internalType": "uint256",
									"name": "timestamp",
									"type": "uint256"
								}
							],
							"internalType": "struct AuditLog.LogEntry[]",
							"name": "",
							"type": "tuple[]"
						}
					],
					"stateMutability": "view",
					"type": "function"
				},
				{
					"inputs": [
						{
							"internalType": "address",
							"name": "actor",
							"type": "address"
						},
						{
							"internalType": "address",
							"name": "subject",
							"type": "address"
						},
						{
							"internalType": "address",
							"name": "counterparty",
							"type": "address"
						},
						{
							"internalType": "string",
							"name": "action",
							"type": "string"
						}
					],
					"name": "logEvent",
					"outputs": [],
					"stateMutability": "nonpayable",
					"type": "function"
				},
				{
					"inputs": [],
					"name": "owner",
					"outputs": [
						{
							"internalType": "address",
							"name": "",
							"type": "address"
						}
					],
					"stateMutability": "view",
					"type": "function"
				},
				{
					"inputs": [
						{
							"internalType": "address",
							"name": "newOwner",
							"type": "address"
						}
					],
					"name": "transferOwnership",
					"outputs": [],
					"stateMutability": "nonpayable",
					"type": "function"
				}
			],
			"devdoc": {
				"kind": "dev",
				"methods": {},
				"version": 1
			},
			"evm": {
				"assembly": "    /* \"contracts/AuditLog.sol\":61:3312  contract AuditLog {... */\n  mstore(0x40, 0x80)\n    /* \"contracts/AuditLog.sol\":1211:1262  constructor() {... */\n  callvalue\n  dup1\n  iszero\n  tag_1\n  jumpi\n  revert(0x00, 0x00)\ntag_1:\n  pop\n    /* \"contracts/AuditLog.sol\":1244:1254  msg.sender */\n  caller\n    /* \"contracts/AuditLog.sol\":1236:1241  owner */\n  0x00\n  0x00\n    /* \"contracts/AuditLog.sol\":1236:1254  owner = msg.sender */\n  0x0100\n  exp\n  dup2\n  sload\n  dup2\n  0xffffffffffffffffffffffffffffffffffffffff\n  mul\n  not\n  and\n  swap1\n  dup4\n  0xffffffffffffffffffffffffffffffffffffffff\n  and\n  mul\n  or\n  swap1\n  sstore\n  pop\n    /* \"contracts/AuditLog.sol\":61:3312  contract AuditLog {... */\n  dataSize(sub_0)\n  dup1\n  dataOffset(sub_0)\n  0x00\n  codecopy\n  0x00\n  return\nstop\n\nsub_0: assembly {\n        /* \"contracts/AuditLog.sol\":61:3312  contract AuditLog {... */\n      mstore(0x40, 0x80)\n      callvalue\n      dup1\n      iszero\n      tag_1\n      jumpi\n      revert(0x00, 0x00)\n    tag_1:\n      pop\n      jumpi(tag_2, lt(calldatasize, 0x04))\n      shr(0xe0, calldataload(0x00))\n      dup1\n      0x8da5cb5b\n      gt\n      tag_11\n      jumpi\n      dup1\n      0x8da5cb5b\n      eq\n      tag_7\n      jumpi\n      dup1\n      0x944fd180\n      eq\n      tag_8\n      jumpi\n      dup1\n      0x97e7b0f3\n      eq\n      tag_9\n      jumpi\n      dup1\n      0xf2fde38b\n      eq\n      tag_10\n      jumpi\n      jump(tag_2)\n    tag_11:\n      dup1\n      0x107d1d78\n      eq\n      tag_3\n      jumpi\n      dup1\n      0x618033db\n      eq\n      tag_4\n      jumpi\n      dup1\n      0x66e6c8af\n      eq\n      tag_5\n      jumpi\n      dup1\n      0x8acbddf0\n      eq\n      tag_6\n      jumpi\n    tag_2:\n      revert(0x00, 0x00)\n        /* \"contracts/AuditLog.sol\":1819:2325  function logEvent(... */\n    tag_3:\n      tag_12\n      0x04\n      dup1\n      calldatasize\n      sub\n      dup2\n      add\n      swap1\n      tag_13\n      swap2\n      swap1\n      tag_14\n      jump\t// in\n    tag_13:\n      tag_15\n      jump\t// in\n    tag_12:\n      stop\n        /* \"contracts/AuditLog.sol\":2333:2425  function getLogCount() external view returns (uint256) {... */\n    tag_4:\n      tag_16\n      tag_17\n      jump\t// in\n    tag_16:\n      mload(0x40)\n      tag_18\n      swap2\n      swap1\n      tag_19\n      jump\t// in\n    tag_18:\n      mload(0x40)\n      dup1\n      swap2\n      sub\n      swap1\n      return\n        /* \"contracts/AuditLog.sol\":1270:1420  function authorise(address caller) external onlyOwner {... */\n    tag_5:\n      tag_20\n      0x04\n      dup1\n      calldatasize\n      sub\n      dup2\n      add\n      swap1\n      tag_21\n      swap2\n      swap1\n      tag_22\n      jump\t// in\n    tag_21:\n      tag_23\n      jump\t// in\n    tag_20:\n      stop\n        /* \"contracts/AuditLog.sol\":1428:1583  function deauthorise(address caller) external onlyOwner {... */\n    tag_6:\n      tag_24\n      0x04\n      dup1\n      calldatasize\n      sub\n      dup2\n      add\n      swap1\n      tag_25\n      swap2\n      swap1\n      tag_22\n      jump\t// in\n    tag_25:\n      tag_26\n      jump\t// in\n    tag_24:\n      stop\n        /* \"contracts/AuditLog.sol\":86:106  address public owner */\n    tag_7:\n      tag_27\n      tag_28\n      jump\t// in\n    tag_27:\n      mload(0x40)\n      tag_29\n      swap2\n      swap1\n      tag_30\n      jump\t// in\n    tag_29:\n      mload(0x40)\n      dup1\n      swap2\n      sub\n      swap1\n      return\n        /* \"contracts/AuditLog.sol\":489:538  mapping(address => bool) public authorisedCallers */\n    tag_8:\n      tag_31\n      0x04\n      dup1\n      calldatasize\n      sub\n      dup2\n      add\n      swap1\n      tag_32\n      swap2\n      swap1\n      tag_22\n      jump\t// in\n    tag_32:\n      tag_33\n      jump\t// in\n    tag_31:\n      mload(0x40)\n      tag_34\n      swap2\n      swap1\n      tag_35\n      jump\t// in\n    tag_34:\n      mload(0x40)\n      dup1\n      swap2\n      sub\n      swap1\n      return\n        /* \"contracts/AuditLog.sol\":2433:3202  function getLogsForSubject(address subject) external view returns (LogEntry[] memory) {... */\n    tag_9:\n      tag_36\n      0x04\n      dup1\n      calldatasize\n      sub\n      dup2\n      add\n      swap1\n      tag_37\n      swap2\n      swap1\n      tag_22\n      jump\t// in\n    tag_37:\n      tag_38\n      jump\t// in\n    tag_36:\n      mload(0x40)\n      tag_39\n      swap2\n      swap1\n      tag_40\n      jump\t// in\n    tag_39:\n      mload(0x40)\n      dup1\n      swap2\n      sub\n      swap1\n      return\n        /* \"contracts/AuditLog.sol\":1591:1811  function transferOwnership(address newOwner) external onlyOwner {... */\n    tag_10:\n      tag_41\n      0x04\n      dup1\n      calldatasize\n      sub\n      dup2\n      add\n      swap1\n      tag_42\n      swap2\n      swap1\n      tag_22\n      jump\t// in\n    tag_42:\n      tag_43\n      jump\t// in\n    tag_41:\n      stop\n        /* \"contracts/AuditLog.sol\":1819:2325  function logEvent(... */\n    tag_15:\n        /* \"contracts/AuditLog.sol\":1102:1119  authorisedCallers */\n      0x02\n        /* \"contracts/AuditLog.sol\":1102:1131  authorisedCallers[msg.sender] */\n      0x00\n        /* \"contracts/AuditLog.sol\":1120:1130  msg.sender */\n      caller\n        /* \"contracts/AuditLog.sol\":1102:1131  authorisedCallers[msg.sender] */\n      0xffffffffffffffffffffffffffffffffffffffff\n      and\n      0xffffffffffffffffffffffffffffffffffffffff\n      and\n      dup2\n      mstore\n      0x20\n      add\n      swap1\n      dup2\n      mstore\n      0x20\n      add\n      0x00\n      keccak256\n      0x00\n      swap1\n      sload\n      swap1\n      0x0100\n      exp\n      swap1\n      div\n      0xff\n      and\n        /* \"contracts/AuditLog.sol\":1102:1154  authorisedCallers[msg.sender] || msg.sender == owner */\n      dup1\n      tag_45\n      jumpi\n      pop\n        /* \"contracts/AuditLog.sol\":1149:1154  owner */\n      0x00\n      0x00\n      swap1\n      sload\n      swap1\n      0x0100\n      exp\n      swap1\n      div\n      0xffffffffffffffffffffffffffffffffffffffff\n      and\n        /* \"contracts/AuditLog.sol\":1135:1154  msg.sender == owner */\n      0xffffffffffffffffffffffffffffffffffffffff\n      and\n        /* \"contracts/AuditLog.sol\":1135:1145  msg.sender */\n      caller\n        /* \"contracts/AuditLog.sol\":1135:1154  msg.sender == owner */\n      0xffffffffffffffffffffffffffffffffffffffff\n      and\n      eq\n        /* \"contracts/AuditLog.sol\":1102:1154  authorisedCallers[msg.sender] || msg.sender == owner */\n    tag_45:\n        /* \"contracts/AuditLog.sol\":1094:1183  require(authorisedCallers[msg.sender] || msg.sender == owner, \"AuditLog: not authorised\") */\n      tag_46\n      jumpi\n      mload(0x40)\n      0x08c379a000000000000000000000000000000000000000000000000000000000\n      dup2\n      mstore\n      0x04\n      add\n      tag_47\n      swap1\n      tag_48\n      jump\t// in\n    tag_47:\n      mload(0x40)\n      dup1\n      swap2\n      sub\n      swap1\n      revert\n    tag_46:\n        /* \"contracts/AuditLog.sol\":2038:2042  logs */\n      0x01\n        /* \"contracts/AuditLog.sol\":2048:2111  LogEntry(actor, subject, counterparty, action, block.timestamp) */\n      mload(0x40)\n      dup1\n      0xa0\n      add\n      0x40\n      mstore\n      dup1\n        /* \"contracts/AuditLog.sol\":2057:2062  actor */\n      dup8\n        /* \"contracts/AuditLog.sol\":2048:2111  LogEntry(actor, subject, counterparty, action, block.timestamp) */\n      0xffffffffffffffffffffffffffffffffffffffff\n      and\n      dup2\n      mstore\n      0x20\n      add\n        /* \"contracts/AuditLog.sol\":2064:2071  subject */\n      dup7\n        /* \"contracts/AuditLog.sol\":2048:2111  LogEntry(actor, subject, counterparty, action, block.timestamp) */\n      0xffffffffffffffffffffffffffffffffffffffff\n      and\n      dup2\n      mstore\n      0x20\n      add\n        /* \"contracts/AuditLog.sol\":2073:2085  counterparty */\n      dup6\n        /* \"contracts/AuditLog.sol\":2048:2111  LogEntry(actor, subject, counterparty, action, block.timestamp) */\n      0xffffffffffffffffffffffffffffffffffffffff\n      and\n      dup2\n      mstore\n      0x20\n      add\n        /* \"contracts/AuditLog.sol\":2087:2093  action */\n      dup5\n      dup5\n        /* \"contracts/AuditLog.sol\":2048:2111  LogEntry(actor, subject, counterparty, action, block.timestamp) */\n      dup1\n      dup1\n      0x1f\n      add\n      0x20\n      dup1\n      swap2\n      div\n      mul\n      0x20\n      add\n      mload(0x40)\n      swap1\n      dup2\n      add\n      0x40\n      mstore\n      dup1\n      swap4\n      swap3\n      swap2\n      swap1\n      dup2\n      dup2\n      mstore\n      0x20\n      add\n      dup4\n      dup4\n      dup1\n      dup3\n      dup5\n      calldatacopy\n      0x00\n      dup2\n      dup5\n      add\n      mstore\n      not(0x1f)\n      0x1f\n      dup3\n      add\n      and\n      swap1\n      pop\n      dup1\n      dup4\n      add\n      swap3\n      pop\n      pop\n      pop\n      pop\n      pop\n      pop\n      pop\n      dup2\n      mstore\n      0x20\n      add\n        /* \"contracts/AuditLog.sol\":2095:2110  block.timestamp */\n      timestamp\n        /* \"contracts/AuditLog.sol\":2048:2111  LogEntry(actor, subject, counterparty, action, block.timestamp) */\n      dup2\n      mstore\n      pop\n        /* \"contracts/AuditLog.sol\":2038:2112  logs.push(LogEntry(actor, subject, counterparty, action, block.timestamp)) */\n      swap1\n      dup1\n      0x01\n      dup2\n      sload\n      add\n      dup1\n      dup3\n      sstore\n      dup1\n      swap2\n      pop\n      pop\n      0x01\n      swap1\n      sub\n      swap1\n      0x00\n      mstore\n      keccak256(0x00, 0x20)\n      swap1\n      0x05\n      mul\n      add\n      0x00\n      swap1\n      swap2\n      swap1\n      swap2\n      swap1\n      swap2\n      pop\n      0x00\n      dup3\n      add\n      mload\n      dup2\n      0x00\n      add\n      exp(0x0100, 0x00)\n      dup2\n      sload\n      dup2\n      0xffffffffffffffffffffffffffffffffffffffff\n      mul\n      not\n      and\n      swap1\n      dup4\n      0xffffffffffffffffffffffffffffffffffffffff\n      and\n      mul\n      or\n      swap1\n      sstore\n      pop\n      0x20\n      dup3\n      add\n      mload\n      dup2\n      0x01\n      add\n      exp(0x0100, 0x00)\n      dup2\n      sload\n      dup2\n      0xffffffffffffffffffffffffffffffffffffffff\n      mul\n      not\n      and\n      swap1\n      dup4\n      0xffffffffffffffffffffffffffffffffffffffff\n      and\n      mul\n      or\n      swap1\n      sstore\n      pop\n      0x40\n      dup3\n      add\n      mload\n      dup2\n      0x02\n      add\n      exp(0x0100, 0x00)\n      dup2\n      sload\n      dup2\n      0xffffffffffffffffffffffffffffffffffffffff\n      mul\n      not\n      and\n      swap1\n      dup4\n      0xffffffffffffffffffffffffffffffffffffffff\n      and\n      mul\n      or\n      swap1\n      sstore\n      pop\n      0x60\n      dup3\n      add\n      mload\n      dup2\n      0x03\n      add\n      swap1\n      dup2\n      tag_51\n      swap2\n      swap1\n      tag_52\n      jump\t// in\n    tag_51:\n      pop\n      0x80\n      dup3\n      add\n      mload\n      dup2\n      0x04\n      add\n      sstore\n      pop\n      pop\n        /* \"contracts/AuditLog.sol\":2230:2237  subject */\n      dup4\n        /* \"contracts/AuditLog.sol\":2159:2317  Logged(... */\n      0xffffffffffffffffffffffffffffffffffffffff\n      and\n        /* \"contracts/AuditLog.sol\":2210:2215  actor */\n      dup6\n        /* \"contracts/AuditLog.sol\":2159:2317  Logged(... */\n      0xffffffffffffffffffffffffffffffffffffffff\n      and\n        /* \"contracts/AuditLog.sol\":2194:2195  1 */\n      0x01\n        /* \"contracts/AuditLog.sol\":2180:2184  logs */\n      dup1\n        /* \"contracts/AuditLog.sol\":2180:2191  logs.length */\n      dup1\n      sload\n      swap1\n      pop\n        /* \"contracts/AuditLog.sol\":2180:2195  logs.length - 1 */\n      tag_53\n      swap2\n      swap1\n      tag_54\n      jump\t// in\n    tag_53:\n        /* \"contracts/AuditLog.sol\":2159:2317  Logged(... */\n      0xa36886a5bbac24ee43d6e8ac3fa0d7dfdd46efec630190cf2533b47037b06297\n        /* \"contracts/AuditLog.sol\":2252:2264  counterparty */\n      dup7\n        /* \"contracts/AuditLog.sol\":2279:2285  action */\n      dup7\n      dup7\n        /* \"contracts/AuditLog.sol\":2301:2316  block.timestamp */\n      timestamp\n        /* \"contracts/AuditLog.sol\":2159:2317  Logged(... */\n      mload(0x40)\n      tag_55\n      swap5\n      swap4\n      swap3\n      swap2\n      swap1\n      tag_56\n      jump\t// in\n    tag_55:\n      mload(0x40)\n      dup1\n      swap2\n      sub\n      swap1\n      log4\n        /* \"contracts/AuditLog.sol\":1819:2325  function logEvent(... */\n      pop\n      pop\n      pop\n      pop\n      pop\n      jump\t// out\n        /* \"contracts/AuditLog.sol\":2333:2425  function getLogCount() external view returns (uint256) {... */\n    tag_17:\n        /* \"contracts/AuditLog.sol\":2379:2386  uint256 */\n      0x00\n        /* \"contracts/AuditLog.sol\":2406:2410  logs */\n      0x01\n        /* \"contracts/AuditLog.sol\":2406:2417  logs.length */\n      dup1\n      sload\n      swap1\n      pop\n        /* \"contracts/AuditLog.sol\":2399:2417  return logs.length */\n      swap1\n      pop\n        /* \"contracts/AuditLog.sol\":2333:2425  function getLogCount() external view returns (uint256) {... */\n      swap1\n      jump\t// out\n        /* \"contracts/AuditLog.sol\":1270:1420  function authorise(address caller) external onlyOwner {... */\n    tag_23:\n        /* \"contracts/AuditLog.sol\":1000:1005  owner */\n      0x00\n      0x00\n      swap1\n      sload\n      swap1\n      0x0100\n      exp\n      swap1\n      div\n      0xffffffffffffffffffffffffffffffffffffffff\n      and\n        /* \"contracts/AuditLog.sol\":986:1005  msg.sender == owner */\n      0xffffffffffffffffffffffffffffffffffffffff\n      and\n        /* \"contracts/AuditLog.sol\":986:996  msg.sender */\n      caller\n        /* \"contracts/AuditLog.sol\":986:1005  msg.sender == owner */\n      0xffffffffffffffffffffffffffffffffffffffff\n      and\n      eq\n        /* \"contracts/AuditLog.sol\":978:1029  require(msg.sender == owner, \"AuditLog: not owner\") */\n      tag_59\n      jumpi\n      mload(0x40)\n      0x08c379a000000000000000000000000000000000000000000000000000000000\n      dup2\n      mstore\n      0x04\n      add\n      tag_60\n      swap1\n      tag_61\n      jump\t// in\n    tag_60:\n      mload(0x40)\n      dup1\n      swap2\n      sub\n      swap1\n      revert\n    tag_59:\n        /* \"contracts/AuditLog.sol\":1363:1367  true */\n      0x01\n        /* \"contracts/AuditLog.sol\":1335:1352  authorisedCallers */\n      0x02\n        /* \"contracts/AuditLog.sol\":1335:1360  authorisedCallers[caller] */\n      0x00\n        /* \"contracts/AuditLog.sol\":1353:1359  caller */\n      dup4\n        /* \"contracts/AuditLog.sol\":1335:1360  authorisedCallers[caller] */\n      0xffffffffffffffffffffffffffffffffffffffff\n      and\n      0xffffffffffffffffffffffffffffffffffffffff\n      and\n      dup2\n      mstore\n      0x20\n      add\n      swap1\n      dup2\n      mstore\n      0x20\n      add\n      0x00\n      keccak256\n      0x00\n        /* \"contracts/AuditLog.sol\":1335:1367  authorisedCallers[caller] = true */\n      0x0100\n      exp\n      dup2\n      sload\n      dup2\n      0xff\n      mul\n      not\n      and\n      swap1\n      dup4\n      iszero\n      iszero\n      mul\n      or\n      swap1\n      sstore\n      pop\n        /* \"contracts/AuditLog.sol\":1405:1411  caller */\n      dup1\n        /* \"contracts/AuditLog.sol\":1383:1412  AuthorisedCallerAdded(caller) */\n      0xffffffffffffffffffffffffffffffffffffffff\n      and\n      0xbac895d0151374b1cfd9aae9996a6b27a605c3da04353e9d09f8e10ed867bfe5\n      mload(0x40)\n      mload(0x40)\n      dup1\n      swap2\n      sub\n      swap1\n      log2\n        /* \"contracts/AuditLog.sol\":1270:1420  function authorise(address caller) external onlyOwner {... */\n      pop\n      jump\t// out\n        /* \"contracts/AuditLog.sol\":1428:1583  function deauthorise(address caller) external onlyOwner {... */\n    tag_26:\n        /* \"contracts/AuditLog.sol\":1000:1005  owner */\n      0x00\n      0x00\n      swap1\n      sload\n      swap1\n      0x0100\n      exp\n      swap1\n      div\n      0xffffffffffffffffffffffffffffffffffffffff\n      and\n        /* \"contracts/AuditLog.sol\":986:1005  msg.sender == owner */\n      0xffffffffffffffffffffffffffffffffffffffff\n      and\n        /* \"contracts/AuditLog.sol\":986:996  msg.sender */\n      caller\n        /* \"contracts/AuditLog.sol\":986:1005  msg.sender == owner */\n      0xffffffffffffffffffffffffffffffffffffffff\n      and\n      eq\n        /* \"contracts/AuditLog.sol\":978:1029  require(msg.sender == owner, \"AuditLog: not owner\") */\n      tag_64\n      jumpi\n      mload(0x40)\n      0x08c379a000000000000000000000000000000000000000000000000000000000\n      dup2\n      mstore\n      0x04\n      add\n      tag_65\n      swap1\n      tag_61\n      jump\t// in\n    tag_65:\n      mload(0x40)\n      dup1\n      swap2\n      sub\n      swap1\n      revert\n    tag_64:\n        /* \"contracts/AuditLog.sol\":1523:1528  false */\n      0x00\n        /* \"contracts/AuditLog.sol\":1495:1512  authorisedCallers */\n      0x02\n        /* \"contracts/AuditLog.sol\":1495:1520  authorisedCallers[caller] */\n      0x00\n        /* \"contracts/AuditLog.sol\":1513:1519  caller */\n      dup4\n        /* \"contracts/AuditLog.sol\":1495:1520  authorisedCallers[caller] */\n      0xffffffffffffffffffffffffffffffffffffffff\n      and\n      0xffffffffffffffffffffffffffffffffffffffff\n      and\n      dup2\n      mstore\n      0x20\n      add\n      swap1\n      dup2\n      mstore\n      0x20\n      add\n      0x00\n      keccak256\n      0x00\n        /* \"contracts/AuditLog.sol\":1495:1528  authorisedCallers[caller] = false */\n      0x0100\n      exp\n      dup2\n      sload\n      dup2\n      0xff\n      mul\n      not\n      and\n      swap1\n      dup4\n      iszero\n      iszero\n      mul\n      or\n      swap1\n      sstore\n      pop\n        /* \"contracts/AuditLog.sol\":1568:1574  caller */\n      dup1\n        /* \"contracts/AuditLog.sol\":1544:1575  AuthorisedCallerRemoved(caller) */\n      0xffffffffffffffffffffffffffffffffffffffff\n      and\n      0x8144097ab0537543f91b063fd8bbb24331ea683c589b1b9b9c5a7f1b8a7b3c30\n      mload(0x40)\n      mload(0x40)\n      dup1\n      swap2\n      sub\n      swap1\n      log2\n        /* \"contracts/AuditLog.sol\":1428:1583  function deauthorise(address caller) external onlyOwner {... */\n      pop\n      jump\t// out\n        /* \"contracts/AuditLog.sol\":86:106  address public owner */\n    tag_28:\n      0x00\n      0x00\n      swap1\n      sload\n      swap1\n      0x0100\n      exp\n      swap1\n      div\n      0xffffffffffffffffffffffffffffffffffffffff\n      and\n      dup2\n      jump\t// out\n        /* \"contracts/AuditLog.sol\":489:538  mapping(address => bool) public authorisedCallers */\n    tag_33:\n      mstore(0x20, 0x02)\n      dup1\n      0x00\n      mstore\n      keccak256(0x00, 0x40)\n      0x00\n      swap2\n      pop\n      sload\n      swap1\n      0x0100\n      exp\n      swap1\n      div\n      0xff\n      and\n      dup2\n      jump\t// out\n        /* \"contracts/AuditLog.sol\":2433:3202  function getLogsForSubject(address subject) external view returns (LogEntry[] memory) {... */\n    tag_38:\n        /* \"contracts/AuditLog.sol\":2500:2517  LogEntry[] memory */\n      0x60\n        /* \"contracts/AuditLog.sol\":2591:2604  uint256 count */\n      0x00\n        /* \"contracts/AuditLog.sol\":2607:2608  0 */\n      0x00\n        /* \"contracts/AuditLog.sol\":2591:2608  uint256 count = 0 */\n      swap1\n      pop\n        /* \"contracts/AuditLog.sol\":2624:2633  uint256 i */\n      0x00\n        /* \"contracts/AuditLog.sol\":2636:2637  0 */\n      0x00\n        /* \"contracts/AuditLog.sol\":2624:2637  uint256 i = 0 */\n      swap1\n      pop\n        /* \"contracts/AuditLog.sol\":2619:2727  for (uint256 i = 0; i < logs.length; i++) {... */\n    tag_68:\n        /* \"contracts/AuditLog.sol\":2643:2647  logs */\n      0x01\n        /* \"contracts/AuditLog.sol\":2643:2654  logs.length */\n      dup1\n      sload\n      swap1\n      pop\n        /* \"contracts/AuditLog.sol\":2639:2640  i */\n      dup2\n        /* \"contracts/AuditLog.sol\":2639:2654  i < logs.length */\n      lt\n        /* \"contracts/AuditLog.sol\":2619:2727  for (uint256 i = 0; i < logs.length; i++) {... */\n      iszero\n      tag_69\n      jumpi\n        /* \"contracts/AuditLog.sol\":2699:2706  subject */\n      dup4\n        /* \"contracts/AuditLog.sol\":2680:2706  logs[i].subject == subject */\n      0xffffffffffffffffffffffffffffffffffffffff\n      and\n        /* \"contracts/AuditLog.sol\":2680:2684  logs */\n      0x01\n        /* \"contracts/AuditLog.sol\":2685:2686  i */\n      dup3\n        /* \"contracts/AuditLog.sol\":2680:2687  logs[i] */\n      dup2\n      sload\n      dup2\n      lt\n      tag_71\n      jumpi\n      tag_72\n      tag_73\n      jump\t// in\n    tag_72:\n    tag_71:\n      swap1\n      0x00\n      mstore\n      keccak256(0x00, 0x20)\n      swap1\n      0x05\n      mul\n      add\n        /* \"contracts/AuditLog.sol\":2680:2695  logs[i].subject */\n      0x01\n      add\n      0x00\n      swap1\n      sload\n      swap1\n      0x0100\n      exp\n      swap1\n      div\n      0xffffffffffffffffffffffffffffffffffffffff\n      and\n        /* \"contracts/AuditLog.sol\":2680:2706  logs[i].subject == subject */\n      0xffffffffffffffffffffffffffffffffffffffff\n      and\n      sub\n        /* \"contracts/AuditLog.sol\":2676:2715  if (logs[i].subject == subject) count++ */\n      tag_75\n      jumpi\n        /* \"contracts/AuditLog.sol\":2708:2715  count++ */\n      dup2\n      dup1\n      tag_76\n      swap1\n      tag_77\n      jump\t// in\n    tag_76:\n      swap3\n      pop\n      pop\n        /* \"contracts/AuditLog.sol\":2676:2715  if (logs[i].subject == subject) count++ */\n    tag_75:\n        /* \"contracts/AuditLog.sol\":2656:2659  i++ */\n      dup1\n      dup1\n      0x01\n      add\n      swap2\n      pop\n      pop\n        /* \"contracts/AuditLog.sol\":2619:2727  for (uint256 i = 0; i < logs.length; i++) {... */\n      jump(tag_68)\n    tag_69:\n      pop\n        /* \"contracts/AuditLog.sol\":2807:2831  LogEntry[] memory result */\n      0x00\n        /* \"contracts/AuditLog.sol\":2849:2854  count */\n      dup2\n        /* \"contracts/AuditLog.sol\":2834:2855  new LogEntry[](count) */\n      0xffffffffffffffff\n      dup2\n      gt\n      iszero\n      tag_78\n      jumpi\n      tag_79\n      tag_80\n      jump\t// in\n    tag_79:\n    tag_78:\n      mload(0x40)\n      swap1\n      dup1\n      dup3\n      mstore\n      dup1\n      0x20\n      mul\n      0x20\n      add\n      dup3\n      add\n      0x40\n      mstore\n      dup1\n      iszero\n      tag_81\n      jumpi\n      dup2\n      0x20\n      add\n    tag_82:\n      tag_83\n      tag_84\n      jump\t// in\n    tag_83:\n      dup2\n      mstore\n      0x20\n      add\n      swap1\n      0x01\n      swap1\n      sub\n      swap1\n      dup2\n      tag_82\n      jumpi\n      swap1\n      pop\n    tag_81:\n      pop\n        /* \"contracts/AuditLog.sol\":2807:2855  LogEntry[] memory result = new LogEntry[](count) */\n      swap1\n      pop\n        /* \"contracts/AuditLog.sol\":2971:2980  uint256 j */\n      0x00\n        /* \"contracts/AuditLog.sol\":2983:2984  0 */\n      0x00\n        /* \"contracts/AuditLog.sol\":2971:2984  uint256 j = 0 */\n      swap1\n      pop\n        /* \"contracts/AuditLog.sol\":3000:3009  uint256 i */\n      0x00\n        /* \"contracts/AuditLog.sol\":3012:3013  0 */\n      0x00\n        /* \"contracts/AuditLog.sol\":3000:3013  uint256 i = 0 */\n      swap1\n      pop\n        /* \"contracts/AuditLog.sol\":2995:3171  for (uint256 i = 0; i < logs.length; i++) {... */\n    tag_85:\n        /* \"contracts/AuditLog.sol\":3019:3023  logs */\n      0x01\n        /* \"contracts/AuditLog.sol\":3019:3030  logs.length */\n      dup1\n      sload\n      swap1\n      pop\n        /* \"contracts/AuditLog.sol\":3015:3016  i */\n      dup2\n        /* \"contracts/AuditLog.sol\":3015:3030  i < logs.length */\n      lt\n        /* \"contracts/AuditLog.sol\":2995:3171  for (uint256 i = 0; i < logs.length; i++) {... */\n      iszero\n      tag_86\n      jumpi\n        /* \"contracts/AuditLog.sol\":3075:3082  subject */\n      dup6\n        /* \"contracts/AuditLog.sol\":3056:3082  logs[i].subject == subject */\n      0xffffffffffffffffffffffffffffffffffffffff\n      and\n        /* \"contracts/AuditLog.sol\":3056:3060  logs */\n      0x01\n        /* \"contracts/AuditLog.sol\":3061:3062  i */\n      dup3\n        /* \"contracts/AuditLog.sol\":3056:3063  logs[i] */\n      dup2\n      sload\n      dup2\n      lt\n      tag_88\n      jumpi\n      tag_89\n      tag_73\n      jump\t// in\n    tag_89:\n    tag_88:\n      swap1\n      0x00\n      mstore\n      keccak256(0x00, 0x20)\n      swap1\n      0x05\n      mul\n      add\n        /* \"contracts/AuditLog.sol\":3056:3071  logs[i].subject */\n      0x01\n      add\n      0x00\n      swap1\n      sload\n      swap1\n      0x0100\n      exp\n      swap1\n      div\n      0xffffffffffffffffffffffffffffffffffffffff\n      and\n        /* \"contracts/AuditLog.sol\":3056:3082  logs[i].subject == subject */\n      0xffffffffffffffffffffffffffffffffffffffff\n      and\n      sub\n        /* \"contracts/AuditLog.sol\":3052:3160  if (logs[i].subject == subject) {... */\n      tag_91\n      jumpi\n        /* \"contracts/AuditLog.sol\":3115:3119  logs */\n      0x01\n        /* \"contracts/AuditLog.sol\":3120:3121  i */\n      dup2\n        /* \"contracts/AuditLog.sol\":3115:3122  logs[i] */\n      dup2\n      sload\n      dup2\n      lt\n      tag_92\n      jumpi\n      tag_93\n      tag_73\n      jump\t// in\n    tag_93:\n    tag_92:\n      swap1\n      0x00\n      mstore\n      keccak256(0x00, 0x20)\n      swap1\n      0x05\n      mul\n      add\n        /* \"contracts/AuditLog.sol\":3103:3122  result[j] = logs[i] */\n      mload(0x40)\n      dup1\n      0xa0\n      add\n      0x40\n      mstore\n      swap1\n      dup2\n      0x00\n      dup3\n      add\n      0x00\n      swap1\n      sload\n      swap1\n      0x0100\n      exp\n      swap1\n      div\n      0xffffffffffffffffffffffffffffffffffffffff\n      and\n      0xffffffffffffffffffffffffffffffffffffffff\n      and\n      0xffffffffffffffffffffffffffffffffffffffff\n      and\n      dup2\n      mstore\n      0x20\n      add\n      0x01\n      dup3\n      add\n      0x00\n      swap1\n      sload\n      swap1\n      0x0100\n      exp\n      swap1\n      div\n      0xffffffffffffffffffffffffffffffffffffffff\n      and\n      0xffffffffffffffffffffffffffffffffffffffff\n      and\n      0xffffffffffffffffffffffffffffffffffffffff\n      and\n      dup2\n      mstore\n      0x20\n      add\n      0x02\n      dup3\n      add\n      0x00\n      swap1\n      sload\n      swap1\n      0x0100\n      exp\n      swap1\n      div\n      0xffffffffffffffffffffffffffffffffffffffff\n      and\n      0xffffffffffffffffffffffffffffffffffffffff\n      and\n      0xffffffffffffffffffffffffffffffffffffffff\n      and\n      dup2\n      mstore\n      0x20\n      add\n      0x03\n      dup3\n      add\n      dup1\n      sload\n      tag_95\n      swap1\n      tag_96\n      jump\t// in\n    tag_95:\n      dup1\n      0x1f\n      add\n      0x20\n      dup1\n      swap2\n      div\n      mul\n      0x20\n      add\n      mload(0x40)\n      swap1\n      dup2\n      add\n      0x40\n      mstore\n      dup1\n      swap3\n      swap2\n      swap1\n      dup2\n      dup2\n      mstore\n      0x20\n      add\n      dup3\n      dup1\n      sload\n      tag_97\n      swap1\n      tag_96\n      jump\t// in\n    tag_97:\n      dup1\n      iszero\n      tag_98\n      jumpi\n      dup1\n      0x1f\n      lt\n      tag_99\n      jumpi\n      0x0100\n      dup1\n      dup4\n      sload\n      div\n      mul\n      dup4\n      mstore\n      swap2\n      0x20\n      add\n      swap2\n      jump(tag_98)\n    tag_99:\n      dup3\n      add\n      swap2\n      swap1\n      0x00\n      mstore\n      keccak256(0x00, 0x20)\n      swap1\n    tag_100:\n      dup2\n      sload\n      dup2\n      mstore\n      swap1\n      0x01\n      add\n      swap1\n      0x20\n      add\n      dup1\n      dup4\n      gt\n      tag_100\n      jumpi\n      dup3\n      swap1\n      sub\n      0x1f\n      and\n      dup3\n      add\n      swap2\n    tag_98:\n      pop\n      pop\n      pop\n      pop\n      pop\n      dup2\n      mstore\n      0x20\n      add\n      0x04\n      dup3\n      add\n      sload\n      dup2\n      mstore\n      pop\n      pop\n        /* \"contracts/AuditLog.sol\":3103:3109  result */\n      dup4\n        /* \"contracts/AuditLog.sol\":3110:3111  j */\n      dup4\n        /* \"contracts/AuditLog.sol\":3103:3112  result[j] */\n      dup2\n      mload\n      dup2\n      lt\n      tag_101\n      jumpi\n      tag_102\n      tag_73\n      jump\t// in\n    tag_102:\n    tag_101:\n      0x20\n      mul\n      0x20\n      add\n      add\n        /* \"contracts/AuditLog.sol\":3103:3122  result[j] = logs[i] */\n      dup2\n      swap1\n      mstore\n      pop\n        /* \"contracts/AuditLog.sol\":3141:3144  j++ */\n      dup2\n      dup1\n      tag_103\n      swap1\n      tag_77\n      jump\t// in\n    tag_103:\n      swap3\n      pop\n      pop\n        /* \"contracts/AuditLog.sol\":3052:3160  if (logs[i].subject == subject) {... */\n    tag_91:\n        /* \"contracts/AuditLog.sol\":3032:3035  i++ */\n      dup1\n      dup1\n      0x01\n      add\n      swap2\n      pop\n      pop\n        /* \"contracts/AuditLog.sol\":2995:3171  for (uint256 i = 0; i < logs.length; i++) {... */\n      jump(tag_85)\n    tag_86:\n      pop\n        /* \"contracts/AuditLog.sol\":3188:3194  result */\n      dup2\n        /* \"contracts/AuditLog.sol\":3181:3194  return result */\n      swap4\n      pop\n      pop\n      pop\n      pop\n        /* \"contracts/AuditLog.sol\":2433:3202  function getLogsForSubject(address subject) external view returns (LogEntry[] memory) {... */\n      swap2\n      swap1\n      pop\n      jump\t// out\n        /* \"contracts/AuditLog.sol\":1591:1811  function transferOwnership(address newOwner) external onlyOwner {... */\n    tag_43:\n        /* \"contracts/AuditLog.sol\":1000:1005  owner */\n      0x00\n      0x00\n      swap1\n      sload\n      swap1\n      0x0100\n      exp\n      swap1\n      div\n      0xffffffffffffffffffffffffffffffffffffffff\n      and\n        /* \"contracts/AuditLog.sol\":986:1005  msg.sender == owner */\n      0xffffffffffffffffffffffffffffffffffffffff\n      and\n        /* \"contracts/AuditLog.sol\":986:996  msg.sender */\n      caller\n        /* \"contracts/AuditLog.sol\":986:1005  msg.sender == owner */\n      0xffffffffffffffffffffffffffffffffffffffff\n      and\n      eq\n        /* \"contracts/AuditLog.sol\":978:1029  require(msg.sender == owner, \"AuditLog: not owner\") */\n      tag_105\n      jumpi\n      mload(0x40)\n      0x08c379a000000000000000000000000000000000000000000000000000000000\n      dup2\n      mstore\n      0x04\n      add\n      tag_106\n      swap1\n      tag_61\n      jump\t// in\n    tag_106:\n      mload(0x40)\n      dup1\n      swap2\n      sub\n      swap1\n      revert\n    tag_105:\n        /* \"contracts/AuditLog.sol\":1694:1695  0 */\n      0x00\n        /* \"contracts/AuditLog.sol\":1674:1696  newOwner != address(0) */\n      0xffffffffffffffffffffffffffffffffffffffff\n      and\n        /* \"contracts/AuditLog.sol\":1674:1682  newOwner */\n      dup2\n        /* \"contracts/AuditLog.sol\":1674:1696  newOwner != address(0) */\n      0xffffffffffffffffffffffffffffffffffffffff\n      and\n      sub\n        /* \"contracts/AuditLog.sol\":1666:1723  require(newOwner != address(0), \"AuditLog: zero address\") */\n      tag_108\n      jumpi\n      mload(0x40)\n      0x08c379a000000000000000000000000000000000000000000000000000000000\n      dup2\n      mstore\n      0x04\n      add\n      tag_109\n      swap1\n      tag_110\n      jump\t// in\n    tag_109:\n      mload(0x40)\n      dup1\n      swap2\n      sub\n      swap1\n      revert\n    tag_108:\n        /* \"contracts/AuditLog.sol\":1767:1775  newOwner */\n      dup1\n        /* \"contracts/AuditLog.sol\":1739:1776  OwnershipTransferred(owner, newOwner) */\n      0xffffffffffffffffffffffffffffffffffffffff\n      and\n        /* \"contracts/AuditLog.sol\":1760:1765  owner */\n      0x00\n      0x00\n      swap1\n      sload\n      swap1\n      0x0100\n      exp\n      swap1\n      div\n      0xffffffffffffffffffffffffffffffffffffffff\n      and\n        /* \"contracts/AuditLog.sol\":1739:1776  OwnershipTransferred(owner, newOwner) */\n      0xffffffffffffffffffffffffffffffffffffffff\n      and\n      0x8be0079c531659141344cd1fd0a4f28419497f9722a3daafe3b4186f6b6457e0\n      mload(0x40)\n      mload(0x40)\n      dup1\n      swap2\n      sub\n      swap1\n      log3\n        /* \"contracts/AuditLog.sol\":1795:1803  newOwner */\n      dup1\n        /* \"contracts/AuditLog.sol\":1787:1792  owner */\n      0x00\n      0x00\n        /* \"contracts/AuditLog.sol\":1787:1803  owner = newOwner */\n      0x0100\n      exp\n      dup2\n      sload\n      dup2\n      0xffffffffffffffffffffffffffffffffffffffff\n      mul\n      not\n      and\n      swap1\n      dup4\n      0xffffffffffffffffffffffffffffffffffffffff\n      and\n      mul\n      or\n      swap1\n      sstore\n      pop\n        /* \"contracts/AuditLog.sol\":1591:1811  function transferOwnership(address newOwner) external onlyOwner {... */\n      pop\n      jump\t// out\n    tag_84:\n      mload(0x40)\n      dup1\n      0xa0\n      add\n      0x40\n      mstore\n      dup1\n      and(0xffffffffffffffffffffffffffffffffffffffff, 0x00)\n      dup2\n      mstore\n      0x20\n      add\n      and(0xffffffffffffffffffffffffffffffffffffffff, 0x00)\n      dup2\n      mstore\n      0x20\n      add\n      and(0xffffffffffffffffffffffffffffffffffffffff, 0x00)\n      dup2\n      mstore\n      0x20\n      add\n      0x60\n      dup2\n      mstore\n      0x20\n      add\n      0x00\n      dup2\n      mstore\n      pop\n      swap1\n      jump\t// out\n        /* \"#utility.yul\":88:205   */\n    tag_112:\n        /* \"#utility.yul\":197:198   */\n      0x00\n        /* \"#utility.yul\":194:195   */\n      0x00\n        /* \"#utility.yul\":187:199   */\n      revert\n        /* \"#utility.yul\":211:328   */\n    tag_113:\n        /* \"#utility.yul\":320:321   */\n      0x00\n        /* \"#utility.yul\":317:318   */\n      0x00\n        /* \"#utility.yul\":310:322   */\n      revert\n        /* \"#utility.yul\":334:460   */\n    tag_114:\n        /* \"#utility.yul\":371:378   */\n      0x00\n        /* \"#utility.yul\":411:453   */\n      0xffffffffffffffffffffffffffffffffffffffff\n        /* \"#utility.yul\":404:409   */\n      dup3\n        /* \"#utility.yul\":400:454   */\n      and\n        /* \"#utility.yul\":389:454   */\n      swap1\n      pop\n        /* \"#utility.yul\":334:460   */\n      swap2\n      swap1\n      pop\n      jump\t// out\n        /* \"#utility.yul\":466:562   */\n    tag_115:\n        /* \"#utility.yul\":503:510   */\n      0x00\n        /* \"#utility.yul\":532:556   */\n      tag_173\n        /* \"#utility.yul\":550:555   */\n      dup3\n        /* \"#utility.yul\":532:556   */\n      tag_114\n      jump\t// in\n    tag_173:\n        /* \"#utility.yul\":521:556   */\n      swap1\n      pop\n        /* \"#utility.yul\":466:562   */\n      swap2\n      swap1\n      pop\n      jump\t// out\n        /* \"#utility.yul\":568:690   */\n    tag_116:\n        /* \"#utility.yul\":641:665   */\n      tag_175\n        /* \"#utility.yul\":659:664   */\n      dup2\n        /* \"#utility.yul\":641:665   */\n      tag_115\n      jump\t// in\n    tag_175:\n        /* \"#utility.yul\":634:639   */\n      dup2\n        /* \"#utility.yul\":631:666   */\n      eq\n        /* \"#utility.yul\":621:684   */\n      tag_176\n      jumpi\n        /* \"#utility.yul\":680:681   */\n      0x00\n        /* \"#utility.yul\":677:678   */\n      0x00\n        /* \"#utility.yul\":670:682   */\n      revert\n        /* \"#utility.yul\":621:684   */\n    tag_176:\n        /* \"#utility.yul\":568:690   */\n      pop\n      jump\t// out\n        /* \"#utility.yul\":696:835   */\n    tag_117:\n        /* \"#utility.yul\":742:747   */\n      0x00\n        /* \"#utility.yul\":780:786   */\n      dup2\n        /* \"#utility.yul\":767:787   */\n      calldataload\n        /* \"#utility.yul\":758:787   */\n      swap1\n      pop\n        /* \"#utility.yul\":796:829   */\n      tag_178\n        /* \"#utility.yul\":823:828   */\n      dup2\n        /* \"#utility.yul\":796:829   */\n      tag_116\n      jump\t// in\n    tag_178:\n        /* \"#utility.yul\":696:835   */\n      swap3\n      swap2\n      pop\n      pop\n      jump\t// out\n        /* \"#utility.yul\":841:958   */\n    tag_118:\n        /* \"#utility.yul\":950:951   */\n      0x00\n        /* \"#utility.yul\":947:948   */\n      0x00\n        /* \"#utility.yul\":940:952   */\n      revert\n        /* \"#utility.yul\":964:1081   */\n    tag_119:\n        /* \"#utility.yul\":1073:1074   */\n      0x00\n        /* \"#utility.yul\":1070:1071   */\n      0x00\n        /* \"#utility.yul\":1063:1075   */\n      revert\n        /* \"#utility.yul\":1087:1204   */\n    tag_120:\n        /* \"#utility.yul\":1196:1197   */\n      0x00\n        /* \"#utility.yul\":1193:1194   */\n      0x00\n        /* \"#utility.yul\":1186:1198   */\n      revert\n        /* \"#utility.yul\":1224:1777   */\n    tag_121:\n        /* \"#utility.yul\":1282:1290   */\n      0x00\n        /* \"#utility.yul\":1292:1298   */\n      0x00\n        /* \"#utility.yul\":1342:1345   */\n      dup4\n        /* \"#utility.yul\":1335:1339   */\n      0x1f\n        /* \"#utility.yul\":1327:1333   */\n      dup5\n        /* \"#utility.yul\":1323:1340   */\n      add\n        /* \"#utility.yul\":1319:1346   */\n      slt\n        /* \"#utility.yul\":1309:1431   */\n      tag_183\n      jumpi\n        /* \"#utility.yul\":1350:1429   */\n      tag_184\n      tag_118\n      jump\t// in\n    tag_184:\n        /* \"#utility.yul\":1309:1431   */\n    tag_183:\n        /* \"#utility.yul\":1463:1469   */\n      dup3\n        /* \"#utility.yul\":1450:1470   */\n      calldataload\n        /* \"#utility.yul\":1440:1470   */\n      swap1\n      pop\n        /* \"#utility.yul\":1493:1511   */\n      0xffffffffffffffff\n        /* \"#utility.yul\":1485:1491   */\n      dup2\n        /* \"#utility.yul\":1482:1512   */\n      gt\n        /* \"#utility.yul\":1479:1596   */\n      iszero\n      tag_185\n      jumpi\n        /* \"#utility.yul\":1515:1594   */\n      tag_186\n      tag_119\n      jump\t// in\n    tag_186:\n        /* \"#utility.yul\":1479:1596   */\n    tag_185:\n        /* \"#utility.yul\":1629:1633   */\n      0x20\n        /* \"#utility.yul\":1621:1627   */\n      dup4\n        /* \"#utility.yul\":1617:1634   */\n      add\n        /* \"#utility.yul\":1605:1634   */\n      swap2\n      pop\n        /* \"#utility.yul\":1683:1686   */\n      dup4\n        /* \"#utility.yul\":1675:1679   */\n      0x01\n        /* \"#utility.yul\":1667:1673   */\n      dup3\n        /* \"#utility.yul\":1663:1680   */\n      mul\n        /* \"#utility.yul\":1653:1661   */\n      dup4\n        /* \"#utility.yul\":1649:1681   */\n      add\n        /* \"#utility.yul\":1646:1687   */\n      gt\n        /* \"#utility.yul\":1643:1771   */\n      iszero\n      tag_187\n      jumpi\n        /* \"#utility.yul\":1690:1769   */\n      tag_188\n      tag_120\n      jump\t// in\n    tag_188:\n        /* \"#utility.yul\":1643:1771   */\n    tag_187:\n        /* \"#utility.yul\":1224:1777   */\n      swap3\n      pop\n      swap3\n      swap1\n      pop\n      jump\t// out\n        /* \"#utility.yul\":1783:2748   */\n    tag_14:\n        /* \"#utility.yul\":1881:1887   */\n      0x00\n        /* \"#utility.yul\":1889:1895   */\n      0x00\n        /* \"#utility.yul\":1897:1903   */\n      0x00\n        /* \"#utility.yul\":1905:1911   */\n      0x00\n        /* \"#utility.yul\":1913:1919   */\n      0x00\n        /* \"#utility.yul\":1962:1965   */\n      0x80\n        /* \"#utility.yul\":1950:1959   */\n      dup7\n        /* \"#utility.yul\":1941:1948   */\n      dup9\n        /* \"#utility.yul\":1937:1960   */\n      sub\n        /* \"#utility.yul\":1933:1966   */\n      slt\n        /* \"#utility.yul\":1930:2050   */\n      iszero\n      tag_190\n      jumpi\n        /* \"#utility.yul\":1969:2048   */\n      tag_191\n      tag_112\n      jump\t// in\n    tag_191:\n        /* \"#utility.yul\":1930:2050   */\n    tag_190:\n        /* \"#utility.yul\":2089:2090   */\n      0x00\n        /* \"#utility.yul\":2114:2167   */\n      tag_192\n        /* \"#utility.yul\":2159:2166   */\n      dup9\n        /* \"#utility.yul\":2150:2156   */\n      dup3\n        /* \"#utility.yul\":2139:2148   */\n      dup10\n        /* \"#utility.yul\":2135:2157   */\n      add\n        /* \"#utility.yul\":2114:2167   */\n      tag_117\n      jump\t// in\n    tag_192:\n        /* \"#utility.yul\":2104:2167   */\n      swap6\n      pop\n        /* \"#utility.yul\":2060:2177   */\n      pop\n        /* \"#utility.yul\":2216:2218   */\n      0x20\n        /* \"#utility.yul\":2242:2295   */\n      tag_193\n        /* \"#utility.yul\":2287:2294   */\n      dup9\n        /* \"#utility.yul\":2278:2284   */\n      dup3\n        /* \"#utility.yul\":2267:2276   */\n      dup10\n        /* \"#utility.yul\":2263:2285   */\n      add\n        /* \"#utility.yul\":2242:2295   */\n      tag_117\n      jump\t// in\n    tag_193:\n        /* \"#utility.yul\":2232:2295   */\n      swap5\n      pop\n        /* \"#utility.yul\":2187:2305   */\n      pop\n        /* \"#utility.yul\":2344:2346   */\n      0x40\n        /* \"#utility.yul\":2370:2423   */\n      tag_194\n        /* \"#utility.yul\":2415:2422   */\n      dup9\n        /* \"#utility.yul\":2406:2412   */\n      dup3\n        /* \"#utility.yul\":2395:2404   */\n      dup10\n        /* \"#utility.yul\":2391:2413   */\n      add\n        /* \"#utility.yul\":2370:2423   */\n      tag_117\n      jump\t// in\n    tag_194:\n        /* \"#utility.yul\":2360:2423   */\n      swap4\n      pop\n        /* \"#utility.yul\":2315:2433   */\n      pop\n        /* \"#utility.yul\":2500:2502   */\n      0x60\n        /* \"#utility.yul\":2489:2498   */\n      dup7\n        /* \"#utility.yul\":2485:2503   */\n      add\n        /* \"#utility.yul\":2472:2504   */\n      calldataload\n        /* \"#utility.yul\":2531:2549   */\n      0xffffffffffffffff\n        /* \"#utility.yul\":2523:2529   */\n      dup2\n        /* \"#utility.yul\":2520:2550   */\n      gt\n        /* \"#utility.yul\":2517:2634   */\n      iszero\n      tag_195\n      jumpi\n        /* \"#utility.yul\":2553:2632   */\n      tag_196\n      tag_113\n      jump\t// in\n    tag_196:\n        /* \"#utility.yul\":2517:2634   */\n    tag_195:\n        /* \"#utility.yul\":2666:2731   */\n      tag_197\n        /* \"#utility.yul\":2723:2730   */\n      dup9\n        /* \"#utility.yul\":2714:2720   */\n      dup3\n        /* \"#utility.yul\":2703:2712   */\n      dup10\n        /* \"#utility.yul\":2699:2721   */\n      add\n        /* \"#utility.yul\":2666:2731   */\n      tag_121\n      jump\t// in\n    tag_197:\n        /* \"#utility.yul\":2648:2731   */\n      swap3\n      pop\n      swap3\n      pop\n        /* \"#utility.yul\":2443:2741   */\n      pop\n        /* \"#utility.yul\":1783:2748   */\n      swap3\n      swap6\n      pop\n      swap3\n      swap6\n      swap1\n      swap4\n      pop\n      jump\t// out\n        /* \"#utility.yul\":2754:2831   */\n    tag_122:\n        /* \"#utility.yul\":2791:2798   */\n      0x00\n        /* \"#utility.yul\":2820:2825   */\n      dup2\n        /* \"#utility.yul\":2809:2825   */\n      swap1\n      pop\n        /* \"#utility.yul\":2754:2831   */\n      swap2\n      swap1\n      pop\n      jump\t// out\n        /* \"#utility.yul\":2837:2955   */\n    tag_123:\n        /* \"#utility.yul\":2924:2948   */\n      tag_200\n        /* \"#utility.yul\":2942:2947   */\n      dup2\n        /* \"#utility.yul\":2924:2948   */\n      tag_122\n      jump\t// in\n    tag_200:\n        /* \"#utility.yul\":2919:2922   */\n      dup3\n        /* \"#utility.yul\":2912:2949   */\n      mstore\n        /* \"#utility.yul\":2837:2955   */\n      pop\n      pop\n      jump\t// out\n        /* \"#utility.yul\":2961:3183   */\n    tag_19:\n        /* \"#utility.yul\":3054:3058   */\n      0x00\n        /* \"#utility.yul\":3092:3094   */\n      0x20\n        /* \"#utility.yul\":3081:3090   */\n      dup3\n        /* \"#utility.yul\":3077:3095   */\n      add\n        /* \"#utility.yul\":3069:3095   */\n      swap1\n      pop\n        /* \"#utility.yul\":3105:3176   */\n      tag_202\n        /* \"#utility.yul\":3173:3174   */\n      0x00\n        /* \"#utility.yul\":3162:3171   */\n      dup4\n        /* \"#utility.yul\":3158:3175   */\n      add\n        /* \"#utility.yul\":3149:3155   */\n      dup5\n        /* \"#utility.yul\":3105:3176   */\n      tag_123\n      jump\t// in\n    tag_202:\n        /* \"#utility.yul\":2961:3183   */\n      swap3\n      swap2\n      pop\n      pop\n      jump\t// out\n        /* \"#utility.yul\":3189:3518   */\n    tag_22:\n        /* \"#utility.yul\":3248:3254   */\n      0x00\n        /* \"#utility.yul\":3297:3299   */\n      0x20\n        /* \"#utility.yul\":3285:3294   */\n      dup3\n        /* \"#utility.yul\":3276:3283   */\n      dup5\n        /* \"#utility.yul\":3272:3295   */\n      sub\n        /* \"#utility.yul\":3268:3300   */\n      slt\n        /* \"#utility.yul\":3265:3384   */\n      iszero\n      tag_204\n      jumpi\n        /* \"#utility.yul\":3303:3382   */\n      tag_205\n      tag_112\n      jump\t// in\n    tag_205:\n        /* \"#utility.yul\":3265:3384   */\n    tag_204:\n        /* \"#utility.yul\":3423:3424   */\n      0x00\n        /* \"#utility.yul\":3448:3501   */\n      tag_206\n        /* \"#utility.yul\":3493:3500   */\n      dup5\n        /* \"#utility.yul\":3484:3490   */\n      dup3\n        /* \"#utility.yul\":3473:3482   */\n      dup6\n        /* \"#utility.yul\":3469:3491   */\n      add\n        /* \"#utility.yul\":3448:3501   */\n      tag_117\n      jump\t// in\n    tag_206:\n        /* \"#utility.yul\":3438:3501   */\n      swap2\n      pop\n        /* \"#utility.yul\":3394:3511   */\n      pop\n        /* \"#utility.yul\":3189:3518   */\n      swap3\n      swap2\n      pop\n      pop\n      jump\t// out\n        /* \"#utility.yul\":3524:3642   */\n    tag_124:\n        /* \"#utility.yul\":3611:3635   */\n      tag_208\n        /* \"#utility.yul\":3629:3634   */\n      dup2\n        /* \"#utility.yul\":3611:3635   */\n      tag_115\n      jump\t// in\n    tag_208:\n        /* \"#utility.yul\":3606:3609   */\n      dup3\n        /* \"#utility.yul\":3599:3636   */\n      mstore\n        /* \"#utility.yul\":3524:3642   */\n      pop\n      pop\n      jump\t// out\n        /* \"#utility.yul\":3648:3870   */\n    tag_30:\n        /* \"#utility.yul\":3741:3745   */\n      0x00\n        /* \"#utility.yul\":3779:3781   */\n      0x20\n        /* \"#utility.yul\":3768:3777   */\n      dup3\n        /* \"#utility.yul\":3764:3782   */\n      add\n        /* \"#utility.yul\":3756:3782   */\n      swap1\n      pop\n        /* \"#utility.yul\":3792:3863   */\n      tag_210\n        /* \"#utility.yul\":3860:3861   */\n      0x00\n        /* \"#utility.yul\":3849:3858   */\n      dup4\n        /* \"#utility.yul\":3845:3862   */\n      add\n        /* \"#utility.yul\":3836:3842   */\n      dup5\n        /* \"#utility.yul\":3792:3863   */\n      tag_124\n      jump\t// in\n    tag_210:\n        /* \"#utility.yul\":3648:3870   */\n      swap3\n      swap2\n      pop\n      pop\n      jump\t// out\n        /* \"#utility.yul\":3876:3966   */\n    tag_125:\n        /* \"#utility.yul\":3910:3917   */\n      0x00\n        /* \"#utility.yul\":3953:3958   */\n      dup2\n        /* \"#utility.yul\":3946:3959   */\n      iszero\n        /* \"#utility.yul\":3939:3960   */\n      iszero\n        /* \"#utility.yul\":3928:3960   */\n      swap1\n      pop\n        /* \"#utility.yul\":3876:3966   */\n      swap2\n      swap1\n      pop\n      jump\t// out\n        /* \"#utility.yul\":3972:4081   */\n    tag_126:\n        /* \"#utility.yul\":4053:4074   */\n      tag_213\n        /* \"#utility.yul\":4068:4073   */\n      dup2\n        /* \"#utility.yul\":4053:4074   */\n      tag_125\n      jump\t// in\n    tag_213:\n        /* \"#utility.yul\":4048:4051   */\n      dup3\n        /* \"#utility.yul\":4041:4075   */\n      mstore\n        /* \"#utility.yul\":3972:4081   */\n      pop\n      pop\n      jump\t// out\n        /* \"#utility.yul\":4087:4297   */\n    tag_35:\n        /* \"#utility.yul\":4174:4178   */\n      0x00\n        /* \"#utility.yul\":4212:4214   */\n      0x20\n        /* \"#utility.yul\":4201:4210   */\n      dup3\n        /* \"#utility.yul\":4197:4215   */\n      add\n        /* \"#utility.yul\":4189:4215   */\n      swap1\n      pop\n        /* \"#utility.yul\":4225:4290   */\n      tag_215\n        /* \"#utility.yul\":4287:4288   */\n      0x00\n        /* \"#utility.yul\":4276:4285   */\n      dup4\n        /* \"#utility.yul\":4272:4289   */\n      add\n        /* \"#utility.yul\":4263:4269   */\n      dup5\n        /* \"#utility.yul\":4225:4290   */\n      tag_126\n      jump\t// in\n    tag_215:\n        /* \"#utility.yul\":4087:4297   */\n      swap3\n      swap2\n      pop\n      pop\n      jump\t// out\n        /* \"#utility.yul\":4303:4441   */\n    tag_127:\n        /* \"#utility.yul\":4394:4400   */\n      0x00\n        /* \"#utility.yul\":4428:4433   */\n      dup2\n        /* \"#utility.yul\":4422:4434   */\n      mload\n        /* \"#utility.yul\":4412:4434   */\n      swap1\n      pop\n        /* \"#utility.yul\":4303:4441   */\n      swap2\n      swap1\n      pop\n      jump\t// out\n        /* \"#utility.yul\":4447:4655   */\n    tag_128:\n        /* \"#utility.yul\":4570:4581   */\n      0x00\n        /* \"#utility.yul\":4604:4610   */\n      dup3\n        /* \"#utility.yul\":4599:4602   */\n      dup3\n        /* \"#utility.yul\":4592:4611   */\n      mstore\n        /* \"#utility.yul\":4644:4648   */\n      0x20\n        /* \"#utility.yul\":4639:4642   */\n      dup3\n        /* \"#utility.yul\":4635:4649   */\n      add\n        /* \"#utility.yul\":4620:4649   */\n      swap1\n      pop\n        /* \"#utility.yul\":4447:4655   */\n      swap3\n      swap2\n      pop\n      pop\n      jump\t// out\n        /* \"#utility.yul\":4661:4817   */\n    tag_129:\n        /* \"#utility.yul\":4752:4756   */\n      0x00\n        /* \"#utility.yul\":4775:4778   */\n      dup2\n        /* \"#utility.yul\":4767:4778   */\n      swap1\n      pop\n        /* \"#utility.yul\":4805:4809   */\n      0x20\n        /* \"#utility.yul\":4800:4803   */\n      dup3\n        /* \"#utility.yul\":4796:4810   */\n      add\n        /* \"#utility.yul\":4788:4810   */\n      swap1\n      pop\n        /* \"#utility.yul\":4661:4817   */\n      swap2\n      swap1\n      pop\n      jump\t// out\n        /* \"#utility.yul\":4823:4931   */\n    tag_130:\n        /* \"#utility.yul\":4900:4924   */\n      tag_220\n        /* \"#utility.yul\":4918:4923   */\n      dup2\n        /* \"#utility.yul\":4900:4924   */\n      tag_115\n      jump\t// in\n    tag_220:\n        /* \"#utility.yul\":4895:4898   */\n      dup3\n        /* \"#utility.yul\":4888:4925   */\n      mstore\n        /* \"#utility.yul\":4823:4931   */\n      pop\n      pop\n      jump\t// out\n        /* \"#utility.yul\":4937:5036   */\n    tag_131:\n        /* \"#utility.yul\":4989:4995   */\n      0x00\n        /* \"#utility.yul\":5023:5028   */\n      dup2\n        /* \"#utility.yul\":5017:5029   */\n      mload\n        /* \"#utility.yul\":5007:5029   */\n      swap1\n      pop\n        /* \"#utility.yul\":4937:5036   */\n      swap2\n      swap1\n      pop\n      jump\t// out\n        /* \"#utility.yul\":5042:5201   */\n    tag_132:\n        /* \"#utility.yul\":5116:5127   */\n      0x00\n        /* \"#utility.yul\":5150:5156   */\n      dup3\n        /* \"#utility.yul\":5145:5148   */\n      dup3\n        /* \"#utility.yul\":5138:5157   */\n      mstore\n        /* \"#utility.yul\":5190:5194   */\n      0x20\n        /* \"#utility.yul\":5185:5188   */\n      dup3\n        /* \"#utility.yul\":5181:5195   */\n      add\n        /* \"#utility.yul\":5166:5195   */\n      swap1\n      pop\n        /* \"#utility.yul\":5042:5201   */\n      swap3\n      swap2\n      pop\n      pop\n      jump\t// out\n        /* \"#utility.yul\":5207:5346   */\n    tag_133:\n        /* \"#utility.yul\":5296:5302   */\n      dup3\n        /* \"#utility.yul\":5291:5294   */\n      dup2\n        /* \"#utility.yul\":5286:5289   */\n      dup4\n        /* \"#utility.yul\":5280:5303   */\n      mcopy\n        /* \"#utility.yul\":5337:5338   */\n      0x00\n        /* \"#utility.yul\":5328:5334   */\n      dup4\n        /* \"#utility.yul\":5323:5326   */\n      dup4\n        /* \"#utility.yul\":5319:5335   */\n      add\n        /* \"#utility.yul\":5312:5339   */\n      mstore\n        /* \"#utility.yul\":5207:5346   */\n      pop\n      pop\n      pop\n      jump\t// out\n        /* \"#utility.yul\":5352:5454   */\n    tag_134:\n        /* \"#utility.yul\":5393:5399   */\n      0x00\n        /* \"#utility.yul\":5444:5446   */\n      0x1f\n        /* \"#utility.yul\":5440:5447   */\n      not\n        /* \"#utility.yul\":5435:5437   */\n      0x1f\n        /* \"#utility.yul\":5428:5433   */\n      dup4\n        /* \"#utility.yul\":5424:5438   */\n      add\n        /* \"#utility.yul\":5420:5448   */\n      and\n        /* \"#utility.yul\":5410:5448   */\n      swap1\n      pop\n        /* \"#utility.yul\":5352:5454   */\n      swap2\n      swap1\n      pop\n      jump\t// out\n        /* \"#utility.yul\":5460:5817   */\n    tag_135:\n        /* \"#utility.yul\":5538:5541   */\n      0x00\n        /* \"#utility.yul\":5566:5605   */\n      tag_226\n        /* \"#utility.yul\":5599:5604   */\n      dup3\n        /* \"#utility.yul\":5566:5605   */\n      tag_131\n      jump\t// in\n    tag_226:\n        /* \"#utility.yul\":5621:5682   */\n      tag_227\n        /* \"#utility.yul\":5675:5681   */\n      dup2\n        /* \"#utility.yul\":5670:5673   */\n      dup6\n        /* \"#utility.yul\":5621:5682   */\n      tag_132\n      jump\t// in\n    tag_227:\n        /* \"#utility.yul\":5614:5682   */\n      swap4\n      pop\n        /* \"#utility.yul\":5691:5756   */\n      tag_228\n        /* \"#utility.yul\":5749:5755   */\n      dup2\n        /* \"#utility.yul\":5744:5747   */\n      dup6\n        /* \"#utility.yul\":5737:5741   */\n      0x20\n        /* \"#utility.yul\":5730:5735   */\n      dup7\n        /* \"#utility.yul\":5726:5742   */\n      add\n        /* \"#utility.yul\":5691:5756   */\n      tag_133\n      jump\t// in\n    tag_228:\n        /* \"#utility.yul\":5781:5810   */\n      tag_229\n        /* \"#utility.yul\":5803:5809   */\n      dup2\n        /* \"#utility.yul\":5781:5810   */\n      tag_134\n      jump\t// in\n    tag_229:\n        /* \"#utility.yul\":5776:5779   */\n      dup5\n        /* \"#utility.yul\":5772:5811   */\n      add\n        /* \"#utility.yul\":5765:5811   */\n      swap2\n      pop\n        /* \"#utility.yul\":5542:5817   */\n      pop\n        /* \"#utility.yul\":5460:5817   */\n      swap3\n      swap2\n      pop\n      pop\n      jump\t// out\n        /* \"#utility.yul\":5823:5931   */\n    tag_136:\n        /* \"#utility.yul\":5900:5924   */\n      tag_231\n        /* \"#utility.yul\":5918:5923   */\n      dup2\n        /* \"#utility.yul\":5900:5924   */\n      tag_122\n      jump\t// in\n    tag_231:\n        /* \"#utility.yul\":5895:5898   */\n      dup3\n        /* \"#utility.yul\":5888:5925   */\n      mstore\n        /* \"#utility.yul\":5823:5931   */\n      pop\n      pop\n      jump\t// out\n        /* \"#utility.yul\":5997:7132   */\n    tag_137:\n        /* \"#utility.yul\":6104:6107   */\n      0x00\n        /* \"#utility.yul\":6140:6144   */\n      0xa0\n        /* \"#utility.yul\":6135:6138   */\n      dup4\n        /* \"#utility.yul\":6131:6145   */\n      add\n        /* \"#utility.yul\":6228:6232   */\n      0x00\n        /* \"#utility.yul\":6221:6226   */\n      dup4\n        /* \"#utility.yul\":6217:6233   */\n      add\n        /* \"#utility.yul\":6211:6234   */\n      mload\n        /* \"#utility.yul\":6247:6310   */\n      tag_233\n        /* \"#utility.yul\":6304:6308   */\n      0x00\n        /* \"#utility.yul\":6299:6302   */\n      dup7\n        /* \"#utility.yul\":6295:6309   */\n      add\n        /* \"#utility.yul\":6281:6293   */\n      dup3\n        /* \"#utility.yul\":6247:6310   */\n      tag_130\n      jump\t// in\n    tag_233:\n        /* \"#utility.yul\":6155:6320   */\n      pop\n        /* \"#utility.yul\":6405:6409   */\n      0x20\n        /* \"#utility.yul\":6398:6403   */\n      dup4\n        /* \"#utility.yul\":6394:6410   */\n      add\n        /* \"#utility.yul\":6388:6411   */\n      mload\n        /* \"#utility.yul\":6424:6487   */\n      tag_234\n        /* \"#utility.yul\":6481:6485   */\n      0x20\n        /* \"#utility.yul\":6476:6479   */\n      dup7\n        /* \"#utility.yul\":6472:6486   */\n      add\n        /* \"#utility.yul\":6458:6470   */\n      dup3\n        /* \"#utility.yul\":6424:6487   */\n      tag_130\n      jump\t// in\n    tag_234:\n        /* \"#utility.yul\":6330:6497   */\n      pop\n        /* \"#utility.yul\":6587:6591   */\n      0x40\n        /* \"#utility.yul\":6580:6585   */\n      dup4\n        /* \"#utility.yul\":6576:6592   */\n      add\n        /* \"#utility.yul\":6570:6593   */\n      mload\n        /* \"#utility.yul\":6606:6669   */\n      tag_235\n        /* \"#utility.yul\":6663:6667   */\n      0x40\n        /* \"#utility.yul\":6658:6661   */\n      dup7\n        /* \"#utility.yul\":6654:6668   */\n      add\n        /* \"#utility.yul\":6640:6652   */\n      dup3\n        /* \"#utility.yul\":6606:6669   */\n      tag_130\n      jump\t// in\n    tag_235:\n        /* \"#utility.yul\":6507:6679   */\n      pop\n        /* \"#utility.yul\":6763:6767   */\n      0x60\n        /* \"#utility.yul\":6756:6761   */\n      dup4\n        /* \"#utility.yul\":6752:6768   */\n      add\n        /* \"#utility.yul\":6746:6769   */\n      mload\n        /* \"#utility.yul\":6816:6819   */\n      dup5\n        /* \"#utility.yul\":6810:6814   */\n      dup3\n        /* \"#utility.yul\":6806:6820   */\n      sub\n        /* \"#utility.yul\":6799:6803   */\n      0x60\n        /* \"#utility.yul\":6794:6797   */\n      dup7\n        /* \"#utility.yul\":6790:6804   */\n      add\n        /* \"#utility.yul\":6783:6821   */\n      mstore\n        /* \"#utility.yul\":6842:6915   */\n      tag_236\n        /* \"#utility.yul\":6910:6914   */\n      dup3\n        /* \"#utility.yul\":6896:6908   */\n      dup3\n        /* \"#utility.yul\":6842:6915   */\n      tag_135\n      jump\t// in\n    tag_236:\n        /* \"#utility.yul\":6834:6915   */\n      swap2\n      pop\n        /* \"#utility.yul\":6689:6926   */\n      pop\n        /* \"#utility.yul\":7013:7017   */\n      0x80\n        /* \"#utility.yul\":7006:7011   */\n      dup4\n        /* \"#utility.yul\":7002:7018   */\n      add\n        /* \"#utility.yul\":6996:7019   */\n      mload\n        /* \"#utility.yul\":7032:7095   */\n      tag_237\n        /* \"#utility.yul\":7089:7093   */\n      0x80\n        /* \"#utility.yul\":7084:7087   */\n      dup7\n        /* \"#utility.yul\":7080:7094   */\n      add\n        /* \"#utility.yul\":7066:7078   */\n      dup3\n        /* \"#utility.yul\":7032:7095   */\n      tag_136\n      jump\t// in\n    tag_237:\n        /* \"#utility.yul\":6936:7105   */\n      pop\n        /* \"#utility.yul\":7122:7126   */\n      dup1\n        /* \"#utility.yul\":7115:7126   */\n      swap2\n      pop\n        /* \"#utility.yul\":6109:7132   */\n      pop\n        /* \"#utility.yul\":5997:7132   */\n      swap3\n      swap2\n      pop\n      pop\n      jump\t// out\n        /* \"#utility.yul\":7138:7390   */\n    tag_138:\n        /* \"#utility.yul\":7255:7265   */\n      0x00\n        /* \"#utility.yul\":7290:7384   */\n      tag_239\n        /* \"#utility.yul\":7380:7383   */\n      dup4\n        /* \"#utility.yul\":7372:7378   */\n      dup4\n        /* \"#utility.yul\":7290:7384   */\n      tag_137\n      jump\t// in\n    tag_239:\n        /* \"#utility.yul\":7276:7384   */\n      swap1\n      pop\n        /* \"#utility.yul\":7138:7390   */\n      swap3\n      swap2\n      pop\n      pop\n      jump\t// out\n        /* \"#utility.yul\":7396:7533   */\n    tag_139:\n        /* \"#utility.yul\":7490:7494   */\n      0x00\n        /* \"#utility.yul\":7522:7526   */\n      0x20\n        /* \"#utility.yul\":7517:7520   */\n      dup3\n        /* \"#utility.yul\":7513:7527   */\n      add\n        /* \"#utility.yul\":7505:7527   */\n      swap1\n      pop\n        /* \"#utility.yul\":7396:7533   */\n      swap2\n      swap1\n      pop\n      jump\t// out\n        /* \"#utility.yul\":7603:8706   */\n    tag_140:\n        /* \"#utility.yul\":7770:7773   */\n      0x00\n        /* \"#utility.yul\":7799:7877   */\n      tag_242\n        /* \"#utility.yul\":7871:7876   */\n      dup3\n        /* \"#utility.yul\":7799:7877   */\n      tag_127\n      jump\t// in\n    tag_242:\n        /* \"#utility.yul\":7893:8003   */\n      tag_243\n        /* \"#utility.yul\":7996:8002   */\n      dup2\n        /* \"#utility.yul\":7991:7994   */\n      dup6\n        /* \"#utility.yul\":7893:8003   */\n      tag_128\n      jump\t// in\n    tag_243:\n        /* \"#utility.yul\":7886:8003   */\n      swap4\n      pop\n        /* \"#utility.yul\":8029:8032   */\n      dup4\n        /* \"#utility.yul\":8074:8078   */\n      0x20\n        /* \"#utility.yul\":8066:8072   */\n      dup3\n        /* \"#utility.yul\":8062:8079   */\n      mul\n        /* \"#utility.yul\":8057:8060   */\n      dup6\n        /* \"#utility.yul\":8053:8080   */\n      add\n        /* \"#utility.yul\":8104:8184   */\n      tag_244\n        /* \"#utility.yul\":8178:8183   */\n      dup6\n        /* \"#utility.yul\":8104:8184   */\n      tag_129\n      jump\t// in\n    tag_244:\n        /* \"#utility.yul\":8207:8214   */\n      dup1\n        /* \"#utility.yul\":8238:8239   */\n      0x00\n        /* \"#utility.yul\":8223:8661   */\n    tag_245:\n        /* \"#utility.yul\":8248:8254   */\n      dup6\n        /* \"#utility.yul\":8245:8246   */\n      dup2\n        /* \"#utility.yul\":8242:8255   */\n      lt\n        /* \"#utility.yul\":8223:8661   */\n      iszero\n      tag_247\n      jumpi\n        /* \"#utility.yul\":8319:8328   */\n      dup5\n        /* \"#utility.yul\":8313:8317   */\n      dup5\n        /* \"#utility.yul\":8309:8329   */\n      sub\n        /* \"#utility.yul\":8304:8307   */\n      dup10\n        /* \"#utility.yul\":8297:8330   */\n      mstore\n        /* \"#utility.yul\":8370:8376   */\n      dup2\n        /* \"#utility.yul\":8364:8377   */\n      mload\n        /* \"#utility.yul\":8398:8510   */\n      tag_248\n        /* \"#utility.yul\":8505:8509   */\n      dup6\n        /* \"#utility.yul\":8490:8503   */\n      dup3\n        /* \"#utility.yul\":8398:8510   */\n      tag_138\n      jump\t// in\n    tag_248:\n        /* \"#utility.yul\":8390:8510   */\n      swap5\n      pop\n        /* \"#utility.yul\":8533:8617   */\n      tag_249\n        /* \"#utility.yul\":8610:8616   */\n      dup4\n        /* \"#utility.yul\":8533:8617   */\n      tag_139\n      jump\t// in\n    tag_249:\n        /* \"#utility.yul\":8523:8617   */\n      swap3\n      pop\n        /* \"#utility.yul\":8646:8650   */\n      0x20\n        /* \"#utility.yul\":8641:8644   */\n      dup11\n        /* \"#utility.yul\":8637:8651   */\n      add\n        /* \"#utility.yul\":8630:8651   */\n      swap10\n      pop\n        /* \"#utility.yul\":8283:8661   */\n      pop\n        /* \"#utility.yul\":8270:8271   */\n      0x01\n        /* \"#utility.yul\":8267:8268   */\n      dup2\n        /* \"#utility.yul\":8263:8272   */\n      add\n        /* \"#utility.yul\":8258:8272   */\n      swap1\n      pop\n        /* \"#utility.yul\":8223:8661   */\n      jump(tag_245)\n    tag_247:\n        /* \"#utility.yul\":8227:8241   */\n      pop\n        /* \"#utility.yul\":8677:8681   */\n      dup3\n        /* \"#utility.yul\":8670:8681   */\n      swap8\n      pop\n        /* \"#utility.yul\":8697:8700   */\n      dup8\n        /* \"#utility.yul\":8690:8700   */\n      swap6\n      pop\n        /* \"#utility.yul\":7775:8706   */\n      pop\n      pop\n      pop\n      pop\n      pop\n        /* \"#utility.yul\":7603:8706   */\n      swap3\n      swap2\n      pop\n      pop\n      jump\t// out\n        /* \"#utility.yul\":8712:9181   */\n    tag_40:\n        /* \"#utility.yul\":8903:8907   */\n      0x00\n        /* \"#utility.yul\":8941:8943   */\n      0x20\n        /* \"#utility.yul\":8930:8939   */\n      dup3\n        /* \"#utility.yul\":8926:8944   */\n      add\n        /* \"#utility.yul\":8918:8944   */\n      swap1\n      pop\n        /* \"#utility.yul\":8990:8999   */\n      dup2\n        /* \"#utility.yul\":8984:8988   */\n      dup2\n        /* \"#utility.yul\":8980:9000   */\n      sub\n        /* \"#utility.yul\":8976:8977   */\n      0x00\n        /* \"#utility.yul\":8965:8974   */\n      dup4\n        /* \"#utility.yul\":8961:8978   */\n      add\n        /* \"#utility.yul\":8954:9001   */\n      mstore\n        /* \"#utility.yul\":9018:9174   */\n      tag_251\n        /* \"#utility.yul\":9169:9173   */\n      dup2\n        /* \"#utility.yul\":9160:9166   */\n      dup5\n        /* \"#utility.yul\":9018:9174   */\n      tag_140\n      jump\t// in\n    tag_251:\n        /* \"#utility.yul\":9010:9174   */\n      swap1\n      pop\n        /* \"#utility.yul\":8712:9181   */\n      swap3\n      swap2\n      pop\n      pop\n      jump\t// out\n        /* \"#utility.yul\":9187:9356   */\n    tag_141:\n        /* \"#utility.yul\":9271:9282   */\n      0x00\n        /* \"#utility.yul\":9305:9311   */\n      dup3\n        /* \"#utility.yul\":9300:9303   */\n      dup3\n        /* \"#utility.yul\":9293:9312   */\n      mstore\n        /* \"#utility.yul\":9345:9349   */\n      0x20\n        /* \"#utility.yul\":9340:9343   */\n      dup3\n        /* \"#utility.yul\":9336:9350   */\n      add\n        /* \"#utility.yul\":9321:9350   */\n      swap1\n      pop\n        /* \"#utility.yul\":9187:9356   */\n      swap3\n      swap2\n      pop\n      pop\n      jump\t// out\n        /* \"#utility.yul\":9362:9536   */\n    tag_142:\n        /* \"#utility.yul\":9502:9528   */\n      0x41756469744c6f673a206e6f7420617574686f72697365640000000000000000\n        /* \"#utility.yul\":9498:9499   */\n      0x00\n        /* \"#utility.yul\":9490:9496   */\n      dup3\n        /* \"#utility.yul\":9486:9500   */\n      add\n        /* \"#utility.yul\":9479:9529   */\n      mstore\n        /* \"#utility.yul\":9362:9536   */\n      pop\n      jump\t// out\n        /* \"#utility.yul\":9542:9908   */\n    tag_143:\n        /* \"#utility.yul\":9684:9687   */\n      0x00\n        /* \"#utility.yul\":9705:9772   */\n      tag_255\n        /* \"#utility.yul\":9769:9771   */\n      0x18\n        /* \"#utility.yul\":9764:9767   */\n      dup4\n        /* \"#utility.yul\":9705:9772   */\n      tag_141\n      jump\t// in\n    tag_255:\n        /* \"#utility.yul\":9698:9772   */\n      swap2\n      pop\n        /* \"#utility.yul\":9781:9874   */\n      tag_256\n        /* \"#utility.yul\":9870:9873   */\n      dup3\n        /* \"#utility.yul\":9781:9874   */\n      tag_142\n      jump\t// in\n    tag_256:\n        /* \"#utility.yul\":9899:9901   */\n      0x20\n        /* \"#utility.yul\":9894:9897   */\n      dup3\n        /* \"#utility.yul\":9890:9902   */\n      add\n        /* \"#utility.yul\":9883:9902   */\n      swap1\n      pop\n        /* \"#utility.yul\":9542:9908   */\n      swap2\n      swap1\n      pop\n      jump\t// out\n        /* \"#utility.yul\":9914:10333   */\n    tag_48:\n        /* \"#utility.yul\":10080:10084   */\n      0x00\n        /* \"#utility.yul\":10118:10120   */\n      0x20\n        /* \"#utility.yul\":10107:10116   */\n      dup3\n        /* \"#utility.yul\":10103:10121   */\n      add\n        /* \"#utility.yul\":10095:10121   */\n      swap1\n      pop\n        /* \"#utility.yul\":10167:10176   */\n      dup2\n        /* \"#utility.yul\":10161:10165   */\n      dup2\n        /* \"#utility.yul\":10157:10177   */\n      sub\n        /* \"#utility.yul\":10153:10154   */\n      0x00\n        /* \"#utility.yul\":10142:10151   */\n      dup4\n        /* \"#utility.yul\":10138:10155   */\n      add\n        /* \"#utility.yul\":10131:10178   */\n      mstore\n        /* \"#utility.yul\":10195:10326   */\n      tag_258\n        /* \"#utility.yul\":10321:10325   */\n      dup2\n        /* \"#utility.yul\":10195:10326   */\n      tag_143\n      jump\t// in\n    tag_258:\n        /* \"#utility.yul\":10187:10326   */\n      swap1\n      pop\n        /* \"#utility.yul\":9914:10333   */\n      swap2\n      swap1\n      pop\n      jump\t// out\n        /* \"#utility.yul\":10339:10519   */\n    tag_80:\n        /* \"#utility.yul\":10387:10464   */\n      0x4e487b7100000000000000000000000000000000000000000000000000000000\n        /* \"#utility.yul\":10384:10385   */\n      0x00\n        /* \"#utility.yul\":10377:10465   */\n      mstore\n        /* \"#utility.yul\":10484:10488   */\n      0x41\n        /* \"#utility.yul\":10481:10482   */\n      0x04\n        /* \"#utility.yul\":10474:10489   */\n      mstore\n        /* \"#utility.yul\":10508:10512   */\n      0x24\n        /* \"#utility.yul\":10505:10506   */\n      0x00\n        /* \"#utility.yul\":10498:10513   */\n      revert\n        /* \"#utility.yul\":10525:10705   */\n    tag_144:\n        /* \"#utility.yul\":10573:10650   */\n      0x4e487b7100000000000000000000000000000000000000000000000000000000\n        /* \"#utility.yul\":10570:10571   */\n      0x00\n        /* \"#utility.yul\":10563:10651   */\n      mstore\n        /* \"#utility.yul\":10670:10674   */\n      0x22\n        /* \"#utility.yul\":10667:10668   */\n      0x04\n        /* \"#utility.yul\":10660:10675   */\n      mstore\n        /* \"#utility.yul\":10694:10698   */\n      0x24\n        /* \"#utility.yul\":10691:10692   */\n      0x00\n        /* \"#utility.yul\":10684:10699   */\n      revert\n        /* \"#utility.yul\":10711:11031   */\n    tag_96:\n        /* \"#utility.yul\":10755:10761   */\n      0x00\n        /* \"#utility.yul\":10792:10793   */\n      0x02\n        /* \"#utility.yul\":10786:10790   */\n      dup3\n        /* \"#utility.yul\":10782:10794   */\n      div\n        /* \"#utility.yul\":10772:10794   */\n      swap1\n      pop\n        /* \"#utility.yul\":10839:10840   */\n      0x01\n        /* \"#utility.yul\":10833:10837   */\n      dup3\n        /* \"#utility.yul\":10829:10841   */\n      and\n        /* \"#utility.yul\":10860:10878   */\n      dup1\n        /* \"#utility.yul\":10850:10931   */\n      tag_262\n      jumpi\n        /* \"#utility.yul\":10916:10920   */\n      0x7f\n        /* \"#utility.yul\":10908:10914   */\n      dup3\n        /* \"#utility.yul\":10904:10921   */\n      and\n        /* \"#utility.yul\":10894:10921   */\n      swap2\n      pop\n        /* \"#utility.yul\":10850:10931   */\n    tag_262:\n        /* \"#utility.yul\":10978:10980   */\n      0x20\n        /* \"#utility.yul\":10970:10976   */\n      dup3\n        /* \"#utility.yul\":10967:10981   */\n      lt\n        /* \"#utility.yul\":10947:10965   */\n      dup2\n        /* \"#utility.yul\":10944:10982   */\n      sub\n        /* \"#utility.yul\":10941:11025   */\n      tag_263\n      jumpi\n        /* \"#utility.yul\":10997:11015   */\n      tag_264\n      tag_144\n      jump\t// in\n    tag_264:\n        /* \"#utility.yul\":10941:11025   */\n    tag_263:\n        /* \"#utility.yul\":10762:11031   */\n      pop\n        /* \"#utility.yul\":10711:11031   */\n      swap2\n      swap1\n      pop\n      jump\t// out\n        /* \"#utility.yul\":11037:11178   */\n    tag_145:\n        /* \"#utility.yul\":11086:11090   */\n      0x00\n        /* \"#utility.yul\":11109:11112   */\n      dup2\n        /* \"#utility.yul\":11101:11112   */\n      swap1\n      pop\n        /* \"#utility.yul\":11132:11135   */\n      dup2\n        /* \"#utility.yul\":11129:11130   */\n      0x00\n        /* \"#utility.yul\":11122:11136   */\n      mstore\n        /* \"#utility.yul\":11166:11170   */\n      0x20\n        /* \"#utility.yul\":11163:11164   */\n      0x00\n        /* \"#utility.yul\":11153:11171   */\n      keccak256\n        /* \"#utility.yul\":11145:11171   */\n      swap1\n      pop\n        /* \"#utility.yul\":11037:11178   */\n      swap2\n      swap1\n      pop\n      jump\t// out\n        /* \"#utility.yul\":11184:11277   */\n    tag_146:\n        /* \"#utility.yul\":11221:11227   */\n      0x00\n        /* \"#utility.yul\":11268:11270   */\n      0x20\n        /* \"#utility.yul\":11263:11265   */\n      0x1f\n        /* \"#utility.yul\":11256:11261   */\n      dup4\n        /* \"#utility.yul\":11252:11266   */\n      add\n        /* \"#utility.yul\":11248:11271   */\n      div\n        /* \"#utility.yul\":11238:11271   */\n      swap1\n      pop\n        /* \"#utility.yul\":11184:11277   */\n      swap2\n      swap1\n      pop\n      jump\t// out\n        /* \"#utility.yul\":11283:11390   */\n    tag_147:\n        /* \"#utility.yul\":11327:11335   */\n      0x00\n        /* \"#utility.yul\":11377:11382   */\n      dup3\n        /* \"#utility.yul\":11371:11375   */\n      dup3\n        /* \"#utility.yul\":11367:11383   */\n      shl\n        /* \"#utility.yul\":11346:11383   */\n      swap1\n      pop\n        /* \"#utility.yul\":11283:11390   */\n      swap3\n      swap2\n      pop\n      pop\n      jump\t// out\n        /* \"#utility.yul\":11396:11789   */\n    tag_148:\n        /* \"#utility.yul\":11465:11471   */\n      0x00\n        /* \"#utility.yul\":11515:11516   */\n      0x08\n        /* \"#utility.yul\":11503:11513   */\n      dup4\n        /* \"#utility.yul\":11499:11517   */\n      mul\n        /* \"#utility.yul\":11538:11635   */\n      tag_269\n        /* \"#utility.yul\":11568:11634   */\n      0xffffffffffffffffffffffffffffffffffffffffffffffffffffffffffffffff\n        /* \"#utility.yul\":11557:11566   */\n      dup3\n        /* \"#utility.yul\":11538:11635   */\n      tag_147\n      jump\t// in\n    tag_269:\n        /* \"#utility.yul\":11656:11695   */\n      tag_270\n        /* \"#utility.yul\":11686:11694   */\n      dup7\n        /* \"#utility.yul\":11675:11684   */\n      dup4\n        /* \"#utility.yul\":11656:11695   */\n      tag_147\n      jump\t// in\n    tag_270:\n        /* \"#utility.yul\":11644:11695   */\n      swap6\n      pop\n        /* \"#utility.yul\":11728:11732   */\n      dup1\n        /* \"#utility.yul\":11724:11733   */\n      not\n        /* \"#utility.yul\":11717:11722   */\n      dup5\n        /* \"#utility.yul\":11713:11734   */\n      and\n        /* \"#utility.yul\":11704:11734   */\n      swap4\n      pop\n        /* \"#utility.yul\":11777:11781   */\n      dup1\n        /* \"#utility.yul\":11767:11775   */\n      dup7\n        /* \"#utility.yul\":11763:11782   */\n      and\n        /* \"#utility.yul\":11756:11761   */\n      dup5\n        /* \"#utility.yul\":11753:11783   */\n      or\n        /* \"#utility.yul\":11743:11783   */\n      swap3\n      pop\n        /* \"#utility.yul\":11472:11789   */\n      pop\n      pop\n        /* \"#utility.yul\":11396:11789   */\n      swap4\n      swap3\n      pop\n      pop\n      pop\n      jump\t// out\n        /* \"#utility.yul\":11795:11855   */\n    tag_149:\n        /* \"#utility.yul\":11823:11826   */\n      0x00\n        /* \"#utility.yul\":11844:11849   */\n      dup2\n        /* \"#utility.yul\":11837:11849   */\n      swap1\n      pop\n        /* \"#utility.yul\":11795:11855   */\n      swap2\n      swap1\n      pop\n      jump\t// out\n        /* \"#utility.yul\":11861:12003   */\n    tag_150:\n        /* \"#utility.yul\":11911:11920   */\n      0x00\n        /* \"#utility.yul\":11944:11997   */\n      tag_273\n        /* \"#utility.yul\":11962:11996   */\n      tag_274\n        /* \"#utility.yul\":11971:11995   */\n      tag_275\n        /* \"#utility.yul\":11989:11994   */\n      dup5\n        /* \"#utility.yul\":11971:11995   */\n      tag_122\n      jump\t// in\n    tag_275:\n        /* \"#utility.yul\":11962:11996   */\n      tag_149\n      jump\t// in\n    tag_274:\n        /* \"#utility.yul\":11944:11997   */\n      tag_122\n      jump\t// in\n    tag_273:\n        /* \"#utility.yul\":11931:11997   */\n      swap1\n      pop\n        /* \"#utility.yul\":11861:12003   */\n      swap2\n      swap1\n      pop\n      jump\t// out\n        /* \"#utility.yul\":12009:12084   */\n    tag_151:\n        /* \"#utility.yul\":12052:12055   */\n      0x00\n        /* \"#utility.yul\":12073:12078   */\n      dup2\n        /* \"#utility.yul\":12066:12078   */\n      swap1\n      pop\n        /* \"#utility.yul\":12009:12084   */\n      swap2\n      swap1\n      pop\n      jump\t// out\n        /* \"#utility.yul\":12090:12359   */\n    tag_152:\n        /* \"#utility.yul\":12200:12239   */\n      tag_278\n        /* \"#utility.yul\":12231:12238   */\n      dup4\n        /* \"#utility.yul\":12200:12239   */\n      tag_150\n      jump\t// in\n    tag_278:\n        /* \"#utility.yul\":12261:12352   */\n      tag_279\n        /* \"#utility.yul\":12310:12351   */\n      tag_280\n        /* \"#utility.yul\":12334:12350   */\n      dup3\n        /* \"#utility.yul\":12310:12351   */\n      tag_151\n      jump\t// in\n    tag_280:\n        /* \"#utility.yul\":12302:12308   */\n      dup5\n        /* \"#utility.yul\":12295:12299   */\n      dup5\n        /* \"#utility.yul\":12289:12300   */\n      sload\n        /* \"#utility.yul\":12261:12352   */\n      tag_148\n      jump\t// in\n    tag_279:\n        /* \"#utility.yul\":12255:12259   */\n      dup3\n        /* \"#utility.yul\":12248:12353   */\n      sstore\n        /* \"#utility.yul\":12166:12359   */\n      pop\n        /* \"#utility.yul\":12090:12359   */\n      pop\n      pop\n      pop\n      jump\t// out\n        /* \"#utility.yul\":12365:12438   */\n    tag_153:\n        /* \"#utility.yul\":12410:12413   */\n      0x00\n        /* \"#utility.yul\":12431:12432   */\n      0x00\n        /* \"#utility.yul\":12424:12432   */\n      swap1\n      pop\n        /* \"#utility.yul\":12365:12438   */\n      swap1\n      jump\t// out\n        /* \"#utility.yul\":12444:12633   */\n    tag_154:\n        /* \"#utility.yul\":12521:12553   */\n      tag_283\n      tag_153\n      jump\t// in\n    tag_283:\n        /* \"#utility.yul\":12562:12627   */\n      tag_284\n        /* \"#utility.yul\":12620:12626   */\n      dup2\n        /* \"#utility.yul\":12612:12618   */\n      dup5\n        /* \"#utility.yul\":12606:12610   */\n      dup5\n        /* \"#utility.yul\":12562:12627   */\n      tag_152\n      jump\t// in\n    tag_284:\n        /* \"#utility.yul\":12497:12633   */\n      pop\n        /* \"#utility.yul\":12444:12633   */\n      pop\n      pop\n      jump\t// out\n        /* \"#utility.yul\":12639:12825   */\n    tag_155:\n        /* \"#utility.yul\":12699:12819   */\n    tag_286:\n        /* \"#utility.yul\":12716:12719   */\n      dup2\n        /* \"#utility.yul\":12709:12714   */\n      dup2\n        /* \"#utility.yul\":12706:12720   */\n      lt\n        /* \"#utility.yul\":12699:12819   */\n      iszero\n      tag_288\n      jumpi\n        /* \"#utility.yul\":12770:12809   */\n      tag_289\n        /* \"#utility.yul\":12807:12808   */\n      0x00\n        /* \"#utility.yul\":12800:12805   */\n      dup3\n        /* \"#utility.yul\":12770:12809   */\n      tag_154\n      jump\t// in\n    tag_289:\n        /* \"#utility.yul\":12743:12744   */\n      0x01\n        /* \"#utility.yul\":12736:12741   */\n      dup2\n        /* \"#utility.yul\":12732:12745   */\n      add\n        /* \"#utility.yul\":12723:12745   */\n      swap1\n      pop\n        /* \"#utility.yul\":12699:12819   */\n      jump(tag_286)\n    tag_288:\n        /* \"#utility.yul\":12639:12825   */\n      pop\n      pop\n      jump\t// out\n        /* \"#utility.yul\":12831:13374   */\n    tag_156:\n        /* \"#utility.yul\":12932:12934   */\n      0x1f\n        /* \"#utility.yul\":12927:12930   */\n      dup3\n        /* \"#utility.yul\":12924:12935   */\n      gt\n        /* \"#utility.yul\":12921:13367   */\n      iszero\n      tag_291\n      jumpi\n        /* \"#utility.yul\":12966:13004   */\n      tag_292\n        /* \"#utility.yul\":12998:13003   */\n      dup2\n        /* \"#utility.yul\":12966:13004   */\n      tag_145\n      jump\t// in\n    tag_292:\n        /* \"#utility.yul\":13050:13079   */\n      tag_293\n        /* \"#utility.yul\":13068:13078   */\n      dup5\n        /* \"#utility.yul\":13050:13079   */\n      tag_146\n      jump\t// in\n    tag_293:\n        /* \"#utility.yul\":13040:13048   */\n      dup2\n        /* \"#utility.yul\":13036:13080   */\n      add\n        /* \"#utility.yul\":13233:13235   */\n      0x20\n        /* \"#utility.yul\":13221:13231   */\n      dup6\n        /* \"#utility.yul\":13218:13236   */\n      lt\n        /* \"#utility.yul\":13215:13264   */\n      iszero\n      tag_294\n      jumpi\n        /* \"#utility.yul\":13254:13262   */\n      dup2\n        /* \"#utility.yul\":13239:13262   */\n      swap1\n      pop\n        /* \"#utility.yul\":13215:13264   */\n    tag_294:\n        /* \"#utility.yul\":13277:13357   */\n      tag_295\n        /* \"#utility.yul\":13333:13355   */\n      tag_296\n        /* \"#utility.yul\":13351:13354   */\n      dup6\n        /* \"#utility.yul\":13333:13355   */\n      tag_146\n      jump\t// in\n    tag_296:\n        /* \"#utility.yul\":13323:13331   */\n      dup4\n        /* \"#utility.yul\":13319:13356   */\n      add\n        /* \"#utility.yul\":13306:13317   */\n      dup3\n        /* \"#utility.yul\":13277:13357   */\n      tag_155\n      jump\t// in\n    tag_295:\n        /* \"#utility.yul\":12936:13367   */\n      pop\n      pop\n        /* \"#utility.yul\":12921:13367   */\n    tag_291:\n        /* \"#utility.yul\":12831:13374   */\n      pop\n      pop\n      pop\n      jump\t// out\n        /* \"#utility.yul\":13380:13497   */\n    tag_157:\n        /* \"#utility.yul\":13434:13442   */\n      0x00\n        /* \"#utility.yul\":13484:13489   */\n      dup3\n        /* \"#utility.yul\":13478:13482   */\n      dup3\n        /* \"#utility.yul\":13474:13490   */\n      shr\n        /* \"#utility.yul\":13453:13490   */\n      swap1\n      pop\n        /* \"#utility.yul\":13380:13497   */\n      swap3\n      swap2\n      pop\n      pop\n      jump\t// out\n        /* \"#utility.yul\":13503:13672   */\n    tag_158:\n        /* \"#utility.yul\":13547:13553   */\n      0x00\n        /* \"#utility.yul\":13580:13631   */\n      tag_299\n        /* \"#utility.yul\":13628:13629   */\n      0x00\n        /* \"#utility.yul\":13624:13630   */\n      not\n        /* \"#utility.yul\":13616:13621   */\n      dup5\n        /* \"#utility.yul\":13613:13614   */\n      0x08\n        /* \"#utility.yul\":13609:13622   */\n      mul\n        /* \"#utility.yul\":13580:13631   */\n      tag_157\n      jump\t// in\n    tag_299:\n        /* \"#utility.yul\":13576:13632   */\n      not\n        /* \"#utility.yul\":13661:13665   */\n      dup1\n        /* \"#utility.yul\":13655:13659   */\n      dup4\n        /* \"#utility.yul\":13651:13666   */\n      and\n        /* \"#utility.yul\":13641:13666   */\n      swap2\n      pop\n        /* \"#utility.yul\":13554:13672   */\n      pop\n        /* \"#utility.yul\":13503:13672   */\n      swap3\n      swap2\n      pop\n      pop\n      jump\t// out\n        /* \"#utility.yul\":13677:13972   */\n    tag_159:\n        /* \"#utility.yul\":13753:13757   */\n      0x00\n        /* \"#utility.yul\":13899:13928   */\n      tag_301\n        /* \"#utility.yul\":13924:13927   */\n      dup4\n        /* \"#utility.yul\":13918:13922   */\n      dup4\n        /* \"#utility.yul\":13899:13928   */\n      tag_158\n      jump\t// in\n    tag_301:\n        /* \"#utility.yul\":13891:13928   */\n      swap2\n      pop\n        /* \"#utility.yul\":13961:13964   */\n      dup3\n        /* \"#utility.yul\":13958:13959   */\n      0x02\n        /* \"#utility.yul\":13954:13965   */\n      mul\n        /* \"#utility.yul\":13948:13952   */\n      dup3\n        /* \"#utility.yul\":13945:13966   */\n      or\n        /* \"#utility.yul\":13937:13966   */\n      swap1\n      pop\n        /* \"#utility.yul\":13677:13972   */\n      swap3\n      swap2\n      pop\n      pop\n      jump\t// out\n        /* \"#utility.yul\":13977:15372   */\n    tag_52:\n        /* \"#utility.yul\":14094:14131   */\n      tag_303\n        /* \"#utility.yul\":14127:14130   */\n      dup3\n        /* \"#utility.yul\":14094:14131   */\n      tag_131\n      jump\t// in\n    tag_303:\n        /* \"#utility.yul\":14196:14214   */\n      0xffffffffffffffff\n        /* \"#utility.yul\":14188:14194   */\n      dup2\n        /* \"#utility.yul\":14185:14215   */\n      gt\n        /* \"#utility.yul\":14182:14238   */\n      iszero\n      tag_304\n      jumpi\n        /* \"#utility.yul\":14218:14236   */\n      tag_305\n      tag_80\n      jump\t// in\n    tag_305:\n        /* \"#utility.yul\":14182:14238   */\n    tag_304:\n        /* \"#utility.yul\":14262:14300   */\n      tag_306\n        /* \"#utility.yul\":14294:14298   */\n      dup3\n        /* \"#utility.yul\":14288:14299   */\n      sload\n        /* \"#utility.yul\":14262:14300   */\n      tag_96\n      jump\t// in\n    tag_306:\n        /* \"#utility.yul\":14347:14414   */\n      tag_307\n        /* \"#utility.yul\":14407:14413   */\n      dup3\n        /* \"#utility.yul\":14399:14405   */\n      dup3\n        /* \"#utility.yul\":14393:14397   */\n      dup6\n        /* \"#utility.yul\":14347:14414   */\n      tag_156\n      jump\t// in\n    tag_307:\n        /* \"#utility.yul\":14441:14442   */\n      0x00\n        /* \"#utility.yul\":14465:14469   */\n      0x20\n        /* \"#utility.yul\":14452:14469   */\n      swap1\n      pop\n        /* \"#utility.yul\":14497:14499   */\n      0x1f\n        /* \"#utility.yul\":14489:14495   */\n      dup4\n        /* \"#utility.yul\":14486:14500   */\n      gt\n        /* \"#utility.yul\":14514:14515   */\n      0x01\n        /* \"#utility.yul\":14509:15127   */\n      dup2\n      eq\n      tag_309\n      jumpi\n        /* \"#utility.yul\":15171:15172   */\n      0x00\n        /* \"#utility.yul\":15188:15194   */\n      dup5\n        /* \"#utility.yul\":15185:15262   */\n      iszero\n      tag_310\n      jumpi\n        /* \"#utility.yul\":15237:15246   */\n      dup3\n        /* \"#utility.yul\":15232:15235   */\n      dup8\n        /* \"#utility.yul\":15228:15247   */\n      add\n        /* \"#utility.yul\":15222:15248   */\n      mload\n        /* \"#utility.yul\":15213:15248   */\n      swap1\n      pop\n        /* \"#utility.yul\":15185:15262   */\n    tag_310:\n        /* \"#utility.yul\":15288:15355   */\n      tag_311\n        /* \"#utility.yul\":15348:15354   */\n      dup6\n        /* \"#utility.yul\":15341:15346   */\n      dup3\n        /* \"#utility.yul\":15288:15355   */\n      tag_159\n      jump\t// in\n    tag_311:\n        /* \"#utility.yul\":15282:15286   */\n      dup7\n        /* \"#utility.yul\":15275:15356   */\n      sstore\n        /* \"#utility.yul\":15144:15366   */\n      pop\n        /* \"#utility.yul\":14479:15366   */\n      jump(tag_308)\n        /* \"#utility.yul\":14509:15127   */\n    tag_309:\n        /* \"#utility.yul\":14561:14565   */\n      0x1f\n        /* \"#utility.yul\":14557:14566   */\n      not\n        /* \"#utility.yul\":14549:14555   */\n      dup5\n        /* \"#utility.yul\":14545:14567   */\n      and\n        /* \"#utility.yul\":14595:14632   */\n      tag_312\n        /* \"#utility.yul\":14627:14631   */\n      dup7\n        /* \"#utility.yul\":14595:14632   */\n      tag_145\n      jump\t// in\n    tag_312:\n        /* \"#utility.yul\":14654:14655   */\n      0x00\n        /* \"#utility.yul\":14668:14876   */\n    tag_313:\n        /* \"#utility.yul\":14682:14689   */\n      dup3\n        /* \"#utility.yul\":14679:14680   */\n      dup2\n        /* \"#utility.yul\":14676:14690   */\n      lt\n        /* \"#utility.yul\":14668:14876   */\n      iszero\n      tag_315\n      jumpi\n        /* \"#utility.yul\":14761:14770   */\n      dup5\n        /* \"#utility.yul\":14756:14759   */\n      dup10\n        /* \"#utility.yul\":14752:14771   */\n      add\n        /* \"#utility.yul\":14746:14772   */\n      mload\n        /* \"#utility.yul\":14738:14744   */\n      dup3\n        /* \"#utility.yul\":14731:14773   */\n      sstore\n        /* \"#utility.yul\":14812:14813   */\n      0x01\n        /* \"#utility.yul\":14804:14810   */\n      dup3\n        /* \"#utility.yul\":14800:14814   */\n      add\n        /* \"#utility.yul\":14790:14814   */\n      swap2\n      pop\n        /* \"#utility.yul\":14859:14861   */\n      0x20\n        /* \"#utility.yul\":14848:14857   */\n      dup6\n        /* \"#utility.yul\":14844:14862   */\n      add\n        /* \"#utility.yul\":14831:14862   */\n      swap5\n      pop\n        /* \"#utility.yul\":14705:14709   */\n      0x20\n        /* \"#utility.yul\":14702:14703   */\n      dup2\n        /* \"#utility.yul\":14698:14710   */\n      add\n        /* \"#utility.yul\":14693:14710   */\n      swap1\n      pop\n        /* \"#utility.yul\":14668:14876   */\n      jump(tag_313)\n    tag_315:\n        /* \"#utility.yul\":14904:14910   */\n      dup7\n        /* \"#utility.yul\":14895:14902   */\n      dup4\n        /* \"#utility.yul\":14892:14911   */\n      lt\n        /* \"#utility.yul\":14889:15068   */\n      iszero\n      tag_316\n      jumpi\n        /* \"#utility.yul\":14962:14971   */\n      dup5\n        /* \"#utility.yul\":14957:14960   */\n      dup10\n        /* \"#utility.yul\":14953:14972   */\n      add\n        /* \"#utility.yul\":14947:14973   */\n      mload\n        /* \"#utility.yul\":15005:15053   */\n      tag_317\n        /* \"#utility.yul\":15047:15051   */\n      0x1f\n        /* \"#utility.yul\":15039:15045   */\n      dup10\n        /* \"#utility.yul\":15035:15052   */\n      and\n        /* \"#utility.yul\":15024:15033   */\n      dup3\n        /* \"#utility.yul\":15005:15053   */\n      tag_158\n      jump\t// in\n    tag_317:\n        /* \"#utility.yul\":14997:15003   */\n      dup4\n        /* \"#utility.yul\":14990:15054   */\n      sstore\n        /* \"#utility.yul\":14912:15068   */\n      pop\n        /* \"#utility.yul\":14889:15068   */\n    tag_316:\n        /* \"#utility.yul\":15114:15115   */\n      0x01\n        /* \"#utility.yul\":15110:15111   */\n      0x02\n        /* \"#utility.yul\":15102:15108   */\n      dup9\n        /* \"#utility.yul\":15098:15112   */\n      mul\n        /* \"#utility.yul\":15094:15116   */\n      add\n        /* \"#utility.yul\":15088:15092   */\n      dup9\n        /* \"#utility.yul\":15081:15117   */\n      sstore\n        /* \"#utility.yul\":14516:15127   */\n      pop\n      pop\n      pop\n        /* \"#utility.yul\":14479:15366   */\n    tag_308:\n      pop\n        /* \"#utility.yul\":14069:15372   */\n      pop\n      pop\n      pop\n        /* \"#utility.yul\":13977:15372   */\n      pop\n      pop\n      jump\t// out\n        /* \"#utility.yul\":15378:15558   */\n    tag_160:\n        /* \"#utility.yul\":15426:15503   */\n      0x4e487b7100000000000000000000000000000000000000000000000000000000\n        /* \"#utility.yul\":15423:15424   */\n      0x00\n        /* \"#utility.yul\":15416:15504   */\n      mstore\n        /* \"#utility.yul\":15523:15527   */\n      0x11\n        /* \"#utility.yul\":15520:15521   */\n      0x04\n        /* \"#utility.yul\":15513:15528   */\n      mstore\n        /* \"#utility.yul\":15547:15551   */\n      0x24\n        /* \"#utility.yul\":15544:15545   */\n      0x00\n        /* \"#utility.yul\":15537:15552   */\n      revert\n        /* \"#utility.yul\":15564:15758   */\n    tag_54:\n        /* \"#utility.yul\":15604:15608   */\n      0x00\n        /* \"#utility.yul\":15624:15644   */\n      tag_320\n        /* \"#utility.yul\":15642:15643   */\n      dup3\n        /* \"#utility.yul\":15624:15644   */\n      tag_122\n      jump\t// in\n    tag_320:\n        /* \"#utility.yul\":15619:15644   */\n      swap2\n      pop\n        /* \"#utility.yul\":15658:15678   */\n      tag_321\n        /* \"#utility.yul\":15676:15677   */\n      dup4\n        /* \"#utility.yul\":15658:15678   */\n      tag_122\n      jump\t// in\n    tag_321:\n        /* \"#utility.yul\":15653:15678   */\n      swap3\n      pop\n        /* \"#utility.yul\":15702:15703   */\n      dup3\n        /* \"#utility.yul\":15699:15700   */\n      dup3\n        /* \"#utility.yul\":15695:15704   */\n      sub\n        /* \"#utility.yul\":15687:15704   */\n      swap1\n      pop\n        /* \"#utility.yul\":15726:15727   */\n      dup2\n        /* \"#utility.yul\":15720:15724   */\n      dup2\n        /* \"#utility.yul\":15717:15728   */\n      gt\n        /* \"#utility.yul\":15714:15751   */\n      iszero\n      tag_322\n      jumpi\n        /* \"#utility.yul\":15731:15749   */\n      tag_323\n      tag_160\n      jump\t// in\n    tag_323:\n        /* \"#utility.yul\":15714:15751   */\n    tag_322:\n        /* \"#utility.yul\":15564:15758   */\n      swap3\n      swap2\n      pop\n      pop\n      jump\t// out\n        /* \"#utility.yul\":15764:15912   */\n    tag_161:\n        /* \"#utility.yul\":15862:15868   */\n      dup3\n        /* \"#utility.yul\":15857:15860   */\n      dup2\n        /* \"#utility.yul\":15852:15855   */\n      dup4\n        /* \"#utility.yul\":15839:15869   */\n      calldatacopy\n        /* \"#utility.yul\":15903:15904   */\n      0x00\n        /* \"#utility.yul\":15894:15900   */\n      dup4\n        /* \"#utility.yul\":15889:15892   */\n      dup4\n        /* \"#utility.yul\":15885:15901   */\n      add\n        /* \"#utility.yul\":15878:15905   */\n      mstore\n        /* \"#utility.yul\":15764:15912   */\n      pop\n      pop\n      pop\n      jump\t// out\n        /* \"#utility.yul\":15942:16259   */\n    tag_162:\n        /* \"#utility.yul\":16040:16043   */\n      0x00\n        /* \"#utility.yul\":16061:16132   */\n      tag_326\n        /* \"#utility.yul\":16125:16131   */\n      dup4\n        /* \"#utility.yul\":16120:16123   */\n      dup6\n        /* \"#utility.yul\":16061:16132   */\n      tag_141\n      jump\t// in\n    tag_326:\n        /* \"#utility.yul\":16054:16132   */\n      swap4\n      pop\n        /* \"#utility.yul\":16142:16198   */\n      tag_327\n        /* \"#utility.yul\":16191:16197   */\n      dup4\n        /* \"#utility.yul\":16186:16189   */\n      dup6\n        /* \"#utility.yul\":16179:16184   */\n      dup5\n        /* \"#utility.yul\":16142:16198   */\n      tag_161\n      jump\t// in\n    tag_327:\n        /* \"#utility.yul\":16223:16252   */\n      tag_328\n        /* \"#utility.yul\":16245:16251   */\n      dup4\n        /* \"#utility.yul\":16223:16252   */\n      tag_134\n      jump\t// in\n    tag_328:\n        /* \"#utility.yul\":16218:16221   */\n      dup5\n        /* \"#utility.yul\":16214:16253   */\n      add\n        /* \"#utility.yul\":16207:16253   */\n      swap1\n      pop\n        /* \"#utility.yul\":15942:16259   */\n      swap4\n      swap3\n      pop\n      pop\n      pop\n      jump\t// out\n        /* \"#utility.yul\":16265:16818   */\n    tag_56:\n        /* \"#utility.yul\":16444:16448   */\n      0x00\n        /* \"#utility.yul\":16482:16484   */\n      0x60\n        /* \"#utility.yul\":16471:16480   */\n      dup3\n        /* \"#utility.yul\":16467:16485   */\n      add\n        /* \"#utility.yul\":16459:16485   */\n      swap1\n      pop\n        /* \"#utility.yul\":16495:16566   */\n      tag_330\n        /* \"#utility.yul\":16563:16564   */\n      0x00\n        /* \"#utility.yul\":16552:16561   */\n      dup4\n        /* \"#utility.yul\":16548:16565   */\n      add\n        /* \"#utility.yul\":16539:16545   */\n      dup8\n        /* \"#utility.yul\":16495:16566   */\n      tag_124\n      jump\t// in\n    tag_330:\n        /* \"#utility.yul\":16613:16622   */\n      dup2\n        /* \"#utility.yul\":16607:16611   */\n      dup2\n        /* \"#utility.yul\":16603:16623   */\n      sub\n        /* \"#utility.yul\":16598:16600   */\n      0x20\n        /* \"#utility.yul\":16587:16596   */\n      dup4\n        /* \"#utility.yul\":16583:16601   */\n      add\n        /* \"#utility.yul\":16576:16624   */\n      mstore\n        /* \"#utility.yul\":16641:16729   */\n      tag_331\n        /* \"#utility.yul\":16724:16728   */\n      dup2\n        /* \"#utility.yul\":16715:16721   */\n      dup6\n        /* \"#utility.yul\":16707:16713   */\n      dup8\n        /* \"#utility.yul\":16641:16729   */\n      tag_162\n      jump\t// in\n    tag_331:\n        /* \"#utility.yul\":16633:16729   */\n      swap1\n      pop\n        /* \"#utility.yul\":16739:16811   */\n      tag_332\n        /* \"#utility.yul\":16807:16809   */\n      0x40\n        /* \"#utility.yul\":16796:16805   */\n      dup4\n        /* \"#utility.yul\":16792:16810   */\n      add\n        /* \"#utility.yul\":16783:16789   */\n      dup5\n        /* \"#utility.yul\":16739:16811   */\n      tag_123\n      jump\t// in\n    tag_332:\n        /* \"#utility.yul\":16265:16818   */\n      swap6\n      swap5\n      pop\n      pop\n      pop\n      pop\n      pop\n      jump\t// out\n        /* \"#utility.yul\":16824:16993   */\n    tag_163:\n        /* \"#utility.yul\":16964:16985   */\n      0x41756469744c6f673a206e6f74206f776e657200000000000000000000000000\n        /* \"#utility.yul\":16960:16961   */\n      0x00\n        /* \"#utility.yul\":16952:16958   */\n      dup3\n        /* \"#utility.yul\":16948:16962   */\n      add\n        /* \"#utility.yul\":16941:16986   */\n      mstore\n        /* \"#utility.yul\":16824:16993   */\n      pop\n      jump\t// out\n        /* \"#utility.yul\":16999:17365   */\n    tag_164:\n        /* \"#utility.yul\":17141:17144   */\n      0x00\n        /* \"#utility.yul\":17162:17229   */\n      tag_335\n        /* \"#utility.yul\":17226:17228   */\n      0x13\n        /* \"#utility.yul\":17221:17224   */\n      dup4\n        /* \"#utility.yul\":17162:17229   */\n      tag_141\n      jump\t// in\n    tag_335:\n        /* \"#utility.yul\":17155:17229   */\n      swap2\n      pop\n        /* \"#utility.yul\":17238:17331   */\n      tag_336\n        /* \"#utility.yul\":17327:17330   */\n      dup3\n        /* \"#utility.yul\":17238:17331   */\n      tag_163\n      jump\t// in\n    tag_336:\n        /* \"#utility.yul\":17356:17358   */\n      0x20\n        /* \"#utility.yul\":17351:17354   */\n      dup3\n        /* \"#utility.yul\":17347:17359   */\n      add\n        /* \"#utility.yul\":17340:17359   */\n      swap1\n      pop\n        /* \"#utility.yul\":16999:17365   */\n      swap2\n      swap1\n      pop\n      jump\t// out\n        /* \"#utility.yul\":17371:17790   */\n    tag_61:\n        /* \"#utility.yul\":17537:17541   */\n      0x00\n        /* \"#utility.yul\":17575:17577   */\n      0x20\n        /* \"#utility.yul\":17564:17573   */\n      dup3\n        /* \"#utility.yul\":17560:17578   */\n      add\n        /* \"#utility.yul\":17552:17578   */\n      swap1\n      pop\n        /* \"#utility.yul\":17624:17633   */\n      dup2\n        /* \"#utility.yul\":17618:17622   */\n      dup2\n        /* \"#utility.yul\":17614:17634   */\n      sub\n        /* \"#utility.yul\":17610:17611   */\n      0x00\n        /* \"#utility.yul\":17599:17608   */\n      dup4\n        /* \"#utility.yul\":17595:17612   */\n      add\n        /* \"#utility.yul\":17588:17635   */\n      mstore\n        /* \"#utility.yul\":17652:17783   */\n      tag_338\n        /* \"#utility.yul\":17778:17782   */\n      dup2\n        /* \"#utility.yul\":17652:17783   */\n      tag_164\n      jump\t// in\n    tag_338:\n        /* \"#utility.yul\":17644:17783   */\n      swap1\n      pop\n        /* \"#utility.yul\":17371:17790   */\n      swap2\n      swap1\n      pop\n      jump\t// out\n        /* \"#utility.yul\":17796:17976   */\n    tag_73:\n        /* \"#utility.yul\":17844:17921   */\n      0x4e487b7100000000000000000000000000000000000000000000000000000000\n        /* \"#utility.yul\":17841:17842   */\n      0x00\n        /* \"#utility.yul\":17834:17922   */\n      mstore\n        /* \"#utility.yul\":17941:17945   */\n      0x32\n        /* \"#utility.yul\":17938:17939   */\n      0x04\n        /* \"#utility.yul\":17931:17946   */\n      mstore\n        /* \"#utility.yul\":17965:17969   */\n      0x24\n        /* \"#utility.yul\":17962:17963   */\n      0x00\n        /* \"#utility.yul\":17955:17970   */\n      revert\n        /* \"#utility.yul\":17982:18215   */\n    tag_77:\n        /* \"#utility.yul\":18021:18024   */\n      0x00\n        /* \"#utility.yul\":18044:18068   */\n      tag_341\n        /* \"#utility.yul\":18062:18067   */\n      dup3\n        /* \"#utility.yul\":18044:18068   */\n      tag_122\n      jump\t// in\n    tag_341:\n        /* \"#utility.yul\":18035:18068   */\n      swap2\n      pop\n        /* \"#utility.yul\":18090:18156   */\n      0xffffffffffffffffffffffffffffffffffffffffffffffffffffffffffffffff\n        /* \"#utility.yul\":18083:18088   */\n      dup3\n        /* \"#utility.yul\":18080:18157   */\n      sub\n        /* \"#utility.yul\":18077:18180   */\n      tag_342\n      jumpi\n        /* \"#utility.yul\":18160:18178   */\n      tag_343\n      tag_160\n      jump\t// in\n    tag_343:\n        /* \"#utility.yul\":18077:18180   */\n    tag_342:\n        /* \"#utility.yul\":18207:18208   */\n      0x01\n        /* \"#utility.yul\":18200:18205   */\n      dup3\n        /* \"#utility.yul\":18196:18209   */\n      add\n        /* \"#utility.yul\":18189:18209   */\n      swap1\n      pop\n        /* \"#utility.yul\":17982:18215   */\n      swap2\n      swap1\n      pop\n      jump\t// out\n        /* \"#utility.yul\":18221:18393   */\n    tag_165:\n        /* \"#utility.yul\":18361:18385   */\n      0x41756469744c6f673a207a65726f206164647265737300000000000000000000\n        /* \"#utility.yul\":18357:18358   */\n      0x00\n        /* \"#utility.yul\":18349:18355   */\n      dup3\n        /* \"#utility.yul\":18345:18359   */\n      add\n        /* \"#utility.yul\":18338:18386   */\n      mstore\n        /* \"#utility.yul\":18221:18393   */\n      pop\n      jump\t// out\n        /* \"#utility.yul\":18399:18765   */\n    tag_166:\n        /* \"#utility.yul\":18541:18544   */\n      0x00\n        /* \"#utility.yul\":18562:18629   */\n      tag_346\n        /* \"#utility.yul\":18626:18628   */\n      0x16\n        /* \"#utility.yul\":18621:18624   */\n      dup4\n        /* \"#utility.yul\":18562:18629   */\n      tag_141\n      jump\t// in\n    tag_346:\n        /* \"#utility.yul\":18555:18629   */\n      swap2\n      pop\n        /* \"#utility.yul\":18638:18731   */\n      tag_347\n        /* \"#utility.yul\":18727:18730   */\n      dup3\n        /* \"#utility.yul\":18638:18731   */\n      tag_165\n      jump\t// in\n    tag_347:\n        /* \"#utility.yul\":18756:18758   */\n      0x20\n        /* \"#utility.yul\":18751:18754   */\n      dup3\n        /* \"#utility.yul\":18747:18759   */\n      add\n        /* \"#utility.yul\":18740:18759   */\n      swap1\n      pop\n        /* \"#utility.yul\":18399:18765   */\n      swap2\n      swap1\n      pop\n      jump\t// out\n        /* \"#utility.yul\":18771:19190   */\n    tag_110:\n        /* \"#utility.yul\":18937:18941   */\n      0x00\n        /* \"#utility.yul\":18975:18977   */\n      0x20\n        /* \"#utility.yul\":18964:18973   */\n      dup3\n        /* \"#utility.yul\":18960:18978   */\n      add\n        /* \"#utility.yul\":18952:18978   */\n      swap1\n      pop\n        /* \"#utility.yul\":19024:19033   */\n      dup2\n        /* \"#utility.yul\":19018:19022   */\n      dup2\n        /* \"#utility.yul\":19014:19034   */\n      sub\n        /* \"#utility.yul\":19010:19011   */\n      0x00\n        /* \"#utility.yul\":18999:19008   */\n      dup4\n        /* \"#utility.yul\":18995:19012   */\n      add\n        /* \"#utility.yul\":18988:19035   */\n      mstore\n        /* \"#utility.yul\":19052:19183   */\n      tag_349\n        /* \"#utility.yul\":19178:19182   */\n      dup2\n        /* \"#utility.yul\":19052:19183   */\n      tag_166\n      jump\t// in\n    tag_349:\n        /* \"#utility.yul\":19044:19183   */\n      swap1\n      pop\n        /* \"#utility.yul\":18771:19190   */\n      swap2\n      swap1\n      pop\n      jump\t// out\n\n    auxdata: 0xa26469706673582212207a4abd401c5ebef67ffd9b65124ebb43b48487720ead17e080a7e4c92e070b1864736f6c634300081e0033\n}\n",
				"bytecode": {
					"linkReferences": {},
					"object": "6080604052348015600e575f5ffd5b50335f5f6101000a81548173ffffffffffffffffffffffffffffffffffffffff021916908373ffffffffffffffffffffffffffffffffffffffff1602179055506116b38061005b5f395ff3fe608060405234801561000f575f5ffd5b5060043610610086575f3560e01c80638da5cb5b116100595780638da5cb5b146100fc578063944fd1801461011a57806397e7b0f31461014a578063f2fde38b1461017a57610086565b8063107d1d781461008a578063618033db146100a657806366e6c8af146100c45780638acbddf0146100e0575b5f5ffd5b6100a4600480360381019061009f9190610dd9565b610196565b005b6100ae6104be565b6040516100bb9190610e75565b60405180910390f35b6100de60048036038101906100d99190610e8e565b6104ca565b005b6100fa60048036038101906100f59190610e8e565b6105f3565b005b61010461071b565b6040516101119190610ec8565b60405180910390f35b610134600480360381019061012f9190610e8e565b61073f565b6040516101419190610efb565b60405180910390f35b610164600480360381019061015f9190610e8e565b61075c565b60405161017191906110d0565b60405180910390f35b610194600480360381019061018f9190610e8e565b610af1565b005b60025f3373ffffffffffffffffffffffffffffffffffffffff1673ffffffffffffffffffffffffffffffffffffffff1681526020019081526020015f205f9054906101000a900460ff168061023657505f5f9054906101000a900473ffffffffffffffffffffffffffffffffffffffff1673ffffffffffffffffffffffffffffffffffffffff163373ffffffffffffffffffffffffffffffffffffffff16145b610275576040517f08c379a000000000000000000000000000000000000000000000000000000000815260040161026c9061114a565b60405180910390fd5b60016040518060a001604052808773ffffffffffffffffffffffffffffffffffffffff1681526020018673ffffffffffffffffffffffffffffffffffffffff1681526020018573ffffffffffffffffffffffffffffffffffffffff16815260200184848080601f0160208091040260200160405190810160405280939291908181526020018383808284375f81840152601f19601f82011690508083019250505050505050815260200142815250908060018154018082558091505060019003905f5260205f2090600502015f909190919091505f820151815f015f6101000a81548173ffffffffffffffffffffffffffffffffffffffff021916908373ffffffffffffffffffffffffffffffffffffffff1602179055506020820151816001015f6101000a81548173ffffffffffffffffffffffffffffffffffffffff021916908373ffffffffffffffffffffffffffffffffffffffff1602179055506040820151816002015f6101000a81548173ffffffffffffffffffffffffffffffffffffffff021916908373ffffffffffffffffffffffffffffffffffffffff160217905550606082015181600301908161042e9190611392565b506080820151816004015550508373ffffffffffffffffffffffffffffffffffffffff168573ffffffffffffffffffffffffffffffffffffffff166001808054905061047a919061148e565b7fa36886a5bbac24ee43d6e8ac3fa0d7dfdd46efec630190cf2533b47037b06297868686426040516104af94939291906114fb565b60405180910390a45050505050565b5f600180549050905090565b5f5f9054906101000a900473ffffffffffffffffffffffffffffffffffffffff1673ffffffffffffffffffffffffffffffffffffffff163373ffffffffffffffffffffffffffffffffffffffff1614610558576040517f08c379a000000000000000000000000000000000000000000000000000000000815260040161054f90611583565b60405180910390fd5b600160025f8373ffffffffffffffffffffffffffffffffffffffff1673ffffffffffffffffffffffffffffffffffffffff1681526020019081526020015f205f6101000a81548160ff0219169083151502179055508073ffffffffffffffffffffffffffffffffffffffff167fbac895d0151374b1cfd9aae9996a6b27a605c3da04353e9d09f8e10ed867bfe560405160405180910390a250565b5f5f9054906101000a900473ffffffffffffffffffffffffffffffffffffffff1673ffffffffffffffffffffffffffffffffffffffff163373ffffffffffffffffffffffffffffffffffffffff1614610681576040517f08c379a000000000000000000000000000000000000000000000000000000000815260040161067890611583565b60405180910390fd5b5f60025f8373ffffffffffffffffffffffffffffffffffffffff1673ffffffffffffffffffffffffffffffffffffffff1681526020019081526020015f205f6101000a81548160ff0219169083151502179055508073ffffffffffffffffffffffffffffffffffffffff167f8144097ab0537543f91b063fd8bbb24331ea683c589b1b9b9c5a7f1b8a7b3c3060405160405180910390a250565b5f5f9054906101000a900473ffffffffffffffffffffffffffffffffffffffff1681565b6002602052805f5260405f205f915054906101000a900460ff1681565b60605f5f90505f5f90505b600180549050811015610805578373ffffffffffffffffffffffffffffffffffffffff166001828154811061079f5761079e6115a1565b5b905f5260205f2090600502016001015f9054906101000a900473ffffffffffffffffffffffffffffffffffffffff1673ffffffffffffffffffffffffffffffffffffffff16036107f85781806107f4906115ce565b9250505b8080600101915050610767565b505f8167ffffffffffffffff81111561082157610820611168565b5b60405190808252806020026020018201604052801561085a57816020015b610847610ca9565b81526020019060019003908161083f5790505b5090505f5f90505f5f90505b600180549050811015610ae5578573ffffffffffffffffffffffffffffffffffffffff166001828154811061089e5761089d6115a1565b5b905f5260205f2090600502016001015f9054906101000a900473ffffffffffffffffffffffffffffffffffffffff1673ffffffffffffffffffffffffffffffffffffffff1603610ad857600181815481106108fc576108fb6115a1565b5b905f5260205f2090600502016040518060a00160405290815f82015f9054906101000a900473ffffffffffffffffffffffffffffffffffffffff1673ffffffffffffffffffffffffffffffffffffffff1673ffffffffffffffffffffffffffffffffffffffff168152602001600182015f9054906101000a900473ffffffffffffffffffffffffffffffffffffffff1673ffffffffffffffffffffffffffffffffffffffff1673ffffffffffffffffffffffffffffffffffffffff168152602001600282015f9054906101000a900473ffffffffffffffffffffffffffffffffffffffff1673ffffffffffffffffffffffffffffffffffffffff1673ffffffffffffffffffffffffffffffffffffffff168152602001600382018054610a21906111c2565b80601f0160208091040260200160405190810160405280929190818152602001828054610a4d906111c2565b8015610a985780601f10610a6f57610100808354040283529160200191610a98565b820191905f5260205f20905b815481529060010190602001808311610a7b57829003601f168201915b50505050508152602001600482015481525050838381518110610abe57610abd6115a1565b5b60200260200101819052508180610ad4906115ce565b9250505b8080600101915050610866565b50819350505050919050565b5f5f9054906101000a900473ffffffffffffffffffffffffffffffffffffffff1673ffffffffffffffffffffffffffffffffffffffff163373ffffffffffffffffffffffffffffffffffffffff1614610b7f576040517f08c379a0000000000000000000000000000000000000000000000000000000008152600401610b7690611583565b60405180910390fd5b5f73ffffffffffffffffffffffffffffffffffffffff168173ffffffffffffffffffffffffffffffffffffffff1603610bed576040517f08c379a0000000000000000000000000000000000000000000000000000000008152600401610be49061165f565b60405180910390fd5b8073ffffffffffffffffffffffffffffffffffffffff165f5f9054906101000a900473ffffffffffffffffffffffffffffffffffffffff1673ffffffffffffffffffffffffffffffffffffffff167f8be0079c531659141344cd1fd0a4f28419497f9722a3daafe3b4186f6b6457e060405160405180910390a3805f5f6101000a81548173ffffffffffffffffffffffffffffffffffffffff021916908373ffffffffffffffffffffffffffffffffffffffff16021790555050565b6040518060a001604052805f73ffffffffffffffffffffffffffffffffffffffff1681526020015f73ffffffffffffffffffffffffffffffffffffffff1681526020015f73ffffffffffffffffffffffffffffffffffffffff168152602001606081526020015f81525090565b5f5ffd5b5f5ffd5b5f73ffffffffffffffffffffffffffffffffffffffff82169050919050565b5f610d4782610d1e565b9050919050565b610d5781610d3d565b8114610d61575f5ffd5b50565b5f81359050610d7281610d4e565b92915050565b5f5ffd5b5f5ffd5b5f5ffd5b5f5f83601f840112610d9957610d98610d78565b5b8235905067ffffffffffffffff811115610db657610db5610d7c565b5b602083019150836001820283011115610dd257610dd1610d80565b5b9250929050565b5f5f5f5f5f60808688031215610df257610df1610d16565b5b5f610dff88828901610d64565b9550506020610e1088828901610d64565b9450506040610e2188828901610d64565b935050606086013567ffffffffffffffff811115610e4257610e41610d1a565b5b610e4e88828901610d84565b92509250509295509295909350565b5f819050919050565b610e6f81610e5d565b82525050565b5f602082019050610e885f830184610e66565b92915050565b5f60208284031215610ea357610ea2610d16565b5b5f610eb084828501610d64565b91505092915050565b610ec281610d3d565b82525050565b5f602082019050610edb5f830184610eb9565b92915050565b5f8115159050919050565b610ef581610ee1565b82525050565b5f602082019050610f0e5f830184610eec565b92915050565b5f81519050919050565b5f82825260208201905092915050565b5f819050602082019050919050565b610f4681610d3d565b82525050565b5f81519050919050565b5f82825260208201905092915050565b8281835e5f83830152505050565b5f601f19601f8301169050919050565b5f610f8e82610f4c565b610f988185610f56565b9350610fa8818560208601610f66565b610fb181610f74565b840191505092915050565b610fc581610e5d565b82525050565b5f60a083015f830151610fe05f860182610f3d565b506020830151610ff36020860182610f3d565b5060408301516110066040860182610f3d565b506060830151848203606086015261101e8282610f84565b91505060808301516110336080860182610fbc565b508091505092915050565b5f6110498383610fcb565b905092915050565b5f602082019050919050565b5f61106782610f14565b6110718185610f1e565b93508360208202850161108385610f2e565b805f5b858110156110be578484038952815161109f858261103e565b94506110aa83611051565b925060208a01995050600181019050611086565b50829750879550505050505092915050565b5f6020820190508181035f8301526110e8818461105d565b905092915050565b5f82825260208201905092915050565b7f41756469744c6f673a206e6f7420617574686f726973656400000000000000005f82015250565b5f6111346018836110f0565b915061113f82611100565b602082019050919050565b5f6020820190508181035f83015261116181611128565b9050919050565b7f4e487b71000000000000000000000000000000000000000000000000000000005f52604160045260245ffd5b7f4e487b71000000000000000000000000000000000000000000000000000000005f52602260045260245ffd5b5f60028204905060018216806111d957607f821691505b6020821081036111ec576111eb611195565b5b50919050565b5f819050815f5260205f209050919050565b5f6020601f8301049050919050565b5f82821b905092915050565b5f6008830261124e7fffffffffffffffffffffffffffffffffffffffffffffffffffffffffffffffff82611213565b6112588683611213565b95508019841693508086168417925050509392505050565b5f819050919050565b5f61129361128e61128984610e5d565b611270565b610e5d565b9050919050565b5f819050919050565b6112ac83611279565b6112c06112b88261129a565b84845461121f565b825550505050565b5f5f905090565b6112d76112c8565b6112e28184846112a3565b505050565b5b81811015611305576112fa5f826112cf565b6001810190506112e8565b5050565b601f82111561134a5761131b816111f2565b61132484611204565b81016020851015611333578190505b61134761133f85611204565b8301826112e7565b50505b505050565b5f82821c905092915050565b5f61136a5f198460080261134f565b1980831691505092915050565b5f611382838361135b565b9150826002028217905092915050565b61139b82610f4c565b67ffffffffffffffff8111156113b4576113b3611168565b5b6113be82546111c2565b6113c9828285611309565b5f60209050601f8311600181146113fa575f84156113e8578287015190505b6113f28582611377565b865550611459565b601f198416611408866111f2565b5f5b8281101561142f5784890151825560018201915060208501945060208101905061140a565b8683101561144c5784890151611448601f89168261135b565b8355505b6001600288020188555050505b505050505050565b7f4e487b71000000000000000000000000000000000000000000000000000000005f52601160045260245ffd5b5f61149882610e5d565b91506114a383610e5d565b92508282039050818111156114bb576114ba611461565b5b92915050565b828183375f83830152505050565b5f6114da83856110f0565b93506114e78385846114c1565b6114f083610f74565b840190509392505050565b5f60608201905061150e5f830187610eb9565b81810360208301526115218185876114cf565b90506115306040830184610e66565b95945050505050565b7f41756469744c6f673a206e6f74206f776e6572000000000000000000000000005f82015250565b5f61156d6013836110f0565b915061157882611539565b602082019050919050565b5f6020820190508181035f83015261159a81611561565b9050919050565b7f4e487b71000000000000000000000000000000000000000000000000000000005f52603260045260245ffd5b5f6115d882610e5d565b91507fffffffffffffffffffffffffffffffffffffffffffffffffffffffffffffffff820361160a57611609611461565b5b600182019050919050565b7f41756469744c6f673a207a65726f2061646472657373000000000000000000005f82015250565b5f6116496016836110f0565b915061165482611615565b602082019050919050565b5f6020820190508181035f8301526116768161163d565b905091905056fea26469706673582212207a4abd401c5ebef67ffd9b65124ebb43b48487720ead17e080a7e4c92e070b1864736f6c634300081e0033",
					"opcodes": "PUSH1 0x80 PUSH1 0x40 MSTORE CALLVALUE DUP1 ISZERO PUSH1 0xE JUMPI PUSH0 PUSH0 REVERT JUMPDEST POP CALLER PUSH0 PUSH0 PUSH2 0x100 EXP DUP2 SLOAD DUP2 PUSH20 0xFFFFFFFFFFFFFFFFFFFFFFFFFFFFFFFFFFFFFFFF MUL NOT AND SWAP1 DUP4 PUSH20 0xFFFFFFFFFFFFFFFFFFFFFFFFFFFFFFFFFFFFFFFF AND MUL OR SWAP1 SSTORE POP PUSH2 0x16B3 DUP1 PUSH2 0x5B PUSH0 CODECOPY PUSH0 RETURN INVALID PUSH1 0x80 PUSH1 0x40 MSTORE CALLVALUE DUP1 ISZERO PUSH2 0xF JUMPI PUSH0 PUSH0 REVERT JUMPDEST POP PUSH1 0x4 CALLDATASIZE LT PUSH2 0x86 JUMPI PUSH0 CALLDATALOAD PUSH1 0xE0 SHR DUP1 PUSH4 0x8DA5CB5B GT PUSH2 0x59 JUMPI DUP1 PUSH4 0x8DA5CB5B EQ PUSH2 0xFC JUMPI DUP1 PUSH4 0x944FD180 EQ PUSH2 0x11A JUMPI DUP1 PUSH4 0x97E7B0F3 EQ PUSH2 0x14A JUMPI DUP1 PUSH4 0xF2FDE38B EQ PUSH2 0x17A JUMPI PUSH2 0x86 JUMP JUMPDEST DUP1 PUSH4 0x107D1D78 EQ PUSH2 0x8A JUMPI DUP1 PUSH4 0x618033DB EQ PUSH2 0xA6 JUMPI DUP1 PUSH4 0x66E6C8AF EQ PUSH2 0xC4 JUMPI DUP1 PUSH4 0x8ACBDDF0 EQ PUSH2 0xE0 JUMPI JUMPDEST PUSH0 PUSH0 REVERT JUMPDEST PUSH2 0xA4 PUSH1 0x4 DUP1 CALLDATASIZE SUB DUP2 ADD SWAP1 PUSH2 0x9F SWAP2 SWAP1 PUSH2 0xDD9 JUMP JUMPDEST PUSH2 0x196 JUMP JUMPDEST STOP JUMPDEST PUSH2 0xAE PUSH2 0x4BE JUMP JUMPDEST PUSH1 0x40 MLOAD PUSH2 0xBB SWAP2 SWAP1 PUSH2 0xE75 JUMP JUMPDEST PUSH1 0x40 MLOAD DUP1 SWAP2 SUB SWAP1 RETURN JUMPDEST PUSH2 0xDE PUSH1 0x4 DUP1 CALLDATASIZE SUB DUP2 ADD SWAP1 PUSH2 0xD9 SWAP2 SWAP1 PUSH2 0xE8E JUMP JUMPDEST PUSH2 0x4CA JUMP JUMPDEST STOP JUMPDEST PUSH2 0xFA PUSH1 0x4 DUP1 CALLDATASIZE SUB DUP2 ADD SWAP1 PUSH2 0xF5 SWAP2 SWAP1 PUSH2 0xE8E JUMP JUMPDEST PUSH2 0x5F3 JUMP JUMPDEST STOP JUMPDEST PUSH2 0x104 PUSH2 0x71B JUMP JUMPDEST PUSH1 0x40 MLOAD PUSH2 0x111 SWAP2 SWAP1 PUSH2 0xEC8 JUMP JUMPDEST PUSH1 0x40 MLOAD DUP1 SWAP2 SUB SWAP1 RETURN JUMPDEST PUSH2 0x134 PUSH1 0x4 DUP1 CALLDATASIZE SUB DUP2 ADD SWAP1 PUSH2 0x12F SWAP2 SWAP1 PUSH2 0xE8E JUMP JUMPDEST PUSH2 0x73F JUMP JUMPDEST PUSH1 0x40 MLOAD PUSH2 0x141 SWAP2 SWAP1 PUSH2 0xEFB JUMP JUMPDEST PUSH1 0x40 MLOAD DUP1 SWAP2 SUB SWAP1 RETURN JUMPDEST PUSH2 0x164 PUSH1 0x4 DUP1 CALLDATASIZE SUB DUP2 ADD SWAP1 PUSH2 0x15F SWAP2 SWAP1 PUSH2 0xE8E JUMP JUMPDEST PUSH2 0x75C JUMP JUMPDEST PUSH1 0x40 MLOAD PUSH2 0x171 SWAP2 SWAP1 PUSH2 0x10D0 JUMP JUMPDEST PUSH1 0x40 MLOAD DUP1 SWAP2 SUB SWAP1 RETURN JUMPDEST PUSH2 0x194 PUSH1 0x4 DUP1 CALLDATASIZE SUB DUP2 ADD SWAP1 PUSH2 0x18F SWAP2 SWAP1 PUSH2 0xE8E JUMP JUMPDEST PUSH2 0xAF1 JUMP JUMPDEST STOP JUMPDEST PUSH1 0x2 PUSH0 CALLER PUSH20 0xFFFFFFFFFFFFFFFFFFFFFFFFFFFFFFFFFFFFFFFF AND PUSH20 0xFFFFFFFFFFFFFFFFFFFFFFFFFFFFFFFFFFFFFFFF AND DUP2 MSTORE PUSH1 0x20 ADD SWAP1 DUP2 MSTORE PUSH1 0x20 ADD PUSH0 KECCAK256 PUSH0 SWAP1 SLOAD SWAP1 PUSH2 0x100 EXP SWAP1 DIV PUSH1 0xFF AND DUP1 PUSH2 0x236 JUMPI POP PUSH0 PUSH0 SWAP1 SLOAD SWAP1 PUSH2 0x100 EXP SWAP1 DIV PUSH20 0xFFFFFFFFFFFFFFFFFFFFFFFFFFFFFFFFFFFFFFFF AND PUSH20 0xFFFFFFFFFFFFFFFFFFFFFFFFFFFFFFFFFFFFFFFF AND CALLER PUSH20 0xFFFFFFFFFFFFFFFFFFFFFFFFFFFFFFFFFFFFFFFF AND EQ JUMPDEST PUSH2 0x275 JUMPI PUSH1 0x40 MLOAD PUSH32 0x8C379A000000000000000000000000000000000000000000000000000000000 DUP2 MSTORE PUSH1 0x4 ADD PUSH2 0x26C SWAP1 PUSH2 0x114A JUMP JUMPDEST PUSH1 0x40 MLOAD DUP1 SWAP2 SUB SWAP1 REVERT JUMPDEST PUSH1 0x1 PUSH1 0x40 MLOAD DUP1 PUSH1 0xA0 ADD PUSH1 0x40 MSTORE DUP1 DUP8 PUSH20 0xFFFFFFFFFFFFFFFFFFFFFFFFFFFFFFFFFFFFFFFF AND DUP2 MSTORE PUSH1 0x20 ADD DUP7 PUSH20 0xFFFFFFFFFFFFFFFFFFFFFFFFFFFFFFFFFFFFFFFF AND DUP2 MSTORE PUSH1 0x20 ADD DUP6 PUSH20 0xFFFFFFFFFFFFFFFFFFFFFFFFFFFFFFFFFFFFFFFF AND DUP2 MSTORE PUSH1 0x20 ADD DUP5 DUP5 DUP1 DUP1 PUSH1 0x1F ADD PUSH1 0x20 DUP1 SWAP2 DIV MUL PUSH1 0x20 ADD PUSH1 0x40 MLOAD SWAP1 DUP2 ADD PUSH1 0x40 MSTORE DUP1 SWAP4 SWAP3 SWAP2 SWAP1 DUP2 DUP2 MSTORE PUSH1 0x20 ADD DUP4 DUP4 DUP1 DUP3 DUP5 CALLDATACOPY PUSH0 DUP2 DUP5 ADD MSTORE PUSH1 0x1F NOT PUSH1 0x1F DUP3 ADD AND SWAP1 POP DUP1 DUP4 ADD SWAP3 POP POP POP POP POP POP POP DUP2 MSTORE PUSH1 0x20 ADD TIMESTAMP DUP2 MSTORE POP SWAP1 DUP1 PUSH1 0x1 DUP2 SLOAD ADD DUP1 DUP3 SSTORE DUP1 SWAP2 POP POP PUSH1 0x1 SWAP1 SUB SWAP1 PUSH0 MSTORE PUSH1 0x20 PUSH0 KECCAK256 SWAP1 PUSH1 0x5 MUL ADD PUSH0 SWAP1 SWAP2 SWAP1 SWAP2 SWAP1 SWAP2 POP PUSH0 DUP3 ADD MLOAD DUP2 PUSH0 ADD PUSH0 PUSH2 0x100 EXP DUP2 SLOAD DUP2 PUSH20 0xFFFFFFFFFFFFFFFFFFFFFFFFFFFFFFFFFFFFFFFF MUL NOT AND SWAP1 DUP4 PUSH20 0xFFFFFFFFFFFFFFFFFFFFFFFFFFFFFFFFFFFFFFFF AND MUL OR SWAP1 SSTORE POP PUSH1 0x20 DUP3 ADD MLOAD DUP2 PUSH1 0x1 ADD PUSH0 PUSH2 0x100 EXP DUP2 SLOAD DUP2 PUSH20 0xFFFFFFFFFFFFFFFFFFFFFFFFFFFFFFFFFFFFFFFF MUL NOT AND SWAP1 DUP4 PUSH20 0xFFFFFFFFFFFFFFFFFFFFFFFFFFFFFFFFFFFFFFFF AND MUL OR SWAP1 SSTORE POP PUSH1 0x40 DUP3 ADD MLOAD DUP2 PUSH1 0x2 ADD PUSH0 PUSH2 0x100 EXP DUP2 SLOAD DUP2 PUSH20 0xFFFFFFFFFFFFFFFFFFFFFFFFFFFFFFFFFFFFFFFF MUL NOT AND SWAP1 DUP4 PUSH20 0xFFFFFFFFFFFFFFFFFFFFFFFFFFFFFFFFFFFFFFFF AND MUL OR SWAP1 SSTORE POP PUSH1 0x60 DUP3 ADD MLOAD DUP2 PUSH1 0x3 ADD SWAP1 DUP2 PUSH2 0x42E SWAP2 SWAP1 PUSH2 0x1392 JUMP JUMPDEST POP PUSH1 0x80 DUP3 ADD MLOAD DUP2 PUSH1 0x4 ADD SSTORE POP POP DUP4 PUSH20 0xFFFFFFFFFFFFFFFFFFFFFFFFFFFFFFFFFFFFFFFF AND DUP6 PUSH20 0xFFFFFFFFFFFFFFFFFFFFFFFFFFFFFFFFFFFFFFFF AND PUSH1 0x1 DUP1 DUP1 SLOAD SWAP1 POP PUSH2 0x47A SWAP2 SWAP1 PUSH2 0x148E JUMP JUMPDEST PUSH32 0xA36886A5BBAC24EE43D6E8AC3FA0D7DFDD46EFEC630190CF2533B47037B06297 DUP7 DUP7 DUP7 TIMESTAMP PUSH1 0x40 MLOAD PUSH2 0x4AF SWAP5 SWAP4 SWAP3 SWAP2 SWAP1 PUSH2 0x14FB JUMP JUMPDEST PUSH1 0x40 MLOAD DUP1 SWAP2 SUB SWAP1 LOG4 POP POP POP POP POP JUMP JUMPDEST PUSH0 PUSH1 0x1 DUP1 SLOAD SWAP1 POP SWAP1 POP SWAP1 JUMP JUMPDEST PUSH0 PUSH0 SWAP1 SLOAD SWAP1 PUSH2 0x100 EXP SWAP1 DIV PUSH20 0xFFFFFFFFFFFFFFFFFFFFFFFFFFFFFFFFFFFFFFFF AND PUSH20 0xFFFFFFFFFFFFFFFFFFFFFFFFFFFFFFFFFFFFFFFF AND CALLER PUSH20 0xFFFFFFFFFFFFFFFFFFFFFFFFFFFFFFFFFFFFFFFF AND EQ PUSH2 0x558 JUMPI PUSH1 0x40 MLOAD PUSH32 0x8C379A000000000000000000000000000000000000000000000000000000000 DUP2 MSTORE PUSH1 0x4 ADD PUSH2 0x54F SWAP1 PUSH2 0x1583 JUMP JUMPDEST PUSH1 0x40 MLOAD DUP1 SWAP2 SUB SWAP1 REVERT JUMPDEST PUSH1 0x1 PUSH1 0x2 PUSH0 DUP4 PUSH20 0xFFFFFFFFFFFFFFFFFFFFFFFFFFFFFFFFFFFFFFFF AND PUSH20 0xFFFFFFFFFFFFFFFFFFFFFFFFFFFFFFFFFFFFFFFF AND DUP2 MSTORE PUSH1 0x20 ADD SWAP1 DUP2 MSTORE PUSH1 0x20 ADD PUSH0 KECCAK256 PUSH0 PUSH2 0x100 EXP DUP2 SLOAD DUP2 PUSH1 0xFF MUL NOT AND SWAP1 DUP4 ISZERO ISZERO MUL OR SWAP1 SSTORE POP DUP1 PUSH20 0xFFFFFFFFFFFFFFFFFFFFFFFFFFFFFFFFFFFFFFFF AND PUSH32 0xBAC895D0151374B1CFD9AAE9996A6B27A605C3DA04353E9D09F8E10ED867BFE5 PUSH1 0x40 MLOAD PUSH1 0x40 MLOAD DUP1 SWAP2 SUB SWAP1 LOG2 POP JUMP JUMPDEST PUSH0 PUSH0 SWAP1 SLOAD SWAP1 PUSH2 0x100 EXP SWAP1 DIV PUSH20 0xFFFFFFFFFFFFFFFFFFFFFFFFFFFFFFFFFFFFFFFF AND PUSH20 0xFFFFFFFFFFFFFFFFFFFFFFFFFFFFFFFFFFFFFFFF AND CALLER PUSH20 0xFFFFFFFFFFFFFFFFFFFFFFFFFFFFFFFFFFFFFFFF AND EQ PUSH2 0x681 JUMPI PUSH1 0x40 MLOAD PUSH32 0x8C379A000000000000000000000000000000000000000000000000000000000 DUP2 MSTORE PUSH1 0x4 ADD PUSH2 0x678 SWAP1 PUSH2 0x1583 JUMP JUMPDEST PUSH1 0x40 MLOAD DUP1 SWAP2 SUB SWAP1 REVERT JUMPDEST PUSH0 PUSH1 0x2 PUSH0 DUP4 PUSH20 0xFFFFFFFFFFFFFFFFFFFFFFFFFFFFFFFFFFFFFFFF AND PUSH20 0xFFFFFFFFFFFFFFFFFFFFFFFFFFFFFFFFFFFFFFFF AND DUP2 MSTORE PUSH1 0x20 ADD SWAP1 DUP2 MSTORE PUSH1 0x20 ADD PUSH0 KECCAK256 PUSH0 PUSH2 0x100 EXP DUP2 SLOAD DUP2 PUSH1 0xFF MUL NOT AND SWAP1 DUP4 ISZERO ISZERO MUL OR SWAP1 SSTORE POP DUP1 PUSH20 0xFFFFFFFFFFFFFFFFFFFFFFFFFFFFFFFFFFFFFFFF AND PUSH32 0x8144097AB0537543F91B063FD8BBB24331EA683C589B1B9B9C5A7F1B8A7B3C30 PUSH1 0x40 MLOAD PUSH1 0x40 MLOAD DUP1 SWAP2 SUB SWAP1 LOG2 POP JUMP JUMPDEST PUSH0 PUSH0 SWAP1 SLOAD SWAP1 PUSH2 0x100 EXP SWAP1 DIV PUSH20 0xFFFFFFFFFFFFFFFFFFFFFFFFFFFFFFFFFFFFFFFF AND DUP2 JUMP JUMPDEST PUSH1 0x2 PUSH1 0x20 MSTORE DUP1 PUSH0 MSTORE PUSH1 0x40 PUSH0 KECCAK256 PUSH0 SWAP2 POP SLOAD SWAP1 PUSH2 0x100 EXP SWAP1 DIV PUSH1 0xFF AND DUP2 JUMP JUMPDEST PUSH1 0x60 PUSH0 PUSH0 SWAP1 POP PUSH0 PUSH0 SWAP1 POP JUMPDEST PUSH1 0x1 DUP1 SLOAD SWAP1 POP DUP2 LT ISZERO PUSH2 0x805 JUMPI DUP4 PUSH20 0xFFFFFFFFFFFFFFFFFFFFFFFFFFFFFFFFFFFFFFFF AND PUSH1 0x1 DUP3 DUP2 SLOAD DUP2 LT PUSH2 0x79F JUMPI PUSH2 0x79E PUSH2 0x15A1 JUMP JUMPDEST JUMPDEST SWAP1 PUSH0 MSTORE PUSH1 0x20 PUSH0 KECCAK256 SWAP1 PUSH1 0x5 MUL ADD PUSH1 0x1 ADD PUSH0 SWAP1 SLOAD SWAP1 PUSH2 0x100 EXP SWAP1 DIV PUSH20 0xFFFFFFFFFFFFFFFFFFFFFFFFFFFFFFFFFFFFFFFF AND PUSH20 0xFFFFFFFFFFFFFFFFFFFFFFFFFFFFFFFFFFFFFFFF AND SUB PUSH2 0x7F8 JUMPI DUP2 DUP1 PUSH2 0x7F4 SWAP1 PUSH2 0x15CE JUMP JUMPDEST SWAP3 POP POP JUMPDEST DUP1 DUP1 PUSH1 0x1 ADD SWAP2 POP POP PUSH2 0x767 JUMP JUMPDEST POP PUSH0 DUP2 PUSH8 0xFFFFFFFFFFFFFFFF DUP2 GT ISZERO PUSH2 0x821 JUMPI PUSH2 0x820 PUSH2 0x1168 JUMP JUMPDEST JUMPDEST PUSH1 0x40 MLOAD SWAP1 DUP1 DUP3 MSTORE DUP1 PUSH1 0x20 MUL PUSH1 0x20 ADD DUP3 ADD PUSH1 0x40 MSTORE DUP1 ISZERO PUSH2 0x85A JUMPI DUP2 PUSH1 0x20 ADD JUMPDEST PUSH2 0x847 PUSH2 0xCA9 JUMP JUMPDEST DUP2 MSTORE PUSH1 0x20 ADD SWAP1 PUSH1 0x1 SWAP1 SUB SWAP1 DUP2 PUSH2 0x83F JUMPI SWAP1 POP JUMPDEST POP SWAP1 POP PUSH0 PUSH0 SWAP1 POP PUSH0 PUSH0 SWAP1 POP JUMPDEST PUSH1 0x1 DUP1 SLOAD SWAP1 POP DUP2 LT ISZERO PUSH2 0xAE5 JUMPI DUP6 PUSH20 0xFFFFFFFFFFFFFFFFFFFFFFFFFFFFFFFFFFFFFFFF AND PUSH1 0x1 DUP3 DUP2 SLOAD DUP2 LT PUSH2 0x89E JUMPI PUSH2 0x89D PUSH2 0x15A1 JUMP JUMPDEST JUMPDEST SWAP1 PUSH0 MSTORE PUSH1 0x20 PUSH0 KECCAK256 SWAP1 PUSH1 0x5 MUL ADD PUSH1 0x1 ADD PUSH0 SWAP1 SLOAD SWAP1 PUSH2 0x100 EXP SWAP1 DIV PUSH20 0xFFFFFFFFFFFFFFFFFFFFFFFFFFFFFFFFFFFFFFFF AND PUSH20 0xFFFFFFFFFFFFFFFFFFFFFFFFFFFFFFFFFFFFFFFF AND SUB PUSH2 0xAD8 JUMPI PUSH1 0x1 DUP2 DUP2 SLOAD DUP2 LT PUSH2 0x8FC JUMPI PUSH2 0x8FB PUSH2 0x15A1 JUMP JUMPDEST JUMPDEST SWAP1 PUSH0 MSTORE PUSH1 0x20 PUSH0 KECCAK256 SWAP1 PUSH1 0x5 MUL ADD PUSH1 0x40 MLOAD DUP1 PUSH1 0xA0 ADD PUSH1 0x40 MSTORE SWAP1 DUP2 PUSH0 DUP3 ADD PUSH0 SWAP1 SLOAD SWAP1 PUSH2 0x100 EXP SWAP1 DIV PUSH20 0xFFFFFFFFFFFFFFFFFFFFFFFFFFFFFFFFFFFFFFFF AND PUSH20 0xFFFFFFFFFFFFFFFFFFFFFFFFFFFFFFFFFFFFFFFF AND PUSH20 0xFFFFFFFFFFFFFFFFFFFFFFFFFFFFFFFFFFFFFFFF AND DUP2 MSTORE PUSH1 0x20 ADD PUSH1 0x1 DUP3 ADD PUSH0 SWAP1 SLOAD SWAP1 PUSH2 0x100 EXP SWAP1 DIV PUSH20 0xFFFFFFFFFFFFFFFFFFFFFFFFFFFFFFFFFFFFFFFF AND PUSH20 0xFFFFFFFFFFFFFFFFFFFFFFFFFFFFFFFFFFFFFFFF AND PUSH20 0xFFFFFFFFFFFFFFFFFFFFFFFFFFFFFFFFFFFFFFFF AND DUP2 MSTORE PUSH1 0x20 ADD PUSH1 0x2 DUP3 ADD PUSH0 SWAP1 SLOAD SWAP1 PUSH2 0x100 EXP SWAP1 DIV PUSH20 0xFFFFFFFFFFFFFFFFFFFFFFFFFFFFFFFFFFFFFFFF AND PUSH20 0xFFFFFFFFFFFFFFFFFFFFFFFFFFFFFFFFFFFFFFFF AND PUSH20 0xFFFFFFFFFFFFFFFFFFFFFFFFFFFFFFFFFFFFFFFF AND DUP2 MSTORE PUSH1 0x20 ADD PUSH1 0x3 DUP3 ADD DUP1 SLOAD PUSH2 0xA21 SWAP1 PUSH2 0x11C2 JUMP JUMPDEST DUP1 PUSH1 0x1F ADD PUSH1 0x20 DUP1 SWAP2 DIV MUL PUSH1 0x20 ADD PUSH1 0x40 MLOAD SWAP1 DUP2 ADD PUSH1 0x40 MSTORE DUP1 SWAP3 SWAP2 SWAP1 DUP2 DUP2 MSTORE PUSH1 0x20 ADD DUP3 DUP1 SLOAD PUSH2 0xA4D SWAP1 PUSH2 0x11C2 JUMP JUMPDEST DUP1 ISZERO PUSH2 0xA98 JUMPI DUP1 PUSH1 0x1F LT PUSH2 0xA6F JUMPI PUSH2 0x100 DUP1 DUP4 SLOAD DIV MUL DUP4 MSTORE SWAP2 PUSH1 0x20 ADD SWAP2 PUSH2 0xA98 JUMP JUMPDEST DUP3 ADD SWAP2 SWAP1 PUSH0 MSTORE PUSH1 0x20 PUSH0 KECCAK256 SWAP1 JUMPDEST DUP2 SLOAD DUP2 MSTORE SWAP1 PUSH1 0x1 ADD SWAP1 PUSH1 0x20 ADD DUP1 DUP4 GT PUSH2 0xA7B JUMPI DUP3 SWAP1 SUB PUSH1 0x1F AND DUP3 ADD SWAP2 JUMPDEST POP POP POP POP POP DUP2 MSTORE PUSH1 0x20 ADD PUSH1 0x4 DUP3 ADD SLOAD DUP2 MSTORE POP POP DUP4 DUP4 DUP2 MLOAD DUP2 LT PUSH2 0xABE JUMPI PUSH2 0xABD PUSH2 0x15A1 JUMP JUMPDEST JUMPDEST PUSH1 0x20 MUL PUSH1 0x20 ADD ADD DUP2 SWAP1 MSTORE POP DUP2 DUP1 PUSH2 0xAD4 SWAP1 PUSH2 0x15CE JUMP JUMPDEST SWAP3 POP POP JUMPDEST DUP1 DUP1 PUSH1 0x1 ADD SWAP2 POP POP PUSH2 0x866 JUMP JUMPDEST POP DUP2 SWAP4 POP POP POP POP SWAP2 SWAP1 POP JUMP JUMPDEST PUSH0 PUSH0 SWAP1 SLOAD SWAP1 PUSH2 0x100 EXP SWAP1 DIV PUSH20 0xFFFFFFFFFFFFFFFFFFFFFFFFFFFFFFFFFFFFFFFF AND PUSH20 0xFFFFFFFFFFFFFFFFFFFFFFFFFFFFFFFFFFFFFFFF AND CALLER PUSH20 0xFFFFFFFFFFFFFFFFFFFFFFFFFFFFFFFFFFFFFFFF AND EQ PUSH2 0xB7F JUMPI PUSH1 0x40 MLOAD PUSH32 0x8C379A000000000000000000000000000000000000000000000000000000000 DUP2 MSTORE PUSH1 0x4 ADD PUSH2 0xB76 SWAP1 PUSH2 0x1583 JUMP JUMPDEST PUSH1 0x40 MLOAD DUP1 SWAP2 SUB SWAP1 REVERT JUMPDEST PUSH0 PUSH20 0xFFFFFFFFFFFFFFFFFFFFFFFFFFFFFFFFFFFFFFFF AND DUP2 PUSH20 0xFFFFFFFFFFFFFFFFFFFFFFFFFFFFFFFFFFFFFFFF AND SUB PUSH2 0xBED JUMPI PUSH1 0x40 MLOAD PUSH32 0x8C379A000000000000000000000000000000000000000000000000000000000 DUP2 MSTORE PUSH1 0x4 ADD PUSH2 0xBE4 SWAP1 PUSH2 0x165F JUMP JUMPDEST PUSH1 0x40 MLOAD DUP1 SWAP2 SUB SWAP1 REVERT JUMPDEST DUP1 PUSH20 0xFFFFFFFFFFFFFFFFFFFFFFFFFFFFFFFFFFFFFFFF AND PUSH0 PUSH0 SWAP1 SLOAD SWAP1 PUSH2 0x100 EXP SWAP1 DIV PUSH20 0xFFFFFFFFFFFFFFFFFFFFFFFFFFFFFFFFFFFFFFFF AND PUSH20 0xFFFFFFFFFFFFFFFFFFFFFFFFFFFFFFFFFFFFFFFF AND PUSH32 0x8BE0079C531659141344CD1FD0A4F28419497F9722A3DAAFE3B4186F6B6457E0 PUSH1 0x40 MLOAD PUSH1 0x40 MLOAD DUP1 SWAP2 SUB SWAP1 LOG3 DUP1 PUSH0 PUSH0 PUSH2 0x100 EXP DUP2 SLOAD DUP2 PUSH20 0xFFFFFFFFFFFFFFFFFFFFFFFFFFFFFFFFFFFFFFFF MUL NOT AND SWAP1 DUP4 PUSH20 0xFFFFFFFFFFFFFFFFFFFFFFFFFFFFFFFFFFFFFFFF AND MUL OR SWAP1 SSTORE POP POP JUMP JUMPDEST PUSH1 0x40 MLOAD DUP1 PUSH1 0xA0 ADD PUSH1 0x40 MSTORE DUP1 PUSH0 PUSH20 0xFFFFFFFFFFFFFFFFFFFFFFFFFFFFFFFFFFFFFFFF AND DUP2 MSTORE PUSH1 0x20 ADD PUSH0 PUSH20 0xFFFFFFFFFFFFFFFFFFFFFFFFFFFFFFFFFFFFFFFF AND DUP2 MSTORE PUSH1 0x20 ADD PUSH0 PUSH20 0xFFFFFFFFFFFFFFFFFFFFFFFFFFFFFFFFFFFFFFFF AND DUP2 MSTORE PUSH1 0x20 ADD PUSH1 0x60 DUP2 MSTORE PUSH1 0x20 ADD PUSH0 DUP2 MSTORE POP SWAP1 JUMP JUMPDEST PUSH0 PUSH0 REVERT JUMPDEST PUSH0 PUSH0 REVERT JUMPDEST PUSH0 PUSH20 0xFFFFFFFFFFFFFFFFFFFFFFFFFFFFFFFFFFFFFFFF DUP3 AND SWAP1 POP SWAP2 SWAP1 POP JUMP JUMPDEST PUSH0 PUSH2 0xD47 DUP3 PUSH2 0xD1E JUMP JUMPDEST SWAP1 POP SWAP2 SWAP1 POP JUMP JUMPDEST PUSH2 0xD57 DUP2 PUSH2 0xD3D JUMP JUMPDEST DUP2 EQ PUSH2 0xD61 JUMPI PUSH0 PUSH0 REVERT JUMPDEST POP JUMP JUMPDEST PUSH0 DUP2 CALLDATALOAD SWAP1 POP PUSH2 0xD72 DUP2 PUSH2 0xD4E JUMP JUMPDEST SWAP3 SWAP2 POP POP JUMP JUMPDEST PUSH0 PUSH0 REVERT JUMPDEST PUSH0 PUSH0 REVERT JUMPDEST PUSH0 PUSH0 REVERT JUMPDEST PUSH0 PUSH0 DUP4 PUSH1 0x1F DUP5 ADD SLT PUSH2 0xD99 JUMPI PUSH2 0xD98 PUSH2 0xD78 JUMP JUMPDEST JUMPDEST DUP3 CALLDATALOAD SWAP1 POP PUSH8 0xFFFFFFFFFFFFFFFF DUP2 GT ISZERO PUSH2 0xDB6 JUMPI PUSH2 0xDB5 PUSH2 0xD7C JUMP JUMPDEST JUMPDEST PUSH1 0x20 DUP4 ADD SWAP2 POP DUP4 PUSH1 0x1 DUP3 MUL DUP4 ADD GT ISZERO PUSH2 0xDD2 JUMPI PUSH2 0xDD1 PUSH2 0xD80 JUMP JUMPDEST JUMPDEST SWAP3 POP SWAP3 SWAP1 POP JUMP JUMPDEST PUSH0 PUSH0 PUSH0 PUSH0 PUSH0 PUSH1 0x80 DUP7 DUP9 SUB SLT ISZERO PUSH2 0xDF2 JUMPI PUSH2 0xDF1 PUSH2 0xD16 JUMP JUMPDEST JUMPDEST PUSH0 PUSH2 0xDFF DUP9 DUP3 DUP10 ADD PUSH2 0xD64 JUMP JUMPDEST SWAP6 POP POP PUSH1 0x20 PUSH2 0xE10 DUP9 DUP3 DUP10 ADD PUSH2 0xD64 JUMP JUMPDEST SWAP5 POP POP PUSH1 0x40 PUSH2 0xE21 DUP9 DUP3 DUP10 ADD PUSH2 0xD64 JUMP JUMPDEST SWAP4 POP POP PUSH1 0x60 DUP7 ADD CALLDATALOAD PUSH8 0xFFFFFFFFFFFFFFFF DUP2 GT ISZERO PUSH2 0xE42 JUMPI PUSH2 0xE41 PUSH2 0xD1A JUMP JUMPDEST JUMPDEST PUSH2 0xE4E DUP9 DUP3 DUP10 ADD PUSH2 0xD84 JUMP JUMPDEST SWAP3 POP SWAP3 POP POP SWAP3 SWAP6 POP SWAP3 SWAP6 SWAP1 SWAP4 POP JUMP JUMPDEST PUSH0 DUP2 SWAP1 POP SWAP2 SWAP1 POP JUMP JUMPDEST PUSH2 0xE6F DUP2 PUSH2 0xE5D JUMP JUMPDEST DUP3 MSTORE POP POP JUMP JUMPDEST PUSH0 PUSH1 0x20 DUP3 ADD SWAP1 POP PUSH2 0xE88 PUSH0 DUP4 ADD DUP5 PUSH2 0xE66 JUMP JUMPDEST SWAP3 SWAP2 POP POP JUMP JUMPDEST PUSH0 PUSH1 0x20 DUP3 DUP5 SUB SLT ISZERO PUSH2 0xEA3 JUMPI PUSH2 0xEA2 PUSH2 0xD16 JUMP JUMPDEST JUMPDEST PUSH0 PUSH2 0xEB0 DUP5 DUP3 DUP6 ADD PUSH2 0xD64 JUMP JUMPDEST SWAP2 POP POP SWAP3 SWAP2 POP POP JUMP JUMPDEST PUSH2 0xEC2 DUP2 PUSH2 0xD3D JUMP JUMPDEST DUP3 MSTORE POP POP JUMP JUMPDEST PUSH0 PUSH1 0x20 DUP3 ADD SWAP1 POP PUSH2 0xEDB PUSH0 DUP4 ADD DUP5 PUSH2 0xEB9 JUMP JUMPDEST SWAP3 SWAP2 POP POP JUMP JUMPDEST PUSH0 DUP2 ISZERO ISZERO SWAP1 POP SWAP2 SWAP1 POP JUMP JUMPDEST PUSH2 0xEF5 DUP2 PUSH2 0xEE1 JUMP JUMPDEST DUP3 MSTORE POP POP JUMP JUMPDEST PUSH0 PUSH1 0x20 DUP3 ADD SWAP1 POP PUSH2 0xF0E PUSH0 DUP4 ADD DUP5 PUSH2 0xEEC JUMP JUMPDEST SWAP3 SWAP2 POP POP JUMP JUMPDEST PUSH0 DUP2 MLOAD SWAP1 POP SWAP2 SWAP1 POP JUMP JUMPDEST PUSH0 DUP3 DUP3 MSTORE PUSH1 0x20 DUP3 ADD SWAP1 POP SWAP3 SWAP2 POP POP JUMP JUMPDEST PUSH0 DUP2 SWAP1 POP PUSH1 0x20 DUP3 ADD SWAP1 POP SWAP2 SWAP1 POP JUMP JUMPDEST PUSH2 0xF46 DUP2 PUSH2 0xD3D JUMP JUMPDEST DUP3 MSTORE POP POP JUMP JUMPDEST PUSH0 DUP2 MLOAD SWAP1 POP SWAP2 SWAP1 POP JUMP JUMPDEST PUSH0 DUP3 DUP3 MSTORE PUSH1 0x20 DUP3 ADD SWAP1 POP SWAP3 SWAP2 POP POP JUMP JUMPDEST DUP3 DUP2 DUP4 MCOPY PUSH0 DUP4 DUP4 ADD MSTORE POP POP POP JUMP JUMPDEST PUSH0 PUSH1 0x1F NOT PUSH1 0x1F DUP4 ADD AND SWAP1 POP SWAP2 SWAP1 POP JUMP JUMPDEST PUSH0 PUSH2 0xF8E DUP3 PUSH2 0xF4C JUMP JUMPDEST PUSH2 0xF98 DUP2 DUP6 PUSH2 0xF56 JUMP JUMPDEST SWAP4 POP PUSH2 0xFA8 DUP2 DUP6 PUSH1 0x20 DUP7 ADD PUSH2 0xF66 JUMP JUMPDEST PUSH2 0xFB1 DUP2 PUSH2 0xF74 JUMP JUMPDEST DUP5 ADD SWAP2 POP POP SWAP3 SWAP2 POP POP JUMP JUMPDEST PUSH2 0xFC5 DUP2 PUSH2 0xE5D JUMP JUMPDEST DUP3 MSTORE POP POP JUMP JUMPDEST PUSH0 PUSH1 0xA0 DUP4 ADD PUSH0 DUP4 ADD MLOAD PUSH2 0xFE0 PUSH0 DUP7 ADD DUP3 PUSH2 0xF3D JUMP JUMPDEST POP PUSH1 0x20 DUP4 ADD MLOAD PUSH2 0xFF3 PUSH1 0x20 DUP7 ADD DUP3 PUSH2 0xF3D JUMP JUMPDEST POP PUSH1 0x40 DUP4 ADD MLOAD PUSH2 0x1006 PUSH1 0x40 DUP7 ADD DUP3 PUSH2 0xF3D JUMP JUMPDEST POP PUSH1 0x60 DUP4 ADD MLOAD DUP5 DUP3 SUB PUSH1 0x60 DUP7 ADD MSTORE PUSH2 0x101E DUP3 DUP3 PUSH2 0xF84 JUMP JUMPDEST SWAP2 POP POP PUSH1 0x80 DUP4 ADD MLOAD PUSH2 0x1033 PUSH1 0x80 DUP7 ADD DUP3 PUSH2 0xFBC JUMP JUMPDEST POP DUP1 SWAP2 POP POP SWAP3 SWAP2 POP POP JUMP JUMPDEST PUSH0 PUSH2 0x1049 DUP4 DUP4 PUSH2 0xFCB JUMP JUMPDEST SWAP1 POP SWAP3 SWAP2 POP POP JUMP JUMPDEST PUSH0 PUSH1 0x20 DUP3 ADD SWAP1 POP SWAP2 SWAP1 POP JUMP JUMPDEST PUSH0 PUSH2 0x1067 DUP3 PUSH2 0xF14 JUMP JUMPDEST PUSH2 0x1071 DUP2 DUP6 PUSH2 0xF1E JUMP JUMPDEST SWAP4 POP DUP4 PUSH1 0x20 DUP3 MUL DUP6 ADD PUSH2 0x1083 DUP6 PUSH2 0xF2E JUMP JUMPDEST DUP1 PUSH0 JUMPDEST DUP6 DUP2 LT ISZERO PUSH2 0x10BE JUMPI DUP5 DUP5 SUB DUP10 MSTORE DUP2 MLOAD PUSH2 0x109F DUP6 DUP3 PUSH2 0x103E JUMP JUMPDEST SWAP5 POP PUSH2 0x10AA DUP4 PUSH2 0x1051 JUMP JUMPDEST SWAP3 POP PUSH1 0x20 DUP11 ADD SWAP10 POP POP PUSH1 0x1 DUP2 ADD SWAP1 POP PUSH2 0x1086 JUMP JUMPDEST POP DUP3 SWAP8 POP DUP8 SWAP6 POP POP POP POP POP POP SWAP3 SWAP2 POP POP JUMP JUMPDEST PUSH0 PUSH1 0x20 DUP3 ADD SWAP1 POP DUP2 DUP2 SUB PUSH0 DUP4 ADD MSTORE PUSH2 0x10E8 DUP2 DUP5 PUSH2 0x105D JUMP JUMPDEST SWAP1 POP SWAP3 SWAP2 POP POP JUMP JUMPDEST PUSH0 DUP3 DUP3 MSTORE PUSH1 0x20 DUP3 ADD SWAP1 POP SWAP3 SWAP2 POP POP JUMP JUMPDEST PUSH32 0x41756469744C6F673A206E6F7420617574686F72697365640000000000000000 PUSH0 DUP3 ADD MSTORE POP JUMP JUMPDEST PUSH0 PUSH2 0x1134 PUSH1 0x18 DUP4 PUSH2 0x10F0 JUMP JUMPDEST SWAP2 POP PUSH2 0x113F DUP3 PUSH2 0x1100 JUMP JUMPDEST PUSH1 0x20 DUP3 ADD SWAP1 POP SWAP2 SWAP1 POP JUMP JUMPDEST PUSH0 PUSH1 0x20 DUP3 ADD SWAP1 POP DUP2 DUP2 SUB PUSH0 DUP4 ADD MSTORE PUSH2 0x1161 DUP2 PUSH2 0x1128 JUMP JUMPDEST SWAP1 POP SWAP2 SWAP1 POP JUMP JUMPDEST PUSH32 0x4E487B7100000000000000000000000000000000000000000000000000000000 PUSH0 MSTORE PUSH1 0x41 PUSH1 0x4 MSTORE PUSH1 0x24 PUSH0 REVERT JUMPDEST PUSH32 0x4E487B7100000000000000000000000000000000000000000000000000000000 PUSH0 MSTORE PUSH1 0x22 PUSH1 0x4 MSTORE PUSH1 0x24 PUSH0 REVERT JUMPDEST PUSH0 PUSH1 0x2 DUP3 DIV SWAP1 POP PUSH1 0x1 DUP3 AND DUP1 PUSH2 0x11D9 JUMPI PUSH1 0x7F DUP3 AND SWAP2 POP JUMPDEST PUSH1 0x20 DUP3 LT DUP2 SUB PUSH2 0x11EC JUMPI PUSH2 0x11EB PUSH2 0x1195 JUMP JUMPDEST JUMPDEST POP SWAP2 SWAP1 POP JUMP JUMPDEST PUSH0 DUP2 SWAP1 POP DUP2 PUSH0 MSTORE PUSH1 0x20 PUSH0 KECCAK256 SWAP1 POP SWAP2 SWAP1 POP JUMP JUMPDEST PUSH0 PUSH1 0x20 PUSH1 0x1F DUP4 ADD DIV SWAP1 POP SWAP2 SWAP1 POP JUMP JUMPDEST PUSH0 DUP3 DUP3 SHL SWAP1 POP SWAP3 SWAP2 POP POP JUMP JUMPDEST PUSH0 PUSH1 0x8 DUP4 MUL PUSH2 0x124E PUSH32 0xFFFFFFFFFFFFFFFFFFFFFFFFFFFFFFFFFFFFFFFFFFFFFFFFFFFFFFFFFFFFFFFF DUP3 PUSH2 0x1213 JUMP JUMPDEST PUSH2 0x1258 DUP7 DUP4 PUSH2 0x1213 JUMP JUMPDEST SWAP6 POP DUP1 NOT DUP5 AND SWAP4 POP DUP1 DUP7 AND DUP5 OR SWAP3 POP POP POP SWAP4 SWAP3 POP POP POP JUMP JUMPDEST PUSH0 DUP2 SWAP1 POP SWAP2 SWAP1 POP JUMP JUMPDEST PUSH0 PUSH2 0x1293 PUSH2 0x128E PUSH2 0x1289 DUP5 PUSH2 0xE5D JUMP JUMPDEST PUSH2 0x1270 JUMP JUMPDEST PUSH2 0xE5D JUMP JUMPDEST SWAP1 POP SWAP2 SWAP1 POP JUMP JUMPDEST PUSH0 DUP2 SWAP1 POP SWAP2 SWAP1 POP JUMP JUMPDEST PUSH2 0x12AC DUP4 PUSH2 0x1279 JUMP JUMPDEST PUSH2 0x12C0 PUSH2 0x12B8 DUP3 PUSH2 0x129A JUMP JUMPDEST DUP5 DUP5 SLOAD PUSH2 0x121F JUMP JUMPDEST DUP3 SSTORE POP POP POP POP JUMP JUMPDEST PUSH0 PUSH0 SWAP1 POP SWAP1 JUMP JUMPDEST PUSH2 0x12D7 PUSH2 0x12C8 JUMP JUMPDEST PUSH2 0x12E2 DUP2 DUP5 DUP5 PUSH2 0x12A3 JUMP JUMPDEST POP POP POP JUMP JUMPDEST JUMPDEST DUP2 DUP2 LT ISZERO PUSH2 0x1305 JUMPI PUSH2 0x12FA PUSH0 DUP3 PUSH2 0x12CF JUMP JUMPDEST PUSH1 0x1 DUP2 ADD SWAP1 POP PUSH2 0x12E8 JUMP JUMPDEST POP POP JUMP JUMPDEST PUSH1 0x1F DUP3 GT ISZERO PUSH2 0x134A JUMPI PUSH2 0x131B DUP2 PUSH2 0x11F2 JUMP JUMPDEST PUSH2 0x1324 DUP5 PUSH2 0x1204 JUMP JUMPDEST DUP2 ADD PUSH1 0x20 DUP6 LT ISZERO PUSH2 0x1333 JUMPI DUP2 SWAP1 POP JUMPDEST PUSH2 0x1347 PUSH2 0x133F DUP6 PUSH2 0x1204 JUMP JUMPDEST DUP4 ADD DUP3 PUSH2 0x12E7 JUMP JUMPDEST POP POP JUMPDEST POP POP POP JUMP JUMPDEST PUSH0 DUP3 DUP3 SHR SWAP1 POP SWAP3 SWAP2 POP POP JUMP JUMPDEST PUSH0 PUSH2 0x136A PUSH0 NOT DUP5 PUSH1 0x8 MUL PUSH2 0x134F JUMP JUMPDEST NOT DUP1 DUP4 AND SWAP2 POP POP SWAP3 SWAP2 POP POP JUMP JUMPDEST PUSH0 PUSH2 0x1382 DUP4 DUP4 PUSH2 0x135B JUMP JUMPDEST SWAP2 POP DUP3 PUSH1 0x2 MUL DUP3 OR SWAP1 POP SWAP3 SWAP2 POP POP JUMP JUMPDEST PUSH2 0x139B DUP3 PUSH2 0xF4C JUMP JUMPDEST PUSH8 0xFFFFFFFFFFFFFFFF DUP2 GT ISZERO PUSH2 0x13B4 JUMPI PUSH2 0x13B3 PUSH2 0x1168 JUMP JUMPDEST JUMPDEST PUSH2 0x13BE DUP3 SLOAD PUSH2 0x11C2 JUMP JUMPDEST PUSH2 0x13C9 DUP3 DUP3 DUP6 PUSH2 0x1309 JUMP JUMPDEST PUSH0 PUSH1 0x20 SWAP1 POP PUSH1 0x1F DUP4 GT PUSH1 0x1 DUP2 EQ PUSH2 0x13FA JUMPI PUSH0 DUP5 ISZERO PUSH2 0x13E8 JUMPI DUP3 DUP8 ADD MLOAD SWAP1 POP JUMPDEST PUSH2 0x13F2 DUP6 DUP3 PUSH2 0x1377 JUMP JUMPDEST DUP7 SSTORE POP PUSH2 0x1459 JUMP JUMPDEST PUSH1 0x1F NOT DUP5 AND PUSH2 0x1408 DUP7 PUSH2 0x11F2 JUMP JUMPDEST PUSH0 JUMPDEST DUP3 DUP2 LT ISZERO PUSH2 0x142F JUMPI DUP5 DUP10 ADD MLOAD DUP3 SSTORE PUSH1 0x1 DUP3 ADD SWAP2 POP PUSH1 0x20 DUP6 ADD SWAP5 POP PUSH1 0x20 DUP2 ADD SWAP1 POP PUSH2 0x140A JUMP JUMPDEST DUP7 DUP4 LT ISZERO PUSH2 0x144C JUMPI DUP5 DUP10 ADD MLOAD PUSH2 0x1448 PUSH1 0x1F DUP10 AND DUP3 PUSH2 0x135B JUMP JUMPDEST DUP4 SSTORE POP JUMPDEST PUSH1 0x1 PUSH1 0x2 DUP9 MUL ADD DUP9 SSTORE POP POP POP JUMPDEST POP POP POP POP POP POP JUMP JUMPDEST PUSH32 0x4E487B7100000000000000000000000000000000000000000000000000000000 PUSH0 MSTORE PUSH1 0x11 PUSH1 0x4 MSTORE PUSH1 0x24 PUSH0 REVERT JUMPDEST PUSH0 PUSH2 0x1498 DUP3 PUSH2 0xE5D JUMP JUMPDEST SWAP2 POP PUSH2 0x14A3 DUP4 PUSH2 0xE5D JUMP JUMPDEST SWAP3 POP DUP3 DUP3 SUB SWAP1 POP DUP2 DUP2 GT ISZERO PUSH2 0x14BB JUMPI PUSH2 0x14BA PUSH2 0x1461 JUMP JUMPDEST JUMPDEST SWAP3 SWAP2 POP POP JUMP JUMPDEST DUP3 DUP2 DUP4 CALLDATACOPY PUSH0 DUP4 DUP4 ADD MSTORE POP POP POP JUMP JUMPDEST PUSH0 PUSH2 0x14DA DUP4 DUP6 PUSH2 0x10F0 JUMP JUMPDEST SWAP4 POP PUSH2 0x14E7 DUP4 DUP6 DUP5 PUSH2 0x14C1 JUMP JUMPDEST PUSH2 0x14F0 DUP4 PUSH2 0xF74 JUMP JUMPDEST DUP5 ADD SWAP1 POP SWAP4 SWAP3 POP POP POP JUMP JUMPDEST PUSH0 PUSH1 0x60 DUP3 ADD SWAP1 POP PUSH2 0x150E PUSH0 DUP4 ADD DUP8 PUSH2 0xEB9 JUMP JUMPDEST DUP2 DUP2 SUB PUSH1 0x20 DUP4 ADD MSTORE PUSH2 0x1521 DUP2 DUP6 DUP8 PUSH2 0x14CF JUMP JUMPDEST SWAP1 POP PUSH2 0x1530 PUSH1 0x40 DUP4 ADD DUP5 PUSH2 0xE66 JUMP JUMPDEST SWAP6 SWAP5 POP POP POP POP POP JUMP JUMPDEST PUSH32 0x41756469744C6F673A206E6F74206F776E657200000000000000000000000000 PUSH0 DUP3 ADD MSTORE POP JUMP JUMPDEST PUSH0 PUSH2 0x156D PUSH1 0x13 DUP4 PUSH2 0x10F0 JUMP JUMPDEST SWAP2 POP PUSH2 0x1578 DUP3 PUSH2 0x1539 JUMP JUMPDEST PUSH1 0x20 DUP3 ADD SWAP1 POP SWAP2 SWAP1 POP JUMP JUMPDEST PUSH0 PUSH1 0x20 DUP3 ADD SWAP1 POP DUP2 DUP2 SUB PUSH0 DUP4 ADD MSTORE PUSH2 0x159A DUP2 PUSH2 0x1561 JUMP JUMPDEST SWAP1 POP SWAP2 SWAP1 POP JUMP JUMPDEST PUSH32 0x4E487B7100000000000000000000000000000000000000000000000000000000 PUSH0 MSTORE PUSH1 0x32 PUSH1 0x4 MSTORE PUSH1 0x24 PUSH0 REVERT JUMPDEST PUSH0 PUSH2 0x15D8 DUP3 PUSH2 0xE5D JUMP JUMPDEST SWAP2 POP PUSH32 0xFFFFFFFFFFFFFFFFFFFFFFFFFFFFFFFFFFFFFFFFFFFFFFFFFFFFFFFFFFFFFFFF DUP3 SUB PUSH2 0x160A JUMPI PUSH2 0x1609 PUSH2 0x1461 JUMP JUMPDEST JUMPDEST PUSH1 0x1 DUP3 ADD SWAP1 POP SWAP2 SWAP1 POP JUMP JUMPDEST PUSH32 0x41756469744C6F673A207A65726F206164647265737300000000000000000000 PUSH0 DUP3 ADD MSTORE POP JUMP JUMPDEST PUSH0 PUSH2 0x1649 PUSH1 0x16 DUP4 PUSH2 0x10F0 JUMP JUMPDEST SWAP2 POP PUSH2 0x1654 DUP3 PUSH2 0x1615 JUMP JUMPDEST PUSH1 0x20 DUP3 ADD SWAP1 POP SWAP2 SWAP1 POP JUMP JUMPDEST PUSH0 PUSH1 0x20 DUP3 ADD SWAP1 POP DUP2 DUP2 SUB PUSH0 DUP4 ADD MSTORE PUSH2 0x1676 DUP2 PUSH2 0x163D JUMP JUMPDEST SWAP1 POP SWAP2 SWAP1 POP JUMP INVALID LOG2 PUSH5 0x6970667358 0x22 SLT KECCAK256 PUSH27 0x4ABD401C5EBEF67FFD9B65124EBB43B48487720EAD17E080A7E4C9 0x2E SMOD SIGNEXTEND XOR PUSH5 0x736F6C6343 STOP ADDMOD 0x1E STOP CALLER "
				},
				"gasEstimates": {
					"creation": {
						"codeDepositCost": "1162200",
						"executionCost": "25469",
						"totalCost": "1187669"
					},
					"external": {
						"authorise(address)": "28177",
						"authorisedCallers(address)": "2855",
						"deauthorise(address)": "28198",
						"getLogCount()": "2463",
						"getLogsForSubject(address)": "infinite",
						"logEvent(address,address,address,string)": "infinite",
						"owner()": "2507",
						"transferOwnership(address)": "30661"
					}
				},
				"methodIdentifiers": {
					"authorise(address)": "66e6c8af",
					"authorisedCallers(address)": "944fd180",
					"deauthorise(address)": "8acbddf0",
					"getLogCount()": "618033db",
					"getLogsForSubject(address)": "97e7b0f3",
					"logEvent(address,address,address,string)": "107d1d78",
					"owner()": "8da5cb5b",
					"transferOwnership(address)": "f2fde38b"
				}
			},
			"storageLayout": {
				"storage": [
					{
						"astId": 3,
						"contract": "contracts/AuditLog.sol:AuditLog",
						"label": "owner",
						"offset": 0,
						"slot": "0",
						"type": "t_address"
					},
					{
						"astId": 18,
						"contract": "contracts/AuditLog.sol:AuditLog",
						"label": "logs",
						"offset": 0,
						"slot": "1",
						"type": "t_array(t_struct(LogEntry)14_storage)dyn_storage"
					},
					{
						"astId": 22,
						"contract": "contracts/AuditLog.sol:AuditLog",
						"label": "authorisedCallers",
						"offset": 0,
						"slot": "2",
						"type": "t_mapping(t_address,t_bool)"
					}
				],
				"types": {
					"t_address": {
						"encoding": "inplace",
						"label": "address",
						"numberOfBytes": "20"
					},
					"t_array(t_struct(LogEntry)14_storage)dyn_storage": {
						"base": "t_struct(LogEntry)14_storage",
						"encoding": "dynamic_array",
						"label": "struct AuditLog.LogEntry[]",
						"numberOfBytes": "32"
					},
					"t_bool": {
						"encoding": "inplace",
						"label": "bool",
						"numberOfBytes": "1"
					},
					"t_mapping(t_address,t_bool)": {
						"encoding": "mapping",
						"key": "t_address",
						"label": "mapping(address => bool)",
						"numberOfBytes": "32",
						"value": "t_bool"
					},
					"t_string_storage": {
						"encoding": "bytes",
						"label": "string",
						"numberOfBytes": "32"
					},
					"t_struct(LogEntry)14_storage": {
						"encoding": "inplace",
						"label": "struct AuditLog.LogEntry",
						"members": [
							{
								"astId": 5,
								"contract": "contracts/AuditLog.sol:AuditLog",
								"label": "actor",
								"offset": 0,
								"slot": "0",
								"type": "t_address"
							},
							{
								"astId": 7,
								"contract": "contracts/AuditLog.sol:AuditLog",
								"label": "subject",
								"offset": 0,
								"slot": "1",
								"type": "t_address"
							},
							{
								"astId": 9,
								"contract": "contracts/AuditLog.sol:AuditLog",
								"label": "counterparty",
								"offset": 0,
								"slot": "2",
								"type": "t_address"
							},
							{
								"astId": 11,
								"contract": "contracts/AuditLog.sol:AuditLog",
								"label": "action",
								"offset": 0,
								"slot": "3",
								"type": "t_string_storage"
							},
							{
								"astId": 13,
								"contract": "contracts/AuditLog.sol:AuditLog",
								"label": "timestamp",
								"offset": 0,
								"slot": "4",
								"type": "t_uint256"
							}
						],
						"numberOfBytes": "160"
					},
					"t_uint256": {
						"encoding": "inplace",
						"label": "uint256",
						"numberOfBytes": "32"
					}
				}
			},
			"userdoc": {
				"kind": "user",
				"methods": {},
				"version": 1
			}
		}
	}
}