{
	"contracts/AccessControl.sol": {
		"AccessControl": {
			"abi": [
				{
					"inputs": [
						{
							"internalType": "address",
							"name": "_patientRegistry",
							"type": "address"
						},
						{
							"internalType": "address",
							"name": "_providerRegistry",
							"type": "address"
						},
						{
							"internalType": "address",
							"name": "_auditLog",
							"type": "address"
						}
					],
					"stateMutability": "nonpayable",
					"type": "constructor"
				},
				{
					"anonymous": false,
					"inputs": [
						{
							"indexed": true,
							"internalType": "address",
							"name": "patient",
							"type": "address"
						},
						{
							"indexed": true,
							"internalType": "address",
							"name": "provider",
							"type": "address"
						},
						{
							"indexed": false,
							"internalType": "uint256",
							"name": "timestamp",
							"type": "uint256"
						}
					],
					"name": "AccessGranted",
					"type": "event"
				},
				{
					"anonymous": false,
					"inputs": [
						{
							"indexed": true,
							"internalType": "address",
							"name": "patient",
							"type": "address"
						},
						{
							"indexed": true,
							"internalType": "address",
							"name": "provider",
							"type": "address"
						},
						{
							"indexed": false,
							"internalType": "uint256",
							"name": "timestamp",
							"type": "uint256"
						}
					],
					"name": "AccessRevoked",
					"type": "event"
				},
				{
					"inputs": [],
					"name": "auditLog",
					"outputs": [
						{
							"internalType": "contract IAuditLog",
							"name": "",
							"type": "address"
						}
					],
					"stateMutability": "view",
					"type": "function"
				},
				{
					"inputs": [
						{
							"internalType": "address",
							"name": "patient",
							"type": "address"
						},
						{
							"internalType": "address",
							"name": "provider",
							"type": "address"
						}
					],
					"name": "checkAccess",
					"outputs": [
						{
							"internalType": "bool",
							"name": "",
							"type": "bool"
						}
					],
					"stateMutability": "view",
					"type": "function"
				},
				{
					"inputs": [
						{
							"internalType": "address",
							"name": "provider",
							"type": "address"
						}
					],
					"name": "grantAccess",
					"outputs": [],
					"stateMutability": "nonpayable",
					"type": "function"
				},
				{
					"inputs": [],
					"name": "patientRegistry",
					"outputs": [
						{
							"internalType": "contract IPatientRegistry",
							"name": "",
							"type": "address"
						}
					],
					"stateMutability": "view",
					"type": "function"
				},
				{
					"inputs": [],
					"name": "providerRegistry",
					"outputs": [
						{
							"internalType": "contract IProviderRegistry",
							"name": "",
							"type": "address"
						}
					],
					"stateMutability": "view",
					"type": "function"
				},
				{
					"inputs": [
						{
							"internalType": "address",
							"name": "provider",
							"type": "address"
						}
					],
					"name": "revokeAccess",
					"outputs": [],
					"stateMutability": "nonpayable",
					"type": "function"
				}
			],
			"devdoc": {
				"kind": "dev",
				"methods": {},
				"version": 1
			},
			"evm": {
				"assembly": "    /* \"contracts/AccessControl.sol\":414:2768  contract AccessControl {... */\n  mstore(0x40, 0x80)\n    /* \"contracts/AccessControl.sol\":909:1436  constructor(address _patientRegistry, address _providerRegistry, address _auditLog) {... */\n  callvalue\n  dup1\n  iszero\n  tag_1\n  jumpi\n  revert(0x00, 0x00)\ntag_1:\n  pop\n  mload(0x40)\n  sub(codesize, bytecodeSize)\n  dup1\n  bytecodeSize\n  dup4\n  codecopy\n  dup2\n  dup2\n  add\n  0x40\n  mstore\n  dup2\n  add\n  swap1\n  tag_2\n  swap2\n  swap1\n  tag_3\n  jump\t// in\ntag_2:\n    /* \"contracts/AccessControl.sol\":1040:1041  0 */\n  0x00\n    /* \"contracts/AccessControl.sol\":1012:1042  _patientRegistry != address(0) */\n  0xffffffffffffffffffffffffffffffffffffffff\n  and\n    /* \"contracts/AccessControl.sol\":1012:1028  _patientRegistry */\n  dup4\n    /* \"contracts/AccessControl.sol\":1012:1042  _patientRegistry != address(0) */\n  0xffffffffffffffffffffffffffffffffffffffff\n  and\n  sub\n    /* \"contracts/AccessControl.sol\":1004:1082  require(_patientRegistry != address(0), \"AccessControl: zero patientRegistry\") */\n  tag_6\n  jumpi\n  mload(0x40)\n  0x08c379a000000000000000000000000000000000000000000000000000000000\n  dup2\n  mstore\n  0x04\n  add\n  tag_7\n  swap1\n  tag_8\n  jump\t// in\ntag_7:\n  mload(0x40)\n  dup1\n  swap2\n  sub\n  swap1\n  revert\ntag_6:\n    /* \"contracts/AccessControl.sol\":1130:1131  0 */\n  0x00\n    /* \"contracts/AccessControl.sol\":1101:1132  _providerRegistry != address(0) */\n  0xffffffffffffffffffffffffffffffffffffffff\n  and\n    /* \"contracts/AccessControl.sol\":1101:1118  _providerRegistry */\n  dup3\n    /* \"contracts/AccessControl.sol\":1101:1132  _providerRegistry != address(0) */\n  0xffffffffffffffffffffffffffffffffffffffff\n  and\n  sub\n    /* \"contracts/AccessControl.sol\":1093:1173  require(_providerRegistry != address(0), \"AccessControl: zero providerRegistry\") */\n  tag_9\n  jumpi\n  mload(0x40)\n  0x08c379a000000000000000000000000000000000000000000000000000000000\n  dup2\n  mstore\n  0x04\n  add\n  tag_10\n  swap1\n  tag_11\n  jump\t// in\ntag_10:\n  mload(0x40)\n  dup1\n  swap2\n  sub\n  swap1\n  revert\ntag_9:\n    /* \"contracts/AccessControl.sol\":1213:1214  0 */\n  0x00\n    /* \"contracts/AccessControl.sol\":1192:1215  _auditLog != address(0) */\n  0xffffffffffffffffffffffffffffffffffffffff\n  and\n    /* \"contracts/AccessControl.sol\":1192:1201  _auditLog */\n  dup2\n    /* \"contracts/AccessControl.sol\":1192:1215  _auditLog != address(0) */\n  0xffffffffffffffffffffffffffffffffffffffff\n  and\n  sub\n    /* \"contracts/AccessControl.sol\":1184:1248  require(_auditLog != address(0), \"AccessControl: zero auditLog\") */\n  tag_12\n  jumpi\n  mload(0x40)\n  0x08c379a000000000000000000000000000000000000000000000000000000000\n  dup2\n  mstore\n  0x04\n  add\n  tag_13\n  swap1\n  tag_14\n  jump\t// in\ntag_13:\n  mload(0x40)\n  dup1\n  swap2\n  sub\n  swap1\n  revert\ntag_12:\n    /* \"contracts/AccessControl.sol\":1295:1311  _patientRegistry */\n  dup3\n    /* \"contracts/AccessControl.sol\":1259:1274  patientRegistry */\n  0x00\n  0x00\n    /* \"contracts/AccessControl.sol\":1259:1312  patientRegistry  = IPatientRegistry(_patientRegistry) */\n  0x0100\n  exp\n  dup2\n  sload\n  dup2\n  0xffffffffffffffffffffffffffffffffffffffff\n  mul\n  not\n  and\n  swap1\n  dup4\n  0xffffffffffffffffffffffffffffffffffffffff\n  and\n  mul\n  or\n  swap1\n  sstore\n  pop\n    /* \"contracts/AccessControl.sol\":1360:1377  _providerRegistry */\n  dup2\n    /* \"contracts/AccessControl.sol\":1323:1339  providerRegistry */\n  0x01\n  0x00\n    /* \"contracts/AccessControl.sol\":1323:1378  providerRegistry = IProviderRegistry(_providerRegistry) */\n  0x0100\n  exp\n  dup2\n  sload\n  dup2\n  0xffffffffffffffffffffffffffffffffffffffff\n  mul\n  not\n  and\n  swap1\n  dup4\n  0xffffffffffffffffffffffffffffffffffffffff\n  and\n  mul\n  or\n  swap1\n  sstore\n  pop\n    /* \"contracts/AccessControl.sol\":1418:1427  _auditLog */\n  dup1\n    /* \"contracts/AccessControl.sol\":1389:1397  auditLog */\n  0x02\n  0x00\n    /* \"contracts/AccessControl.sol\":1389:1428  auditLog         = IAuditLog(_auditLog) */\n  0x0100\n  exp\n  dup2\n  sload\n  dup2\n  0xffffffffffffffffffffffffffffffffffffffff\n  mul\n  not\n  and\n  swap1\n  dup4\n  0xffffffffffffffffffffffffffffffffffffffff\n  and\n  mul\n  or\n  swap1\n  sstore\n  pop\n    /* \"contracts/AccessControl.sol\":909:1436  constructor(address _patientRegistry, address _providerRegistry, address _auditLog) {... */\n  pop\n  pop\n  pop\n    /* \"contracts/AccessControl.sol\":414:2768  contract AccessControl {... */\n  jump(tag_15)\n    /* \"#utility.yul\":88:205   */\ntag_17:\n    /* \"#utility.yul\":197:198   */\n  0x00\n    /* \"#utility.yul\":194:195   */\n  0x00\n    /* \"#utility.yul\":187:199   */\n  revert\n    /* \"#utility.yul\":334:460   */\ntag_19:\n    /* \"#utility.yul\":371:378   */\n  0x00\n    /* \"#utility.yul\":411:453   */\n  0xffffffffffffffffffffffffffffffffffffffff\n    /* \"#utility.yul\":404:409   */\n  dup3\n    /* \"#utility.yul\":400:454   */\n  and\n    /* \"#utility.yul\":389:454   */\n  swap1\n  pop\n    /* \"#utility.yul\":334:460   */\n  swap2\n  swap1\n  pop\n  jump\t// out\n    /* \"#utility.yul\":466:562   */\ntag_20:\n    /* \"#utility.yul\":503:510   */\n  0x00\n    /* \"#utility.yul\":532:556   */\n  tag_36\n    /* \"#utility.yul\":550:555   */\n  dup3\n    /* \"#utility.yul\":532:556   */\n  tag_19\n  jump\t// in\ntag_36:\n    /* \"#utility.yul\":521:556   */\n  swap1\n  pop\n    /* \"#utility.yul\":466:562   */\n  swap2\n  swap1\n  pop\n  jump\t// out\n    /* \"#utility.yul\":568:690   */\ntag_21:\n    /* \"#utility.yul\":641:665   */\n  tag_38\n    /* \"#utility.yul\":659:664   */\n  dup2\n    /* \"#utility.yul\":641:665   */\n  tag_20\n  jump\t// in\ntag_38:\n    /* \"#utility.yul\":634:639   */\n  dup2\n    /* \"#utility.yul\":631:666   */\n  eq\n    /* \"#utility.yul\":621:684   */\n  tag_39\n  jumpi\n    /* \"#utility.yul\":680:681   */\n  0x00\n    /* \"#utility.yul\":677:678   */\n  0x00\n    /* \"#utility.yul\":670:682   */\n  revert\n    /* \"#utility.yul\":621:684   */\ntag_39:\n    /* \"#utility.yul\":568:690   */\n  pop\n  jump\t// out\n    /* \"#utility.yul\":696:839   */\ntag_22:\n    /* \"#utility.yul\":753:758   */\n  0x00\n    /* \"#utility.yul\":784:790   */\n  dup2\n    /* \"#utility.yul\":778:791   */\n  mload\n    /* \"#utility.yul\":769:791   */\n  swap1\n  pop\n    /* \"#utility.yul\":800:833   */\n  tag_41\n    /* \"#utility.yul\":827:832   */\n  dup2\n    /* \"#utility.yul\":800:833   */\n  tag_21\n  jump\t// in\ntag_41:\n    /* \"#utility.yul\":696:839   */\n  swap3\n  swap2\n  pop\n  pop\n  jump\t// out\n    /* \"#utility.yul\":845:1508   */\ntag_3:\n    /* \"#utility.yul\":933:939   */\n  0x00\n    /* \"#utility.yul\":941:947   */\n  0x00\n    /* \"#utility.yul\":949:955   */\n  0x00\n    /* \"#utility.yul\":998:1000   */\n  0x60\n    /* \"#utility.yul\":986:995   */\n  dup5\n    /* \"#utility.yul\":977:984   */\n  dup7\n    /* \"#utility.yul\":973:996   */\n  sub\n    /* \"#utility.yul\":969:1001   */\n  slt\n    /* \"#utility.yul\":966:1085   */\n  iszero\n  tag_43\n  jumpi\n    /* \"#utility.yul\":1004:1083   */\n  tag_44\n  tag_17\n  jump\t// in\ntag_44:\n    /* \"#utility.yul\":966:1085   */\ntag_43:\n    /* \"#utility.yul\":1124:1125   */\n  0x00\n    /* \"#utility.yul\":1149:1213   */\n  tag_45\n    /* \"#utility.yul\":1205:1212   */\n  dup7\n    /* \"#utility.yul\":1196:1202   */\n  dup3\n    /* \"#utility.yul\":1185:1194   */\n  dup8\n    /* \"#utility.yul\":1181:1203   */\n  add\n    /* \"#utility.yul\":1149:1213   */\n  tag_22\n  jump\t// in\ntag_45:\n    /* \"#utility.yul\":1139:1213   */\n  swap4\n  pop\n    /* \"#utility.yul\":1095:1223   */\n  pop\n    /* \"#utility.yul\":1262:1264   */\n  0x20\n    /* \"#utility.yul\":1288:1352   */\n  tag_46\n    /* \"#utility.yul\":1344:1351   */\n  dup7\n    /* \"#utility.yul\":1335:1341   */\n  dup3\n    /* \"#utility.yul\":1324:1333   */\n  dup8\n    /* \"#utility.yul\":1320:1342   */\n  add\n    /* \"#utility.yul\":1288:1352   */\n  tag_22\n  jump\t// in\ntag_46:\n    /* \"#utility.yul\":1278:1352   */\n  swap3\n  pop\n    /* \"#utility.yul\":1233:1362   */\n  pop\n    /* \"#utility.yul\":1401:1403   */\n  0x40\n    /* \"#utility.yul\":1427:1491   */\n  tag_47\n    /* \"#utility.yul\":1483:1490   */\n  dup7\n    /* \"#utility.yul\":1474:1480   */\n  dup3\n    /* \"#utility.yul\":1463:1472   */\n  dup8\n    /* \"#utility.yul\":1459:1481   */\n  add\n    /* \"#utility.yul\":1427:1491   */\n  tag_22\n  jump\t// in\ntag_47:\n    /* \"#utility.yul\":1417:1491   */\n  swap2\n  pop\n    /* \"#utility.yul\":1372:1501   */\n  pop\n    /* \"#utility.yul\":845:1508   */\n  swap3\n  pop\n  swap3\n  pop\n  swap3\n  jump\t// out\n    /* \"#utility.yul\":1514:1683   */\ntag_23:\n    /* \"#utility.yul\":1598:1609   */\n  0x00\n    /* \"#utility.yul\":1632:1638   */\n  dup3\n    /* \"#utility.yul\":1627:1630   */\n  dup3\n    /* \"#utility.yul\":1620:1639   */\n  mstore\n    /* \"#utility.yul\":1672:1676   */\n  0x20\n    /* \"#utility.yul\":1667:1670   */\n  dup3\n    /* \"#utility.yul\":1663:1677   */\n  add\n    /* \"#utility.yul\":1648:1677   */\n  swap1\n  pop\n    /* \"#utility.yul\":1514:1683   */\n  swap3\n  swap2\n  pop\n  pop\n  jump\t// out\n    /* \"#utility.yul\":1689:1911   */\ntag_24:\n    /* \"#utility.yul\":1829:1863   */\n  0x416363657373436f6e74726f6c3a207a65726f2070617469656e745265676973\n    /* \"#utility.yul\":1825:1826   */\n  0x00\n    /* \"#utility.yul\":1817:1823   */\n  dup3\n    /* \"#utility.yul\":1813:1827   */\n  add\n    /* \"#utility.yul\":1806:1864   */\n  mstore\n    /* \"#utility.yul\":1898:1903   */\n  0x7472790000000000000000000000000000000000000000000000000000000000\n    /* \"#utility.yul\":1893:1895   */\n  0x20\n    /* \"#utility.yul\":1885:1891   */\n  dup3\n    /* \"#utility.yul\":1881:1896   */\n  add\n    /* \"#utility.yul\":1874:1904   */\n  mstore\n    /* \"#utility.yul\":1689:1911   */\n  pop\n  jump\t// out\n    /* \"#utility.yul\":1917:2283   */\ntag_25:\n    /* \"#utility.yul\":2059:2062   */\n  0x00\n    /* \"#utility.yul\":2080:2147   */\n  tag_51\n    /* \"#utility.yul\":2144:2146   */\n  0x23\n    /* \"#utility.yul\":2139:2142   */\n  dup4\n    /* \"#utility.yul\":2080:2147   */\n  tag_23\n  jump\t// in\ntag_51:\n    /* \"#utility.yul\":2073:2147   */\n  swap2\n  pop\n    /* \"#utility.yul\":2156:2249   */\n  tag_52\n    /* \"#utility.yul\":2245:2248   */\n  dup3\n    /* \"#utility.yul\":2156:2249   */\n  tag_24\n  jump\t// in\ntag_52:\n    /* \"#utility.yul\":2274:2276   */\n  0x40\n    /* \"#utility.yul\":2269:2272   */\n  dup3\n    /* \"#utility.yul\":2265:2277   */\n  add\n    /* \"#utility.yul\":2258:2277   */\n  swap1\n  pop\n    /* \"#utility.yul\":1917:2283   */\n  swap2\n  swap1\n  pop\n  jump\t// out\n    /* \"#utility.yul\":2289:2708   */\ntag_8:\n    /* \"#utility.yul\":2455:2459   */\n  0x00\n    /* \"#utility.yul\":2493:2495   */\n  0x20\n    /* \"#utility.yul\":2482:2491   */\n  dup3\n    /* \"#utility.yul\":2478:2496   */\n  add\n    /* \"#utility.yul\":2470:2496   */\n  swap1\n  pop\n    /* \"#utility.yul\":2542:2551   */\n  dup2\n    /* \"#utility.yul\":2536:2540   */\n  dup2\n    /* \"#utility.yul\":2532:2552   */\n  sub\n    /* \"#utility.yul\":2528:2529   */\n  0x00\n    /* \"#utility.yul\":2517:2526   */\n  dup4\n    /* \"#utility.yul\":2513:2530   */\n  add\n    /* \"#utility.yul\":2506:2553   */\n  mstore\n    /* \"#utility.yul\":2570:2701   */\n  tag_54\n    /* \"#utility.yul\":2696:2700   */\n  dup2\n    /* \"#utility.yul\":2570:2701   */\n  tag_25\n  jump\t// in\ntag_54:\n    /* \"#utility.yul\":2562:2701   */\n  swap1\n  pop\n    /* \"#utility.yul\":2289:2708   */\n  swap2\n  swap1\n  pop\n  jump\t// out\n    /* \"#utility.yul\":2714:2937   */\ntag_26:\n    /* \"#utility.yul\":2854:2888   */\n  0x416363657373436f6e74726f6c3a207a65726f2070726f766964657252656769\n    /* \"#utility.yul\":2850:2851   */\n  0x00\n    /* \"#utility.yul\":2842:2848   */\n  dup3\n    /* \"#utility.yul\":2838:2852   */\n  add\n    /* \"#utility.yul\":2831:2889   */\n  mstore\n    /* \"#utility.yul\":2923:2929   */\n  0x7374727900000000000000000000000000000000000000000000000000000000\n    /* \"#utility.yul\":2918:2920   */\n  0x20\n    /* \"#utility.yul\":2910:2916   */\n  dup3\n    /* \"#utility.yul\":2906:2921   */\n  add\n    /* \"#utility.yul\":2899:2930   */\n  mstore\n    /* \"#utility.yul\":2714:2937   */\n  pop\n  jump\t// out\n    /* \"#utility.yul\":2943:3309   */\ntag_27:\n    /* \"#utility.yul\":3085:3088   */\n  0x00\n    /* \"#utility.yul\":3106:3173   */\n  tag_57\n    /* \"#utility.yul\":3170:3172   */\n  0x24\n    /* \"#utility.yul\":3165:3168   */\n  dup4\n    /* \"#utility.yul\":3106:3173   */\n  tag_23\n  jump\t// in\ntag_57:\n    /* \"#utility.yul\":3099:3173   */\n  swap2\n  pop\n    /* \"#utility.yul\":3182:3275   */\n  tag_58\n    /* \"#utility.yul\":3271:3274   */\n  dup3\n    /* \"#utility.yul\":3182:3275   */\n  tag_26\n  jump\t// in\ntag_58:\n    /* \"#utility.yul\":3300:3302   */\n  0x40\n    /* \"#utility.yul\":3295:3298   */\n  dup3\n    /* \"#utility.yul\":3291:3303   */\n  add\n    /* \"#utility.yul\":3284:3303   */\n  swap1\n  pop\n    /* \"#utility.yul\":2943:3309   */\n  swap2\n  swap1\n  pop\n  jump\t// out\n    /* \"#utility.yul\":3315:3734   */\ntag_11:\n    /* \"#utility.yul\":3481:3485   */\n  0x00\n    /* \"#utility.yul\":3519:3521   */\n  0x20\n    /* \"#utility.yul\":3508:3517   */\n  dup3\n    /* \"#utility.yul\":3504:3522   */\n  add\n    /* \"#utility.yul\":3496:3522   */\n  swap1\n  pop\n    /* \"#utility.yul\":3568:3577   */\n  dup2\n    /* \"#utility.yul\":3562:3566   */\n  dup2\n    /* \"#utility.yul\":3558:3578   */\n  sub\n    /* \"#utility.yul\":3554:3555   */\n  0x00\n    /* \"#utility.yul\":3543:3552   */\n  dup4\n    /* \"#utility.yul\":3539:3556   */\n  add\n    /* \"#utility.yul\":3532:3579   */\n  mstore\n    /* \"#utility.yul\":3596:3727   */\n  tag_60\n    /* \"#utility.yul\":3722:3726   */\n  dup2\n    /* \"#utility.yul\":3596:3727   */\n  tag_27\n  jump\t// in\ntag_60:\n    /* \"#utility.yul\":3588:3727   */\n  swap1\n  pop\n    /* \"#utility.yul\":3315:3734   */\n  swap2\n  swap1\n  pop\n  jump\t// out\n    /* \"#utility.yul\":3740:3918   */\ntag_28:\n    /* \"#utility.yul\":3880:3910   */\n  0x416363657373436f6e74726f6c3a207a65726f2061756469744c6f6700000000\n    /* \"#utility.yul\":3876:3877   */\n  0x00\n    /* \"#utility.yul\":3868:3874   */\n  dup3\n    /* \"#utility.yul\":3864:3878   */\n  add\n    /* \"#utility.yul\":3857:3911   */\n  mstore\n    /* \"#utility.yul\":3740:3918   */\n  pop\n  jump\t// out\n    /* \"#utility.yul\":3924:4290   */\ntag_29:\n    /* \"#utility.yul\":4066:4069   */\n  0x00\n    /* \"#utility.yul\":4087:4154   */\n  tag_63\n    /* \"#utility.yul\":4151:4153   */\n  0x1c\n    /* \"#utility.yul\":4146:4149   */\n  dup4\n    /* \"#utility.yul\":4087:4154   */\n  tag_23\n  jump\t// in\ntag_63:\n    /* \"#utility.yul\":4080:4154   */\n  swap2\n  pop\n    /* \"#utility.yul\":4163:4256   */\n  tag_64\n    /* \"#utility.yul\":4252:4255   */\n  dup3\n    /* \"#utility.yul\":4163:4256   */\n  tag_28\n  jump\t// in\ntag_64:\n    /* \"#utility.yul\":4281:4283   */\n  0x20\n    /* \"#utility.yul\":4276:4279   */\n  dup3\n    /* \"#utility.yul\":4272:4284   */\n  add\n    /* \"#utility.yul\":4265:4284   */\n  swap1\n  pop\n    /* \"#utility.yul\":3924:4290   */\n  swap2\n  swap1\n  pop\n  jump\t// out\n    /* \"#utility.yul\":4296:4715   */\ntag_14:\n    /* \"#utility.yul\":4462:4466   */\n  0x00\n    /* \"#utility.yul\":4500:4502   */\n  0x20\n    /* \"#utility.yul\":4489:4498   */\n  dup3\n    /* \"#utility.yul\":4485:4503   */\n  add\n    /* \"#utility.yul\":4477:4503   */\n  swap1\n  pop\n    /* \"#utility.yul\":4549:4558   */\n  dup2\n    /* \"#utility.yul\":4543:4547   */\n  dup2\n    /* \"#utility.yul\":4539:4559   */\n  sub\n    /* \"#utility.yul\":4535:4536   */\n  0x00\n    /* \"#utility.yul\":4524:4533   */\n  dup4\n    /* \"#utility.yul\":4520:4537   */\n  add\n    /* \"#utility.yul\":4513:4560   */\n  mstore\n    /* \"#utility.yul\":4577:4708   */\n  tag_66\n    /* \"#utility.yul\":4703:4707   */\n  dup2\n    /* \"#utility.yul\":4577:4708   */\n  tag_29\n  jump\t// in\ntag_66:\n    /* \"#utility.yul\":4569:4708   */\n  swap1\n  pop\n    /* \"#utility.yul\":4296:4715   */\n  swap2\n  swap1\n  pop\n  jump\t// out\n    /* \"contracts/AccessControl.sol\":414:2768  contract AccessControl {... */\ntag_15:\n  dataSize(sub_0)\n  dup1\n  dataOffset(sub_0)\n  0x00\n  codecopy\n  0x00\n  return\nstop\n\nsub_0: assembly {\n        /* \"contracts/AccessControl.sol\":414:2768  contract AccessControl {... */\n      mstore(0x40, 0x80)\n      callvalue\n      dup1\n      iszero\n      tag_1\n      jumpi\n      revert(0x00, 0x00)\n    tag_1:\n      pop\n      jumpi(tag_2, lt(calldatasize, 0x04))\n      shr(0xe0, calldataload(0x00))\n      dup1\n      0x0ae5e739\n      eq\n      tag_3\n      jumpi\n      dup1\n      0x5250c6e2\n      eq\n      tag_4\n      jumpi\n      dup1\n      0x545921d9\n      eq\n      tag_5\n      jumpi\n      dup1\n      0x5a2d6ebd\n      eq\n      tag_6\n      jumpi\n      dup1\n      0x62e1f745\n      eq\n      tag_7\n      jumpi\n      dup1\n      0x85e68531\n      eq\n      tag_8\n      jumpi\n    tag_2:\n      revert(0x00, 0x00)\n        /* \"contracts/AccessControl.sol\":1446:2083  function grantAccess(address provider) external {... */\n    tag_3:\n      tag_9\n      0x04\n      dup1\n      calldatasize\n      sub\n      dup2\n      add\n      swap1\n      tag_10\n      swap2\n      swap1\n      tag_11\n      jump\t// in\n    tag_10:\n      tag_12\n      jump\t// in\n    tag_9:\n      stop\n        /* \"contracts/AccessControl.sol\":444:484  IPatientRegistry  public patientRegistry */\n    tag_4:\n      tag_13\n      tag_14\n      jump\t// in\n    tag_13:\n      mload(0x40)\n      tag_15\n      swap2\n      swap1\n      tag_16\n      jump\t// in\n    tag_15:\n      mload(0x40)\n      dup1\n      swap2\n      sub\n      swap1\n      return\n        /* \"contracts/AccessControl.sol\":491:532  IProviderRegistry public providerRegistry */\n    tag_5:\n      tag_17\n      tag_18\n      jump\t// in\n    tag_17:\n      mload(0x40)\n      tag_19\n      swap2\n      swap1\n      tag_20\n      jump\t// in\n    tag_19:\n      mload(0x40)\n      dup1\n      swap2\n      sub\n      swap1\n      return\n        /* \"contracts/AccessControl.sol\":539:572  IAuditLog         public auditLog */\n    tag_6:\n      tag_21\n      tag_22\n      jump\t// in\n    tag_21:\n      mload(0x40)\n      tag_23\n      swap2\n      swap1\n      tag_24\n      jump\t// in\n    tag_23:\n      mload(0x40)\n      dup1\n      swap2\n      sub\n      swap1\n      return\n        /* \"contracts/AccessControl.sol\":2623:2763  function checkAccess(address patient, address provider) external view returns(bool) {... */\n    tag_7:\n      tag_25\n      0x04\n      dup1\n      calldatasize\n      sub\n      dup2\n      add\n      swap1\n      tag_26\n      swap2\n      swap1\n      tag_27\n      jump\t// in\n    tag_26:\n      tag_28\n      jump\t// in\n    tag_25:\n      mload(0x40)\n      tag_29\n      swap2\n      swap1\n      tag_30\n      jump\t// in\n    tag_29:\n      mload(0x40)\n      dup1\n      swap2\n      sub\n      swap1\n      return\n        /* \"contracts/AccessControl.sol\":2091:2615  function revokeAccess(address provider) external {... */\n    tag_8:\n      tag_31\n      0x04\n      dup1\n      calldatasize\n      sub\n      dup2\n      add\n      swap1\n      tag_32\n      swap2\n      swap1\n      tag_11\n      jump\t// in\n    tag_32:\n      tag_33\n      jump\t// in\n    tag_31:\n      stop\n        /* \"contracts/AccessControl.sol\":1446:2083  function grantAccess(address provider) external {... */\n    tag_12:\n        /* \"contracts/AccessControl.sol\":1608:1623  patientRegistry */\n      0x00\n      0x00\n      swap1\n      sload\n      swap1\n      0x0100\n      exp\n      swap1\n      div\n      0xffffffffffffffffffffffffffffffffffffffff\n      and\n        /* \"contracts/AccessControl.sol\":1608:1633  patientRegistry.isPatient */\n      0xffffffffffffffffffffffffffffffffffffffff\n      and\n      0x8f9c79ed\n        /* \"contracts/AccessControl.sol\":1634:1644  msg.sender */\n      caller\n        /* \"contracts/AccessControl.sol\":1608:1645  patientRegistry.isPatient(msg.sender) */\n      mload(0x40)\n      dup3\n      0xffffffff\n      and\n      0xe0\n      shl\n      dup2\n      mstore\n      0x04\n      add\n      tag_35\n      swap2\n      swap1\n      tag_36\n      jump\t// in\n    tag_35:\n      0x20\n      mload(0x40)\n      dup1\n      dup4\n      sub\n      dup2\n      dup7\n      gas\n      staticcall\n      iszero\n      dup1\n      iszero\n      tag_38\n      jumpi\n      returndatacopy(0x00, 0x00, returndatasize)\n      revert(0x00, returndatasize)\n    tag_38:\n      pop\n      pop\n      pop\n      pop\n      mload(0x40)\n      returndatasize\n      not(0x1f)\n      0x1f\n      dup3\n      add\n      and\n      dup3\n      add\n      dup1\n      0x40\n      mstore\n      pop\n      dup2\n      add\n      swap1\n      tag_39\n      swap2\n      swap1\n      tag_40\n      jump\t// in\n    tag_39:\n        /* \"contracts/AccessControl.sol\":1600:1685  require(patientRegistry.isPatient(msg.sender), \"AccessControl: caller not a patient\") */\n      tag_41\n      jumpi\n      mload(0x40)\n      0x08c379a000000000000000000000000000000000000000000000000000000000\n      dup2\n      mstore\n      0x04\n      add\n      tag_42\n      swap1\n      tag_43\n      jump\t// in\n    tag_42:\n      mload(0x40)\n      dup1\n      swap2\n      sub\n      swap1\n      revert\n    tag_41:\n        /* \"contracts/AccessControl.sol\":1704:1720  providerRegistry */\n      0x01\n      0x00\n      swap1\n      sload\n      swap1\n      0x0100\n      exp\n      swap1\n      div\n      0xffffffffffffffffffffffffffffffffffffffff\n      and\n        /* \"contracts/AccessControl.sol\":1704:1737  providerRegistry.isActiveProvider */\n      0xffffffffffffffffffffffffffffffffffffffff\n      and\n      0x9b5e1a3b\n        /* \"contracts/AccessControl.sol\":1738:1746  provider */\n      dup3\n        /* \"contracts/AccessControl.sol\":1704:1747  providerRegistry.isActiveProvider(provider) */\n      mload(0x40)\n      dup3\n      0xffffffff\n      and\n      0xe0\n      shl\n      dup2\n      mstore\n      0x04\n      add\n      tag_44\n      swap2\n      swap1\n      tag_36\n      jump\t// in\n    tag_44:\n      0x20\n      mload(0x40)\n      dup1\n      dup4\n      sub\n      dup2\n      dup7\n      gas\n      staticcall\n      iszero\n      dup1\n      iszero\n      tag_46\n      jumpi\n      returndatacopy(0x00, 0x00, returndatasize)\n      revert(0x00, returndatasize)\n    tag_46:\n      pop\n      pop\n      pop\n      pop\n      mload(0x40)\n      returndatasize\n      not(0x1f)\n      0x1f\n      dup3\n      add\n      and\n      dup3\n      add\n      dup1\n      0x40\n      mstore\n      pop\n      dup2\n      add\n      swap1\n      tag_47\n      swap2\n      swap1\n      tag_40\n      jump\t// in\n    tag_47:\n        /* \"contracts/AccessControl.sol\":1696:1786  require(providerRegistry.isActiveProvider(provider), \"AccessControl: provider not active\") */\n      tag_48\n      jumpi\n      mload(0x40)\n      0x08c379a000000000000000000000000000000000000000000000000000000000\n      dup2\n      mstore\n      0x04\n      add\n      tag_49\n      swap1\n      tag_50\n      jump\t// in\n    tag_49:\n      mload(0x40)\n      dup1\n      swap2\n      sub\n      swap1\n      revert\n    tag_48:\n        /* \"contracts/AccessControl.sol\":1806:1817  permissions */\n      0x03\n        /* \"contracts/AccessControl.sol\":1806:1829  permissions[msg.sender] */\n      0x00\n        /* \"contracts/AccessControl.sol\":1818:1828  msg.sender */\n      caller\n        /* \"contracts/AccessControl.sol\":1806:1829  permissions[msg.sender] */\n      0xffffffffffffffffffffffffffffffffffffffff\n      and\n      0xffffffffffffffffffffffffffffffffffffffff\n      and\n      dup2\n      mstore\n      0x20\n      add\n      swap1\n      dup2\n      mstore\n      0x20\n      add\n      0x00\n      keccak256\n        /* \"contracts/AccessControl.sol\":1806:1839  permissions[msg.sender][provider] */\n      0x00\n        /* \"contracts/AccessControl.sol\":1830:1838  provider */\n      dup3\n        /* \"contracts/AccessControl.sol\":1806:1839  permissions[msg.sender][provider] */\n      0xffffffffffffffffffffffffffffffffffffffff\n      and\n      0xffffffffffffffffffffffffffffffffffffffff\n      and\n      dup2\n      mstore\n      0x20\n      add\n      swap1\n      dup2\n      mstore\n      0x20\n      add\n      0x00\n      keccak256\n      0x00\n      swap1\n      sload\n      swap1\n      0x0100\n      exp\n      swap1\n      div\n      0xff\n      and\n        /* \"contracts/AccessControl.sol\":1805:1839  !permissions[msg.sender][provider] */\n      iszero\n        /* \"contracts/AccessControl.sol\":1797:1874  require(!permissions[msg.sender][provider], \"AccessControl: already granted\") */\n      tag_51\n      jumpi\n      mload(0x40)\n      0x08c379a000000000000000000000000000000000000000000000000000000000\n      dup2\n      mstore\n      0x04\n      add\n      tag_52\n      swap1\n      tag_53\n      jump\t// in\n    tag_52:\n      mload(0x40)\n      dup1\n      swap2\n      sub\n      swap1\n      revert\n    tag_51:\n        /* \"contracts/AccessControl.sol\":1923:1927  true */\n      0x01\n        /* \"contracts/AccessControl.sol\":1887:1898  permissions */\n      0x03\n        /* \"contracts/AccessControl.sol\":1887:1910  permissions[msg.sender] */\n      0x00\n        /* \"contracts/AccessControl.sol\":1899:1909  msg.sender */\n      caller\n        /* \"contracts/AccessControl.sol\":1887:1910  permissions[msg.sender] */\n      0xffffffffffffffffffffffffffffffffffffffff\n      and\n      0xffffffffffffffffffffffffffffffffffffffff\n      and\n      dup2\n      mstore\n      0x20\n      add\n      swap1\n      dup2\n      mstore\n      0x20\n      add\n      0x00\n      keccak256\n        /* \"contracts/AccessControl.sol\":1887:1920  permissions[msg.sender][provider] */\n      0x00\n        /* \"contracts/AccessControl.sol\":1911:1919  provider */\n      dup4\n        /* \"contracts/AccessControl.sol\":1887:1920  permissions[msg.sender][provider] */\n      0xffffffffffffffffffffffffffffffffffffffff\n      and\n      0xffffffffffffffffffffffffffffffffffffffff\n      and\n      dup2\n      mstore\n      0x20\n      add\n      swap1\n      dup2\n      mstore\n      0x20\n      add\n      0x00\n      keccak256\n      0x00\n        /* \"contracts/AccessControl.sol\":1887:1927  permissions[msg.sender][provider] = true */\n      0x0100\n      exp\n      dup2\n      sload\n      dup2\n      0xff\n      mul\n      not\n      and\n      swap1\n      dup4\n      iszero\n      iszero\n      mul\n      or\n      swap1\n      sstore\n      pop\n        /* \"contracts/AccessControl.sol\":1971:1979  provider */\n      dup1\n        /* \"contracts/AccessControl.sol\":1945:1997  AccessGranted(msg.sender, provider, block.timestamp) */\n      0xffffffffffffffffffffffffffffffffffffffff\n      and\n        /* \"contracts/AccessControl.sol\":1959:1969  msg.sender */\n      caller\n        /* \"contracts/AccessControl.sol\":1945:1997  AccessGranted(msg.sender, provider, block.timestamp) */\n      0xffffffffffffffffffffffffffffffffffffffff\n      and\n      0x65d0cc1e52d49938ca4ad9f423c79c1b84d914b9a683fbc5d3f93ac3cc5635f5\n        /* \"contracts/AccessControl.sol\":1981:1996  block.timestamp */\n      timestamp\n        /* \"contracts/AccessControl.sol\":1945:1997  AccessGranted(msg.sender, provider, block.timestamp) */\n      mload(0x40)\n      tag_54\n      swap2\n      swap1\n      tag_55\n      jump\t// in\n    tag_54:\n      mload(0x40)\n      dup1\n      swap2\n      sub\n      swap1\n      log3\n        /* \"contracts/AccessControl.sol\":2008:2016  auditLog */\n      0x02\n      0x00\n      swap1\n      sload\n      swap1\n      0x0100\n      exp\n      swap1\n      div\n      0xffffffffffffffffffffffffffffffffffffffff\n      and\n        /* \"contracts/AccessControl.sol\":2008:2025  auditLog.logEvent */\n      0xffffffffffffffffffffffffffffffffffffffff\n      and\n      0x107d1d78\n        /* \"contracts/AccessControl.sol\":2026:2036  msg.sender */\n      caller\n        /* \"contracts/AccessControl.sol\":2038:2048  msg.sender */\n      caller\n        /* \"contracts/AccessControl.sol\":2050:2058  provider */\n      dup5\n        /* \"contracts/AccessControl.sol\":2008:2075  auditLog.logEvent(msg.sender, msg.sender, provider, \"GRANT_ACCESS\") */\n      mload(0x40)\n      dup5\n      0xffffffff\n      and\n      0xe0\n      shl\n      dup2\n      mstore\n      0x04\n      add\n      tag_56\n      swap4\n      swap3\n      swap2\n      swap1\n      tag_57\n      jump\t// in\n    tag_56:\n      0x00\n      mload(0x40)\n      dup1\n      dup4\n      sub\n      dup2\n      0x00\n      dup8\n      dup1\n      extcodesize\n      iszero\n      dup1\n      iszero\n      tag_58\n      jumpi\n      revert(0x00, 0x00)\n    tag_58:\n      pop\n      gas\n      call\n      iszero\n      dup1\n      iszero\n      tag_60\n      jumpi\n      returndatacopy(0x00, 0x00, returndatasize)\n      revert(0x00, returndatasize)\n    tag_60:\n      pop\n      pop\n      pop\n      pop\n        /* \"contracts/AccessControl.sol\":1446:2083  function grantAccess(address provider) external {... */\n      pop\n      jump\t// out\n        /* \"contracts/AccessControl.sol\":444:484  IPatientRegistry  public patientRegistry */\n    tag_14:\n      0x00\n      0x00\n      swap1\n      sload\n      swap1\n      0x0100\n      exp\n      swap1\n      div\n      0xffffffffffffffffffffffffffffffffffffffff\n      and\n      dup2\n      jump\t// out\n        /* \"contracts/AccessControl.sol\":491:532  IProviderRegistry public providerRegistry */\n    tag_18:\n      0x01\n      0x00\n      swap1\n      sload\n      swap1\n      0x0100\n      exp\n      swap1\n      div\n      0xffffffffffffffffffffffffffffffffffffffff\n      and\n      dup2\n      jump\t// out\n        /* \"contracts/AccessControl.sol\":539:572  IAuditLog         public auditLog */\n    tag_22:\n      0x02\n      0x00\n      swap1\n      sload\n      swap1\n      0x0100\n      exp\n      swap1\n      div\n      0xffffffffffffffffffffffffffffffffffffffff\n      and\n      dup2\n      jump\t// out\n        /* \"contracts/AccessControl.sol\":2623:2763  function checkAccess(address patient, address provider) external view returns(bool) {... */\n    tag_28:\n        /* \"contracts/AccessControl.sol\":2701:2705  bool */\n      0x00\n        /* \"contracts/AccessControl.sol\":2725:2736  permissions */\n      0x03\n        /* \"contracts/AccessControl.sol\":2725:2745  permissions[patient] */\n      0x00\n        /* \"contracts/AccessControl.sol\":2737:2744  patient */\n      dup5\n        /* \"contracts/AccessControl.sol\":2725:2745  permissions[patient] */\n      0xffffffffffffffffffffffffffffffffffffffff\n      and\n      0xffffffffffffffffffffffffffffffffffffffff\n      and\n      dup2\n      mstore\n      0x20\n      add\n      swap1\n      dup2\n      mstore\n      0x20\n      add\n      0x00\n      keccak256\n        /* \"contracts/AccessControl.sol\":2725:2755  permissions[patient][provider] */\n      0x00\n        /* \"contracts/AccessControl.sol\":2746:2754  provider */\n      dup4\n        /* \"contracts/AccessControl.sol\":2725:2755  permissions[patient][provider] */\n      0xffffffffffffffffffffffffffffffffffffffff\n      and\n      0xffffffffffffffffffffffffffffffffffffffff\n      and\n      dup2\n      mstore\n      0x20\n      add\n      swap1\n      dup2\n      mstore\n      0x20\n      add\n      0x00\n      keccak256\n      0x00\n      swap1\n      sload\n      swap1\n      0x0100\n      exp\n      swap1\n      div\n      0xff\n      and\n        /* \"contracts/AccessControl.sol\":2718:2755  return permissions[patient][provider] */\n      swap1\n      pop\n        /* \"contracts/AccessControl.sol\":2623:2763  function checkAccess(address patient, address provider) external view returns(bool) {... */\n      swap3\n      swap2\n      pop\n      pop\n      jump\t// out\n        /* \"contracts/AccessControl.sol\":2091:2615  function revokeAccess(address provider) external {... */\n    tag_33:\n        /* \"contracts/AccessControl.sol\":2236:2251  patientRegistry */\n      0x00\n      0x00\n      swap1\n      sload\n      swap1\n      0x0100\n      exp\n      swap1\n      div\n      0xffffffffffffffffffffffffffffffffffffffff\n      and\n        /* \"contracts/AccessControl.sol\":2236:2261  patientRegistry.isPatient */\n      0xffffffffffffffffffffffffffffffffffffffff\n      and\n      0x8f9c79ed\n        /* \"contracts/AccessControl.sol\":2262:2272  msg.sender */\n      caller\n        /* \"contracts/AccessControl.sol\":2236:2273  patientRegistry.isPatient(msg.sender) */\n      mload(0x40)\n      dup3\n      0xffffffff\n      and\n      0xe0\n      shl\n      dup2\n      mstore\n      0x04\n      add\n      tag_63\n      swap2\n      swap1\n      tag_36\n      jump\t// in\n    tag_63:\n      0x20\n      mload(0x40)\n      dup1\n      dup4\n      sub\n      dup2\n      dup7\n      gas\n      staticcall\n      iszero\n      dup1\n      iszero\n      tag_65\n      jumpi\n      returndatacopy(0x00, 0x00, returndatasize)\n      revert(0x00, returndatasize)\n    tag_65:\n      pop\n      pop\n      pop\n      pop\n      mload(0x40)\n      returndatasize\n      not(0x1f)\n      0x1f\n      dup3\n      add\n      and\n      dup3\n      add\n      dup1\n      0x40\n      mstore\n      pop\n      dup2\n      add\n      swap1\n      tag_66\n      swap2\n      swap1\n      tag_40\n      jump\t// in\n    tag_66:\n        /* \"contracts/AccessControl.sol\":2228:2313  require(patientRegistry.isPatient(msg.sender), \"AccessControl: caller not a patient\") */\n      tag_67\n      jumpi\n      mload(0x40)\n      0x08c379a000000000000000000000000000000000000000000000000000000000\n      dup2\n      mstore\n      0x04\n      add\n      tag_68\n      swap1\n      tag_43\n      jump\t// in\n    tag_68:\n      mload(0x40)\n      dup1\n      swap2\n      sub\n      swap1\n      revert\n    tag_67:\n        /* \"contracts/AccessControl.sol\":2332:2343  permissions */\n      0x03\n        /* \"contracts/AccessControl.sol\":2332:2355  permissions[msg.sender] */\n      0x00\n        /* \"contracts/AccessControl.sol\":2344:2354  msg.sender */\n      caller\n        /* \"contracts/AccessControl.sol\":2332:2355  permissions[msg.sender] */\n      0xffffffffffffffffffffffffffffffffffffffff\n      and\n      0xffffffffffffffffffffffffffffffffffffffff\n      and\n      dup2\n      mstore\n      0x20\n      add\n      swap1\n      dup2\n      mstore\n      0x20\n      add\n      0x00\n      keccak256\n        /* \"contracts/AccessControl.sol\":2332:2365  permissions[msg.sender][provider] */\n      0x00\n        /* \"contracts/AccessControl.sol\":2356:2364  provider */\n      dup3\n        /* \"contracts/AccessControl.sol\":2332:2365  permissions[msg.sender][provider] */\n      0xffffffffffffffffffffffffffffffffffffffff\n      and\n      0xffffffffffffffffffffffffffffffffffffffff\n      and\n      dup2\n      mstore\n      0x20\n      add\n      swap1\n      dup2\n      mstore\n      0x20\n      add\n      0x00\n      keccak256\n      0x00\n      swap1\n      sload\n      swap1\n      0x0100\n      exp\n      swap1\n      div\n      0xff\n      and\n        /* \"contracts/AccessControl.sol\":2324:2404  require(permissions[msg.sender][provider], \"AccessControl: no access to revoke\") */\n      tag_69\n      jumpi\n      mload(0x40)\n      0x08c379a000000000000000000000000000000000000000000000000000000000\n      dup2\n      mstore\n      0x04\n      add\n      tag_70\n      swap1\n      tag_71\n      jump\t// in\n    tag_70:\n      mload(0x40)\n      dup1\n      swap2\n      sub\n      swap1\n      revert\n    tag_69:\n        /* \"contracts/AccessControl.sol\":2453:2458  false */\n      0x00\n        /* \"contracts/AccessControl.sol\":2417:2428  permissions */\n      0x03\n        /* \"contracts/AccessControl.sol\":2417:2440  permissions[msg.sender] */\n      0x00\n        /* \"contracts/AccessControl.sol\":2429:2439  msg.sender */\n      caller\n        /* \"contracts/AccessControl.sol\":2417:2440  permissions[msg.sender] */\n      0xffffffffffffffffffffffffffffffffffffffff\n      and\n      0xffffffffffffffffffffffffffffffffffffffff\n      and\n      dup2\n      mstore\n      0x20\n      add\n      swap1\n      dup2\n      mstore\n      0x20\n      add\n      0x00\n      keccak256\n        /* \"contracts/AccessControl.sol\":2417:2450  permissions[msg.sender][provider] */\n      0x00\n        /* \"contracts/AccessControl.sol\":2441:2449  provider */\n      dup4\n        /* \"contracts/AccessControl.sol\":2417:2450  permissions[msg.sender][provider] */\n      0xffffffffffffffffffffffffffffffffffffffff\n      and\n      0xffffffffffffffffffffffffffffffffffffffff\n      and\n      dup2\n      mstore\n      0x20\n      add\n      swap1\n      dup2\n      mstore\n      0x20\n      add\n      0x00\n      keccak256\n      0x00\n        /* \"contracts/AccessControl.sol\":2417:2458  permissions[msg.sender][provider] = false */\n      0x0100\n      exp\n      dup2\n      sload\n      dup2\n      0xff\n      mul\n      not\n      and\n      swap1\n      dup4\n      iszero\n      iszero\n      mul\n      or\n      swap1\n      sstore\n      pop\n        /* \"contracts/AccessControl.sol\":2502:2510  provider */\n      dup1\n        /* \"contracts/AccessControl.sol\":2476:2528  AccessRevoked(msg.sender, provider, block.timestamp) */\n      0xffffffffffffffffffffffffffffffffffffffff\n      and\n        /* \"contracts/AccessControl.sol\":2490:2500  msg.sender */\n      caller\n        /* \"contracts/AccessControl.sol\":2476:2528  AccessRevoked(msg.sender, provider, block.timestamp) */\n      0xffffffffffffffffffffffffffffffffffffffff\n      and\n      0x6f6a404ffd2cea4713256a4fd9ce99c8cf8cf32d85c2bb8061d1603ff57d50c3\n        /* \"contracts/AccessControl.sol\":2512:2527  block.timestamp */\n      timestamp\n        /* \"contracts/AccessControl.sol\":2476:2528  AccessRevoked(msg.sender, provider, block.timestamp) */\n      mload(0x40)\n      tag_72\n      swap2\n      swap1\n      tag_55\n      jump\t// in\n    tag_72:\n      mload(0x40)\n      dup1\n      swap2\n      sub\n      swap1\n      log3\n        /* \"contracts/AccessControl.sol\":2539:2547  auditLog */\n      0x02\n      0x00\n      swap1\n      sload\n      swap1\n      0x0100\n      exp\n      swap1\n      div\n      0xffffffffffffffffffffffffffffffffffffffff\n      and\n        /* \"contracts/AccessControl.sol\":2539:2556  auditLog.logEvent */\n      0xffffffffffffffffffffffffffffffffffffffff\n      and\n      0x107d1d78\n        /* \"contracts/AccessControl.sol\":2557:2567  msg.sender */\n      caller\n        /* \"contracts/AccessControl.sol\":2569:2579  msg.sender */\n      caller\n        /* \"contracts/AccessControl.sol\":2581:2589  provider */\n      dup5\n        /* \"contracts/AccessControl.sol\":2539:2607  auditLog.logEvent(msg.sender, msg.sender, provider, \"REVOKE_ACCESS\") */\n      mload(0x40)\n      dup5\n      0xffffffff\n      and\n      0xe0\n      shl\n      dup2\n      mstore\n      0x04\n      add\n      tag_73\n      swap4\n      swap3\n      swap2\n      swap1\n      tag_74\n      jump\t// in\n    tag_73:\n      0x00\n      mload(0x40)\n      dup1\n      dup4\n      sub\n      dup2\n      0x00\n      dup8\n      dup1\n      extcodesize\n      iszero\n      dup1\n      iszero\n      tag_75\n      jumpi\n      revert(0x00, 0x00)\n    tag_75:\n      pop\n      gas\n      call\n      iszero\n      dup1\n      iszero\n      tag_77\n      jumpi\n      returndatacopy(0x00, 0x00, returndatasize)\n      revert(0x00, returndatasize)\n    tag_77:\n      pop\n      pop\n      pop\n      pop\n        /* \"contracts/AccessControl.sol\":2091:2615  function revokeAccess(address provider) external {... */\n      pop\n      jump\t// out\n        /* \"#utility.yul\":88:205   */\n    tag_79:\n        /* \"#utility.yul\":197:198   */\n      0x00\n        /* \"#utility.yul\":194:195   */\n      0x00\n        /* \"#utility.yul\":187:199   */\n      revert\n        /* \"#utility.yul\":334:460   */\n    tag_81:\n        /* \"#utility.yul\":371:378   */\n      0x00\n        /* \"#utility.yul\":411:453   */\n      0xffffffffffffffffffffffffffffffffffffffff\n        /* \"#utility.yul\":404:409   */\n      dup3\n        /* \"#utility.yul\":400:454   */\n      and\n        /* \"#utility.yul\":389:454   */\n      swap1\n      pop\n        /* \"#utility.yul\":334:460   */\n      swap2\n      swap1\n      pop\n      jump\t// out\n        /* \"#utility.yul\":466:562   */\n    tag_82:\n        /* \"#utility.yul\":503:510   */\n      0x00\n        /* \"#utility.yul\":532:556   */\n      tag_120\n        /* \"#utility.yul\":550:555   */\n      dup3\n        /* \"#utility.yul\":532:556   */\n      tag_81\n      jump\t// in\n    tag_120:\n        /* \"#utility.yul\":521:556   */\n      swap1\n      pop\n        /* \"#utility.yul\":466:562   */\n      swap2\n      swap1\n      pop\n      jump\t// out\n        /* \"#utility.yul\":568:690   */\n    tag_83:\n        /* \"#utility.yul\":641:665   */\n      tag_122\n        /* \"#utility.yul\":659:664   */\n      dup2\n        /* \"#utility.yul\":641:665   */\n      tag_82\n      jump\t// in\n    tag_122:\n        /* \"#utility.yul\":634:639   */\n      dup2\n        /* \"#utility.yul\":631:666   */\n      eq\n        /* \"#utility.yul\":621:684   */\n      tag_123\n      jumpi\n        /* \"#utility.yul\":680:681   */\n      0x00\n        /* \"#utility.yul\":677:678   */\n      0x00\n        /* \"#utility.yul\":670:682   */\n      revert\n        /* \"#utility.yul\":621:684   */\n    tag_123:\n        /* \"#utility.yul\":568:690   */\n      pop\n      jump\t// out\n        /* \"#utility.yul\":696:835   */\n    tag_84:\n        /* \"#utility.yul\":742:747   */\n      0x00\n        /* \"#utility.yul\":780:786   */\n      dup2\n        /* \"#utility.yul\":767:787   */\n      calldataload\n        /* \"#utility.yul\":758:787   */\n      swap1\n      pop\n        /* \"#utility.yul\":796:829   */\n      tag_125\n        /* \"#utility.yul\":823:828   */\n      dup2\n        /* \"#utility.yul\":796:829   */\n      tag_83\n      jump\t// in\n    tag_125:\n        /* \"#utility.yul\":696:835   */\n      swap3\n      swap2\n      pop\n      pop\n      jump\t// out\n        /* \"#utility.yul\":841:1170   */\n    tag_11:\n        /* \"#utility.yul\":900:906   */\n      0x00\n        /* \"#utility.yul\":949:951   */\n      0x20\n        /* \"#utility.yul\":937:946   */\n      dup3\n        /* \"#utility.yul\":928:935   */\n      dup5\n        /* \"#utility.yul\":924:947   */\n      sub\n        /* \"#utility.yul\":920:952   */\n      slt\n        /* \"#utility.yul\":917:1036   */\n      iszero\n      tag_127\n      jumpi\n        /* \"#utility.yul\":955:1034   */\n      tag_128\n      tag_79\n      jump\t// in\n    tag_128:\n        /* \"#utility.yul\":917:1036   */\n    tag_127:\n        /* \"#utility.yul\":1075:1076   */\n      0x00\n        /* \"#utility.yul\":1100:1153   */\n      tag_129\n        /* \"#utility.yul\":1145:1152   */\n      dup5\n        /* \"#utility.yul\":1136:1142   */\n      dup3\n        /* \"#utility.yul\":1125:1134   */\n      dup6\n        /* \"#utility.yul\":1121:1143   */\n      add\n        /* \"#utility.yul\":1100:1153   */\n      tag_84\n      jump\t// in\n    tag_129:\n        /* \"#utility.yul\":1090:1153   */\n      swap2\n      pop\n        /* \"#utility.yul\":1046:1163   */\n      pop\n        /* \"#utility.yul\":841:1170   */\n      swap3\n      swap2\n      pop\n      pop\n      jump\t// out\n        /* \"#utility.yul\":1176:1236   */\n    tag_85:\n        /* \"#utility.yul\":1204:1207   */\n      0x00\n        /* \"#utility.yul\":1225:1230   */\n      dup2\n        /* \"#utility.yul\":1218:1230   */\n      swap1\n      pop\n        /* \"#utility.yul\":1176:1236   */\n      swap2\n      swap1\n      pop\n      jump\t// out\n        /* \"#utility.yul\":1242:1384   */\n    tag_86:\n        /* \"#utility.yul\":1292:1301   */\n      0x00\n        /* \"#utility.yul\":1325:1378   */\n      tag_132\n        /* \"#utility.yul\":1343:1377   */\n      tag_133\n        /* \"#utility.yul\":1352:1376   */\n      tag_134\n        /* \"#utility.yul\":1370:1375   */\n      dup5\n        /* \"#utility.yul\":1352:1376   */\n      tag_81\n      jump\t// in\n    tag_134:\n        /* \"#utility.yul\":1343:1377   */\n      tag_85\n      jump\t// in\n    tag_133:\n        /* \"#utility.yul\":1325:1378   */\n      tag_81\n      jump\t// in\n    tag_132:\n        /* \"#utility.yul\":1312:1378   */\n      swap1\n      pop\n        /* \"#utility.yul\":1242:1384   */\n      swap2\n      swap1\n      pop\n      jump\t// out\n        /* \"#utility.yul\":1390:1516   */\n    tag_87:\n        /* \"#utility.yul\":1440:1449   */\n      0x00\n        /* \"#utility.yul\":1473:1510   */\n      tag_136\n        /* \"#utility.yul\":1504:1509   */\n      dup3\n        /* \"#utility.yul\":1473:1510   */\n      tag_86\n      jump\t// in\n    tag_136:\n        /* \"#utility.yul\":1460:1510   */\n      swap1\n      pop\n        /* \"#utility.yul\":1390:1516   */\n      swap2\n      swap1\n      pop\n      jump\t// out\n        /* \"#utility.yul\":1522:1670   */\n    tag_88:\n        /* \"#utility.yul\":1594:1603   */\n      0x00\n        /* \"#utility.yul\":1627:1664   */\n      tag_138\n        /* \"#utility.yul\":1658:1663   */\n      dup3\n        /* \"#utility.yul\":1627:1664   */\n      tag_87\n      jump\t// in\n    tag_138:\n        /* \"#utility.yul\":1614:1664   */\n      swap1\n      pop\n        /* \"#utility.yul\":1522:1670   */\n      swap2\n      swap1\n      pop\n      jump\t// out\n        /* \"#utility.yul\":1676:1851   */\n    tag_89:\n        /* \"#utility.yul\":1785:1844   */\n      tag_140\n        /* \"#utility.yul\":1838:1843   */\n      dup2\n        /* \"#utility.yul\":1785:1844   */\n      tag_88\n      jump\t// in\n    tag_140:\n        /* \"#utility.yul\":1780:1783   */\n      dup3\n        /* \"#utility.yul\":1773:1845   */\n      mstore\n        /* \"#utility.yul\":1676:1851   */\n      pop\n      pop\n      jump\t// out\n        /* \"#utility.yul\":1857:2123   */\n    tag_16:\n        /* \"#utility.yul\":1972:1976   */\n      0x00\n        /* \"#utility.yul\":2010:2012   */\n      0x20\n        /* \"#utility.yul\":1999:2008   */\n      dup3\n        /* \"#utility.yul\":1995:2013   */\n      add\n        /* \"#utility.yul\":1987:2013   */\n      swap1\n      pop\n        /* \"#utility.yul\":2023:2116   */\n      tag_142\n        /* \"#utility.yul\":2113:2114   */\n      0x00\n        /* \"#utility.yul\":2102:2111   */\n      dup4\n        /* \"#utility.yul\":2098:2115   */\n      add\n        /* \"#utility.yul\":2089:2095   */\n      dup5\n        /* \"#utility.yul\":2023:2116   */\n      tag_89\n      jump\t// in\n    tag_142:\n        /* \"#utility.yul\":1857:2123   */\n      swap3\n      swap2\n      pop\n      pop\n      jump\t// out\n        /* \"#utility.yul\":2129:2279   */\n    tag_90:\n        /* \"#utility.yul\":2203:2212   */\n      0x00\n        /* \"#utility.yul\":2236:2273   */\n      tag_144\n        /* \"#utility.yul\":2267:2272   */\n      dup3\n        /* \"#utility.yul\":2236:2273   */\n      tag_87\n      jump\t// in\n    tag_144:\n        /* \"#utility.yul\":2223:2273   */\n      swap1\n      pop\n        /* \"#utility.yul\":2129:2279   */\n      swap2\n      swap1\n      pop\n      jump\t// out\n        /* \"#utility.yul\":2285:2464   */\n    tag_91:\n        /* \"#utility.yul\":2396:2457   */\n      tag_146\n        /* \"#utility.yul\":2451:2456   */\n      dup2\n        /* \"#utility.yul\":2396:2457   */\n      tag_90\n      jump\t// in\n    tag_146:\n        /* \"#utility.yul\":2391:2394   */\n      dup3\n        /* \"#utility.yul\":2384:2458   */\n      mstore\n        /* \"#utility.yul\":2285:2464   */\n      pop\n      pop\n      jump\t// out\n        /* \"#utility.yul\":2470:2740   */\n    tag_20:\n        /* \"#utility.yul\":2587:2591   */\n      0x00\n        /* \"#utility.yul\":2625:2627   */\n      0x20\n        /* \"#utility.yul\":2614:2623   */\n      dup3\n        /* \"#utility.yul\":2610:2628   */\n      add\n        /* \"#utility.yul\":2602:2628   */\n      swap1\n      pop\n        /* \"#utility.yul\":2638:2733   */\n      tag_148\n        /* \"#utility.yul\":2730:2731   */\n      0x00\n        /* \"#utility.yul\":2719:2728   */\n      dup4\n        /* \"#utility.yul\":2715:2732   */\n      add\n        /* \"#utility.yul\":2706:2712   */\n      dup5\n        /* \"#utility.yul\":2638:2733   */\n      tag_91\n      jump\t// in\n    tag_148:\n        /* \"#utility.yul\":2470:2740   */\n      swap3\n      swap2\n      pop\n      pop\n      jump\t// out\n        /* \"#utility.yul\":2746:2888   */\n    tag_92:\n        /* \"#utility.yul\":2812:2821   */\n      0x00\n        /* \"#utility.yul\":2845:2882   */\n      tag_150\n        /* \"#utility.yul\":2876:2881   */\n      dup3\n        /* \"#utility.yul\":2845:2882   */\n      tag_87\n      jump\t// in\n    tag_150:\n        /* \"#utility.yul\":2832:2882   */\n      swap1\n      pop\n        /* \"#utility.yul\":2746:2888   */\n      swap2\n      swap1\n      pop\n      jump\t// out\n        /* \"#utility.yul\":2894:3057   */\n    tag_93:\n        /* \"#utility.yul\":2997:3050   */\n      tag_152\n        /* \"#utility.yul\":3044:3049   */\n      dup2\n        /* \"#utility.yul\":2997:3050   */\n      tag_92\n      jump\t// in\n    tag_152:\n        /* \"#utility.yul\":2992:2995   */\n      dup3\n        /* \"#utility.yul\":2985:3051   */\n      mstore\n        /* \"#utility.yul\":2894:3057   */\n      pop\n      pop\n      jump\t// out\n        /* \"#utility.yul\":3063:3317   */\n    tag_24:\n        /* \"#utility.yul\":3172:3176   */\n      0x00\n        /* \"#utility.yul\":3210:3212   */\n      0x20\n        /* \"#utility.yul\":3199:3208   */\n      dup3\n        /* \"#utility.yul\":3195:3213   */\n      add\n        /* \"#utility.yul\":3187:3213   */\n      swap1\n      pop\n        /* \"#utility.yul\":3223:3310   */\n      tag_154\n        /* \"#utility.yul\":3307:3308   */\n      0x00\n        /* \"#utility.yul\":3296:3305   */\n      dup4\n        /* \"#utility.yul\":3292:3309   */\n      add\n        /* \"#utility.yul\":3283:3289   */\n      dup5\n        /* \"#utility.yul\":3223:3310   */\n      tag_93\n      jump\t// in\n    tag_154:\n        /* \"#utility.yul\":3063:3317   */\n      swap3\n      swap2\n      pop\n      pop\n      jump\t// out\n        /* \"#utility.yul\":3323:3797   */\n    tag_27:\n        /* \"#utility.yul\":3391:3397   */\n      0x00\n        /* \"#utility.yul\":3399:3405   */\n      0x00\n        /* \"#utility.yul\":3448:3450   */\n      0x40\n        /* \"#utility.yul\":3436:3445   */\n      dup4\n        /* \"#utility.yul\":3427:3434   */\n      dup6\n        /* \"#utility.yul\":3423:3446   */\n      sub\n        /* \"#utility.yul\":3419:3451   */\n      slt\n        /* \"#utility.yul\":3416:3535   */\n      iszero\n      tag_156\n      jumpi\n        /* \"#utility.yul\":3454:3533   */\n      tag_157\n      tag_79\n      jump\t// in\n    tag_157:\n        /* \"#utility.yul\":3416:3535   */\n    tag_156:\n        /* \"#utility.yul\":3574:3575   */\n      0x00\n        /* \"#utility.yul\":3599:3652   */\n      tag_158\n        /* \"#utility.yul\":3644:3651   */\n      dup6\n        /* \"#utility.yul\":3635:3641   */\n      dup3\n        /* \"#utility.yul\":3624:3633   */\n      dup7\n        /* \"#utility.yul\":3620:3642   */\n      add\n        /* \"#utility.yul\":3599:3652   */\n      tag_84\n      jump\t// in\n    tag_158:\n        /* \"#utility.yul\":3589:3652   */\n      swap3\n      pop\n        /* \"#utility.yul\":3545:3662   */\n      pop\n        /* \"#utility.yul\":3701:3703   */\n      0x20\n        /* \"#utility.yul\":3727:3780   */\n      tag_159\n        /* \"#utility.yul\":3772:3779   */\n      dup6\n        /* \"#utility.yul\":3763:3769   */\n      dup3\n        /* \"#utility.yul\":3752:3761   */\n      dup7\n        /* \"#utility.yul\":3748:3770   */\n      add\n        /* \"#utility.yul\":3727:3780   */\n      tag_84\n      jump\t// in\n    tag_159:\n        /* \"#utility.yul\":3717:3780   */\n      swap2\n      pop\n        /* \"#utility.yul\":3672:3790   */\n      pop\n        /* \"#utility.yul\":3323:3797   */\n      swap3\n      pop\n      swap3\n      swap1\n      pop\n      jump\t// out\n        /* \"#utility.yul\":3803:3893   */\n    tag_94:\n        /* \"#utility.yul\":3837:3844   */\n      0x00\n        /* \"#utility.yul\":3880:3885   */\n      dup2\n        /* \"#utility.yul\":3873:3886   */\n      iszero\n        /* \"#utility.yul\":3866:3887   */\n      iszero\n        /* \"#utility.yul\":3855:3887   */\n      swap1\n      pop\n        /* \"#utility.yul\":3803:3893   */\n      swap2\n      swap1\n      pop\n      jump\t// out\n        /* \"#utility.yul\":3899:4008   */\n    tag_95:\n        /* \"#utility.yul\":3980:4001   */\n      tag_162\n        /* \"#utility.yul\":3995:4000   */\n      dup2\n        /* \"#utility.yul\":3980:4001   */\n      tag_94\n      jump\t// in\n    tag_162:\n        /* \"#utility.yul\":3975:3978   */\n      dup3\n        /* \"#utility.yul\":3968:4002   */\n      mstore\n        /* \"#utility.yul\":3899:4008   */\n      pop\n      pop\n      jump\t// out\n        /* \"#utility.yul\":4014:4224   */\n    tag_30:\n        /* \"#utility.yul\":4101:4105   */\n      0x00\n        /* \"#utility.yul\":4139:4141   */\n      0x20\n        /* \"#utility.yul\":4128:4137   */\n      dup3\n        /* \"#utility.yul\":4124:4142   */\n      add\n        /* \"#utility.yul\":4116:4142   */\n      swap1\n      pop\n        /* \"#utility.yul\":4152:4217   */\n      tag_164\n        /* \"#utility.yul\":4214:4215   */\n      0x00\n        /* \"#utility.yul\":4203:4212   */\n      dup4\n        /* \"#utility.yul\":4199:4216   */\n      add\n        /* \"#utility.yul\":4190:4196   */\n      dup5\n        /* \"#utility.yul\":4152:4217   */\n      tag_95\n      jump\t// in\n    tag_164:\n        /* \"#utility.yul\":4014:4224   */\n      swap3\n      swap2\n      pop\n      pop\n      jump\t// out\n        /* \"#utility.yul\":4230:4348   */\n    tag_96:\n        /* \"#utility.yul\":4317:4341   */\n      tag_166\n        /* \"#utility.yul\":4335:4340   */\n      dup2\n        /* \"#utility.yul\":4317:4341   */\n      tag_82\n      jump\t// in\n    tag_166:\n        /* \"#utility.yul\":4312:4315   */\n      dup3\n        /* \"#utility.yul\":4305:4342   */\n      mstore\n        /* \"#utility.yul\":4230:4348   */\n      pop\n      pop\n      jump\t// out\n        /* \"#utility.yul\":4354:4576   */\n    tag_36:\n        /* \"#utility.yul\":4447:4451   */\n      0x00\n        /* \"#utility.yul\":4485:4487   */\n      0x20\n        /* \"#utility.yul\":4474:4483   */\n      dup3\n        /* \"#utility.yul\":4470:4488   */\n      add\n        /* \"#utility.yul\":4462:4488   */\n      swap1\n      pop\n        /* \"#utility.yul\":4498:4569   */\n      tag_168\n        /* \"#utility.yul\":4566:4567   */\n      0x00\n        /* \"#utility.yul\":4555:4564   */\n      dup4\n        /* \"#utility.yul\":4551:4568   */\n      add\n        /* \"#utility.yul\":4542:4548   */\n      dup5\n        /* \"#utility.yul\":4498:4569   */\n      tag_96\n      jump\t// in\n    tag_168:\n        /* \"#utility.yul\":4354:4576   */\n      swap3\n      swap2\n      pop\n      pop\n      jump\t// out\n        /* \"#utility.yul\":4582:4698   */\n    tag_97:\n        /* \"#utility.yul\":4652:4673   */\n      tag_170\n        /* \"#utility.yul\":4667:4672   */\n      dup2\n        /* \"#utility.yul\":4652:4673   */\n      tag_94\n      jump\t// in\n    tag_170:\n        /* \"#utility.yul\":4645:4650   */\n      dup2\n        /* \"#utility.yul\":4642:4674   */\n      eq\n        /* \"#utility.yul\":4632:4692   */\n      tag_171\n      jumpi\n        /* \"#utility.yul\":4688:4689   */\n      0x00\n        /* \"#utility.yul\":4685:4686   */\n      0x00\n        /* \"#utility.yul\":4678:4690   */\n      revert\n        /* \"#utility.yul\":4632:4692   */\n    tag_171:\n        /* \"#utility.yul\":4582:4698   */\n      pop\n      jump\t// out\n        /* \"#utility.yul\":4704:4841   */\n    tag_98:\n        /* \"#utility.yul\":4758:4763   */\n      0x00\n        /* \"#utility.yul\":4789:4795   */\n      dup2\n        /* \"#utility.yul\":4783:4796   */\n      mload\n        /* \"#utility.yul\":4774:4796   */\n      swap1\n      pop\n        /* \"#utility.yul\":4805:4835   */\n      tag_173\n        /* \"#utility.yul\":4829:4834   */\n      dup2\n        /* \"#utility.yul\":4805:4835   */\n      tag_97\n      jump\t// in\n    tag_173:\n        /* \"#utility.yul\":4704:4841   */\n      swap3\n      swap2\n      pop\n      pop\n      jump\t// out\n        /* \"#utility.yul\":4847:5192   */\n    tag_40:\n        /* \"#utility.yul\":4914:4920   */\n      0x00\n        /* \"#utility.yul\":4963:4965   */\n      0x20\n        /* \"#utility.yul\":4951:4960   */\n      dup3\n        /* \"#utility.yul\":4942:4949   */\n      dup5\n        /* \"#utility.yul\":4938:4961   */\n      sub\n        /* \"#utility.yul\":4934:4966   */\n      slt\n        /* \"#utility.yul\":4931:5050   */\n      iszero\n      tag_175\n      jumpi\n        /* \"#utility.yul\":4969:5048   */\n      tag_176\n      tag_79\n      jump\t// in\n    tag_176:\n        /* \"#utility.yul\":4931:5050   */\n    tag_175:\n        /* \"#utility.yul\":5089:5090   */\n      0x00\n        /* \"#utility.yul\":5114:5175   */\n      tag_177\n        /* \"#utility.yul\":5167:5174   */\n      dup5\n        /* \"#utility.yul\":5158:5164   */\n      dup3\n        /* \"#utility.yul\":5147:5156   */\n      dup6\n        /* \"#utility.yul\":5143:5165   */\n      add\n        /* \"#utility.yul\":5114:5175   */\n      tag_98\n      jump\t// in\n    tag_177:\n        /* \"#utility.yul\":5104:5175   */\n      swap2\n      pop\n        /* \"#utility.yul\":5060:5185   */\n      pop\n        /* \"#utility.yul\":4847:5192   */\n      swap3\n      swap2\n      pop\n      pop\n      jump\t// out\n        /* \"#utility.yul\":5198:5367   */\n    tag_99:\n        /* \"#utility.yul\":5282:5293   */\n      0x00\n        /* \"#utility.yul\":5316:5322   */\n      dup3\n        /* \"#utility.yul\":5311:5314   */\n      dup3\n        /* \"#utility.yul\":5304:5323   */\n      mstore\n        /* \"#utility.yul\":5356:5360   */\n      0x20\n        /* \"#utility.yul\":5351:5354   */\n      dup3\n        /* \"#utility.yul\":5347:5361   */\n      add\n        /* \"#utility.yul\":5332:5361   */\n      swap1\n      pop\n        /* \"#utility.yul\":5198:5367   */\n      swap3\n      swap2\n      pop\n      pop\n      jump\t// out\n        /* \"#utility.yul\":5373:5595   */\n    tag_100:\n        /* \"#utility.yul\":5513:5547   */\n      0x416363657373436f6e74726f6c3a2063616c6c6572206e6f7420612070617469\n        /* \"#utility.yul\":5509:5510   */\n      0x00\n        /* \"#utility.yul\":5501:5507   */\n      dup3\n        /* \"#utility.yul\":5497:5511   */\n      add\n        /* \"#utility.yul\":5490:5548   */\n      mstore\n        /* \"#utility.yul\":5582:5587   */\n      0x656e740000000000000000000000000000000000000000000000000000000000\n        /* \"#utility.yul\":5577:5579   */\n      0x20\n        /* \"#utility.yul\":5569:5575   */\n      dup3\n        /* \"#utility.yul\":5565:5580   */\n      add\n        /* \"#utility.yul\":5558:5588   */\n      mstore\n        /* \"#utility.yul\":5373:5595   */\n      pop\n      jump\t// out\n        /* \"#utility.yul\":5601:5967   */\n    tag_101:\n        /* \"#utility.yul\":5743:5746   */\n      0x00\n        /* \"#utility.yul\":5764:5831   */\n      tag_181\n        /* \"#utility.yul\":5828:5830   */\n      0x23\n        /* \"#utility.yul\":5823:5826   */\n      dup4\n        /* \"#utility.yul\":5764:5831   */\n      tag_99\n      jump\t// in\n    tag_181:\n        /* \"#utility.yul\":5757:5831   */\n      swap2\n      pop\n        /* \"#utility.yul\":5840:5933   */\n      tag_182\n        /* \"#utility.yul\":5929:5932   */\n      dup3\n        /* \"#utility.yul\":5840:5933   */\n      tag_100\n      jump\t// in\n    tag_182:\n        /* \"#utility.yul\":5958:5960   */\n      0x40\n        /* \"#utility.yul\":5953:5956   */\n      dup3\n        /* \"#utility.yul\":5949:5961   */\n      add\n        /* \"#utility.yul\":5942:5961   */\n      swap1\n      pop\n        /* \"#utility.yul\":5601:5967   */\n      swap2\n      swap1\n      pop\n      jump\t// out\n        /* \"#utility.yul\":5973:6392   */\n    tag_43:\n        /* \"#utility.yul\":6139:6143   */\n      0x00\n        /* \"#utility.yul\":6177:6179   */\n      0x20\n        /* \"#utility.yul\":6166:6175   */\n      dup3\n        /* \"#utility.yul\":6162:6180   */\n      add\n        /* \"#utility.yul\":6154:6180   */\n      swap1\n      pop\n        /* \"#utility.yul\":6226:6235   */\n      dup2\n        /* \"#utility.yul\":6220:6224   */\n      dup2\n        /* \"#utility.yul\":6216:6236   */\n      sub\n        /* \"#utility.yul\":6212:6213   */\n      0x00\n        /* \"#utility.yul\":6201:6210   */\n      dup4\n        /* \"#utility.yul\":6197:6214   */\n      add\n        /* \"#utility.yul\":6190:6237   */\n      mstore\n        /* \"#utility.yul\":6254:6385   */\n      tag_184\n        /* \"#utility.yul\":6380:6384   */\n      dup2\n        /* \"#utility.yul\":6254:6385   */\n      tag_101\n      jump\t// in\n    tag_184:\n        /* \"#utility.yul\":6246:6385   */\n      swap1\n      pop\n        /* \"#utility.yul\":5973:6392   */\n      swap2\n      swap1\n      pop\n      jump\t// out\n        /* \"#utility.yul\":6398:6619   */\n    tag_102:\n        /* \"#utility.yul\":6538:6572   */\n      0x416363657373436f6e74726f6c3a2070726f7669646572206e6f742061637469\n        /* \"#utility.yul\":6534:6535   */\n      0x00\n        /* \"#utility.yul\":6526:6532   */\n      dup3\n        /* \"#utility.yul\":6522:6536   */\n      add\n        /* \"#utility.yul\":6515:6573   */\n      mstore\n        /* \"#utility.yul\":6607:6611   */\n      0x7665000000000000000000000000000000000000000000000000000000000000\n        /* \"#utility.yul\":6602:6604   */\n      0x20\n        /* \"#utility.yul\":6594:6600   */\n      dup3\n        /* \"#utility.yul\":6590:6605   */\n      add\n        /* \"#utility.yul\":6583:6612   */\n      mstore\n        /* \"#utility.yul\":6398:6619   */\n      pop\n      jump\t// out\n        /* \"#utility.yul\":6625:6991   */\n    tag_103:\n        /* \"#utility.yul\":6767:6770   */\n      0x00\n        /* \"#utility.yul\":6788:6855   */\n      tag_187\n        /* \"#utility.yul\":6852:6854   */\n      0x22\n        /* \"#utility.yul\":6847:6850   */\n      dup4\n        /* \"#utility.yul\":6788:6855   */\n      tag_99\n      jump\t// in\n    tag_187:\n        /* \"#utility.yul\":6781:6855   */\n      swap2\n      pop\n        /* \"#utility.yul\":6864:6957   */\n      tag_188\n        /* \"#utility.yul\":6953:6956   */\n      dup3\n        /* \"#utility.yul\":6864:6957   */\n      tag_102\n      jump\t// in\n    tag_188:\n        /* \"#utility.yul\":6982:6984   */\n      0x40\n        /* \"#utility.yul\":6977:6980   */\n      dup3\n        /* \"#utility.yul\":6973:6985   */\n      add\n        /* \"#utility.yul\":6966:6985   */\n      swap1\n      pop\n        /* \"#utility.yul\":6625:6991   */\n      swap2\n      swap1\n      pop\n      jump\t// out\n        /* \"#utility.yul\":6997:7416   */\n    tag_50:\n        /* \"#utility.yul\":7163:7167   */\n      0x00\n        /* \"#utility.yul\":7201:7203   */\n      0x20\n        /* \"#utility.yul\":7190:7199   */\n      dup3\n        /* \"#utility.yul\":7186:7204   */\n      add\n        /* \"#utility.yul\":7178:7204   */\n      swap1\n      pop\n        /* \"#utility.yul\":7250:7259   */\n      dup2\n        /* \"#utility.yul\":7244:7248   */\n      dup2\n        /* \"#utility.yul\":7240:7260   */\n      sub\n        /* \"#utility.yul\":7236:7237   */\n      0x00\n        /* \"#utility.yul\":7225:7234   */\n      dup4\n        /* \"#utility.yul\":7221:7238   */\n      add\n        /* \"#utility.yul\":7214:7261   */\n      mstore\n        /* \"#utility.yul\":7278:7409   */\n      tag_190\n        /* \"#utility.yul\":7404:7408   */\n      dup2\n        /* \"#utility.yul\":7278:7409   */\n      tag_103\n      jump\t// in\n    tag_190:\n        /* \"#utility.yul\":7270:7409   */\n      swap1\n      pop\n        /* \"#utility.yul\":6997:7416   */\n      swap2\n      swap1\n      pop\n      jump\t// out\n        /* \"#utility.yul\":7422:7602   */\n    tag_104:\n        /* \"#utility.yul\":7562:7594   */\n      0x416363657373436f6e74726f6c3a20616c7265616479206772616e7465640000\n        /* \"#utility.yul\":7558:7559   */\n      0x00\n        /* \"#utility.yul\":7550:7556   */\n      dup3\n        /* \"#utility.yul\":7546:7560   */\n      add\n        /* \"#utility.yul\":7539:7595   */\n      mstore\n        /* \"#utility.yul\":7422:7602   */\n      pop\n      jump\t// out\n        /* \"#utility.yul\":7608:7974   */\n    tag_105:\n        /* \"#utility.yul\":7750:7753   */\n      0x00\n        /* \"#utility.yul\":7771:7838   */\n      tag_193\n        /* \"#utility.yul\":7835:7837   */\n      0x1e\n        /* \"#utility.yul\":7830:7833   */\n      dup4\n        /* \"#utility.yul\":7771:7838   */\n      tag_99\n      jump\t// in\n    tag_193:\n        /* \"#utility.yul\":7764:7838   */\n      swap2\n      pop\n        /* \"#utility.yul\":7847:7940   */\n      tag_194\n        /* \"#utility.yul\":7936:7939   */\n      dup3\n        /* \"#utility.yul\":7847:7940   */\n      tag_104\n      jump\t// in\n    tag_194:\n        /* \"#utility.yul\":7965:7967   */\n      0x20\n        /* \"#utility.yul\":7960:7963   */\n      dup3\n        /* \"#utility.yul\":7956:7968   */\n      add\n        /* \"#utility.yul\":7949:7968   */\n      swap1\n      pop\n        /* \"#utility.yul\":7608:7974   */\n      swap2\n      swap1\n      pop\n      jump\t// out\n        /* \"#utility.yul\":7980:8399   */\n    tag_53:\n        /* \"#utility.yul\":8146:8150   */\n      0x00\n        /* \"#utility.yul\":8184:8186   */\n      0x20\n        /* \"#utility.yul\":8173:8182   */\n      dup3\n        /* \"#utility.yul\":8169:8187   */\n      add\n        /* \"#utility.yul\":8161:8187   */\n      swap1\n      pop\n        /* \"#utility.yul\":8233:8242   */\n      dup2\n        /* \"#utility.yul\":8227:8231   */\n      dup2\n        /* \"#utility.yul\":8223:8243   */\n      sub\n        /* \"#utility.yul\":8219:8220   */\n      0x00\n        /* \"#utility.yul\":8208:8217   */\n      dup4\n        /* \"#utility.yul\":8204:8221   */\n      add\n        /* \"#utility.yul\":8197:8244   */\n      mstore\n        /* \"#utility.yul\":8261:8392   */\n      tag_196\n        /* \"#utility.yul\":8387:8391   */\n      dup2\n        /* \"#utility.yul\":8261:8392   */\n      tag_105\n      jump\t// in\n    tag_196:\n        /* \"#utility.yul\":8253:8392   */\n      swap1\n      pop\n        /* \"#utility.yul\":7980:8399   */\n      swap2\n      swap1\n      pop\n      jump\t// out\n        /* \"#utility.yul\":8405:8482   */\n    tag_106:\n        /* \"#utility.yul\":8442:8449   */\n      0x00\n        /* \"#utility.yul\":8471:8476   */\n      dup2\n        /* \"#utility.yul\":8460:8476   */\n      swap1\n      pop\n        /* \"#utility.yul\":8405:8482   */\n      swap2\n      swap1\n      pop\n      jump\t// out\n        /* \"#utility.yul\":8488:8606   */\n    tag_107:\n        /* \"#utility.yul\":8575:8599   */\n      tag_199\n        /* \"#utility.yul\":8593:8598   */\n      dup2\n        /* \"#utility.yul\":8575:8599   */\n      tag_106\n      jump\t// in\n    tag_199:\n        /* \"#utility.yul\":8570:8573   */\n      dup3\n        /* \"#utility.yul\":8563:8600   */\n      mstore\n        /* \"#utility.yul\":8488:8606   */\n      pop\n      pop\n      jump\t// out\n        /* \"#utility.yul\":8612:8834   */\n    tag_55:\n        /* \"#utility.yul\":8705:8709   */\n      0x00\n        /* \"#utility.yul\":8743:8745   */\n      0x20\n        /* \"#utility.yul\":8732:8741   */\n      dup3\n        /* \"#utility.yul\":8728:8746   */\n      add\n        /* \"#utility.yul\":8720:8746   */\n      swap1\n      pop\n        /* \"#utility.yul\":8756:8827   */\n      tag_201\n        /* \"#utility.yul\":8824:8825   */\n      0x00\n        /* \"#utility.yul\":8813:8822   */\n      dup4\n        /* \"#utility.yul\":8809:8826   */\n      add\n        /* \"#utility.yul\":8800:8806   */\n      dup5\n        /* \"#utility.yul\":8756:8827   */\n      tag_107\n      jump\t// in\n    tag_201:\n        /* \"#utility.yul\":8612:8834   */\n      swap3\n      swap2\n      pop\n      pop\n      jump\t// out\n        /* \"#utility.yul\":8840:9002   */\n    tag_108:\n        /* \"#utility.yul\":8980:8994   */\n      0x4752414e545f4143434553530000000000000000000000000000000000000000\n        /* \"#utility.yul\":8976:8977   */\n      0x00\n        /* \"#utility.yul\":8968:8974   */\n      dup3\n        /* \"#utility.yul\":8964:8978   */\n      add\n        /* \"#utility.yul\":8957:8995   */\n      mstore\n        /* \"#utility.yul\":8840:9002   */\n      pop\n      jump\t// out\n        /* \"#utility.yul\":9008:9374   */\n    tag_109:\n        /* \"#utility.yul\":9150:9153   */\n      0x00\n        /* \"#utility.yul\":9171:9238   */\n      tag_204\n        /* \"#utility.yul\":9235:9237   */\n      0x0c\n        /* \"#utility.yul\":9230:9233   */\n      dup4\n        /* \"#utility.yul\":9171:9238   */\n      tag_99\n      jump\t// in\n    tag_204:\n        /* \"#utility.yul\":9164:9238   */\n      swap2\n      pop\n        /* \"#utility.yul\":9247:9340   */\n      tag_205\n        /* \"#utility.yul\":9336:9339   */\n      dup3\n        /* \"#utility.yul\":9247:9340   */\n      tag_108\n      jump\t// in\n    tag_205:\n        /* \"#utility.yul\":9365:9367   */\n      0x20\n        /* \"#utility.yul\":9360:9363   */\n      dup3\n        /* \"#utility.yul\":9356:9368   */\n      add\n        /* \"#utility.yul\":9349:9368   */\n      swap1\n      pop\n        /* \"#utility.yul\":9008:9374   */\n      swap2\n      swap1\n      pop\n      jump\t// out\n        /* \"#utility.yul\":9380:10130   */\n    tag_57:\n        /* \"#utility.yul\":9630:9634   */\n      0x00\n        /* \"#utility.yul\":9668:9671   */\n      0x80\n        /* \"#utility.yul\":9657:9666   */\n      dup3\n        /* \"#utility.yul\":9653:9672   */\n      add\n        /* \"#utility.yul\":9645:9672   */\n      swap1\n      pop\n        /* \"#utility.yul\":9682:9753   */\n      tag_207\n        /* \"#utility.yul\":9750:9751   */\n      0x00\n        /* \"#utility.yul\":9739:9748   */\n      dup4\n        /* \"#utility.yul\":9735:9752   */\n      add\n        /* \"#utility.yul\":9726:9732   */\n      dup7\n        /* \"#utility.yul\":9682:9753   */\n      tag_96\n      jump\t// in\n    tag_207:\n        /* \"#utility.yul\":9763:9835   */\n      tag_208\n        /* \"#utility.yul\":9831:9833   */\n      0x20\n        /* \"#utility.yul\":9820:9829   */\n      dup4\n        /* \"#utility.yul\":9816:9834   */\n      add\n        /* \"#utility.yul\":9807:9813   */\n      dup6\n        /* \"#utility.yul\":9763:9835   */\n      tag_96\n      jump\t// in\n    tag_208:\n        /* \"#utility.yul\":9845:9917   */\n      tag_209\n        /* \"#utility.yul\":9913:9915   */\n      0x40\n        /* \"#utility.yul\":9902:9911   */\n      dup4\n        /* \"#utility.yul\":9898:9916   */\n      add\n        /* \"#utility.yul\":9889:9895   */\n      dup5\n        /* \"#utility.yul\":9845:9917   */\n      tag_96\n      jump\t// in\n    tag_209:\n        /* \"#utility.yul\":9964:9973   */\n      dup2\n        /* \"#utility.yul\":9958:9962   */\n      dup2\n        /* \"#utility.yul\":9954:9974   */\n      sub\n        /* \"#utility.yul\":9949:9951   */\n      0x60\n        /* \"#utility.yul\":9938:9947   */\n      dup4\n        /* \"#utility.yul\":9934:9952   */\n      add\n        /* \"#utility.yul\":9927:9975   */\n      mstore\n        /* \"#utility.yul\":9992:10123   */\n      tag_210\n        /* \"#utility.yul\":10118:10122   */\n      dup2\n        /* \"#utility.yul\":9992:10123   */\n      tag_109\n      jump\t// in\n    tag_210:\n        /* \"#utility.yul\":9984:10123   */\n      swap1\n      pop\n        /* \"#utility.yul\":9380:10130   */\n      swap5\n      swap4\n      pop\n      pop\n      pop\n      pop\n      jump\t// out\n        /* \"#utility.yul\":10136:10357   */\n    tag_110:\n        /* \"#utility.yul\":10276:10310   */\n      0x416363657373436f6e74726f6c3a206e6f2061636365737320746f207265766f\n        /* \"#utility.yul\":10272:10273   */\n      0x00\n        /* \"#utility.yul\":10264:10270   */\n      dup3\n        /* \"#utility.yul\":10260:10274   */\n      add\n        /* \"#utility.yul\":10253:10311   */\n      mstore\n        /* \"#utility.yul\":10345:10349   */\n      0x6b65000000000000000000000000000000000000000000000000000000000000\n        /* \"#utility.yul\":10340:10342   */\n      0x20\n        /* \"#utility.yul\":10332:10338   */\n      dup3\n        /* \"#utility.yul\":10328:10343   */\n      add\n        /* \"#utility.yul\":10321:10350   */\n      mstore\n        /* \"#utility.yul\":10136:10357   */\n      pop\n      jump\t// out\n        /* \"#utility.yul\":10363:10729   */\n    tag_111:\n        /* \"#utility.yul\":10505:10508   */\n      0x00\n        /* \"#utility.yul\":10526:10593   */\n      tag_213\n        /* \"#utility.yul\":10590:10592   */\n      0x22\n        /* \"#utility.yul\":10585:10588   */\n      dup4\n        /* \"#utility.yul\":10526:10593   */\n      tag_99\n      jump\t// in\n    tag_213:\n        /* \"#utility.yul\":10519:10593   */\n      swap2\n      pop\n        /* \"#utility.yul\":10602:10695   */\n      tag_214\n        /* \"#utility.yul\":10691:10694   */\n      dup3\n        /* \"#utility.yul\":10602:10695   */\n      tag_110\n      jump\t// in\n    tag_214:\n        /* \"#utility.yul\":10720:10722   */\n      0x40\n        /* \"#utility.yul\":10715:10718   */\n      dup3\n        /* \"#utility.yul\":10711:10723   */\n      add\n        /* \"#utility.yul\":10704:10723   */\n      swap1\n      pop\n        /* \"#utility.yul\":10363:10729   */\n      swap2\n      swap1\n      pop\n      jump\t// out\n        /* \"#utility.yul\":10735:11154   */\n    tag_71:\n        /* \"#utility.yul\":10901:10905   */\n      0x00\n        /* \"#utility.yul\":10939:10941   */\n      0x20\n        /* \"#utility.yul\":10928:10937   */\n      dup3\n        /* \"#utility.yul\":10924:10942   */\n      add\n        /* \"#utility.yul\":10916:10942   */\n      swap1\n      pop\n        /* \"#utility.yul\":10988:10997   */\n      dup2\n        /* \"#utility.yul\":10982:10986   */\n      dup2\n        /* \"#utility.yul\":10978:10998   */\n      sub\n        /* \"#utility.yul\":10974:10975   */\n      0x00\n        /* \"#utility.yul\":10963:10972   */\n      dup4\n        /* \"#utility.yul\":10959:10976   */\n      add\n        /* \"#utility.yul\":10952:10999   */\n      mstore\n        /* \"#utility.yul\":11016:11147   */\n      tag_216\n        /* \"#utility.yul\":11142:11146   */\n      dup2\n        /* \"#utility.yul\":11016:11147   */\n      tag_111\n      jump\t// in\n    tag_216:\n        /* \"#utility.yul\":11008:11147   */\n      swap1\n      pop\n        /* \"#utility.yul\":10735:11154   */\n      swap2\n      swap1\n      pop\n      jump\t// out\n        /* \"#utility.yul\":11160:11323   */\n    tag_112:\n        /* \"#utility.yul\":11300:11315   */\n      0x5245564f4b455f41434345535300000000000000000000000000000000000000\n        /* \"#utility.yul\":11296:11297   */\n      0x00\n        /* \"#utility.yul\":11288:11294   */\n      dup3\n        /* \"#utility.yul\":11284:11298   */\n      add\n        /* \"#utility.yul\":11277:11316   */\n      mstore\n        /* \"#utility.yul\":11160:11323   */\n      pop\n      jump\t// out\n        /* \"#utility.yul\":11329:11695   */\n    tag_113:\n        /* \"#utility.yul\":11471:11474   */\n      0x00\n        /* \"#utility.yul\":11492:11559   */\n      tag_219\n        /* \"#utility.yul\":11556:11558   */\n      0x0d\n        /* \"#utility.yul\":11551:11554   */\n      dup4\n        /* \"#utility.yul\":11492:11559   */\n      tag_99\n      jump\t// in\n    tag_219:\n        /* \"#utility.yul\":11485:11559   */\n      swap2\n      pop\n        /* \"#utility.yul\":11568:11661   */\n      tag_220\n        /* \"#utility.yul\":11657:11660   */\n      dup3\n        /* \"#utility.yul\":11568:11661   */\n      tag_112\n      jump\t// in\n    tag_220:\n        /* \"#utility.yul\":11686:11688   */\n      0x20\n        /* \"#utility.yul\":11681:11684   */\n      dup3\n        /* \"#utility.yul\":11677:11689   */\n      add\n        /* \"#utility.yul\":11670:11689   */\n      swap1\n      pop\n        /* \"#utility.yul\":11329:11695   */\n      swap2\n      swap1\n      pop\n      jump\t// out\n        /* \"#utility.yul\":11701:12451   */\n    tag_74:\n        /* \"#utility.yul\":11951:11955   */\n      0x00\n        /* \"#utility.yul\":11989:11992   */\n      0x80\n        /* \"#utility.yul\":11978:11987   */\n      dup3\n        /* \"#utility.yul\":11974:11993   */\n      add\n        /* \"#utility.yul\":11966:11993   */\n      swap1\n      pop\n        /* \"#utility.yul\":12003:12074   */\n      tag_222\n        /* \"#utility.yul\":12071:12072   */\n      0x00\n        /* \"#utility.yul\":12060:12069   */\n      dup4\n        /* \"#utility.yul\":12056:12073   */\n      add\n        /* \"#utility.yul\":12047:12053   */\n      dup7\n        /* \"#utility.yul\":12003:12074   */\n      tag_96\n      jump\t// in\n    tag_222:\n        /* \"#utility.yul\":12084:12156   */\n      tag_223\n        /* \"#utility.yul\":12152:12154   */\n      0x20\n        /* \"#utility.yul\":12141:12150   */\n      dup4\n        /* \"#utility.yul\":12137:12155   */\n      add\n        /* \"#utility.yul\":12128:12134   */\n      dup6\n        /* \"#utility.yul\":12084:12156   */\n      tag_96\n      jump\t// in\n    tag_223:\n        /* \"#utility.yul\":12166:12238   */\n      tag_224\n        /* \"#utility.yul\":12234:12236   */\n      0x40\n        /* \"#utility.yul\":12223:12232   */\n      dup4\n        /* \"#utility.yul\":12219:12237   */\n      add\n        /* \"#utility.yul\":12210:12216   */\n      dup5\n        /* \"#utility.yul\":12166:12238   */\n      tag_96\n      jump\t// in\n    tag_224:\n        /* \"#utility.yul\":12285:12294   */\n      dup2\n        /* \"#utility.yul\":12279:12283   */\n      dup2\n        /* \"#utility.yul\":12275:12295   */\n      sub\n        /* \"#utility.yul\":12270:12272   */\n      0x60\n        /* \"#utility.yul\":12259:12268   */\n      dup4\n        /* \"#utility.yul\":12255:12273   */\n      add\n        /* \"#utility.yul\":12248:12296   */\n      mstore\n        /* \"#utility.yul\":12313:12444   */\n      tag_225\n        /* \"#utility.yul\":12439:12443   */\n      dup2\n        /* \"#utility.yul\":12313:12444   */\n      tag_113\n      jump\t// in\n    tag_225:\n        /* \"#utility.yul\":12305:12444   */\n      swap1\n      pop\n        /* \"#utility.yul\":11701:12451   */\n      swap5\n      swap4\n      pop\n      pop\n      pop\n      pop\n      jump\t// out\n\n    auxdata: 0xa264697066735822122072b5f3c2bff58f730be6075abe1c4fc187c0b4ab5292196a5c55e68cfec07c0364736f6c634300081e0033\n}\n",
				"bytecode": {
					"linkReferences": {},
					"object": "608060405234801561000f575f5ffd5b506040516113d13803806113d1833981810160405281019061003191906102a0565b5f73ffffffffffffffffffffffffffffffffffffffff168373ffffffffffffffffffffffffffffffffffffffff160361009f576040517f08c379a000000000000000000000000000000000000000000000000000000000815260040161009690610370565b60405180910390fd5b5f73ffffffffffffffffffffffffffffffffffffffff168273ffffffffffffffffffffffffffffffffffffffff160361010d576040517f08c379a0000000000000000000000000000000000000000000000000000000008152600401610104906103fe565b60405180910390fd5b5f73ffffffffffffffffffffffffffffffffffffffff168173ffffffffffffffffffffffffffffffffffffffff160361017b576040517f08c379a000000000000000000000000000000000000000000000000000000000815260040161017290610466565b60405180910390fd5b825f5f6101000a81548173ffffffffffffffffffffffffffffffffffffffff021916908373ffffffffffffffffffffffffffffffffffffffff1602179055508160015f6101000a81548173ffffffffffffffffffffffffffffffffffffffff021916908373ffffffffffffffffffffffffffffffffffffffff1602179055508060025f6101000a81548173ffffffffffffffffffffffffffffffffffffffff021916908373ffffffffffffffffffffffffffffffffffffffff160217905550505050610484565b5f5ffd5b5f73ffffffffffffffffffffffffffffffffffffffff82169050919050565b5f61026f82610246565b9050919050565b61027f81610265565b8114610289575f5ffd5b50565b5f8151905061029a81610276565b92915050565b5f5f5f606084860312156102b7576102b6610242565b5b5f6102c48682870161028c565b93505060206102d58682870161028c565b92505060406102e68682870161028c565b9150509250925092565b5f82825260208201905092915050565b7f416363657373436f6e74726f6c3a207a65726f2070617469656e7452656769735f8201527f7472790000000000000000000000000000000000000000000000000000000000602082015250565b5f61035a6023836102f0565b915061036582610300565b604082019050919050565b5f6020820190508181035f8301526103878161034e565b9050919050565b7f416363657373436f6e74726f6c3a207a65726f2070726f7669646572526567695f8201527f7374727900000000000000000000000000000000000000000000000000000000602082015250565b5f6103e86024836102f0565b91506103f38261038e565b604082019050919050565b5f6020820190508181035f830152610415816103dc565b9050919050565b7f416363657373436f6e74726f6c3a207a65726f2061756469744c6f67000000005f82015250565b5f610450601c836102f0565b915061045b8261041c565b602082019050919050565b5f6020820190508181035f83015261047d81610444565b9050919050565b610f40806104915f395ff3fe608060405234801561000f575f5ffd5b5060043610610060575f3560e01c80630ae5e739146100645780635250c6e214610080578063545921d91461009e5780635a2d6ebd146100bc57806362e1f745146100da57806385e685311461010a575b5f5ffd5b61007e60048036038101906100799190610994565b610126565b005b61008861051d565b6040516100959190610a1a565b60405180910390f35b6100a6610541565b6040516100b39190610a53565b60405180910390f35b6100c4610566565b6040516100d19190610a8c565b60405180910390f35b6100f460048036038101906100ef9190610aa5565b61058b565b6040516101019190610afd565b60405180910390f35b610124600480360381019061011f9190610994565b610619565b005b5f5f9054906101000a900473ffffffffffffffffffffffffffffffffffffffff1673ffffffffffffffffffffffffffffffffffffffff16638f9c79ed336040518263ffffffff1660e01b815260040161017f9190610b25565b602060405180830381865afa15801561019a573d5f5f3e3d5ffd5b505050506040513d601f19601f820116820180604052508101906101be9190610b68565b6101fd576040517f08c379a00000000000000000000000000000000000000000000000000000000081526004016101f490610c13565b60405180910390fd5b60015f9054906101000a900473ffffffffffffffffffffffffffffffffffffffff1673ffffffffffffffffffffffffffffffffffffffff16639b5e1a3b826040518263ffffffff1660e01b81526004016102579190610b25565b602060405180830381865afa158015610272573d5f5f3e3d5ffd5b505050506040513d601f19601f820116820180604052508101906102969190610b68565b6102d5576040517f08c379a00000000000000000000000000000000000000000000000000000000081526004016102cc90610ca1565b60405180910390fd5b60035f3373ffffffffffffffffffffffffffffffffffffffff1673ffffffffffffffffffffffffffffffffffffffff1681526020019081526020015f205f8273ffffffffffffffffffffffffffffffffffffffff1673ffffffffffffffffffffffffffffffffffffffff1681526020019081526020015f205f9054906101000a900460ff161561039a576040517f08c379a000000000000000000000000000000000000000000000000000000000815260040161039190610d09565b60405180910390fd5b600160035f3373ffffffffffffffffffffffffffffffffffffffff1673ffffffffffffffffffffffffffffffffffffffff1681526020019081526020015f205f8373ffffffffffffffffffffffffffffffffffffffff1673ffffffffffffffffffffffffffffffffffffffff1681526020019081526020015f205f6101000a81548160ff0219169083151502179055508073ffffffffffffffffffffffffffffffffffffffff163373ffffffffffffffffffffffffffffffffffffffff167f65d0cc1e52d49938ca4ad9f423c79c1b84d914b9a683fbc5d3f93ac3cc5635f5426040516104879190610d3f565b60405180910390a360025f9054906101000a900473ffffffffffffffffffffffffffffffffffffffff1673ffffffffffffffffffffffffffffffffffffffff1663107d1d783333846040518463ffffffff1660e01b81526004016104ed93929190610da2565b5f604051808303815f87803b158015610504575f5ffd5b505af1158015610516573d5f5f3e3d5ffd5b5050505050565b5f5f9054906101000a900473ffffffffffffffffffffffffffffffffffffffff1681565b60015f9054906101000a900473ffffffffffffffffffffffffffffffffffffffff1681565b60025f9054906101000a900473ffffffffffffffffffffffffffffffffffffffff1681565b5f60035f8473ffffffffffffffffffffffffffffffffffffffff1673ffffffffffffffffffffffffffffffffffffffff1681526020019081526020015f205f8373ffffffffffffffffffffffffffffffffffffffff1673ffffffffffffffffffffffffffffffffffffffff1681526020019081526020015f205f9054906101000a900460ff16905092915050565b5f5f9054906101000a900473ffffffffffffffffffffffffffffffffffffffff1673ffffffffffffffffffffffffffffffffffffffff16638f9c79ed336040518263ffffffff1660e01b81526004016106729190610b25565b602060405180830381865afa15801561068d573d5f5f3e3d5ffd5b505050506040513d601f19601f820116820180604052508101906106b19190610b68565b6106f0576040517f08c379a00000000000000000000000000000000000000000000000000000000081526004016106e790610c13565b60405180910390fd5b60035f3373ffffffffffffffffffffffffffffffffffffffff1673ffffffffffffffffffffffffffffffffffffffff1681526020019081526020015f205f8273ffffffffffffffffffffffffffffffffffffffff1673ffffffffffffffffffffffffffffffffffffffff1681526020019081526020015f205f9054906101000a900460ff166107b4576040517f08c379a00000000000000000000000000000000000000000000000000000000081526004016107ab90610e5a565b60405180910390fd5b5f60035f3373ffffffffffffffffffffffffffffffffffffffff1673ffffffffffffffffffffffffffffffffffffffff1681526020019081526020015f205f8373ffffffffffffffffffffffffffffffffffffffff1673ffffffffffffffffffffffffffffffffffffffff1681526020019081526020015f205f6101000a81548160ff0219169083151502179055508073ffffffffffffffffffffffffffffffffffffffff163373ffffffffffffffffffffffffffffffffffffffff167f6f6a404ffd2cea4713256a4fd9ce99c8cf8cf32d85c2bb8061d1603ff57d50c3426040516108a09190610d3f565b60405180910390a360025f9054906101000a900473ffffffffffffffffffffffffffffffffffffffff1673ffffffffffffffffffffffffffffffffffffffff1663107d1d783333846040518463ffffffff1660e01b815260040161090693929190610ec2565b5f604051808303815f87803b15801561091d575f5ffd5b505af115801561092f573d5f5f3e3d5ffd5b5050505050565b5f5ffd5b5f73ffffffffffffffffffffffffffffffffffffffff82169050919050565b5f6109638261093a565b9050919050565b61097381610959565b811461097d575f5ffd5b50565b5f8135905061098e8161096a565b92915050565b5f602082840312156109a9576109a8610936565b5b5f6109b684828501610980565b91505092915050565b5f819050919050565b5f6109e26109dd6109d88461093a565b6109bf565b61093a565b9050919050565b5f6109f3826109c8565b9050919050565b5f610a04826109e9565b9050919050565b610a14816109fa565b82525050565b5f602082019050610a2d5f830184610a0b565b92915050565b5f610a3d826109e9565b9050919050565b610a4d81610a33565b82525050565b5f602082019050610a665f830184610a44565b92915050565b5f610a76826109e9565b9050919050565b610a8681610a6c565b82525050565b5f602082019050610a9f5f830184610a7d565b92915050565b5f5f60408385031215610abb57610aba610936565b5b5f610ac885828601610980565b9250506020610ad985828601610980565b9150509250929050565b5f8115159050919050565b610af781610ae3565b82525050565b5f602082019050610b105f830184610aee565b92915050565b610b1f81610959565b82525050565b5f602082019050610b385f830184610b16565b92915050565b610b4781610ae3565b8114610b51575f5ffd5b50565b5f81519050610b6281610b3e565b92915050565b5f60208284031215610b7d57610b7c610936565b5b5f610b8a84828501610b54565b91505092915050565b5f82825260208201905092915050565b7f416363657373436f6e74726f6c3a2063616c6c6572206e6f74206120706174695f8201527f656e740000000000000000000000000000000000000000000000000000000000602082015250565b5f610bfd602383610b93565b9150610c0882610ba3565b604082019050919050565b5f6020820190508181035f830152610c2a81610bf1565b9050919050565b7f416363657373436f6e74726f6c3a2070726f7669646572206e6f7420616374695f8201527f7665000000000000000000000000000000000000000000000000000000000000602082015250565b5f610c8b602283610b93565b9150610c9682610c31565b604082019050919050565b5f6020820190508181035f830152610cb881610c7f565b9050919050565b7f416363657373436f6e74726f6c3a20616c7265616479206772616e74656400005f82015250565b5f610cf3601e83610b93565b9150610cfe82610cbf565b602082019050919050565b5f6020820190508181035f830152610d2081610ce7565b9050919050565b5f819050919050565b610d3981610d27565b82525050565b5f602082019050610d525f830184610d30565b92915050565b7f4752414e545f41434345535300000000000000000000000000000000000000005f82015250565b5f610d8c600c83610b93565b9150610d9782610d58565b602082019050919050565b5f608082019050610db55f830186610b16565b610dc26020830185610b16565b610dcf6040830184610b16565b8181036060830152610de081610d80565b9050949350505050565b7f416363657373436f6e74726f6c3a206e6f2061636365737320746f207265766f5f8201527f6b65000000000000000000000000000000000000000000000000000000000000602082015250565b5f610e44602283610b93565b9150610e4f82610dea565b604082019050919050565b5f6020820190508181035f830152610e7181610e38565b9050919050565b7f5245564f4b455f414343455353000000000000000000000000000000000000005f82015250565b5f610eac600d83610b93565b9150610eb782610e78565b602082019050919050565b5f608082019050610ed55f830186610b16565b610ee26020830185610b16565b610eef6040830184610b16565b8181036060830152610f0081610ea0565b905094935050505056fea264697066735822122072b5f3c2bff58f730be6075abe1c4fc187c0b4ab5292196a5c55e68cfec07c0364736f6c634300081e0033",
					"opcodes": "PUSH1 0x80 PUSH1 0x40 MSTORE CALLVALUE DUP1 ISZERO PUSH2 0xF JUMPI PUSH0 PUSH0 REVERT JUMPDEST POP PUSH1 0x40 MLOAD PUSH2 0x13D1 CODESIZE SUB DUP1 PUSH2 0x13D1 DUP4 CODECOPY DUP2 DUP2 ADD PUSH1 0x40 MSTORE DUP2 ADD SWAP1 PUSH2 0x31 SWAP2 SWAP1 PUSH2 0x2A0 JUMP JUMPDEST PUSH0 PUSH20 0xFFFFFFFFFFFFFFFFFFFFFFFFFFFFFFFFFFFFFFFF AND DUP4 PUSH20 0xFFFFFFFFFFFFFFFFFFFFFFFFFFFFFFFFFFFFFFFF AND SUB PUSH2 0x9F JUMPI PUSH1 0x40 MLOAD PUSH32 0x8C379A000000000000000000000000000000000000000000000000000000000 DUP2 MSTORE PUSH1 0x4 ADD PUSH2 0x96 SWAP1 PUSH2 0x370 JUMP JUMPDEST PUSH1 0x40 MLOAD DUP1 SWAP2 SUB SWAP1 REVERT JUMPDEST PUSH0 PUSH20 0xFFFFFFFFFFFFFFFFFFFFFFFFFFFFFFFFFFFFFFFF AND DUP3 PUSH20 0xFFFFFFFFFFFFFFFFFFFFFFFFFFFFFFFFFFFFFFFF AND SUB PUSH2 0x10D JUMPI PUSH1 0x40 MLOAD PUSH32 0x8C379A000000000000000000000000000000000000000000000000000000000 DUP2 MSTORE PUSH1 0x4 ADD PUSH2 0x104 SWAP1 PUSH2 0x3FE JUMP JUMPDEST PUSH1 0x40 MLOAD DUP1 SWAP2 SUB SWAP1 REVERT JUMPDEST PUSH0 PUSH20 0xFFFFFFFFFFFFFFFFFFFFFFFFFFFFFFFFFFFFFFFF AND DUP2 PUSH20 0xFFFFFFFFFFFFFFFFFFFFFFFFFFFFFFFFFFFFFFFF AND SUB PUSH2 0x17B JUMPI PUSH1 0x40 MLOAD PUSH32 0x8C379A000000000000000000000000000000000000000000000000000000000 DUP2 MSTORE PUSH1 0x4 ADD PUSH2 0x172 SWAP1 PUSH2 0x466 JUMP JUMPDEST PUSH1 0x40 MLOAD DUP1 SWAP2 SUB SWAP1 REVERT JUMPDEST DUP3 PUSH0 PUSH0 PUSH2 0x100 EXP DUP2 SLOAD DUP2 PUSH20 0xFFFFFFFFFFFFFFFFFFFFFFFFFFFFFFFFFFFFFFFF MUL NOT AND SWAP1 DUP4 PUSH20 0xFFFFFFFFFFFFFFFFFFFFFFFFFFFFFFFFFFFFFFFF AND MUL OR SWAP1 SSTORE POP DUP2 PUSH1 0x1 PUSH0 PUSH2 0x100 EXP DUP2 SLOAD DUP2 PUSH20 0xFFFFFFFFFFFFFFFFFFFFFFFFFFFFFFFFFFFFFFFF MUL NOT AND SWAP1 DUP4 PUSH20 0xFFFFFFFFFFFFFFFFFFFFFFFFFFFFFFFFFFFFFFFF AND MUL OR SWAP1 SSTORE POP DUP1 PUSH1 0x2 PUSH0 PUSH2 0x100 EXP DUP2 SLOAD DUP2 PUSH20 0xFFFFFFFFFFFFFFFFFFFFFFFFFFFFFFFFFFFFFFFF MUL NOT AND SWAP1 DUP4 PUSH20 0xFFFFFFFFFFFFFFFFFFFFFFFFFFFFFFFFFFFFFFFF AND MUL OR SWAP1 SSTORE POP POP POP POP PUSH2 0x484 JUMP JUMPDEST PUSH0 PUSH0 REVERT JUMPDEST PUSH0 PUSH20 0xFFFFFFFFFFFFFFFFFFFFFFFFFFFFFFFFFFFFFFFF DUP3 AND SWAP1 POP SWAP2 SWAP1 POP JUMP JUMPDEST PUSH0 PUSH2 0x26F DUP3 PUSH2 0x246 JUMP JUMPDEST SWAP1 POP SWAP2 SWAP1 POP JUMP JUMPDEST PUSH2 0x27F DUP2 PUSH2 0x265 JUMP JUMPDEST DUP2 EQ PUSH2 0x289 JUMPI PUSH0 PUSH0 REVERT JUMPDEST POP JUMP JUMPDEST PUSH0 DUP2 MLOAD SWAP1 POP PUSH2 0x29A DUP2 PUSH2 0x276 JUMP JUMPDEST SWAP3 SWAP2 POP POP JUMP JUMPDEST PUSH0 PUSH0 PUSH0 PUSH1 0x60 DUP5 DUP7 SUB SLT ISZERO PUSH2 0x2B7 JUMPI PUSH2 0x2B6 PUSH2 0x242 JUMP JUMPDEST JUMPDEST PUSH0 PUSH2 0x2C4 DUP7 DUP3 DUP8 ADD PUSH2 0x28C JUMP JUMPDEST SWAP4 POP POP PUSH1 0x20 PUSH2 0x2D5 DUP7 DUP3 DUP8 ADD PUSH2 0x28C JUMP JUMPDEST SWAP3 POP POP PUSH1 0x40 PUSH2 0x2E6 DUP7 DUP3 DUP8 ADD PUSH2 0x28C JUMP JUMPDEST SWAP2 POP POP SWAP3 POP SWAP3 POP SWAP3 JUMP JUMPDEST PUSH0 DUP3 DUP3 MSTORE PUSH1 0x20 DUP3 ADD SWAP1 POP SWAP3 SWAP2 POP POP JUMP JUMPDEST PUSH32 0x416363657373436F6E74726F6C3A207A65726F2070617469656E745265676973 PUSH0 DUP3 ADD MSTORE PUSH32 0x7472790000000000000000000000000000000000000000000000000000000000 PUSH1 0x20 DUP3 ADD MSTORE POP JUMP JUMPDEST PUSH0 PUSH2 0x35A PUSH1 0x23 DUP4 PUSH2 0x2F0 JUMP JUMPDEST SWAP2 POP PUSH2 0x365 DUP3 PUSH2 0x300 JUMP JUMPDEST PUSH1 0x40 DUP3 ADD SWAP1 POP SWAP2 SWAP1 POP JUMP JUMPDEST PUSH0 PUSH1 0x20 DUP3 ADD SWAP1 POP DUP2 DUP2 SUB PUSH0 DUP4 ADD MSTORE PUSH2 0x387 DUP2 PUSH2 0x34E JUMP JUMPDEST SWAP1 POP SWAP2 SWAP1 POP JUMP JUMPDEST PUSH32 0x416363657373436F6E74726F6C3A207A65726F2070726F766964657252656769 PUSH0 DUP3 ADD MSTORE PUSH32 0x7374727900000000000000000000000000000000000000000000000000000000 PUSH1 0x20 DUP3 ADD MSTORE POP JUMP JUMPDEST PUSH0 PUSH2 0x3E8 PUSH1 0x24 DUP4 PUSH2 0x2F0 JUMP JUMPDEST SWAP2 POP PUSH2 0x3F3 DUP3 PUSH2 0x38E JUMP JUMPDEST PUSH1 0x40 DUP3 ADD SWAP1 POP SWAP2 SWAP1 POP JUMP JUMPDEST PUSH0 PUSH1 0x20 DUP3 ADD SWAP1 POP DUP2 DUP2 SUB PUSH0 DUP4 ADD MSTORE PUSH2 0x415 DUP2 PUSH2 0x3DC JUMP JUMPDEST SWAP1 POP SWAP2 SWAP1 POP JUMP JUMPDEST PUSH32 0x416363657373436F6E74726F6C3A207A65726F2061756469744C6F6700000000 PUSH0 DUP3 ADD MSTORE POP JUMP JUMPDEST PUSH0 PUSH2 0x450 PUSH1 0x1C DUP4 PUSH2 0x2F0 JUMP JUMPDEST SWAP2 POP PUSH2 0x45B DUP3 PUSH2 0x41C JUMP JUMPDEST PUSH1 0x20 DUP3 ADD SWAP1 POP SWAP2 SWAP1 POP JUMP JUMPDEST PUSH0 PUSH1 0x20 DUP3 ADD SWAP1 POP DUP2 DUP2 SUB PUSH0 DUP4 ADD MSTORE PUSH2 0x47D DUP2 PUSH2 0x444 JUMP JUMPDEST SWAP1 POP SWAP2 SWAP1 POP JUMP JUMPDEST PUSH2 0xF40 DUP1 PUSH2 0x491 PUSH0 CODECOPY PUSH0 RETURN INVALID PUSH1 0x80 PUSH1 0x40 MSTORE CALLVALUE DUP1 ISZERO PUSH2 0xF JUMPI PUSH0 PUSH0 REVERT JUMPDEST POP PUSH1 0x4 CALLDATASIZE LT PUSH2 0x60 JUMPI PUSH0 CALLDATALOAD PUSH1 0xE0 SHR DUP1 PUSH4 0xAE5E739 EQ PUSH2 0x64 JUMPI DUP1 PUSH4 0x5250C6E2 EQ PUSH2 0x80 JUMPI DUP1 PUSH4 0x545921D9 EQ PUSH2 0x9E JUMPI DUP1 PUSH4 0x5A2D6EBD EQ PUSH2 0xBC JUMPI DUP1 PUSH4 0x62E1F745 EQ PUSH2 0xDA JUMPI DUP1 PUSH4 0x85E68531 EQ PUSH2 0x10A JUMPI JUMPDEST PUSH0 PUSH0 REVERT JUMPDEST PUSH2 0x7E PUSH1 0x4 DUP1 CALLDATASIZE SUB DUP2 ADD SWAP1 PUSH2 0x79 SWAP2 SWAP1 PUSH2 0x994 JUMP JUMPDEST PUSH2 0x126 JUMP JUMPDEST STOP JUMPDEST PUSH2 0x88 PUSH2 0x51D JUMP JUMPDEST PUSH1 0x40 MLOAD PUSH2 0x95 SWAP2 SWAP1 PUSH2 0xA1A JUMP JUMPDEST PUSH1 0x40 MLOAD DUP1 SWAP2 SUB SWAP1 RETURN JUMPDEST PUSH2 0xA6 PUSH2 0x541 JUMP JUMPDEST PUSH1 0x40 MLOAD PUSH2 0xB3 SWAP2 SWAP1 PUSH2 0xA53 JUMP JUMPDEST PUSH1 0x40 MLOAD DUP1 SWAP2 SUB SWAP1 RETURN JUMPDEST PUSH2 0xC4 PUSH2 0x566 JUMP JUMPDEST PUSH1 0x40 MLOAD PUSH2 0xD1 SWAP2 SWAP1 PUSH2 0xA8C JUMP JUMPDEST PUSH1 0x40 MLOAD DUP1 SWAP2 SUB SWAP1 RETURN JUMPDEST PUSH2 0xF4 PUSH1 0x4 DUP1 CALLDATASIZE SUB DUP2 ADD SWAP1 PUSH2 0xEF SWAP2 SWAP1 PUSH2 0xAA5 JUMP JUMPDEST PUSH2 0x58B JUMP JUMPDEST PUSH1 0x40 MLOAD PUSH2 0x101 SWAP2 SWAP1 PUSH2 0xAFD JUMP JUMPDEST PUSH1 0x40 MLOAD DUP1 SWAP2 SUB SWAP1 RETURN JUMPDEST PUSH2 0x124 PUSH1 0x4 DUP1 CALLDATASIZE SUB DUP2 ADD SWAP1 PUSH2 0x11F SWAP2 SWAP1 PUSH2 0x994 JUMP JUMPDEST PUSH2 0x619 JUMP JUMPDEST STOP JUMPDEST PUSH0 PUSH0 SWAP1 SLOAD SWAP1 PUSH2 0x100 EXP SWAP1 DIV PUSH20 0xFFFFFFFFFFFFFFFFFFFFFFFFFFFFFFFFFFFFFFFF AND PUSH20 0xFFFFFFFFFFFFFFFFFFFFFFFFFFFFFFFFFFFFFFFF AND PUSH4 0x8F9C79ED CALLER PUSH1 0x40 MLOAD DUP3 PUSH4 0xFFFFFFFF AND PUSH1 0xE0 SHL DUP2 MSTORE PUSH1 0x4 ADD PUSH2 0x17F SWAP2 SWAP1 PUSH2 0xB25 JUMP JUMPDEST PUSH1 0x20 PUSH1 0x40 MLOAD DUP1 DUP4 SUB DUP2 DUP7 GAS STATICCALL ISZERO DUP1 ISZERO PUSH2 0x19A JUMPI RETURNDATASIZE PUSH0 PUSH0 RETURNDATACOPY RETURNDATASIZE PUSH0 REVERT JUMPDEST POP POP POP POP PUSH1 0x40 MLOAD RETURNDATASIZE PUSH1 0x1F NOT PUSH1 0x1F DUP3 ADD AND DUP3 ADD DUP1 PUSH1 0x40 MSTORE POP DUP2 ADD SWAP1 PUSH2 0x1BE SWAP2 SWAP1 PUSH2 0xB68 JUMP JUMPDEST PUSH2 0x1FD JUMPI PUSH1 0x40 MLOAD PUSH32 0x8C379A000000000000000000000000000000000000000000000000000000000 DUP2 MSTORE PUSH1 0x4 ADD PUSH2 0x1F4 SWAP1 PUSH2 0xC13 JUMP JUMPDEST PUSH1 0x40 MLOAD DUP1 SWAP2 SUB SWAP1 REVERT JUMPDEST PUSH1 0x1 PUSH0 SWAP1 SLOAD SWAP1 PUSH2 0x100 EXP SWAP1 DIV PUSH20 0xFFFFFFFFFFFFFFFFFFFFFFFFFFFFFFFFFFFFFFFF AND PUSH20 0xFFFFFFFFFFFFFFFFFFFFFFFFFFFFFFFFFFFFFFFF AND PUSH4 0x9B5E1A3B DUP3 PUSH1 0x40 MLOAD DUP3 PUSH4 0xFFFFFFFF AND PUSH1 0xE0 SHL DUP2 MSTORE PUSH1 0x4 ADD PUSH2 0x257 SWAP2 SWAP1 PUSH2 0xB25 JUMP JUMPDEST PUSH1 0x20 PUSH1 0x40 MLOAD DUP1 DUP4 SUB DUP2 DUP7 GAS STATICCALL ISZERO DUP1 ISZERO PUSH2 0x272 JUMPI RETURNDATASIZE PUSH0 PUSH0 RETURNDATACOPY RETURNDATASIZE PUSH0 REVERT JUMPDEST POP POP POP POP PUSH1 0x40 MLOAD RETURNDATASIZE PUSH1 0x1F NOT PUSH1 0x1F DUP3 ADD AND DUP3 ADD DUP1 PUSH1 0x40 MSTORE POP DUP2 ADD SWAP1 PUSH2 0x296 SWAP2 SWAP1 PUSH2 0xB68 JUMP JUMPDEST PUSH2 0x2D5 JUMPI PUSH1 0x40 MLOAD PUSH32 0x8C379A000000000000000000000000000000000000000000000000000000000 DUP2 MSTORE PUSH1 0x4 ADD PUSH2 0x2CC SWAP1 PUSH2 0xCA1 JUMP JUMPDEST PUSH1 0x40 MLOAD DUP1 SWAP2 SUB SWAP1 REVERT JUMPDEST PUSH1 0x3 PUSH0 CALLER PUSH20 0xFFFFFFFFFFFFFFFFFFFFFFFFFFFFFFFFFFFFFFFF AND PUSH20 0xFFFFFFFFFFFFFFFFFFFFFFFFFFFFFFFFFFFFFFFF AND DUP2 MSTORE PUSH1 0x20 ADD SWAP1 DUP2 MSTORE PUSH1 0x20 ADD PUSH0 KECCAK256 PUSH0 DUP3 PUSH20 0xFFFFFFFFFFFFFFFFFFFFFFFFFFFFFFFFFFFFFFFF AND PUSH20 0xFFFFFFFFFFFFFFFFFFFFFFFFFFFFFFFFFFFFFFFF AND DUP2 MSTORE PUSH1 0x20 ADD SWAP1 DUP2 MSTORE PUSH1 0x20 ADD PUSH0 KECCAK256 PUSH0 SWAP1 SLOAD SWAP1 PUSH2 0x100 EXP SWAP1 DIV PUSH1 0xFF AND ISZERO PUSH2 0x39A JUMPI PUSH1 0x40 MLOAD PUSH32 0x8C379A000000000000000000000000000000000000000000000000000000000 DUP2 MSTORE PUSH1 0x4 ADD PUSH2 0x391 SWAP1 PUSH2 0xD09 JUMP JUMPDEST PUSH1 0x40 MLOAD DUP1 SWAP2 SUB SWAP1 REVERT JUMPDEST PUSH1 0x1 PUSH1 0x3 PUSH0 CALLER PUSH20 0xFFFFFFFFFFFFFFFFFFFFFFFFFFFFFFFFFFFFFFFF AND PUSH20 0xFFFFFFFFFFFFFFFFFFFFFFFFFFFFFFFFFFFFFFFF AND DUP2 MSTORE PUSH1 0x20 ADD SWAP1 DUP2 MSTORE PUSH1 0x20 ADD PUSH0 KECCAK256 PUSH0 DUP4 PUSH20 0xFFFFFFFFFFFFFFFFFFFFFFFFFFFFFFFFFFFFFFFF AND PUSH20 0xFFFFFFFFFFFFFFFFFFFFFFFFFFFFFFFFFFFFFFFF AND DUP2 MSTORE PUSH1 0x20 ADD SWAP1 DUP2 MSTORE PUSH1 0x20 ADD PUSH0 KECCAK256 PUSH0 PUSH2 0x100 EXP DUP2 SLOAD DUP2 PUSH1 0xFF MUL NOT AND SWAP1 DUP4 ISZERO ISZERO MUL OR SWAP1 SSTORE POP DUP1 PUSH20 0xFFFFFFFFFFFFFFFFFFFFFFFFFFFFFFFFFFFFFFFF AND CALLER PUSH20 0xFFFFFFFFFFFFFFFFFFFFFFFFFFFFFFFFFFFFFFFF AND PUSH32 0x65D0CC1E52D49938CA4AD9F423C79C1B84D914B9A683FBC5D3F93AC3CC5635F5 TIMESTAMP PUSH1 0x40 MLOAD PUSH2 0x487 SWAP2 SWAP1 PUSH2 0xD3F JUMP JUMPDEST PUSH1 0x40 MLOAD DUP1 SWAP2 SUB SWAP1 LOG3 PUSH1 0x2 PUSH0 SWAP1 SLOAD SWAP1 PUSH2 0x100 EXP SWAP1 DIV PUSH20 0xFFFFFFFFFFFFFFFFFFFFFFFFFFFFFFFFFFFFFFFF AND PUSH20 0xFFFFFFFFFFFFFFFFFFFFFFFFFFFFFFFFFFFFFFFF AND PUSH4 0x107D1D78 CALLER CALLER DUP5 PUSH1 0x40 MLOAD DUP5 PUSH4 0xFFFFFFFF AND PUSH1 0xE0 SHL DUP2 MSTORE PUSH1 0x4 ADD PUSH2 0x4ED SWAP4 SWAP3 SWAP2 SWAP1 PUSH2 0xDA2 JUMP JUMPDEST PUSH0 PUSH1 0x40 MLOAD DUP1 DUP4 SUB DUP2 PUSH0 DUP8 DUP1 EXTCODESIZE ISZERO DUP1 ISZERO PUSH2 0x504 JUMPI PUSH0 PUSH0 REVERT JUMPDEST POP GAS CALL ISZERO DUP1 ISZERO PUSH2 0x516 JUMPI RETURNDATASIZE PUSH0 PUSH0 RETURNDATACOPY RETURNDATASIZE PUSH0 REVERT JUMPDEST POP POP POP POP POP JUMP JUMPDEST PUSH0 PUSH0 SWAP1 SLOAD SWAP1 PUSH2 0x100 EXP SWAP1 DIV PUSH20 0xFFFFFFFFFFFFFFFFFFFFFFFFFFFFFFFFFFFFFFFF AND DUP2 JUMP JUMPDEST PUSH1 0x1 PUSH0 SWAP1 SLOAD SWAP1 PUSH2 0x100 EXP SWAP1 DIV PUSH20 0xFFFFFFFFFFFFFFFFFFFFFFFFFFFFFFFFFFFFFFFF AND DUP2 JUMP JUMPDEST PUSH1 0x2 PUSH0 SWAP1 SLOAD SWAP1 PUSH2 0x100 EXP SWAP1 DIV PUSH20 0xFFFFFFFFFFFFFFFFFFFFFFFFFFFFFFFFFFFFFFFF AND DUP2 JUMP JUMPDEST PUSH0 PUSH1 0x3 PUSH0 DUP5 PUSH20 0xFFFFFFFFFFFFFFFFFFFFFFFFFFFFFFFFFFFFFFFF AND PUSH20 0xFFFFFFFFFFFFFFFFFFFFFFFFFFFFFFFFFFFFFFFF AND DUP2 MSTORE PUSH1 0x20 ADD SWAP1 DUP2 MSTORE PUSH1 0x20 ADD PUSH0 KECCAK256 PUSH0 DUP4 PUSH20 0xFFFFFFFFFFFFFFFFFFFFFFFFFFFFFFFFFFFFFFFF AND PUSH20 0xFFFFFFFFFFFFFFFFFFFFFFFFFFFFFFFFFFFFFFFF AND DUP2 MSTORE PUSH1 0x20 ADD SWAP1 DUP2 MSTORE PUSH1 0x20 ADD PUSH0 KECCAK256 PUSH0 SWAP1 SLOAD SWAP1 PUSH2 0x100 EXP SWAP1 DIV PUSH1 0xFF AND SWAP1 POP SWAP3 SWAP2 POP POP JUMP JUMPDEST PUSH0 PUSH0 SWAP1 SLOAD SWAP1 PUSH2 0x100 EXP SWAP1 DIV PUSH20 0xFFFFFFFFFFFFFFFFFFFFFFFFFFFFFFFFFFFFFFFF AND PUSH20 0xFFFFFFFFFFFFFFFFFFFFFFFFFFFFFFFFFFFFFFFF AND PUSH4 0x8F9C79ED CALLER PUSH1 0x40 MLOAD DUP3 PUSH4 0xFFFFFFFF AND PUSH1 0xE0 SHL DUP2 MSTORE PUSH1 0x4 ADD PUSH2 0x672 SWAP2 SWAP1 PUSH2 0xB25 JUMP JUMPDEST PUSH1 0x20 PUSH1 0x40 MLOAD DUP1 DUP4 SUB DUP2 DUP7 GAS STATICCALL ISZERO DUP1 ISZERO PUSH2 0x68D JUMPI RETURNDATASIZE PUSH0 PUSH0 RETURNDATACOPY RETURNDATASIZE PUSH0 REVERT JUMPDEST POP POP POP POP PUSH1 0x40 MLOAD RETURNDATASIZE PUSH1 0x1F NOT PUSH1 0x1F DUP3 ADD AND DUP3 ADD DUP1 PUSH1 0x40 MSTORE POP DUP2 ADD SWAP1 PUSH2 0x6B1 SWAP2 SWAP1 PUSH2 0xB68 JUMP JUMPDEST PUSH2 0x6F0 JUMPI PUSH1 0x40 MLOAD PUSH32 0x8C379A000000000000000000000000000000000000000000000000000000000 DUP2 MSTORE PUSH1 0x4 ADD PUSH2 0x6E7 SWAP1 PUSH2 0xC13 JUMP JUMPDEST PUSH1 0x40 MLOAD DUP1 SWAP2 SUB SWAP1 REVERT JUMPDEST PUSH1 0x3 PUSH0 CALLER PUSH20 0xFFFFFFFFFFFFFFFFFFFFFFFFFFFFFFFFFFFFFFFF AND PUSH20 0xFFFFFFFFFFFFFFFFFFFFFFFFFFFFFFFFFFFFFFFF AND DUP2 MSTORE PUSH1 0x20 ADD SWAP1 DUP2 MSTORE PUSH1 0x20 ADD PUSH0 KECCAK256 PUSH0 DUP3 PUSH20 0xFFFFFFFFFFFFFFFFFFFFFFFFFFFFFFFFFFFFFFFF AND PUSH20 0xFFFFFFFFFFFFFFFFFFFFFFFFFFFFFFFFFFFFFFFF AND DUP2 MSTORE PUSH1 0x20 ADD SWAP1 DUP2 MSTORE PUSH1 0x20 ADD PUSH0 KECCAK256 PUSH0 SWAP1 SLOAD SWAP1 PUSH2 0x100 EXP SWAP1 DIV PUSH1 0xFF AND PUSH2 0x7B4 JUMPI PUSH1 0x40 MLOAD PUSH32 0x8C379A000000000000000000000000000000000000000000000000000000000 DUP2 MSTORE PUSH1 0x4 ADD PUSH2 0x7AB SWAP1 PUSH2 0xE5A JUMP JUMPDEST PUSH1 0x40 MLOAD DUP1 SWAP2 SUB SWAP1 REVERT JUMPDEST PUSH0 PUSH1 0x3 PUSH0 CALLER PUSH20 0xFFFFFFFFFFFFFFFFFFFFFFFFFFFFFFFFFFFFFFFF AND PUSH20 0xFFFFFFFFFFFFFFFFFFFFFFFFFFFFFFFFFFFFFFFF AND DUP2 MSTORE PUSH1 0x20 ADD SWAP1 DUP2 MSTORE PUSH1 0x20 ADD PUSH0 KECCAK256 PUSH0 DUP4 PUSH20 0xFFFFFFFFFFFFFFFFFFFFFFFFFFFFFFFFFFFFFFFF AND PUSH20 0xFFFFFFFFFFFFFFFFFFFFFFFFFFFFFFFFFFFFFFFF AND DUP2 MSTORE PUSH1 0x20 ADD SWAP1 DUP2 MSTORE PUSH1 0x20 ADD PUSH0 KECCAK256 PUSH0 PUSH2 0x100 EXP DUP2 SLOAD DUP2 PUSH1 0xFF MUL NOT AND SWAP1 DUP4 ISZERO ISZERO MUL OR SWAP1 SSTORE POP DUP1 PUSH20 0xFFFFFFFFFFFFFFFFFFFFFFFFFFFFFFFFFFFFFFFF AND CALLER PUSH20 0xFFFFFFFFFFFFFFFFFFFFFFFFFFFFFFFFFFFFFFFF AND PUSH32 0x6F6A404FFD2CEA4713256A4FD9CE99C8CF8CF32D85C2BB8061D1603FF57D50C3 TIMESTAMP PUSH1 0x40 MLOAD PUSH2 0x8A0 SWAP2 SWAP1 PUSH2 0xD3F JUMP JUMPDEST PUSH1 0x40 MLOAD DUP1 SWAP2 SUB SWAP1 LOG3 PUSH1 0x2 PUSH0 SWAP1 SLOAD SWAP1 PUSH2 0x100 EXP SWAP1 DIV PUSH20 0xFFFFFFFFFFFFFFFFFFFFFFFFFFFFFFFFFFFFFFFF AND PUSH20 0xFFFFFFFFFFFFFFFFFFFFFFFFFFFFFFFFFFFFFFFF AND PUSH4 0x107D1D78 CALLER CALLER DUP5 PUSH1 0x40 MLOAD DUP5 PUSH4 0xFFFFFFFF AND PUSH1 0xE0 SHL DUP2 MSTORE PUSH1 0x4 ADD PUSH2 0x906 SWAP4 SWAP3 SWAP2 SWAP1 PUSH2 0xEC2 JUMP JUMPDEST PUSH0 PUSH1 0x40 MLOAD DUP1 DUP4 SUB DUP2 PUSH0 DUP8 DUP1 EXTCODESIZE ISZERO DUP1 ISZERO PUSH2 0x91D JUMPI PUSH0 PUSH0 REVERT JUMPDEST POP GAS CALL ISZERO DUP1 ISZERO PUSH2 0x92F JUMPI RETURNDATASIZE PUSH0 PUSH0 RETURNDATACOPY RETURNDATASIZE PUSH0 REVERT JUMPDEST POP POP POP POP POP JUMP JUMPDEST PUSH0 PUSH0 REVERT JUMPDEST PUSH0 PUSH20 0xFFFFFFFFFFFFFFFFFFFFFFFFFFFFFFFFFFFFFFFF DUP3 AND SWAP1 POP SWAP2 SWAP1 POP JUMP JUMPDEST PUSH0 PUSH2 0x963 DUP3 PUSH2 0x93A JUMP JUMPDEST SWAP1 POP SWAP2 SWAP1 POP JUMP JUMPDEST PUSH2 0x973 DUP2 PUSH2 0x959 JUMP JUMPDEST DUP2 EQ PUSH2 0x97D JUMPI PUSH0 PUSH0 REVERT JUMPDEST POP JUMP JUMPDEST PUSH0 DUP2 CALLDATALOAD SWAP1 POP PUSH2 0x98E DUP2 PUSH2 0x96A JUMP JUMPDEST SWAP3 SWAP2 POP POP JUMP JUMPDEST PUSH0 PUSH1 0x20 DUP3 DUP5 SUB SLT ISZERO PUSH2 0x9A9 JUMPI PUSH2 0x9A8 PUSH2 0x936 JUMP JUMPDEST JUMPDEST PUSH0 PUSH2 0x9B6 DUP5 DUP3 DUP6 ADD PUSH2 0x980 JUMP JUMPDEST SWAP2 POP POP SWAP3 SWAP2 POP POP JUMP JUMPDEST PUSH0 DUP2 SWAP1 POP SWAP2 SWAP1 POP JUMP JUMPDEST PUSH0 PUSH2 0x9E2 PUSH2 0x9DD PUSH2 0x9D8 DUP5 PUSH2 0x93A JUMP JUMPDEST PUSH2 0x9BF JUMP JUMPDEST PUSH2 0x93A JUMP JUMPDEST SWAP1 POP SWAP2 SWAP1 POP JUMP JUMPDEST PUSH0 PUSH2 0x9F3 DUP3 PUSH2 0x9C8 JUMP JUMPDEST SWAP1 POP SWAP2 SWAP1 POP JUMP JUMPDEST PUSH0 PUSH2 0xA04 DUP3 PUSH2 0x9E9 JUMP JUMPDEST SWAP1 POP SWAP2 SWAP1 POP JUMP JUMPDEST PUSH2 0xA14 DUP2 PUSH2 0x9FA JUMP JUMPDEST DUP3 MSTORE POP POP JUMP JUMPDEST PUSH0 PUSH1 0x20 DUP3 ADD SWAP1 POP PUSH2 0xA2D PUSH0 DUP4 ADD DUP5 PUSH2 0xA0B JUMP JUMPDEST SWAP3 SWAP2 POP POP JUMP JUMPDEST PUSH0 PUSH2 0xA3D DUP3 PUSH2 0x9E9 JUMP JUMPDEST SWAP1 POP SWAP2 SWAP1 POP JUMP JUMPDEST PUSH2 0xA4D DUP2 PUSH2 0xA33 JUMP JUMPDEST DUP3 MSTORE POP POP JUMP JUMPDEST PUSH0 PUSH1 0x20 DUP3 ADD SWAP1 POP PUSH2 0xA66 PUSH0 DUP4 ADD DUP5 PUSH2 0xA44 JUMP JUMPDEST SWAP3 SWAP2 POP POP JUMP JUMPDEST PUSH0 PUSH2 0xA76 DUP3 PUSH2 0x9E9 JUMP JUMPDEST SWAP1 POP SWAP2 SWAP1 POP JUMP JUMPDEST PUSH2 0xA86 DUP2 PUSH2 0xA6C JUMP JUMPDEST DUP3 MSTORE POP POP JUMP JUMPDEST PUSH0 PUSH1 0x20 DUP3 ADD SWAP1 POP PUSH2 0xA9F PUSH0 DUP4 ADD DUP5 PUSH2 0xA7D JUMP JUMPDEST SWAP3 SWAP2 POP POP JUMP JUMPDEST PUSH0 PUSH0 PUSH1 0x40 DUP4 DUP6 SUB SLT ISZERO PUSH2 0xABB JUMPI PUSH2 0xABA PUSH2 0x936 JUMP JUMPDEST JUMPDEST PUSH0 PUSH2 0xAC8 DUP6 DUP3 DUP7 ADD PUSH2 0x980 JUMP JUMPDEST SWAP3 POP POP PUSH1 0x20 PUSH2 0xAD9 DUP6 DUP3 DUP7 ADD PUSH2 0x980 JUMP JUMPDEST SWAP2 POP POP SWAP3 POP SWAP3 SWAP1 POP JUMP JUMPDEST PUSH0 DUP2 ISZERO ISZERO SWAP1 POP SWAP2 SWAP1 POP JUMP JUMPDEST PUSH2 0xAF7 DUP2 PUSH2 0xAE3 JUMP JUMPDEST DUP3 MSTORE POP POP JUMP JUMPDEST PUSH0 PUSH1 0x20 DUP3 ADD SWAP1 POP PUSH2 0xB10 PUSH0 DUP4 ADD DUP5 PUSH2 0xAEE JUMP JUMPDEST SWAP3 SWAP2 POP POP JUMP JUMPDEST PUSH2 0xB1F DUP2 PUSH2 0x959 JUMP JUMPDEST DUP3 MSTORE POP POP JUMP JUMPDEST PUSH0 PUSH1 0x20 DUP3 ADD SWAP1 POP PUSH2 0xB38 PUSH0 DUP4 ADD DUP5 PUSH2 0xB16 JUMP JUMPDEST SWAP3 SWAP2 POP POP JUMP JUMPDEST PUSH2 0xB47 DUP2 PUSH2 0xAE3 JUMP JUMPDEST DUP2 EQ PUSH2 0xB51 JUMPI PUSH0 PUSH0 REVERT JUMPDEST POP JUMP JUMPDEST PUSH0 DUP2 MLOAD SWAP1 POP PUSH2 0xB62 DUP2 PUSH2 0xB3E JUMP JUMPDEST SWAP3 SWAP2 POP POP JUMP JUMPDEST PUSH0 PUSH1 0x20 DUP3 DUP5 SUB SLT ISZERO PUSH2 0xB7D JUMPI PUSH2 0xB7C PUSH2 0x936 JUMP JUMPDEST JUMPDEST PUSH0 PUSH2 0xB8A DUP5 DUP3 DUP6 ADD PUSH2 0xB54 JUMP JUMPDEST SWAP2 POP POP SWAP3 SWAP2 POP POP JUMP JUMPDEST PUSH0 DUP3 DUP3 MSTORE PUSH1 0x20 DUP3 ADD SWAP1 POP SWAP3 SWAP2 POP POP JUMP JUMPDEST PUSH32 0x416363657373436F6E74726F6C3A2063616C6C6572206E6F7420612070617469 PUSH0 DUP3 ADD MSTORE PUSH32 0x656E740000000000000000000000000000000000000000000000000000000000 PUSH1 0x20 DUP3 ADD MSTORE POP JUMP JUMPDEST PUSH0 PUSH2 0xBFD PUSH1 0x23 DUP4 PUSH2 0xB93 JUMP JUMPDEST SWAP2 POP PUSH2 0xC08 DUP3 PUSH2 0xBA3 JUMP JUMPDEST PUSH1 0x40 DUP3 ADD SWAP1 POP SWAP2 SWAP1 POP JUMP JUMPDEST PUSH0 PUSH1 0x20 DUP3 ADD SWAP1 POP DUP2 DUP2 SUB PUSH0 DUP4 ADD MSTORE PUSH2 0xC2A DUP2 PUSH2 0xBF1 JUMP JUMPDEST SWAP1 POP SWAP2 SWAP1 POP JUMP JUMPDEST PUSH32 0x416363657373436F6E74726F6C3A2070726F7669646572206E6F742061637469 PUSH0 DUP3 ADD MSTORE PUSH32 0x7665000000000000000000000000000000000000000000000000000000000000 PUSH1 0x20 DUP3 ADD MSTORE POP JUMP JUMPDEST PUSH0 PUSH2 0xC8B PUSH1 0x22 DUP4 PUSH2 0xB93 JUMP JUMPDEST SWAP2 POP PUSH2 0xC96 DUP3 PUSH2 0xC31 JUMP JUMPDEST PUSH1 0x40 DUP3 ADD SWAP1 POP SWAP2 SWAP1 POP JUMP JUMPDEST PUSH0 PUSH1 0x20 DUP3 ADD SWAP1 POP DUP2 DUP2 SUB PUSH0 DUP4 ADD MSTORE PUSH2 0xCB8 DUP2 PUSH2 0xC7F JUMP JUMPDEST SWAP1 POP SWAP2 SWAP1 POP JUMP JUMPDEST PUSH32 0x416363657373436F6E74726F6C3A20616C7265616479206772616E7465640000 PUSH0 DUP3 ADD MSTORE POP JUMP JUMPDEST PUSH0 PUSH2 0xCF3 PUSH1 0x1E DUP4 PUSH2 0xB93 JUMP JUMPDEST SWAP2 POP PUSH2 0xCFE DUP3 PUSH2 0xCBF JUMP JUMPDEST PUSH1 0x20 DUP3 ADD SWAP1 POP SWAP2 SWAP1 POP JUMP JUMPDEST PUSH0 PUSH1 0x20 DUP3 ADD SWAP1 POP DUP2 DUP2 SUB PUSH0 DUP4 ADD MSTORE PUSH2 0xD20 DUP2 PUSH2 0xCE7 JUMP JUMPDEST SWAP1 POP SWAP2 SWAP1 POP JUMP JUMPDEST PUSH0 DUP2 SWAP1 POP SWAP2 SWAP1 POP JUMP JUMPDEST PUSH2 0xD39 DUP2 PUSH2 0xD27 JUMP JUMPDEST DUP3 MSTORE POP POP JUMP JUMPDEST PUSH0 PUSH1 0x20 DUP3 ADD SWAP1 POP PUSH2 0xD52 PUSH0 DUP4 ADD DUP5 PUSH2 0xD30 JUMP JUMPDEST SWAP3 SWAP2 POP POP JUMP JUMPDEST PUSH32 0x4752414E545F4143434553530000000000000000000000000000000000000000 PUSH0 DUP3 ADD MSTORE POP JUMP JUMPDEST PUSH0 PUSH2 0xD8C PUSH1 0xC DUP4 PUSH2 0xB93 JUMP JUMPDEST SWAP2 POP PUSH2 0xD97 DUP3 PUSH2 0xD58 JUMP JUMPDEST PUSH1 0x20 DUP3 ADD SWAP1 POP SWAP2 SWAP1 POP JUMP JUMPDEST PUSH0 PUSH1 0x80 DUP3 ADD SWAP1 POP PUSH2 0xDB5 PUSH0 DUP4 ADD DUP7 PUSH2 0xB16 JUMP JUMPDEST PUSH2 0xDC2 PUSH1 0x20 DUP4 ADD DUP6 PUSH2 0xB16 JUMP JUMPDEST PUSH2 0xDCF PUSH1 0x40 DUP4 ADD DUP5 PUSH2 0xB16 JUMP JUMPDEST DUP2 DUP2 SUB PUSH1 0x60 DUP4 ADD MSTORE PUSH2 0xDE0 DUP2 PUSH2 0xD80 JUMP JUMPDEST SWAP1 POP SWAP5 SWAP4 POP POP POP POP JUMP JUMPDEST PUSH32 0x416363657373436F6E74726F6C3A206E6F2061636365737320746F207265766F PUSH0 DUP3 ADD MSTORE PUSH32 0x6B65000000000000000000000000000000000000000000000000000000000000 PUSH1 0x20 DUP3 ADD MSTORE POP JUMP JUMPDEST PUSH0 PUSH2 0xE44 PUSH1 0x22 DUP4 PUSH2 0xB93 JUMP JUMPDEST SWAP2 POP PUSH2 0xE4F DUP3 PUSH2 0xDEA JUMP JUMPDEST PUSH1 0x40 DUP3 ADD SWAP1 POP SWAP2 SWAP1 POP JUMP JUMPDEST PUSH0 PUSH1 0x20 DUP3 ADD SWAP1 POP DUP2 DUP2 SUB PUSH0 DUP4 ADD MSTORE PUSH2 0xE71 DUP2 PUSH2 0xE38 JUMP JUMPDEST SWAP1 POP SWAP2 SWAP1 POP JUMP JUMPDEST PUSH32 0x5245564F4B455F41434345535300000000000000000000000000000000000000 PUSH0 DUP3 ADD MSTORE POP JUMP JUMPDEST PUSH0 PUSH2 0xEAC PUSH1 0xD DUP4 PUSH2 0xB93 JUMP JUMPDEST SWAP2 POP PUSH2 0xEB7 DUP3 PUSH2 0xE78 JUMP JUMPDEST PUSH1 0x20 DUP3 ADD SWAP1 POP SWAP2 SWAP1 POP JUMP JUMPDEST PUSH0 PUSH1 0x80 DUP3 ADD SWAP1 POP PUSH2 0xED5 PUSH0 DUP4 ADD DUP7 PUSH2 0xB16 JUMP JUMPDEST PUSH2 0xEE2 PUSH1 0x20 DUP4 ADD DUP6 PUSH2 0xB16 JUMP JUMPDEST PUSH2 0xEEF PUSH1 0x40 DUP4 ADD DUP5 PUSH2 0xB16 JUMP JUMPDEST DUP2 DUP2 SUB PUSH1 0x60 DUP4 ADD MSTORE PUSH2 0xF00 DUP2 PUSH2 0xEA0 JUMP JUMPDEST SWAP1 POP SWAP5 SWAP4 POP POP POP POP JUMP INVALID LOG2 PUSH5 0x6970667358 0x22 SLT KECCAK256 PUSH19 0xB5F3C2BFF58F730BE6075ABE1C4FC187C0B4AB MSTORE SWAP3 NOT PUSH11 0x5C55E68CFEC07C0364736F PUSH13 0x634300081E0033000000000000 "
				},
				"gasEstimates": {
					"creation": {
						"codeDepositCost": "780800",
						"executionCost": "infinite",
						"totalCost": "infinite"
					},
					"external": {
						"auditLog()": "infinite",
						"checkAccess(address,address)": "infinite",
						"grantAccess(address)": "infinite",
						"patientRegistry()": "infinite",
						"providerRegistry()": "infinite",
						"revokeAccess(address)": "infinite"
					}
				},
				"methodIdentifiers": {
					"auditLog()": "5a2d6ebd",
					"checkAccess(address,address)": "62e1f745",
					"grantAccess(address)": "0ae5e739",
					"patientRegistry()": "5250c6e2",
					"providerRegistry()": "545921d9",
					"revokeAccess(address)": "85e68531"
				}
			},
			"storageLayout": {
				"storage": [
					{
						"astId": 32,
						"contract": "contracts/AccessControl.sol:AccessControl",
						"label": "patientRegistry",
						"offset": 0,
						"slot": "0",
						"type": "t_contract(IPatientRegistry)9"
					},
					{
						"astId": 35,
						"contract": "contracts/AccessControl.sol:AccessControl",
						"label": "providerRegistry",
						"offset": 0,
						"slot": "1",
						"type": "t_contract(IProviderRegistry)17"
					},
					{
						"astId": 38,
						"contract": "contracts/AccessControl.sol:AccessControl",
						"label": "auditLog",
						"offset": 0,
						"slot": "2",
						"type": "t_contract(IAuditLog)29"
					},
					{
						"astId": 44,
						"contract": "contracts/AccessControl.sol:AccessControl",
						"label": "permissions",
						"offset": 0,
						"slot": "3",
						"type": "t_mapping(t_address,t_mapping(t_address,t_bool))"
					}
				],
				"types": {
					"t_address": {
						"encoding": "inplace",
						"label": "address",
						"numberOfBytes": "20"
					},
					"t_bool": {
						"encoding": "inplace",
						"label": "bool",
						"numberOfBytes": "1"
					},
					"t_contract(IAuditLog)29": {
						"encoding": "inplace",
						"label": "contract IAuditLog",
						"numberOfBytes": "20"
					},
					"t_contract(IPatientRegistry)9": {
						"encoding": "inplace",
						"label": "contract IPatientRegistry",
						"numberOfBytes": "20"
					},
					"t_contract(IProviderRegistry)17": {
						"encoding": "inplace",
						"label": "contract IProviderRegistry",
						"numberOfBytes": "20"
					},
					"t_mapping(t_address,t_bool)": {
						"encoding": "mapping",
						"key": "t_address",
						"label": "mapping(address => bool)",
						"numberOfBytes": "32",
						"value": "t_bool"
					},
					"t_mapping(t_address,t_mapping(t_address,t_bool))": {
						"encoding": "mapping",
						"key": "t_address",
						"label": "mapping(address => mapping(address => bool))",
						"numberOfBytes": "32",
						"value": "t_mapping(t_address,t_bool)"
					}
				}
			},
			"userdoc": {
				"kind": "user",
				"methods": {},
				"version": 1
			}
		}
	}
}