{
	"contracts/AccessControl.sol": {
		"AccessControl": {
			"abi": [
				{
					"inputs": [
						{
							"internalType": "address",
							"name": "_patientRegistry",
							"type": "address"
						},
						{
							"internalType": "address",
							"name": "_providerRegistry",
							"type": "address"
						},
						{
							"internalType": "address",
							"name": "_auditLog",
							"type": "address"
						}
					],
					"stateMutability": "nonpayable",
					"type": "constructor"
				},
				{
					"anonymous": false,
					"inputs": [
						{
							"indexed": true,
							"internalType": "address",
							"name": "patient",
							"type": "address"
						},
						{
							"indexed": true,
							"internalType": "address",
							"name": "provider",
							"type": "address"
						},
						{
							"indexed": false,
							"internalType": "uint256",
							"name": "timestamp",
							"type": "uint256"
						}
					],
					"name": "AccessGranted",
					"type": "event"
				},
				{
					"anonymous": false,
					"inputs": [
						{
							"indexed": true,
							"internalType": "address",
							"name": "patient",
							"type": "address"
						},
						{
							"indexed": true,
							"internalType": "address",
							"name": "provider",
							"type": "address"
						},
						{
							"indexed": false,
							"internalType": "uint256",
							"name": "timestamp",
							"type": "uint256"
						}
					],
					"name": "AccessRevoked",
					"type": "event"
				},
				{
					"inputs": [],
					"name": "auditLog",
					"outputs": [
						{
							"internalType": "contract IAuditLog",
							"name": "",
							"type": "address"
						}
					],
					"stateMutability": "view",
					"type": "function"
				},
				{
					"inputs": [],
					"name": "patientRegistry",
					"outputs": [
						{
							"internalType": "contract IPatientRegistry",
							"name": "",
							"type": "address"
						}
					],
					"stateMutability": "view",
					"type": "function"
				},
				{
					"inputs": [],
					"name": "providerRegistry",
					"outputs": [
						{
							"internalType": "contract IProviderRegistry",
							"name": "",
							"type": "address"
						}
					],
					"stateMutability": "view",
					"type": "function"
				}
			],
			"devdoc": {
				"kind": "dev",
				"methods": {},
				"version": 1
			},
			"evm": {
				"assembly": "    /* \"contracts/AccessControl.sol\":392:1471  contract AccessControl {... */\n  mstore(0x40, 0x80)\n    /* \"contracts/AccessControl.sol\":866:1393  constructor(address _patientRegistry, address _providerRegistry, address _auditLog) {... */\n  callvalue\n  dup1\n  iszero\n  tag_1\n  jumpi\n  revert(0x00, 0x00)\ntag_1:\n  pop\n  mload(0x40)\n  sub(codesize, bytecodeSize)\n  dup1\n  bytecodeSize\n  dup4\n  codecopy\n  dup2\n  dup2\n  add\n  0x40\n  mstore\n  dup2\n  add\n  swap1\n  tag_2\n  swap2\n  swap1\n  tag_3\n  jump\t// in\ntag_2:\n    /* \"contracts/AccessControl.sol\":997:998  0 */\n  0x00\n    /* \"contracts/AccessControl.sol\":969:999  _patientRegistry != address(0) */\n  0xffffffffffffffffffffffffffffffffffffffff\n  and\n    /* \"contracts/AccessControl.sol\":969:985  _patientRegistry */\n  dup4\n    /* \"contracts/AccessControl.sol\":969:999  _patientRegistry != address(0) */\n  0xffffffffffffffffffffffffffffffffffffffff\n  and\n  sub\n    /* \"contracts/AccessControl.sol\":961:1039  require(_patientRegistry != address(0), \"AccessControl: zero patientRegistry\") */\n  tag_6\n  jumpi\n  mload(0x40)\n  0x08c379a000000000000000000000000000000000000000000000000000000000\n  dup2\n  mstore\n  0x04\n  add\n  tag_7\n  swap1\n  tag_8\n  jump\t// in\ntag_7:\n  mload(0x40)\n  dup1\n  swap2\n  sub\n  swap1\n  revert\ntag_6:\n    /* \"contracts/AccessControl.sol\":1087:1088  0 */\n  0x00\n    /* \"contracts/AccessControl.sol\":1058:1089  _providerRegistry != address(0) */\n  0xffffffffffffffffffffffffffffffffffffffff\n  and\n    /* \"contracts/AccessControl.sol\":1058:1075  _providerRegistry */\n  dup3\n    /* \"contracts/AccessControl.sol\":1058:1089  _providerRegistry != address(0) */\n  0xffffffffffffffffffffffffffffffffffffffff\n  and\n  sub\n    /* \"contracts/AccessControl.sol\":1050:1130  require(_providerRegistry != address(0), \"AccessControl: zero providerRegistry\") */\n  tag_9\n  jumpi\n  mload(0x40)\n  0x08c379a000000000000000000000000000000000000000000000000000000000\n  dup2\n  mstore\n  0x04\n  add\n  tag_10\n  swap1\n  tag_11\n  jump\t// in\ntag_10:\n  mload(0x40)\n  dup1\n  swap2\n  sub\n  swap1\n  revert\ntag_9:\n    /* \"contracts/AccessControl.sol\":1170:1171  0 */\n  0x00\n    /* \"contracts/AccessControl.sol\":1149:1172  _auditLog != address(0) */\n  0xffffffffffffffffffffffffffffffffffffffff\n  and\n    /* \"contracts/AccessControl.sol\":1149:1158  _auditLog */\n  dup2\n    /* \"contracts/AccessControl.sol\":1149:1172  _auditLog != address(0) */\n  0xffffffffffffffffffffffffffffffffffffffff\n  and\n  sub\n    /* \"contracts/AccessControl.sol\":1141:1205  require(_auditLog != address(0), \"AccessControl: zero auditLog\") */\n  tag_12\n  jumpi\n  mload(0x40)\n  0x08c379a000000000000000000000000000000000000000000000000000000000\n  dup2\n  mstore\n  0x04\n  add\n  tag_13\n  swap1\n  tag_14\n  jump\t// in\ntag_13:\n  mload(0x40)\n  dup1\n  swap2\n  sub\n  swap1\n  revert\ntag_12:\n    /* \"contracts/AccessControl.sol\":1252:1268  _patientRegistry */\n  dup3\n    /* \"contracts/AccessControl.sol\":1216:1231  patientRegistry */\n  0x00\n  0x00\n    /* \"contracts/AccessControl.sol\":1216:1269  patientRegistry  = IPatientRegistry(_patientRegistry) */\n  0x0100\n  exp\n  dup2\n  sload\n  dup2\n  0xffffffffffffffffffffffffffffffffffffffff\n  mul\n  not\n  and\n  swap1\n  dup4\n  0xffffffffffffffffffffffffffffffffffffffff\n  and\n  mul\n  or\n  swap1\n  sstore\n  pop\n    /* \"contracts/AccessControl.sol\":1317:1334  _providerRegistry */\n  dup2\n    /* \"contracts/AccessControl.sol\":1280:1296  providerRegistry */\n  0x01\n  0x00\n    /* \"contracts/AccessControl.sol\":1280:1335  providerRegistry = IProviderRegistry(_providerRegistry) */\n  0x0100\n  exp\n  dup2\n  sload\n  dup2\n  0xffffffffffffffffffffffffffffffffffffffff\n  mul\n  not\n  and\n  swap1\n  dup4\n  0xffffffffffffffffffffffffffffffffffffffff\n  and\n  mul\n  or\n  swap1\n  sstore\n  pop\n    /* \"contracts/AccessControl.sol\":1375:1384  _auditLog */\n  dup1\n    /* \"contracts/AccessControl.sol\":1346:1354  auditLog */\n  0x02\n  0x00\n    /* \"contracts/AccessControl.sol\":1346:1385  auditLog         = IAuditLog(_auditLog) */\n  0x0100\n  exp\n  dup2\n  sload\n  dup2\n  0xffffffffffffffffffffffffffffffffffffffff\n  mul\n  not\n  and\n  swap1\n  dup4\n  0xffffffffffffffffffffffffffffffffffffffff\n  and\n  mul\n  or\n  swap1\n  sstore\n  pop\n    /* \"contracts/AccessControl.sol\":866:1393  constructor(address _patientRegistry, address _providerRegistry, address _auditLog) {... */\n  pop\n  pop\n  pop\n    /* \"contracts/AccessControl.sol\":392:1471  contract AccessControl {... */\n  jump(tag_15)\n    /* \"#utility.yul\":88:205   */\ntag_17:\n    /* \"#utility.yul\":197:198   */\n  0x00\n    /* \"#utility.yul\":194:195   */\n  0x00\n    /* \"#utility.yul\":187:199   */\n  revert\n    /* \"#utility.yul\":334:460   */\ntag_19:\n    /* \"#utility.yul\":371:378   */\n  0x00\n    /* \"#utility.yul\":411:453   */\n  0xffffffffffffffffffffffffffffffffffffffff\n    /* \"#utility.yul\":404:409   */\n  dup3\n    /* \"#utility.yul\":400:454   */\n  and\n    /* \"#utility.yul\":389:454   */\n  swap1\n  pop\n    /* \"#utility.yul\":334:460   */\n  swap2\n  swap1\n  pop\n  jump\t// out\n    /* \"#utility.yul\":466:562   */\ntag_20:\n    /* \"#utility.yul\":503:510   */\n  0x00\n    /* \"#utility.yul\":532:556   */\n  tag_36\n    /* \"#utility.yul\":550:555   */\n  dup3\n    /* \"#utility.yul\":532:556   */\n  tag_19\n  jump\t// in\ntag_36:\n    /* \"#utility.yul\":521:556   */\n  swap1\n  pop\n    /* \"#utility.yul\":466:562   */\n  swap2\n  swap1\n  pop\n  jump\t// out\n    /* \"#utility.yul\":568:690   */\ntag_21:\n    /* \"#utility.yul\":641:665   */\n  tag_38\n    /* \"#utility.yul\":659:664   */\n  dup2\n    /* \"#utility.yul\":641:665   */\n  tag_20\n  jump\t// in\ntag_38:\n    /* \"#utility.yul\":634:639   */\n  dup2\n    /* \"#utility.yul\":631:666   */\n  eq\n    /* \"#utility.yul\":621:684   */\n  tag_39\n  jumpi\n    /* \"#utility.yul\":680:681   */\n  0x00\n    /* \"#utility.yul\":677:678   */\n  0x00\n    /* \"#utility.yul\":670:682   */\n  revert\n    /* \"#utility.yul\":621:684   */\ntag_39:\n    /* \"#utility.yul\":568:690   */\n  pop\n  jump\t// out\n    /* \"#utility.yul\":696:839   */\ntag_22:\n    /* \"#utility.yul\":753:758   */\n  0x00\n    /* \"#utility.yul\":784:790   */\n  dup2\n    /* \"#utility.yul\":778:791   */\n  mload\n    /* \"#utility.yul\":769:791   */\n  swap1\n  pop\n    /* \"#utility.yul\":800:833   */\n  tag_41\n    /* \"#utility.yul\":827:832   */\n  dup2\n    /* \"#utility.yul\":800:833   */\n  tag_21\n  jump\t// in\ntag_41:\n    /* \"#utility.yul\":696:839   */\n  swap3\n  swap2\n  pop\n  pop\n  jump\t// out\n    /* \"#utility.yul\":845:1508   */\ntag_3:\n    /* \"#utility.yul\":933:939   */\n  0x00\n    /* \"#utility.yul\":941:947   */\n  0x00\n    /* \"#utility.yul\":949:955   */\n  0x00\n    /* \"#utility.yul\":998:1000   */\n  0x60\n    /* \"#utility.yul\":986:995   */\n  dup5\n    /* \"#utility.yul\":977:984   */\n  dup7\n    /* \"#utility.yul\":973:996   */\n  sub\n    /* \"#utility.yul\":969:1001   */\n  slt\n    /* \"#utility.yul\":966:1085   */\n  iszero\n  tag_43\n  jumpi\n    /* \"#utility.yul\":1004:1083   */\n  tag_44\n  tag_17\n  jump\t// in\ntag_44:\n    /* \"#utility.yul\":966:1085   */\ntag_43:\n    /* \"#utility.yul\":1124:1125   */\n  0x00\n    /* \"#utility.yul\":1149:1213   */\n  tag_45\n    /* \"#utility.yul\":1205:1212   */\n  dup7\n    /* \"#utility.yul\":1196:1202   */\n  dup3\n    /* \"#utility.yul\":1185:1194   */\n  dup8\n    /* \"#utility.yul\":1181:1203   */\n  add\n    /* \"#utility.yul\":1149:1213   */\n  tag_22\n  jump\t// in\ntag_45:\n    /* \"#utility.yul\":1139:1213   */\n  swap4\n  pop\n    /* \"#utility.yul\":1095:1223   */\n  pop\n    /* \"#utility.yul\":1262:1264   */\n  0x20\n    /* \"#utility.yul\":1288:1352   */\n  tag_46\n    /* \"#utility.yul\":1344:1351   */\n  dup7\n    /* \"#utility.yul\":1335:1341   */\n  dup3\n    /* \"#utility.yul\":1324:1333   */\n  dup8\n    /* \"#utility.yul\":1320:1342   */\n  add\n    /* \"#utility.yul\":1288:1352   */\n  tag_22\n  jump\t// in\ntag_46:\n    /* \"#utility.yul\":1278:1352   */\n  swap3\n  pop\n    /* \"#utility.yul\":1233:1362   */\n  pop\n    /* \"#utility.yul\":1401:1403   */\n  0x40\n    /* \"#utility.yul\":1427:1491   */\n  tag_47\n    /* \"#utility.yul\":1483:1490   */\n  dup7\n    /* \"#utility.yul\":1474:1480   */\n  dup3\n    /* \"#utility.yul\":1463:1472   */\n  dup8\n    /* \"#utility.yul\":1459:1481   */\n  add\n    /* \"#utility.yul\":1427:1491   */\n  tag_22\n  jump\t// in\ntag_47:\n    /* \"#utility.yul\":1417:1491   */\n  swap2\n  pop\n    /* \"#utility.yul\":1372:1501   */\n  pop\n    /* \"#utility.yul\":845:1508   */\n  swap3\n  pop\n  swap3\n  pop\n  swap3\n  jump\t// out\n    /* \"#utility.yul\":1514:1683   */\ntag_23:\n    /* \"#utility.yul\":1598:1609   */\n  0x00\n    /* \"#utility.yul\":1632:1638   */\n  dup3\n    /* \"#utility.yul\":1627:1630   */\n  dup3\n    /* \"#utility.yul\":1620:1639   */\n  mstore\n    /* \"#utility.yul\":1672:1676   */\n  0x20\n    /* \"#utility.yul\":1667:1670   */\n  dup3\n    /* \"#utility.yul\":1663:1677   */\n  add\n    /* \"#utility.yul\":1648:1677   */\n  swap1\n  pop\n    /* \"#utility.yul\":1514:1683   */\n  swap3\n  swap2\n  pop\n  pop\n  jump\t// out\n    /* \"#utility.yul\":1689:1911   */\ntag_24:\n    /* \"#utility.yul\":1829:1863   */\n  0x416363657373436f6e74726f6c3a207a65726f2070617469656e745265676973\n    /* \"#utility.yul\":1825:1826   */\n  0x00\n    /* \"#utility.yul\":1817:1823   */\n  dup3\n    /* \"#utility.yul\":1813:1827   */\n  add\n    /* \"#utility.yul\":1806:1864   */\n  mstore\n    /* \"#utility.yul\":1898:1903   */\n  0x7472790000000000000000000000000000000000000000000000000000000000\n    /* \"#utility.yul\":1893:1895   */\n  0x20\n    /* \"#utility.yul\":1885:1891   */\n  dup3\n    /* \"#utility.yul\":1881:1896   */\n  add\n    /* \"#utility.yul\":1874:1904   */\n  mstore\n    /* \"#utility.yul\":1689:1911   */\n  pop\n  jump\t// out\n    /* \"#utility.yul\":1917:2283   */\ntag_25:\n    /* \"#utility.yul\":2059:2062   */\n  0x00\n    /* \"#utility.yul\":2080:2147   */\n  tag_51\n    /* \"#utility.yul\":2144:2146   */\n  0x23\n    /* \"#utility.yul\":2139:2142   */\n  dup4\n    /* \"#utility.yul\":2080:2147   */\n  tag_23\n  jump\t// in\ntag_51:\n    /* \"#utility.yul\":2073:2147   */\n  swap2\n  pop\n    /* \"#utility.yul\":2156:2249   */\n  tag_52\n    /* \"#utility.yul\":2245:2248   */\n  dup3\n    /* \"#utility.yul\":2156:2249   */\n  tag_24\n  jump\t// in\ntag_52:\n    /* \"#utility.yul\":2274:2276   */\n  0x40\n    /* \"#utility.yul\":2269:2272   */\n  dup3\n    /* \"#utility.yul\":2265:2277   */\n  add\n    /* \"#utility.yul\":2258:2277   */\n  swap1\n  pop\n    /* \"#utility.yul\":1917:2283   */\n  swap2\n  swap1\n  pop\n  jump\t// out\n    /* \"#utility.yul\":2289:2708   */\ntag_8:\n    /* \"#utility.yul\":2455:2459   */\n  0x00\n    /* \"#utility.yul\":2493:2495   */\n  0x20\n    /* \"#utility.yul\":2482:2491   */\n  dup3\n    /* \"#utility.yul\":2478:2496   */\n  add\n    /* \"#utility.yul\":2470:2496   */\n  swap1\n  pop\n    /* \"#utility.yul\":2542:2551   */\n  dup2\n    /* \"#utility.yul\":2536:2540   */\n  dup2\n    /* \"#utility.yul\":2532:2552   */\n  sub\n    /* \"#utility.yul\":2528:2529   */\n  0x00\n    /* \"#utility.yul\":2517:2526   */\n  dup4\n    /* \"#utility.yul\":2513:2530   */\n  add\n    /* \"#utility.yul\":2506:2553   */\n  mstore\n    /* \"#utility.yul\":2570:2701   */\n  tag_54\n    /* \"#utility.yul\":2696:2700   */\n  dup2\n    /* \"#utility.yul\":2570:2701   */\n  tag_25\n  jump\t// in\ntag_54:\n    /* \"#utility.yul\":2562:2701   */\n  swap1\n  pop\n    /* \"#utility.yul\":2289:2708   */\n  swap2\n  swap1\n  pop\n  jump\t// out\n    /* \"#utility.yul\":2714:2937   */\ntag_26:\n    /* \"#utility.yul\":2854:2888   */\n  0x416363657373436f6e74726f6c3a207a65726f2070726f766964657252656769\n    /* \"#utility.yul\":2850:2851   */\n  0x00\n    /* \"#utility.yul\":2842:2848   */\n  dup3\n    /* \"#utility.yul\":2838:2852   */\n  add\n    /* \"#utility.yul\":2831:2889   */\n  mstore\n    /* \"#utility.yul\":2923:2929   */\n  0x7374727900000000000000000000000000000000000000000000000000000000\n    /* \"#utility.yul\":2918:2920   */\n  0x20\n    /* \"#utility.yul\":2910:2916   */\n  dup3\n    /* \"#utility.yul\":2906:2921   */\n  add\n    /* \"#utility.yul\":2899:2930   */\n  mstore\n    /* \"#utility.yul\":2714:2937   */\n  pop\n  jump\t// out\n    /* \"#utility.yul\":2943:3309   */\ntag_27:\n    /* \"#utility.yul\":3085:3088   */\n  0x00\n    /* \"#utility.yul\":3106:3173   */\n  tag_57\n    /* \"#utility.yul\":3170:3172   */\n  0x24\n    /* \"#utility.yul\":3165:3168   */\n  dup4\n    /* \"#utility.yul\":3106:3173   */\n  tag_23\n  jump\t// in\ntag_57:\n    /* \"#utility.yul\":3099:3173   */\n  swap2\n  pop\n    /* \"#utility.yul\":3182:3275   */\n  tag_58\n    /* \"#utility.yul\":3271:3274   */\n  dup3\n    /* \"#utility.yul\":3182:3275   */\n  tag_26\n  jump\t// in\ntag_58:\n    /* \"#utility.yul\":3300:3302   */\n  0x40\n    /* \"#utility.yul\":3295:3298   */\n  dup3\n    /* \"#utility.yul\":3291:3303   */\n  add\n    /* \"#utility.yul\":3284:3303   */\n  swap1\n  pop\n    /* \"#utility.yul\":2943:3309   */\n  swap2\n  swap1\n  pop\n  jump\t// out\n    /* \"#utility.yul\":3315:3734   */\ntag_11:\n    /* \"#utility.yul\":3481:3485   */\n  0x00\n    /* \"#utility.yul\":3519:3521   */\n  0x20\n    /* \"#utility.yul\":3508:3517   */\n  dup3\n    /* \"#utility.yul\":3504:3522   */\n  add\n    /* \"#utility.yul\":3496:3522   */\n  swap1\n  pop\n    /* \"#utility.yul\":3568:3577   */\n  dup2\n    /* \"#utility.yul\":3562:3566   */\n  dup2\n    /* \"#utility.yul\":3558:3578   */\n  sub\n    /* \"#utility.yul\":3554:3555   */\n  0x00\n    /* \"#utility.yul\":3543:3552   */\n  dup4\n    /* \"#utility.yul\":3539:3556   */\n  add\n    /* \"#utility.yul\":3532:3579   */\n  mstore\n    /* \"#utility.yul\":3596:3727   */\n  tag_60\n    /* \"#utility.yul\":3722:3726   */\n  dup2\n    /* \"#utility.yul\":3596:3727   */\n  tag_27\n  jump\t// in\ntag_60:\n    /* \"#utility.yul\":3588:3727   */\n  swap1\n  pop\n    /* \"#utility.yul\":3315:3734   */\n  swap2\n  swap1\n  pop\n  jump\t// out\n    /* \"#utility.yul\":3740:3918   */\ntag_28:\n    /* \"#utility.yul\":3880:3910   */\n  0x416363657373436f6e74726f6c3a207a65726f2061756469744c6f6700000000\n    /* \"#utility.yul\":3876:3877   */\n  0x00\n    /* \"#utility.yul\":3868:3874   */\n  dup3\n    /* \"#utility.yul\":3864:3878   */\n  add\n    /* \"#utility.yul\":3857:3911   */\n  mstore\n    /* \"#utility.yul\":3740:3918   */\n  pop\n  jump\t// out\n    /* \"#utility.yul\":3924:4290   */\ntag_29:\n    /* \"#utility.yul\":4066:4069   */\n  0x00\n    /* \"#utility.yul\":4087:4154   */\n  tag_63\n    /* \"#utility.yul\":4151:4153   */\n  0x1c\n    /* \"#utility.yul\":4146:4149   */\n  dup4\n    /* \"#utility.yul\":4087:4154   */\n  tag_23\n  jump\t// in\ntag_63:\n    /* \"#utility.yul\":4080:4154   */\n  swap2\n  pop\n    /* \"#utility.yul\":4163:4256   */\n  tag_64\n    /* \"#utility.yul\":4252:4255   */\n  dup3\n    /* \"#utility.yul\":4163:4256   */\n  tag_28\n  jump\t// in\ntag_64:\n    /* \"#utility.yul\":4281:4283   */\n  0x20\n    /* \"#utility.yul\":4276:4279   */\n  dup3\n    /* \"#utility.yul\":4272:4284   */\n  add\n    /* \"#utility.yul\":4265:4284   */\n  swap1\n  pop\n    /* \"#utility.yul\":3924:4290   */\n  swap2\n  swap1\n  pop\n  jump\t// out\n    /* \"#utility.yul\":4296:4715   */\ntag_14:\n    /* \"#utility.yul\":4462:4466   */\n  0x00\n    /* \"#utility.yul\":4500:4502   */\n  0x20\n    /* \"#utility.yul\":4489:4498   */\n  dup3\n    /* \"#utility.yul\":4485:4503   */\n  add\n    /* \"#utility.yul\":4477:4503   */\n  swap1\n  pop\n    /* \"#utility.yul\":4549:4558   */\n  dup2\n    /* \"#utility.yul\":4543:4547   */\n  dup2\n    /* \"#utility.yul\":4539:4559   */\n  sub\n    /* \"#utility.yul\":4535:4536   */\n  0x00\n    /* \"#utility.yul\":4524:4533   */\n  dup4\n    /* \"#utility.yul\":4520:4537   */\n  add\n    /* \"#utility.yul\":4513:4560   */\n  mstore\n    /* \"#utility.yul\":4577:4708   */\n  tag_66\n    /* \"#utility.yul\":4703:4707   */\n  dup2\n    /* \"#utility.yul\":4577:4708   */\n  tag_29\n  jump\t// in\ntag_66:\n    /* \"#utility.yul\":4569:4708   */\n  swap1\n  pop\n    /* \"#utility.yul\":4296:4715   */\n  swap2\n  swap1\n  pop\n  jump\t// out\n    /* \"contracts/AccessControl.sol\":392:1471  contract AccessControl {... */\ntag_15:\n  dataSize(sub_0)\n  dup1\n  dataOffset(sub_0)\n  0x00\n  codecopy\n  0x00\n  return\nstop\n\nsub_0: assembly {\n        /* \"contracts/AccessControl.sol\":392:1471  contract AccessControl {... */\n      mstore(0x40, 0x80)\n      callvalue\n      dup1\n      iszero\n      tag_1\n      jumpi\n      revert(0x00, 0x00)\n    tag_1:\n      pop\n      jumpi(tag_2, lt(calldatasize, 0x04))\n      shr(0xe0, calldataload(0x00))\n      dup1\n      0x5250c6e2\n      eq\n      tag_3\n      jumpi\n      dup1\n      0x545921d9\n      eq\n      tag_4\n      jumpi\n      dup1\n      0x5a2d6ebd\n      eq\n      tag_5\n      jumpi\n    tag_2:\n      revert(0x00, 0x00)\n        /* \"contracts/AccessControl.sol\":422:462  IPatientRegistry  public patientRegistry */\n    tag_3:\n      tag_6\n      tag_7\n      jump\t// in\n    tag_6:\n      mload(0x40)\n      tag_8\n      swap2\n      swap1\n      tag_9\n      jump\t// in\n    tag_8:\n      mload(0x40)\n      dup1\n      swap2\n      sub\n      swap1\n      return\n        /* \"contracts/AccessControl.sol\":469:510  IProviderRegistry public providerRegistry */\n    tag_4:\n      tag_10\n      tag_11\n      jump\t// in\n    tag_10:\n      mload(0x40)\n      tag_12\n      swap2\n      swap1\n      tag_13\n      jump\t// in\n    tag_12:\n      mload(0x40)\n      dup1\n      swap2\n      sub\n      swap1\n      return\n        /* \"contracts/AccessControl.sol\":517:550  IAuditLog         public auditLog */\n    tag_5:\n      tag_14\n      tag_15\n      jump\t// in\n    tag_14:\n      mload(0x40)\n      tag_16\n      swap2\n      swap1\n      tag_17\n      jump\t// in\n    tag_16:\n      mload(0x40)\n      dup1\n      swap2\n      sub\n      swap1\n      return\n        /* \"contracts/AccessControl.sol\":422:462  IPatientRegistry  public patientRegistry */\n    tag_7:\n      0x00\n      0x00\n      swap1\n      sload\n      swap1\n      0x0100\n      exp\n      swap1\n      div\n      0xffffffffffffffffffffffffffffffffffffffff\n      and\n      dup2\n      jump\t// out\n        /* \"contracts/AccessControl.sol\":469:510  IProviderRegistry public providerRegistry */\n    tag_11:\n      0x01\n      0x00\n      swap1\n      sload\n      swap1\n      0x0100\n      exp\n      swap1\n      div\n      0xffffffffffffffffffffffffffffffffffffffff\n      and\n      dup2\n      jump\t// out\n        /* \"contracts/AccessControl.sol\":517:550  IAuditLog         public auditLog */\n    tag_15:\n      0x02\n      0x00\n      swap1\n      sload\n      swap1\n      0x0100\n      exp\n      swap1\n      div\n      0xffffffffffffffffffffffffffffffffffffffff\n      and\n      dup2\n      jump\t// out\n        /* \"#utility.yul\":7:133   */\n    tag_18:\n        /* \"#utility.yul\":44:51   */\n      0x00\n        /* \"#utility.yul\":84:126   */\n      0xffffffffffffffffffffffffffffffffffffffff\n        /* \"#utility.yul\":77:82   */\n      dup3\n        /* \"#utility.yul\":73:127   */\n      and\n        /* \"#utility.yul\":62:127   */\n      swap1\n      pop\n        /* \"#utility.yul\":7:133   */\n      swap2\n      swap1\n      pop\n      jump\t// out\n        /* \"#utility.yul\":139:199   */\n    tag_19:\n        /* \"#utility.yul\":167:170   */\n      0x00\n        /* \"#utility.yul\":188:193   */\n      dup2\n        /* \"#utility.yul\":181:193   */\n      swap1\n      pop\n        /* \"#utility.yul\":139:199   */\n      swap2\n      swap1\n      pop\n      jump\t// out\n        /* \"#utility.yul\":205:347   */\n    tag_20:\n        /* \"#utility.yul\":255:264   */\n      0x00\n        /* \"#utility.yul\":288:341   */\n      tag_32\n        /* \"#utility.yul\":306:340   */\n      tag_33\n        /* \"#utility.yul\":315:339   */\n      tag_34\n        /* \"#utility.yul\":333:338   */\n      dup5\n        /* \"#utility.yul\":315:339   */\n      tag_18\n      jump\t// in\n    tag_34:\n        /* \"#utility.yul\":306:340   */\n      tag_19\n      jump\t// in\n    tag_33:\n        /* \"#utility.yul\":288:341   */\n      tag_18\n      jump\t// in\n    tag_32:\n        /* \"#utility.yul\":275:341   */\n      swap1\n      pop\n        /* \"#utility.yul\":205:347   */\n      swap2\n      swap1\n      pop\n      jump\t// out\n        /* \"#utility.yul\":353:479   */\n    tag_21:\n        /* \"#utility.yul\":403:412   */\n      0x00\n        /* \"#utility.yul\":436:473   */\n      tag_36\n        /* \"#utility.yul\":467:472   */\n      dup3\n        /* \"#utility.yul\":436:473   */\n      tag_20\n      jump\t// in\n    tag_36:\n        /* \"#utility.yul\":423:473   */\n      swap1\n      pop\n        /* \"#utility.yul\":353:479   */\n      swap2\n      swap1\n      pop\n      jump\t// out\n        /* \"#utility.yul\":485:633   */\n    tag_22:\n        /* \"#utility.yul\":557:566   */\n      0x00\n        /* \"#utility.yul\":590:627   */\n      tag_38\n        /* \"#utility.yul\":621:626   */\n      dup3\n        /* \"#utility.yul\":590:627   */\n      tag_21\n      jump\t// in\n    tag_38:\n        /* \"#utility.yul\":577:627   */\n      swap1\n      pop\n        /* \"#utility.yul\":485:633   */\n      swap2\n      swap1\n      pop\n      jump\t// out\n        /* \"#utility.yul\":639:814   */\n    tag_23:\n        /* \"#utility.yul\":748:807   */\n      tag_40\n        /* \"#utility.yul\":801:806   */\n      dup2\n        /* \"#utility.yul\":748:807   */\n      tag_22\n      jump\t// in\n    tag_40:\n        /* \"#utility.yul\":743:746   */\n      dup3\n        /* \"#utility.yul\":736:808   */\n      mstore\n        /* \"#utility.yul\":639:814   */\n      pop\n      pop\n      jump\t// out\n        /* \"#utility.yul\":820:1086   */\n    tag_9:\n        /* \"#utility.yul\":935:939   */\n      0x00\n        /* \"#utility.yul\":973:975   */\n      0x20\n        /* \"#utility.yul\":962:971   */\n      dup3\n        /* \"#utility.yul\":958:976   */\n      add\n        /* \"#utility.yul\":950:976   */\n      swap1\n      pop\n        /* \"#utility.yul\":986:1079   */\n      tag_42\n        /* \"#utility.yul\":1076:1077   */\n      0x00\n        /* \"#utility.yul\":1065:1074   */\n      dup4\n        /* \"#utility.yul\":1061:1078   */\n      add\n        /* \"#utility.yul\":1052:1058   */\n      dup5\n        /* \"#utility.yul\":986:1079   */\n      tag_23\n      jump\t// in\n    tag_42:\n        /* \"#utility.yul\":820:1086   */\n      swap3\n      swap2\n      pop\n      pop\n      jump\t// out\n        /* \"#utility.yul\":1092:1242   */\n    tag_24:\n        /* \"#utility.yul\":1166:1175   */\n      0x00\n        /* \"#utility.yul\":1199:1236   */\n      tag_44\n        /* \"#utility.yul\":1230:1235   */\n      dup3\n        /* \"#utility.yul\":1199:1236   */\n      tag_21\n      jump\t// in\n    tag_44:\n        /* \"#utility.yul\":1186:1236   */\n      swap1\n      pop\n        /* \"#utility.yul\":1092:1242   */\n      swap2\n      swap1\n      pop\n      jump\t// out\n        /* \"#utility.yul\":1248:1427   */\n    tag_25:\n        /* \"#utility.yul\":1359:1420   */\n      tag_46\n        /* \"#utility.yul\":1414:1419   */\n      dup2\n        /* \"#utility.yul\":1359:1420   */\n      tag_24\n      jump\t// in\n    tag_46:\n        /* \"#utility.yul\":1354:1357   */\n      dup3\n        /* \"#utility.yul\":1347:1421   */\n      mstore\n        /* \"#utility.yul\":1248:1427   */\n      pop\n      pop\n      jump\t// out\n        /* \"#utility.yul\":1433:1703   */\n    tag_13:\n        /* \"#utility.yul\":1550:1554   */\n      0x00\n        /* \"#utility.yul\":1588:1590   */\n      0x20\n        /* \"#utility.yul\":1577:1586   */\n      dup3\n        /* \"#utility.yul\":1573:1591   */\n      add\n        /* \"#utility.yul\":1565:1591   */\n      swap1\n      pop\n        /* \"#utility.yul\":1601:1696   */\n      tag_48\n        /* \"#utility.yul\":1693:1694   */\n      0x00\n        /* \"#utility.yul\":1682:1691   */\n      dup4\n        /* \"#utility.yul\":1678:1695   */\n      add\n        /* \"#utility.yul\":1669:1675   */\n      dup5\n        /* \"#utility.yul\":1601:1696   */\n      tag_25\n      jump\t// in\n    tag_48:\n        /* \"#utility.yul\":1433:1703   */\n      swap3\n      swap2\n      pop\n      pop\n      jump\t// out\n        /* \"#utility.yul\":1709:1851   */\n    tag_26:\n        /* \"#utility.yul\":1775:1784   */\n      0x00\n        /* \"#utility.yul\":1808:1845   */\n      tag_50\n        /* \"#utility.yul\":1839:1844   */\n      dup3\n        /* \"#utility.yul\":1808:1845   */\n      tag_21\n      jump\t// in\n    tag_50:\n        /* \"#utility.yul\":1795:1845   */\n      swap1\n      pop\n        /* \"#utility.yul\":1709:1851   */\n      swap2\n      swap1\n      pop\n      jump\t// out\n        /* \"#utility.yul\":1857:2020   */\n    tag_27:\n        /* \"#utility.yul\":1960:2013   */\n      tag_52\n        /* \"#utility.yul\":2007:2012   */\n      dup2\n        /* \"#utility.yul\":1960:2013   */\n      tag_26\n      jump\t// in\n    tag_52:\n        /* \"#utility.yul\":1955:1958   */\n      dup3\n        /* \"#utility.yul\":1948:2014   */\n      mstore\n        /* \"#utility.yul\":1857:2020   */\n      pop\n      pop\n      jump\t// out\n        /* \"#utility.yul\":2026:2280   */\n    tag_17:\n        /* \"#utility.yul\":2135:2139   */\n      0x00\n        /* \"#utility.yul\":2173:2175   */\n      0x20\n        /* \"#utility.yul\":2162:2171   */\n      dup3\n        /* \"#utility.yul\":2158:2176   */\n      add\n        /* \"#utility.yul\":2150:2176   */\n      swap1\n      pop\n        /* \"#utility.yul\":2186:2273   */\n      tag_54\n        /* \"#utility.yul\":2270:2271   */\n      0x00\n        /* \"#utility.yul\":2259:2268   */\n      dup4\n        /* \"#utility.yul\":2255:2272   */\n      add\n        /* \"#utility.yul\":2246:2252   */\n      dup5\n        /* \"#utility.yul\":2186:2273   */\n      tag_27\n      jump\t// in\n    tag_54:\n        /* \"#utility.yul\":2026:2280   */\n      swap3\n      swap2\n      pop\n      pop\n      jump\t// out\n\n    auxdata: 0xa2646970667358221220f75a97160dff9fbc15497992a30a9a99370a1483916e6edf429e79574069ea8264736f6c634300081e0033\n}\n",
				"bytecode": {
					"linkReferences": {},
					"object": "608060405234801561000f575f5ffd5b506040516106d73803806106d7833981810160405281019061003191906102a0565b5f73ffffffffffffffffffffffffffffffffffffffff168373ffffffffffffffffffffffffffffffffffffffff160361009f576040517f08c379a000000000000000000000000000000000000000000000000000000000815260040161009690610370565b60405180910390fd5b5f73ffffffffffffffffffffffffffffffffffffffff168273ffffffffffffffffffffffffffffffffffffffff160361010d576040517f08c379a0000000000000000000000000000000000000000000000000000000008152600401610104906103fe565b60405180910390fd5b5f73ffffffffffffffffffffffffffffffffffffffff168173ffffffffffffffffffffffffffffffffffffffff160361017b576040517f08c379a000000000000000000000000000000000000000000000000000000000815260040161017290610466565b60405180910390fd5b825f5f6101000a81548173ffffffffffffffffffffffffffffffffffffffff021916908373ffffffffffffffffffffffffffffffffffffffff1602179055508160015f6101000a81548173ffffffffffffffffffffffffffffffffffffffff021916908373ffffffffffffffffffffffffffffffffffffffff1602179055508060025f6101000a81548173ffffffffffffffffffffffffffffffffffffffff021916908373ffffffffffffffffffffffffffffffffffffffff160217905550505050610484565b5f5ffd5b5f73ffffffffffffffffffffffffffffffffffffffff82169050919050565b5f61026f82610246565b9050919050565b61027f81610265565b8114610289575f5ffd5b50565b5f8151905061029a81610276565b92915050565b5f5f5f606084860312156102b7576102b6610242565b5b5f6102c48682870161028c565b93505060206102d58682870161028c565b92505060406102e68682870161028c565b9150509250925092565b5f82825260208201905092915050565b7f416363657373436f6e74726f6c3a207a65726f2070617469656e7452656769735f8201527f7472790000000000000000000000000000000000000000000000000000000000602082015250565b5f61035a6023836102f0565b915061036582610300565b604082019050919050565b5f6020820190508181035f8301526103878161034e565b9050919050565b7f416363657373436f6e74726f6c3a207a65726f2070726f7669646572526567695f8201527f7374727900000000000000000000000000000000000000000000000000000000602082015250565b5f6103e86024836102f0565b91506103f38261038e565b604082019050919050565b5f6020820190508181035f830152610415816103dc565b9050919050565b7f416363657373436f6e74726f6c3a207a65726f2061756469744c6f67000000005f82015250565b5f610450601c836102f0565b915061045b8261041c565b602082019050919050565b5f6020820190508181035f83015261047d81610444565b9050919050565b610246806104915f395ff3fe608060405234801561000f575f5ffd5b506004361061003f575f3560e01c80635250c6e214610043578063545921d9146100615780635a2d6ebd1461007f575b5f5ffd5b61004b61009d565b6040516100589190610185565b60405180910390f35b6100696100c1565b60405161007691906101be565b60405180910390f35b6100876100e6565b60405161009491906101f7565b60405180910390f35b5f5f9054906101000a900473ffffffffffffffffffffffffffffffffffffffff1681565b60015f9054906101000a900473ffffffffffffffffffffffffffffffffffffffff1681565b60025f9054906101000a900473ffffffffffffffffffffffffffffffffffffffff1681565b5f73ffffffffffffffffffffffffffffffffffffffff82169050919050565b5f819050919050565b5f61014d6101486101438461010b565b61012a565b61010b565b9050919050565b5f61015e82610133565b9050919050565b5f61016f82610154565b9050919050565b61017f81610165565b82525050565b5f6020820190506101985f830184610176565b92915050565b5f6101a882610154565b9050919050565b6101b88161019e565b82525050565b5f6020820190506101d15f8301846101af565b92915050565b5f6101e182610154565b9050919050565b6101f1816101d7565b82525050565b5f60208201905061020a5f8301846101e8565b9291505056fea2646970667358221220f75a97160dff9fbc15497992a30a9a99370a1483916e6edf429e79574069ea8264736f6c634300081e0033",
					"opcodes": "PUSH1 0x80 PUSH1 0x40 MSTORE CALLVALUE DUP1 ISZERO PUSH2 0xF JUMPI PUSH0 PUSH0 REVERT JUMPDEST POP PUSH1 0x40 MLOAD PUSH2 0x6D7 CODESIZE SUB DUP1 PUSH2 0x6D7 DUP4 CODECOPY DUP2 DUP2 ADD PUSH1 0x40 MSTORE DUP2 ADD SWAP1 PUSH2 0x31 SWAP2 SWAP1 PUSH2 0x2A0 JUMP JUMPDEST PUSH0 PUSH20 0xFFFFFFFFFFFFFFFFFFFFFFFFFFFFFFFFFFFFFFFF AND DUP4 PUSH20 0xFFFFFFFFFFFFFFFFFFFFFFFFFFFFFFFFFFFFFFFF AND SUB PUSH2 0x9F JUMPI PUSH1 0x40 MLOAD PUSH32 0x8C379A000000000000000000000000000000000000000000000000000000000 DUP2 MSTORE PUSH1 0x4 ADD PUSH2 0x96 SWAP1 PUSH2 0x370 JUMP JUMPDEST PUSH1 0x40 MLOAD DUP1 SWAP2 SUB SWAP1 REVERT JUMPDEST PUSH0 PUSH20 0xFFFFFFFFFFFFFFFFFFFFFFFFFFFFFFFFFFFFFFFF AND DUP3 PUSH20 0xFFFFFFFFFFFFFFFFFFFFFFFFFFFFFFFFFFFFFFFF AND SUB PUSH2 0x10D JUMPI PUSH1 0x40 MLOAD PUSH32 0x8C379A000000000000000000000000000000000000000000000000000000000 DUP2 MSTORE PUSH1 0x4 ADD PUSH2 0x104 SWAP1 PUSH2 0x3FE JUMP JUMPDEST PUSH1 0x40 MLOAD DUP1 SWAP2 SUB SWAP1 REVERT JUMPDEST PUSH0 PUSH20 0xFFFFFFFFFFFFFFFFFFFFFFFFFFFFFFFFFFFFFFFF AND DUP2 PUSH20 0xFFFFFFFFFFFFFFFFFFFFFFFFFFFFFFFFFFFFFFFF AND SUB PUSH2 0x17B JUMPI PUSH1 0x40 MLOAD PUSH32 0x8C379A000000000000000000000000000000000000000000000000000000000 DUP2 MSTORE PUSH1 0x4 ADD PUSH2 0x172 SWAP1 PUSH2 0x466 JUMP JUMPDEST PUSH1 0x40 MLOAD DUP1 SWAP2 SUB SWAP1 REVERT JUMPDEST DUP3 PUSH0 PUSH0 PUSH2 0x100 EXP DUP2 SLOAD DUP2 PUSH20 0xFFFFFFFFFFFFFFFFFFFFFFFFFFFFFFFFFFFFFFFF MUL NOT AND SWAP1 DUP4 PUSH20 0xFFFFFFFFFFFFFFFFFFFFFFFFFFFFFFFFFFFFFFFF AND MUL OR SWAP1 SSTORE POP DUP2 PUSH1 0x1 PUSH0 PUSH2 0x100 EXP DUP2 SLOAD DUP2 PUSH20 0xFFFFFFFFFFFFFFFFFFFFFFFFFFFFFFFFFFFFFFFF MUL NOT AND SWAP1 DUP4 PUSH20 0xFFFFFFFFFFFFFFFFFFFFFFFFFFFFFFFFFFFFFFFF AND MUL OR SWAP1 SSTORE POP DUP1 PUSH1 0x2 PUSH0 PUSH2 0x100 EXP DUP2 SLOAD DUP2 PUSH20 0xFFFFFFFFFFFFFFFFFFFFFFFFFFFFFFFFFFFFFFFF MUL NOT AND SWAP1 DUP4 PUSH20 0xFFFFFFFFFFFFFFFFFFFFFFFFFFFFFFFFFFFFFFFF AND MUL OR SWAP1 SSTORE POP POP POP POP PUSH2 0x484 JUMP JUMPDEST PUSH0 PUSH0 REVERT JUMPDEST PUSH0 PUSH20 0xFFFFFFFFFFFFFFFFFFFFFFFFFFFFFFFFFFFFFFFF DUP3 AND SWAP1 POP SWAP2 SWAP1 POP JUMP JUMPDEST PUSH0 PUSH2 0x26F DUP3 PUSH2 0x246 JUMP JUMPDEST SWAP1 POP SWAP2 SWAP1 POP JUMP JUMPDEST PUSH2 0x27F DUP2 PUSH2 0x265 JUMP JUMPDEST DUP2 EQ PUSH2 0x289 JUMPI PUSH0 PUSH0 REVERT JUMPDEST POP JUMP JUMPDEST PUSH0 DUP2 MLOAD SWAP1 POP PUSH2 0x29A DUP2 PUSH2 0x276 JUMP JUMPDEST SWAP3 SWAP2 POP POP JUMP JUMPDEST PUSH0 PUSH0 PUSH0 PUSH1 0x60 DUP5 DUP7 SUB SLT ISZERO PUSH2 0x2B7 JUMPI PUSH2 0x2B6 PUSH2 0x242 JUMP JUMPDEST JUMPDEST PUSH0 PUSH2 0x2C4 DUP7 DUP3 DUP8 ADD PUSH2 0x28C JUMP JUMPDEST SWAP4 POP POP PUSH1 0x20 PUSH2 0x2D5 DUP7 DUP3 DUP8 ADD PUSH2 0x28C JUMP JUMPDEST SWAP3 POP POP PUSH1 0x40 PUSH2 0x2E6 DUP7 DUP3 DUP8 ADD PUSH2 0x28C JUMP JUMPDEST SWAP2 POP POP SWAP3 POP SWAP3 POP SWAP3 JUMP JUMPDEST PUSH0 DUP3 DUP3 MSTORE PUSH1 0x20 DUP3 ADD SWAP1 POP SWAP3 SWAP2 POP POP JUMP JUMPDEST PUSH32 0x416363657373436F6E74726F6C3A207A65726F2070617469656E745265676973 PUSH0 DUP3 ADD MSTORE PUSH32 0x7472790000000000000000000000000000000000000000000000000000000000 PUSH1 0x20 DUP3 ADD MSTORE POP JUMP JUMPDEST PUSH0 PUSH2 0x35A PUSH1 0x23 DUP4 PUSH2 0x2F0 JUMP JUMPDEST SWAP2 POP PUSH2 0x365 DUP3 PUSH2 0x300 JUMP JUMPDEST PUSH1 0x40 DUP3 ADD SWAP1 POP SWAP2 SWAP1 POP JUMP JUMPDEST PUSH0 PUSH1 0x20 DUP3 ADD SWAP1 POP DUP2 DUP2 SUB PUSH0 DUP4 ADD MSTORE PUSH2 0x387 DUP2 PUSH2 0x34E JUMP JUMPDEST SWAP1 POP SWAP2 SWAP1 POP JUMP JUMPDEST PUSH32 0x416363657373436F6E74726F6C3A207A65726F2070726F766964657252656769 PUSH0 DUP3 ADD MSTORE PUSH32 0x7374727900000000000000000000000000000000000000000000000000000000 PUSH1 0x20 DUP3 ADD MSTORE POP JUMP JUMPDEST PUSH0 PUSH2 0x3E8 PUSH1 0x24 DUP4 PUSH2 0x2F0 JUMP JUMPDEST SWAP2 POP PUSH2 0x3F3 DUP3 PUSH2 0x38E JUMP JUMPDEST PUSH1 0x40 DUP3 ADD SWAP1 POP SWAP2 SWAP1 POP JUMP JUMPDEST PUSH0 PUSH1 0x20 DUP3 ADD SWAP1 POP DUP2 DUP2 SUB PUSH0 DUP4 ADD MSTORE PUSH2 0x415 DUP2 PUSH2 0x3DC JUMP JUMPDEST SWAP1 POP SWAP2 SWAP1 POP JUMP JUMPDEST PUSH32 0x416363657373436F6E74726F6C3A207A65726F2061756469744C6F6700000000 PUSH0 DUP3 ADD MSTORE POP JUMP JUMPDEST PUSH0 PUSH2 0x450 PUSH1 0x1C DUP4 PUSH2 0x2F0 JUMP JUMPDEST SWAP2 POP PUSH2 0x45B DUP3 PUSH2 0x41C JUMP JUMPDEST PUSH1 0x20 DUP3 ADD SWAP1 POP SWAP2 SWAP1 POP JUMP JUMPDEST PUSH0 PUSH1 0x20 DUP3 ADD SWAP1 POP DUP2 DUP2 SUB PUSH0 DUP4 ADD MSTORE PUSH2 0x47D DUP2 PUSH2 0x444 JUMP JUMPDEST SWAP1 POP SWAP2 SWAP1 POP JUMP JUMPDEST PUSH2 0x246 DUP1 PUSH2 0x491 PUSH0 CODECOPY PUSH0 RETURN INVALID PUSH1 0x80 PUSH1 0x40 MSTORE CALLVALUE DUP1 ISZERO PUSH2 0xF JUMPI PUSH0 PUSH0 REVERT JUMPDEST POP PUSH1 0x4 CALLDATASIZE LT PUSH2 0x3F JUMPI PUSH0 CALLDATALOAD PUSH1 0xE0 SHR DUP1 PUSH4 0x5250C6E2 EQ PUSH2 0x43 JUMPI DUP1 PUSH4 0x545921D9 EQ PUSH2 0x61 JUMPI DUP1 PUSH4 0x5A2D6EBD EQ PUSH2 0x7F JUMPI JUMPDEST PUSH0 PUSH0 REVERT JUMPDEST PUSH2 0x4B PUSH2 0x9D JUMP JUMPDEST PUSH1 0x40 MLOAD PUSH2 0x58 SWAP2 SWAP1 PUSH2 0x185 JUMP JUMPDEST PUSH1 0x40 MLOAD DUP1 SWAP2 SUB SWAP1 RETURN JUMPDEST PUSH2 0x69 PUSH2 0xC1 JUMP JUMPDEST PUSH1 0x40 MLOAD PUSH2 0x76 SWAP2 SWAP1 PUSH2 0x1BE JUMP JUMPDEST PUSH1 0x40 MLOAD DUP1 SWAP2 SUB SWAP1 RETURN JUMPDEST PUSH2 0x87 PUSH2 0xE6 JUMP JUMPDEST PUSH1 0x40 MLOAD PUSH2 0x94 SWAP2 SWAP1 PUSH2 0x1F7 JUMP JUMPDEST PUSH1 0x40 MLOAD DUP1 SWAP2 SUB SWAP1 RETURN JUMPDEST PUSH0 PUSH0 SWAP1 SLOAD SWAP1 PUSH2 0x100 EXP SWAP1 DIV PUSH20 0xFFFFFFFFFFFFFFFFFFFFFFFFFFFFFFFFFFFFFFFF AND DUP2 JUMP JUMPDEST PUSH1 0x1 PUSH0 SWAP1 SLOAD SWAP1 PUSH2 0x100 EXP SWAP1 DIV PUSH20 0xFFFFFFFFFFFFFFFFFFFFFFFFFFFFFFFFFFFFFFFF AND DUP2 JUMP JUMPDEST PUSH1 0x2 PUSH0 SWAP1 SLOAD SWAP1 PUSH2 0x100 EXP SWAP1 DIV PUSH20 0xFFFFFFFFFFFFFFFFFFFFFFFFFFFFFFFFFFFFFFFF AND DUP2 JUMP JUMPDEST PUSH0 PUSH20 0xFFFFFFFFFFFFFFFFFFFFFFFFFFFFFFFFFFFFFFFF DUP3 AND SWAP1 POP SWAP2 SWAP1 POP JUMP JUMPDEST PUSH0 DUP2 SWAP1 POP SWAP2 SWAP1 POP JUMP JUMPDEST PUSH0 PUSH2 0x14D PUSH2 0x148 PUSH2 0x143 DUP5 PUSH2 0x10B JUMP JUMPDEST PUSH2 0x12A JUMP JUMPDEST PUSH2 0x10B JUMP JUMPDEST SWAP1 POP SWAP2 SWAP1 POP JUMP JUMPDEST PUSH0 PUSH2 0x15E DUP3 PUSH2 0x133 JUMP JUMPDEST SWAP1 POP SWAP2 SWAP1 POP JUMP JUMPDEST PUSH0 PUSH2 0x16F DUP3 PUSH2 0x154 JUMP JUMPDEST SWAP1 POP SWAP2 SWAP1 POP JUMP JUMPDEST PUSH2 0x17F DUP2 PUSH2 0x165 JUMP JUMPDEST DUP3 MSTORE POP POP JUMP JUMPDEST PUSH0 PUSH1 0x20 DUP3 ADD SWAP1 POP PUSH2 0x198 PUSH0 DUP4 ADD DUP5 PUSH2 0x176 JUMP JUMPDEST SWAP3 SWAP2 POP POP JUMP JUMPDEST PUSH0 PUSH2 0x1A8 DUP3 PUSH2 0x154 JUMP JUMPDEST SWAP1 POP SWAP2 SWAP1 POP JUMP JUMPDEST PUSH2 0x1B8 DUP2 PUSH2 0x19E JUMP JUMPDEST DUP3 MSTORE POP POP JUMP JUMPDEST PUSH0 PUSH1 0x20 DUP3 ADD SWAP1 POP PUSH2 0x1D1 PUSH0 DUP4 ADD DUP5 PUSH2 0x1AF JUMP JUMPDEST SWAP3 SWAP2 POP POP JUMP JUMPDEST PUSH0 PUSH2 0x1E1 DUP3 PUSH2 0x154 JUMP JUMPDEST SWAP1 POP SWAP2 SWAP1 POP JUMP JUMPDEST PUSH2 0x1F1 DUP2 PUSH2 0x1D7 JUMP JUMPDEST DUP3 MSTORE POP POP JUMP JUMPDEST PUSH0 PUSH1 0x20 DUP3 ADD SWAP1 POP PUSH2 0x20A PUSH0 DUP4 ADD DUP5 PUSH2 0x1E8 JUMP JUMPDEST SWAP3 SWAP2 POP POP JUMP INVALID LOG2 PUSH5 0x6970667358 0x22 SLT KECCAK256 0xF7 GAS SWAP8 AND 0xD SELFDESTRUCT SWAP16 0xBC ISZERO BLOBHASH PUSH26 0x92A30A9A99370A1483916E6EDF429E79574069EA8264736F6C63 NUMBER STOP ADDMOD 0x1E STOP CALLER "
				},
				"gasEstimates": {
					"creation": {
						"codeDepositCost": "116400",
						"executionCost": "infinite",
						"totalCost": "infinite"
					},
					"external": {
						"auditLog()": "infinite",
						"patientRegistry()": "infinite",
						"providerRegistry()": "infinite"
					}
				},
				"methodIdentifiers": {
					"auditLog()": "5a2d6ebd",
					"patientRegistry()": "5250c6e2",
					"providerRegistry()": "545921d9"
				}
			},
			"storageLayout": {
				"storage": [
					{
						"astId": 30,
						"contract": "contracts/AccessControl.sol:AccessControl",
						"label": "patientRegistry",
						"offset": 0,
						"slot": "0",
						"type": "t_contract(IPatientRegistry)9"
					},
					{
						"astId": 33,
						"contract": "contracts/AccessControl.sol:AccessControl",
						"label": "providerRegistry",
						"offset": 0,
						"slot": "1",
						"type": "t_contract(IProviderRegistry)17"
					},
					{
						"astId": 36,
						"contract": "contracts/AccessControl.sol:AccessControl",
						"label": "auditLog",
						"offset": 0,
						"slot": "2",
						"type": "t_contract(IAuditLog)27"
					},
					{
						"astId": 42,
						"contract": "contracts/AccessControl.sol:AccessControl",
						"label": "permissions",
						"offset": 0,
						"slot": "3",
						"type": "t_mapping(t_address,t_mapping(t_address,t_bool))"
					}
				],
				"types": {
					"t_address": {
						"encoding": "inplace",
						"label": "address",
						"numberOfBytes": "20"
					},
					"t_bool": {
						"encoding": "inplace",
						"label": "bool",
						"numberOfBytes": "1"
					},
					"t_contract(IAuditLog)27": {
						"encoding": "inplace",
						"label": "contract IAuditLog",
						"numberOfBytes": "20"
					},
					"t_contract(IPatientRegistry)9": {
						"encoding": "inplace",
						"label": "contract IPatientRegistry",
						"numberOfBytes": "20"
					},
					"t_contract(IProviderRegistry)17": {
						"encoding": "inplace",
						"label": "contract IProviderRegistry",
						"numberOfBytes": "20"
					},
					"t_mapping(t_address,t_bool)": {
						"encoding": "mapping",
						"key": "t_address",
						"label": "mapping(address => bool)",
						"numberOfBytes": "32",
						"value": "t_bool"
					},
					"t_mapping(t_address,t_mapping(t_address,t_bool))": {
						"encoding": "mapping",
						"key": "t_address",
						"label": "mapping(address => mapping(address => bool))",
						"numberOfBytes": "32",
						"value": "t_mapping(t_address,t_bool)"
					}
				}
			},
			"userdoc": {
				"kind": "user",
				"methods": {},
				"version": 1
			}
		}
	}
}